:100000000C9487000C94AF000C94AF000C94AF00DC
:100010000C94AF000C94AF000C94AF000C94AF00A4
:100020000C94AF000C94AF000C94AF000C94FA0D3C
:100030000C94AF000C94AF000C94AF000C94AF0084
:100040000C94580D0C94AF000C94C80D0C94A20D98
:100050000C94AF000C94AF000C94AF000C94AF0064
:100060000C94AF000C94AF00CDCCCC3D0AD7233C10
:1000700017B7D13877CC2B329595E6241FB14F0AAC
:100080000000803FCDCCCC3D6F12833A95BFD63374
:100090007D1D9026B3CE010C000020410000C84217
:1000A00000401C4620BCBE4CCA1B0E5AAEC59D74F7
:1000B00000000000240027002A00000000002500A6
:1000C00028002B0000000000230026002900040463
:1000D00004040404040402020202020203030303F0
:1000E00003030102040810204080010204081020CC
:1000F00001020408102000000008000201000003B3
:1001000004070000000000000000BE0EB60E11241F
:100110001FBECFEFD8E0DEBFCDBF12E0A0E0B1E060
:10012000EAE3FAE302C005900D92AE39B107D9F7C0
:1001300024E0AEE9B2E001C01D92A034B207E1F7BD
:1001400010E0C6E8D0E004C02197FE010E94B0177D
:10015000C538D107C9F70E94BC0F0C94101D0C9430
:100160000000833081F028F4813099F08230A9F0CA
:1001700008958730A9F08830C9F08430B1F48091B7
:1001800080008F7D03C0809180008F7780938000F6
:10019000089584B58F7784BD089584B58F7DFBCF96
:1001A0008091B0008F778093B00008958091B00067
:1001B0008F7DF9CFCF93DF93282F30E0F901EA50FC
:1001C000FF4F8491F901EE51FF4FD491F901E253B1
:1001D000FF4FC491CC23A1F081110E94B100EC2FFC
:1001E000F0E0EE0FFF1FEC53FF4FA591B491EC919F
:1001F000ED2381E090E009F480E0DF91CF91089554
:1002000080E090E0FACF1F93CF93DF93282F30E068
:10021000F901EA50FF4F8491F901EE51FF4FD4915B
:10022000F901E253FF4FC491CC23A9F0162F81119D
:100230000E94B100EC2FF0E0EE0FFF1FE654FF4FDD
:10024000A591B4918FB7F894EC91111108C0D09595
:10025000DE23DC938FBFDF91CF911F910895DE2BBA
:10026000F8CFCF93DF9390E0FC01EE51FF4F249144
:1002700082539F4FFC0184918823C9F090E0880F3E
:10028000991FFC01E055FF4FA591B491FC01E65484
:10029000FF4FC591D49161110DC09FB7F8948C9117
:1002A000209582238C938881282328839FBFDF9108
:1002B000CF910895623051F49FB7F8943C91822F0A
:1002C000809583238C93E8812E2BEFCF8FB7F89402
:1002D000EC912E2B2C938FBFEACF1F93CF93DF93FC
:1002E000182FEB0161E00E943101209739F460E0A2
:1002F000812FDF91CF911F910C940301CF3FD10546
:1003000011F461E0F5CFE12FF0E0EA50FF4FE49106
:10031000E33031F140F4E130B1F0E230E1F0C038E7
:10032000D1057CF7E4CFE73029F1E83059F1E4302A
:10033000B1F780918000806280938000D0938B0021
:10034000C0938A0004C084B5806884BDC7BDDF91B6
:10035000CF911F91089584B5806284BDC8BDF7CF49
:1003600080918000806880938000D0938900C09342
:100370008800EDCF8091B00080688093B000C0937A
:10038000B300E5CF8091B00080628093B000C0934D
:10039000B400DDCF8E50806480937C0080917A0021
:1003A000806480937A0080917A0086FDFCCF8091F2
:1003B00078009091790008953FB7F89480911203E6
:1003C00090911303A0911403B091150326B5A89B37
:1003D00005C02F3F19F00196A11DB11D3FBFBA2FD7
:1003E000A92F982F8827BC01CD01620F711D811D97
:1003F000911D42E0660F771F881F991F4A95D1F71C
:1004000008958F929F92AF92BF92CF92DF92EF9218
:10041000FF926B017C010E94DC014B015C01C11465
:10042000D104E104F104B9F00E94DC0168197909F2
:100430008A099B09683E73408105910580F321E09C
:10044000C21AD108E108F10888EE880E83E0981EF0
:10045000A11CB11CE4CFFF90EF90DF90CF90BF9034
:10046000AF909F908F9008952FB7F89460910E03EE
:1004700070910F0380911003909111032FBF089585
:10048000AF92BF92CF92DF92EF92FF920F931F93A2
:10049000CF93DF936C017B018B01040F151FEB01E0
:1004A0005E01AE18BF08C017D10759F06991D60197
:1004B000ED91FC910190F081E02DC6010995892B09
:1004C00079F7C501DF91CF911F910F91FF90EF90C8
:1004D000DF90CF90BF90AF900895FC01538D448D75
:1004E000252F30E0842F90E0821B930B541710F0DF
:1004F000CF96089501970895FC01918D828D9817EC
:1005000061F0A28DAE0FBF2FB11D5D968C91928DC3
:100510009F5F9F73928F90E008958FEF9FEF0895F4
:100520000F931F930E94340260931E0370931F0366
:10053000809320039093210386E193E00E947C0244
:1005400097FF1DC00E94340200911E0310911F03EB
:100550002091200330912103601B710B820B930BC0
:1005600000911A0310911B0320911C0330911D036D
:100570006017710782079307F8F28FEF9FEF1F91C3
:100580000F910895FC01918D828D981731F0828D25
:10059000E80FF11D858D90E008958FEF9FEF08958E
:1005A000FC01918D228D892F90E0805C9F4F821BF2
:1005B00091098F739927089586E193E00E94D002F4
:1005C00021E0892B09F420E0822F089580E090E05B
:1005D000892B29F00E94DC0281110C9400000895FF
:1005E000FC01A48DA80FB92FB11DA35ABF4F2C91A8
:1005F000848D90E001968F739927848FA689B7899F
:100600002C93A089B1898C91837080648C93938D95
:10061000848D981306C00288F389E02D80818F7D38
:1006200080830895EF92FF920F931F93CF93DF93F0
:10063000EC0181E0888F9B8D8C8D98131AC0E8891E
:10064000F989808185FF15C09FB7F894EE89FF89ED
:100650006083E889F98980818370806480839FBF8B
:1006600081E090E0DF91CF911F910F91FF90EF908B
:100670000895F62E0B8D10E00F5F1F4F0F7311279B
:10068000E02E8C8D8E110CC00FB607FCFACFE889D6
:10069000F989808185FFF5CFCE010E94F002F1CF6C
:1006A000EB8DEC0FFD2FF11DE35AFF4FF0829FB74A
:1006B000F8940B8FEA89FB8980818062CFCFCF933A
:1006C000DF93EC01888D8823B9F0AA89BB89E8897A
:1006D000F9898C9185FD03C0808186FD0DC00FB620
:1006E00007FCF7CF8C9185FFF2CF808185FFEDCF9E
:1006F000CE010E94F002E9CFDF91CF910895CF9310
:10070000DF93EC01BC0185E00E946D01BE0186E033
:100710000E946D01BE0189E0DF91CF910C946D01C3
:100720000F931F93CF93DF938B01EA01BC0185E008
:100730000E946D01B80186E00E946D01BE0189E052
:10074000DF91CF911F910F910C946D010895FB01E2
:10075000309729F0948190789660948380830895EF
:10076000CF93DF93EC0188819981DC01ED91FC91BD
:100770000190F081E02D09952A813B81820F931F22
:100780009B838A83DF91CF910895CF93DF93EC0110
:1007900088819981DC01ED91FC910280F381E02D4B
:1007A00009952A813B81820F931F9B838A83DF9166
:1007B000CF9108958F929F92AF92BF92CF92DF9286
:1007C000EF92FF920F931F93CF93DF93CDB7DEB7D6
:1007D00066970FB6F894DEBF0FBECDBF6C018E01D9
:1007E000095E1F4F78018AE0882E912CA12CB12C34
:1007F000CB01BA01A50194010E944417942F852FC3
:10080000605DF80162938F01A901692F782F41156E
:1008100051056105710561F7A7014E1B5F0BBF0113
:10082000C6010E94C50366960FB6F894DEBF0FBEE0
:10083000CDBFDF91CF911F910F91FF90EF90DF908F
:10084000CF90BF90AF909F908F900895FC0125812D
:10085000222339F0F8E02F0290011124820F931F18
:10086000089590E080E0089560E088E00E94030130
:100870001092EB0260E087E00E94030160E085E0F7
:100880000E94030110920B030895FC018081918165
:10089000009711F00C94F3180895FC0101900020CA
:1008A000E9F73197AF01481B590BBC0186E193E092
:1008B0000C944002FB0101900020E9F73197AF0151
:1008C000461B570B0C94C5031F93CF93DF93ECE1AA
:1008D000F1E01281112379F0329621816213F9CF70
:1008E000EC016CE50E94B003612FCE01DF91CF9146
:1008F0001F910C94B0036111F9CF6DE271E0DF91AB
:10090000CF911F910C945A042F923F924F925F9275
:100910006F927F928F929F92AF92BF92CF92DF920F
:10092000EF92FF920F931F93CF93DF93CDB7DEB774
:100930006C970FB6F894DEBF0FBECDBF7C018B0164
:10094000DC0114968C9114978F77863009F464C279
:10095000B0F48230E8F01296CD90DC901397AC9012
:100960001196BC90843008F026C2A601B501C801DA
:100970000E94C503D80112968D919C9103C28C30C0
:1009800069F160F4883009F441C28A3009F426C262
:1009900064E371E0C8010E945A04E7C1803209F49F
:1009A000EDC18034A9F76BE5C8010E94B003D701FF
:1009B000ED90FC90E114F10409F4DBC1B801C7012A
:1009C0000E948404C7010E9426047C01892B09F43B
:1009D000D0C16CE2C8010E94B003ECCFF701C08027
:1009E000D180E280F380A7019601C701B6010E9481
:1009F000B7158111CDCF20E030E0A901C701B601C4
:100A00000E94B715882379F0A7019601C701B601A6
:100A10000E94B7179B01AC01C701B6010E94B71530
:100A2000882309F4B5CF20E030E0A901C701B60161
:100A30000E94B71587FF08C06DE2C8010E94B0038D
:100A4000F7FAF094F7F8F09420E836E948E15BE42F
:100A5000C701B6010E94521887FD7CC074E1872E41
:100A6000912CE0E2AE2EB12C712C612CF401E856F1
:100A7000FF4F2591359145915491C701B6010E94D0
:100A8000521887FD0FC0F401E859FF4F25913591A9
:100A900045915491C701B6010E941D166B017C015E
:100AA0006A0C7B1CB594A794F4E08F1A91082CEF84
:100AB00082162FEF9206D1F63FEF3F8B20E030E019
:100AC000A901C701B6010E94521818160CF04AC0BD
:100AD0002CEA35EC47E257E3C701B6010E94B7158F
:100AE00018160CF43FC0AF89B4E0AB02C00111246A
:100AF000912C812CFC01E058FF4F1F019C012856CE
:100B00003F4F29013F893F3F69F1F101E80DF91D90
:100B10002591359145915491C701B6010E94B715B1
:100B200087FF0FC0F201E80DF91D25913591459120
:100B30005491C701B6010E941D166B017C016A1811
:100B40007B08B594A7948F8981508F8B94E0891A84
:100B50009108D8CF50E2A52EB12C85E08F8B712C57
:100B6000612CACCFC701B6010E9423184B015C0178
:100B70001B012C01A6E0AC8F80E492E4AFE0B0E072
:100B8000888F998FAA8FBB8F9C8D9F8BA92FA15087
:100B9000AC8FBAE02B16310441045104C8F0688DC3
:100BA000798D8A8D9B8D2AE030E040E050E00E94F4
:100BB0004417288F398F4A8F5B8FC201B1012AE019
:100BC00030E040E050E00E94441719012A01DCCFD8
:100BD000C501B4010E94BC159B01AC01C701B6015F
:100BE0000E94B6176B017C01688D798D8A8D9B8D73
:100BF0000E94BC159B01AC01C701B6010E941D16E5
:100C00001B012C010E9423186B017C010E94BC1562
:100C10009B01AC01C201B1010E94B6179B01AC015E
:100C20000E94B7170E942318C60ED71EE81EF91E91
:100C3000888D998DAA8DBB8DC816D906EA06FB064C
:100C4000C0F09FEF891A990AA90AB90A61147104C0
:100C500039F1AAE08A169104A104B10408F1BFEFAA
:100C60006B1A7B0AC12CD12C7601812C912C54015A
:100C700083942AE0222E312C412C512CC701B6013D
:100C8000A20191010E944417672B682B692B61F424
:100C9000EF891E164CF469017A01E150EF8BEECF1B
:100CA000C12CD12C7601E5CFB501A401C8010E9469
:100CB000DA03FF89FF2391F14E0121E1820E911C9D
:100CC000F88F54019AE0292E312C412C512C388D6B
:100CD0003150388F3F3F69F0C701B601A201910141
:100CE0000E944417605DD4016E934D0169017A0141
:100CF000EECFBF898B2F90E0BC0160957095F50118
:100D0000E81BF90B31978EE2808344275527461B59
:100D1000570B6A0D7B1DC8010E94C5036114710445
:100D200021F165E6C8010E94B003730177FE07C098
:100D30006DE2C8010E94B003F194E194F108FE0154
:100D400077969F018AE0C82ED12CC701B6010E9478
:100D50008117805D82937B01672BB9F7A9014E1B38
:100D60005F0BBF01C8010E94C503F8018281938116
:100D700009C06DE5C8010E94B003F7CFB701C801F3
:100D80000E9418076C960FB6F894DEBF0FBECDBF59
:100D9000DF91CF911F910F91FF90EF90DF90CF9057
:100DA000BF90AF909F908F907F906F905F904F908B
:100DB0003F902F90089562E2C8010E94B003750130
:100DC000CE0CDF1CCE14DF0439F0D7016D917D010C
:100DD000C8010E946404F6CF62E2CCCFF701C08064
:100DE000D180E280F380B701A601F7FE0BC06DE26F
:100DF000C8010E94B00344275527BA014C195D0968
:100E00006E097F09C8010E94DA03B4CDF701408161
:100E1000518162817381F6CFF701808169E371E0CE
:100E2000811102C06EE371E0C8010E945A04A2CD94
:100E3000CF92DF92EF92FF920F931F93CF93DF93A6
:100E4000EC018B016BE70E94B003F8010081118176
:100E50000115110541F1F801C680D78062E2CE018B
:100E60000E94B0037601F70161917F01662321F0B2
:100E7000CE010E946404F7CF62E2CE010E94B0036B
:100E80006AE3CE010E94B003BE01C8010E9484043F
:100E9000C8010E9426048C01892B29F06CE2CE0146
:100EA0000E94B003D5CF6DE7CE010E94B0038A81C6
:100EB0009B81DF91CF911F910F91FF90EF90DF9079
:100EC000CF900895FC01A081B181109749F0FD01F8
:100ED00001900020E9F73197CF018A1B9B0B089501
:100EE00090E080E00895FB01DC018D919C910097DA
:100EF00061F0608171816115710539F0448155811E
:100F00000E94521A21E0892B09F020E0822F0895D7
:100F10008F929F92AF92BF92CF92DF92EF92FF9209
:100F20000F931F93CF93DF93CDB7DEB7A1970FB683
:100F3000F894DEBF0FBECDBFF82E8B018091D80391
:100F40008C3008F051C061E08BE00E94310180914B
:100F5000D803282F30E0F901EE0FFF1FE20FF31F37
:100F6000ED54FC4F9081907C9B6090831092D9034C
:100F70001092DA032CE0622F0E947517829FB00155
:100F8000112430E020E0AB01420F531FFA01EE0FB5
:100F9000FF1FE40FF51FED54FC4F908196FD16C026
:100FA0002F5F3F4F2C30310571F781110FC0109228
:100FB000800082E08093810010928500109284006E
:100FC000B19A80916F00826080936F00E091D803A6
:100FD0008E2F90E0FC01EE0FFF1FE80FF91FED547C
:100FE000FC4F80818064808382E4F816F9F093E4FA
:100FF000F91609F474C0B80183E00E946D011093E2
:10100000A3020093A202A1960FB6F894DEBF0FBE12
:10101000CDBFDF91CF911F910F91FF90EF90DF90A7
:10102000CF90BF90AF909F908F9008956801012E50
:10103000000CEE08FF08F7FE37C06DE286E193E092
:101040000E94120322273327A9012C193D094E09BA
:101050005F0919A2FE01B1967F018AE0882E912CCA
:10106000A12CB12CCA01B901A50194010E94441719
:10107000605DF70162937F0121153105410551053E
:1010800089F7E114F10419F0C7010E944D0484E4CA
:1010900091E00E944D04B80184E10E946D0110931B
:1010A0009F0200939E02AFCFA701960119A2CE0125
:1010B00081967C01BAE08B2E912CA12CB12CCA0117
:1010C000B901A50194010E944417605DF701629384
:1010D0007F01211531054105510589F7D2CF9801CE
:1010E0000032F2E01F07DCF58091D903E8E8CE2E4C
:1010F000D12CC81AD10887FDD394CC0CDD1CCC0CA4
:10110000DD1C0D2C000CEE08FF088091DA0328E5A9
:1011100032E0281B310987FD3395220F331F220F40
:10112000331F032E000C440B550B2C193D094E099F
:101130005F09D801053B110514F0A4EBB0E0B7FF3F
:1011400002C0B0E0A0E00E94051724EB30E040E0D0
:1011500050E00E94DB162C0D3D1D4E1D5F1DE091E1
:10116000D803EC3080F54091D90388E890E0841BE7
:10117000910947FD9395880F991F880F991F28178C
:10118000390784F04091DA0388E592E0841B9109E5
:1011900047FD9395880F991F880F991F28173907C6
:1011A0000CF4C9010297880F991F4FB7F8942E2F9E
:1011B00030E0F901EE0FFF1FE20FF31FED54FC4F7B
:1011C000928381834FBF1093A1020093A0021BCF93
:1011D0000F931F93CF93DF93EC0188819981009740
:1011E00059F02A813B812617370730F081E0DF91E3
:1011F000CF911F910F9108958B016F5F7F4F0E94D8
:101200007C19009759F0998388831B830A832C816A
:101210003D81232B59F7FC011082E8CF80E0E7CF16
:10122000EF92FF920F931F93CF93DF93EC017B011B
:101230008A01BA010E94E80828813981811114C00D
:101240002115310519F0C9010E94F318198218827D
:101250001D821C821B821A82CE01DF91CF911F91C9
:101260000F91FF90EF9008951D830C83B701C90182
:101270000E944B1AF1CFFC0111821082138212825C
:1012800015821482FB0101900020E9F73197AF012C
:10129000461B570B0C941009AF92BF92CF92DF926E
:1012A000EF92FF920F931F93CF93DF93EC017B019B
:1012B0006A0184E0A82EB12C4430510520F45A0173
:1012C00094E0C92ED12C6CE271E0CE010E943B0962
:1012D000D70114960D911C91A016B10628F5C016E1
:1012E000D10608F48601D701ED91FC911197E00F2A
:1012F000F11FD08010826D917C916A0D7B1D61156C
:101300007105F1F0FB0101900020E9F73197AF0181
:10131000461B570BCE010E941009F7018081918175
:10132000080F191FD801DC92CE01DF91CF911F91D8
:101330000F91FF90EF90DF90CF90BF90AF90089506
:1013400088819981009711F00E94F3181982188200
:101350001D821C821B821A82E0CFCF92DF92EF9215
:10136000FF920F931F93CF93DF93009759F480E080
:1013700090E0DF91CF911F910F91FF90EF90DF9060
:10138000CF9008956115710591F38A017B01EC01FD
:10139000C880D980C114D10489F1D60116966D9107
:1013A0007C91C7010E94421A892B31F1C6010E942B
:1013B00026046C01EFCF3897D8011596FC93EE9375
:1013C00014973097A1F2AA81BB81109791F0CF01B9
:1013D0008A1B9B0B23E0959587952A95E1F7159637
:1013E0008C93FB83EA8315821482F782E682CF0115
:1013F000C0CFF983E883F5CFC601BBCFD8011496DF
:10140000ED91FC91159712968D919C910896E81795
:10141000F90788F681E0F8018087A9CF2F923F92E3
:101420004F925F926F927F928F929F92AF92BF92F4
:10143000CF92DF92EF92FF920F931F93CF93DF93A0
:10144000CDB7DEB7C051D2400FB6F894DEBF0FBEA5
:10145000CDBF2B014901C35FDD4FE882F9820A83CA
:101460001B83CD50D240CE010F969A8389839C83F3
:101470008B831E012DEF221A320A3E822D8238867E
:101480002F82198680E28E871B861A861D861C860F
:10149000AE014F5F5F4F67E471E0CE010A960E9494
:1014A000AD098C01009749F0FC018481807880624D
:1014B00084831182108213821282AE014F5F5F4FCC
:1014C0006CE471E0C8010E94AD09BC018091070382
:1014D0000E94A703AE014F5F5F4F6CE571E0C8014A
:1014E0000E94AD09BC018091EB020E94A703AE01EE
:1014F0004F5F5F4F6DE671E0C8010E94AD09BC010E
:10150000809109030E94A703AE014F5F5F4F66E71A
:1015100071E0C8010E94AD09BC0180910B030E94DB
:10152000A703AE014F5F5F4F60E871E0C8010E9402
:10153000AD09FC01892B81F020919E0230919F0220
:10154000948190789A609483C901330FAA0BBB0BE6
:1015500080839183A283B383AE014F5F5F4F69E8BD
:1015600071E0C8010E94AD09FC01892B81F0209136
:10157000A2023091A302948190789A609483C90169
:10158000330FAA0BBB0B80839183A283B383AE017D
:101590004F5F5F4F63E971E0C8010E94AD09FC0134
:1015A000892B81F02091A0023091A1029481907842
:1015B0009A609483C901330FAA0BBB0B808391837C
:1015C000A283B383AE014F5F5F4F63EA71E0C8014E
:1015D0000E94AD097C01009781F0FC018481807834
:1015E0008C608483B201550C880B990B0E94BE1548
:1015F000F7016083718382839383AE014F5F5F4FF6
:101600006FEA71E0C8010E94AD093C01009781F0CA
:10161000FC01848180788C608483B401990C880BF0
:10162000990B0E94BE15F3016083718382839383BB
:10163000AE014F5F5F4F6BEB71E0C8010E94AD09D7
:101640005C010097B1F0FC01848180788C60848318
:10165000C35FDD4F28813981CD50D240B901330FAE
:10166000880B990B0E94BE15F501608371838283FC
:101670009383AE014F5F5F4F67EC71E0C8010E943A
:10168000AD096C01892B09F44FC08FEE92E0C55F64
:10169000DD4F99838883CB50D240C75FDD4F99835C
:1016A0008883C950D240CE01875F9D4F0E94620758
:1016B0004C01A980BA80EB80FC808FEE482E82E03E
:1016C000582E940121513D4F3901F501E80DF91DC6
:1016D000EE15FF0508F468C0CE01875F9D4F0E949C
:1016E00062079C012F5F3F4F2E0D3F1D4D815E8194
:1016F0004217530708F07FC081E08987F12CE12C65
:10170000CE01855F9D4F0E946207AC0130E020E072
:10171000E114F10411F026EA33E0F60194819078A7
:10172000232B09F07FC09483AE014F5F5F4F6FECB6
:1017300071E0C8010E94AD09DC01892B71F0A09015
:101740003604B0903704A114B10409F072C01496A5
:101750008C911497807814968C9386E193E0F10134
:101760009183808313821282BE01665F7F4FC10125
:101770000E941807C05FDD4F0FB6F894DEBF0FBEA2
:10178000CDBFDF91CF911F910F91FF90EF90DF9030
:10179000CF90BF90AF909F908F907F906F905F9011
:1017A0004F903F902F9008958081811118C0C95F9C
:1017B000DD4F59824882C750D240CE01895F9D4F8C
:1017C0000E9462078816990651F4D501EFEEF2E007
:1017D0006E167F0651F09D9181919817C9F3F5011E
:1017E00081915F018111FBCF70CFA114B10409F485
:1017F00073CF750185CF3C832B83E114F10409F489
:101800007FCFEFEEF2E0D701AC0141515D4FE4171D
:10181000F50719F021912D93FACF8E0D9F1DFC0134
:1018200010826ECF95609483F182E082538342836D
:101830007BCF20913A0430913B0489819A814B817E
:101840005C817501E20EF31EBC01620F731F641709
:101850007507C8F4FB01608161110DC0B5018C01F1
:101860006E157F0571F0FB01C190BF01F801D190A9
:101870008F01CD14A9F3FC016191CF016111FBCF60
:10188000E3CF009781F5C9010196840F951F6D8103
:101890007E816817790778F481E0898790E080E09D
:1018A00070E060E014964C9114974078672BF1F447
:1018B00014964C9352CF9C838B834115510571F341
:1018C000CA018501020F131F0A151B0539F0F50126
:1018D00061915F01FC016193CF01F6CFFA01E20F44
:1018E000F31F1082CA0166EA73E0DCCF45601496EC
:1018F0004C93149711969C938E9313963C932E932E
:1019000012972BCFCF92DF92EF92FF920F931F93FC
:10191000CF93DF9300D000D000D0CDB7DEB78C01DD
:101920006CED71E0CE0101960E943B09F801248123
:1019300035818D819E81F12C2817390738F0BE0141
:101940006F5F7F4FC8010E947307F82ECE0101968A
:101950000E944504FF2089F1F80144815581B801B6
:10196000CE0101960E944C0989819A81C12CD12C0B
:101970007601009719F00E947B156B01CE0101964C
:101980000E944504C60101978F3F910538F481E01C
:1019900080930603B60181E40E94880726960FB65D
:1019A000F894DEBF0FBECDBFDF91CF911F910F9195
:1019B000FF90EF90DF90CF90089561EE71E0CE013F
:1019C00001960E943B09F801248135818D819E8119
:1019D0002817390738F0BE016F5F7F4FC8010E949A
:1019E0007307F82ECE0101960E944504FF2011F1E5
:1019F000F80144815581B801CE0101960E944C093D
:101A000089819A81C12CD12C7601009719F00E940E
:101A10007B156B01CE0101960E944504C60101971A
:101A20008F3F910508F0BACF81E080930503B6019E
:101A300082E4B2CF66EE71E0CE0101960E943B09CE
:101A4000F801248135818D819E812817390738F06E
:101A5000BE016F5F7F4FC8010E947307F82ECE0151
:101A600001960E944504FF2009F498CFF8014481B3
:101A70005581B801CE0101960E944C0989819A8155
:101A8000C12CD12C7601009719F00E947B156B01B7
:101A9000CE0101960E944504C60101978F3F910532
:101AA00008F07CCF81E080930403B60183E474CF17
:101AB0001F920F920FB60F9211242F933F938F9383
:101AC0009F93AF93BF9380910E0390910F03A091CA
:101AD0001003B091110330910D0323E0230F2D3734
:101AE00058F50196A11DB11D20930D0380930E039F
:101AF00090930F03A0931003B093110380911203EE
:101B000090911303A0911403B09115030196A11DA8
:101B1000B11D8093120390931303A0931403B09309
:101B20001503BF91AF919F918F913F912F910F908E
:101B30000FBE0F901F90189526E8230F0296A11D47
:101B4000B11DD2CF1F920F920FB60F9211242F9377
:101B50003F934F935F936F937F938F939F93AF9335
:101B6000BF93EF93FF9386E193E00E94F002FF9111
:101B7000EF91BF91AF919F918F917F916F915F9105
:101B80004F913F912F910F900FBE0F901F9018957E
:101B90001F920F920FB60F9211242F938F939F9342
:101BA000EF93FF93E0912603F09127038081E0916A
:101BB0002C03F0912D0382FD1BC0908180912F0397
:101BC0008F5F8F7320913003821741F0E0912F03D4
:101BD000F0E0EA5EFC4F958F80932F03FF91EF9129
:101BE0009F918F912F910F900FBE0F901F9018957E
:101BF0008081F4CF1F920F920FB60F9211242F9372
:101C00003F934F935F936F937F938F939F93AF9384
:101C1000BF93CF93DF93EF93FF938091A402C09182
:101C2000D703D0E087FF24C0109285001092840073
:101C30008091A4028F5F8093A4028091A402082E59
:101C4000000C990B8C179D0724F48091A4028C3012
:101C5000C4F18091840090918500049680349C4961
:101C600008F47AC08091840090918500049676C033
:101C70008091A402082E000C990B8C179D07C4F6C6
:101C8000E091A4028E2FEE0F990BFC01EE0FFF1FC7
:101C9000E80FF91FED54FC4F808186FFC9CFE0911A
:101CA000A4028E2FEE0F990BFC01EE0FFF1FE80F21
:101CB000F91FED54FC4F808160E08F730E94030197
:101CC000B7CF2091840030918500E091A4028E2F3F
:101CD000EE0F990BFC01EE0FFF1FE80FF91FED54FB
:101CE000FC4F81819281820F931F90938900809392
:101CF0008800E091A4028E2FEE0F990BFC01EE0FED
:101D0000FF1FE80FF91FED54FC4F808186FF11C0C3
:101D1000E091A4028E2FEE0F990BFC01EE0FFF1F36
:101D2000E80FF91FED54FC4F808161E08F730E9432
:101D30000301FF91EF91DF91CF91BF91AF919F91FF
:101D40008F917F916F915F914F913F912F910F9064
:101D50000FBE0F901F90189580E49CE99093890026
:101D6000809388008FEF8093A402E3CF80E394E018
:101D70000E94450486E394E00C94450410921903F4
:101D80001092180388EE93E0A0E0B0E080931A036D
:101D900090931B03A0931C03B0931D038EE091E06E
:101DA000909317038093160385EC90E090932303A0
:101DB0008093220384EC90E0909325038093240386
:101DC00080EC90E0909327038093260381EC90E0D1
:101DD000909329038093280382EC90E090932B0347
:101DE00080932A0386EC90E090932D0380932C033C
:101DF00010922F031092300310923103109232038D
:101E00008091D7038C3008F0B3C091E0980F909385
:101E1000D7038093D80390E0FC01EE0FFF1FE80F7B
:101E2000F91FED54FC4F88EB9BE0928381836BEEAE
:101E300071E086E394E00E943B090E9423150E9412
:101E400023150E94231510920F0410921004109273
:101E500011041092120410921304109214041092A0
:101E60001504109216041092170410921804109280
:101E7000190410921A0410921B0410921C04109260
:101E80001D0410921E0410921F0410922004109240
:101E90002104109222041092F7031092F80310927A
:101EA000F9031092FA031092FB031092FC031092B4
:101EB000FD031092FE031092FF0310920004109293
:101EC0000104109202041092030410920404109270
:101ED0000504109206041092070410920804109250
:101EE000090410920A041092DF031092E00310928A
:101EF000E1031092E2031092E3031092E4031092C4
:101F0000E5031092E6031092E7031092E8031092A3
:101F1000E9031092EA031092EB031092EC03109283
:101F2000ED031092EE031092EF031092F003109263
:101F3000F1031092F20360E072E080E394E00E940B
:101F40003B098FEF80932304109225041092240400
:101F500010922F0410922E048FEF9FEFDC018093DC
:101F60002A0490932B04A0932C04B0932D0408957D
:101F70008FEF8093D8035BCFCF93DF93CDB7DEB7DE
:101F800068970FB6F894DEBF0FBECDBF789484B5C6
:101F9000826084BD84B5816084BD85B5826085BD65
:101FA00085B5816085BD80916E00816080936E00F3
:101FB00010928100809181008260809381008091E5
:101FC0008100816080938100809180008160809396
:101FD00080008091B10084608093B1008091B00056
:101FE00081608093B00080917A00846080937A0051
:101FF00080917A00826080937A0080917A0081607B
:1020000080937A0080917A00806880937A001092A1
:10201000C100E0912603F091270382E08083E091E4
:102020002203F09123031082E0912403F091250311
:1020300080E1808310922E03E0912A03F0912B031C
:1020400086E08083E0912803F091290380818061FC
:102050008083E0912803F091290380818860808348
:10206000E0912803F0912903808180688083E091CA
:102070002803F091290380818F7D808360E082E0D6
:102080000E94310161E085E00E94310160E085E05D
:102090000E94030160E08DE00E94310161E086E072
:1020A0000E94310160E086E00E94030160E084E06C
:1020B0000E94310161E089E00E94310160E089E025
:1020C0000E94030161E087E00E94310160E087E047
:1020D0000E94030161E083E00E94310161E08CE035
:1020E0000E94310161E08BE00E94310161E088E0F3
:1020F0000E9431010E94340262E081E10E943101BC
:1021000062E082E10E94310162E083E10E943101DC
:1021100060E08EE00E94310160E08FE00E943101BA
:1021200060E080E10E9431010E943404E3E0AE2EC1
:10213000B12C08EC10E08091A9029091AA020196BE
:102140009093AA028093A902C090A702D090A802FF
:102150008090A5029090A602A601B4010E9490036F
:1021600061E070E080E090E00E94010201501109FE
:1021700011F778ECE72EF12C0091A9021091AA0238
:10218000015011091093AA020093A902A601B401FB
:10219000C8010E94900361E070E080E090E00E943E
:1021A000010221E0E21AF10839F768ECE62EF12C81
:1021B0006091A5027091A6026F5F7F4F7093A60297
:1021C0006093A502A601C8010E94900361E070E03F
:1021D00080E090E00E94010281E0E81AF10841F7F6
:1021E00058EC852E912CE090A502F090A60291E08B
:1021F000E91AF108F092A602E092A502A601B70141
:10220000C8010E94900361E070E080E090E00E94CD
:102210000102E1E08E1A910831F748ECC42ED12C6E
:102220004091A7025091A8024F5F5F4F5093A802C0
:102230004093A702B701C8010E94900361E070E0DB
:1022400080E090E00E940102F1E0CF1AD10841F74E
:1022500038ECC32ED12C4091A7025091A8024150D6
:1022600051095093A8024093A702B701C8010E94E8
:10227000900361E070E080E090E00E94010221E0C4
:10228000C21AD10841F781E0A81AB10809F051CF6C
:1022900008EC10E08091A9029091AA020196909317
:1022A000AA028093A9020E947F0361E070E080E0AF
:1022B00090E00E9401020150110961F708EC10E062
:1022C0008091A9029091AA0201979093AA0280930B
:1022D000A9020E947F0361E070E080E090E00E942C
:1022E00001020150110961F708EC10E08091A5028C
:1022F0009091A60201969093A6028093A5020E9457
:102300007F0361E070E080E090E00E9401020150F4
:10231000110961F708EC10E08091A5029091A602E6
:1023200001979093A6028093A5020E947F0361E02B
:1023300070E080E090E00E9401020150110961F715
:1023400008EC10E08091A7029091A802019690936A
:10235000A8028093A7020E947F0361E070E080E002
:1023600090E00E9401020150110961F708EC10E0B1
:102370008091A7029091A80201979093A802809360
:10238000A7020E947F0361E070E080E090E00E947D
:1023900001020150110961F70E94340288248A94D5
:1023A00093E0992EA12CB12C20E8422E2EEE522E35
:1023B00026E3622E712C8FEE282E82E0382E82E0EA
:1023C0000E94DA00019719F481E08093D1028DE038
:1023D0000E94DA00019719F481E08093CC0284E036
:1023E0000E94DA00019719F481E08093C7028EE021
:1023F0000E94CA016C01BC01990F880B990B0E94C5
:10240000BE156093B3027093B4028093B5029093AB
:10241000B6028FE00E94CA017C01BC01990F880BB3
:10242000990B0E94BE156093AF027093B002809327
:10243000B1029093B20280E10E94CA018C01BC01FA
:10244000990F880B990B0E94BE156093AB02709395
:10245000AC028093AD029093AE02DE86CD86FA8AFE
:10246000E98A1E8B0D8B81E10E94CA012FEF30E0BB
:10247000DC010E94A917A50194010E94DB166901E5
:102480003093C2022093C10282E10E94CA019C01E2
:10249000990F440B550B2350310941095109AAEFFB
:1024A000B0E00E94FA162CEF33E040E050E00E94CA
:1024B000DB163093C0022093BF0283E10E94CA0161
:1024C00024E630E0DC010E94A917A50194010E94D6
:1024D000DB163093BE022093BD028091BB02909127
:1024E000BC029C012A503109C216D30624F00A9678
:1024F0008C159D057CF4B60181E40E9488078091CB
:10250000C1029091C2029093BC028093BB0281E011
:10251000809306038091B9029091BA026091BF0244
:102520007091C0029C01255031096217730724F095
:1025300005968617970774F482E40E9488078091B5
:10254000BF029091C0029093BA028093B90281E0D9
:10255000809305038091B7029091B8026091BD020B
:102560007091BE029C01255031096217730724F057
:1025700005968617970794F480910703882371F0D6
:1025800083E40E9488078091BD029091BE029093DF
:10259000B8028093B70281E0809304038091D10256
:1025A000882331F10E9434020091CD021091CE02B5
:1025B0002091CF023091D002601B710B820B930BE4
:1025C000693572408105910538F080910B038823AD
:1025D00009F492C010920B030E9434026093CD0262
:1025E0007093CE028093CF029093D0021092D102CA
:1025F0008091CC02882331F10E9434020091C802FC
:102600001091C9022091CA023091CB02601B710B5C
:10261000820B930B693572408105910538F08091EA
:102620000903882309F46CC0109209030E94340244
:102630006093C8027093C9028093CA029093CB0240
:102640001092CC028091C702882331F10E9434029B
:102650000091C3021091C4022091C5023091C602BC
:10266000601B710B820B930B6935724081059105DC
:1026700038F080910703882309F446C010920703BD
:102680000E9434026093C3027093C4028093C50217
:102690009093C6021092C70286E193E00E94D00296
:1026A000181619060CF062C06CE271E0CE010796B4
:1026B0000E943B090E9490020B851C8597FD28C053
:1026C0008A30910529F189831A820F5F1F4FB80163
:1026D000CE0107960E94E808882361F32F81388590
:1026E0008B859C85BE016F5F7F4F820F931F0E9479
:1026F0004B1A1C870B87DECF81E080930B036CCFD6
:1027000081E08093090392CF81E080930703B8CFE3
:102710000115110509F0CBC01092D202E2EDF2E0F2
:1027200001900020E9F7CF01835D9240029708F401
:10273000CFC01A8219821C821B821E821D826F8169
:1027400078856115710531F04B855C85CE01019668
:102750000E941009CE0101960E94820CCE010196C2
:102760000E944504CE0107960E94450480910B0308
:102770009091EE028917C1F0882309F4DEC061E070
:1027800088E00E94030111E01093EB0261E087E012
:102790000E94030161E085E00E94030110930B0396
:1027A00080910B038093EE02109109038091ED025A
:1027B000181769F0112309F4C3C061E08CE00E948E
:1027C000030161E086E00E9403011093ED02809115
:1027D00007039091EC02891771F0882309F4B6C0C1
:1027E00061E089E00E94030181E08093070380910A
:1027F00007038093EC020E9434020E9434026B01B2
:102800007C0128EE33E040E050E00E944417CA010A
:10281000B90120E13EE040E050E00E944417CB01C6
:102820006CE370E00E9495179F938F937F936F9353
:10283000C701B601A30192010E9444173F932F9351
:102840008FE892E09F938F933F922F920E946F1A8E
:102850000FB6F894DEBF0FBECDBF8091060388236C
:1028600009F47BC010920603ED88FE880F89188D4D
:1028700029893A894B895C896D857E858F85988900
:102880000E940E0A85E491E00E944D0484E491E0E8
:102890000E944D04E0E0F0E0EF2B09F490CD0E949F
:1028A000DC02882309F487CD0E94000084CD083122
:1028B000110510F008E110E06F817885A80182ED24
:1028C00092E00E94601AF801EE52FD4F108226CF6E
:1028D00086E892E00E944D0482ED92E00E944D0451
:1028E00082ED92E00E944D0484E491E00E944D0448
:1028F0008091D2028334B1F044F4813479F082348F
:1029000009F030CF10920B032DCF853491F074F085
:10291000863409F027CF1092070324CF81E08093FB
:102920000B0320CF81E0809309031CCF1092090391
:1029300019CF81E08093070315CF0E94340430CF74
:1029400060E08CE00E94030160E03CCF60E089E041
:102950000E940301109207034ACF80910503882348
:1029600019F01092050380CF8091040381110FC0EC
:1029700080910B0390910C0398130CC08091090374
:1029800090910A03981749F080930A036DCF109233
:1029900004036ACF80930C0367CF80910703909163
:1029A0000803981709F476CF809308035DCF8F92C0
:1029B0009F92AF92BF92CF92DF92EF92FF92CF930E
:1029C000DF93EC01688179818A819B8161157105B2
:1029D0008105910521F464E279ED8BE597E02DE125
:1029E00033EF41E050E00E94DB1649015A019B01A0
:1029F000AC01A7EAB1E40E94FA166B017C01ACEECF
:102A0000B4EFA50194010E940817C60ED71EE81E58
:102A1000F91EF7FE06C081E0C81AD108E10880E877
:102A2000F80AC882D982EA82FB82C701B6019F7781
:102A3000DF91CF91FF90EF90DF90CF90BF90AF905C
:102A40009F908F9008958F929F92AF92BF92CF9256
:102A5000DF92EF92FF9260910001709101018091ED
:102A6000020190910301611571058105910521F421
:102A700064E279ED8BE597E02DE133EF41E050E042
:102A80000E94DB1649015A019B01AC01A7EAB1E49F
:102A90000E94FA166B017C01ACEEB4EFA501940123
:102AA0000E940817C60ED71EE81EF91EF7FE06C0C4
:102AB00081E0C81AD108E10880E8F80AC092000154
:102AC000D0920101E0920201F0920301C701B60128
:102AD0009F77FF90EF90DF90CF90BF90AF909F9047
:102AE0008F9008956093000170930101809302011B
:102AF0009093030108951F93FC0199278827BC0137
:102B0000E89411911032E9F3193010F01E30C8F337
:102B10001B3251F01D3249F4689406C00E94A21580
:102B2000610F711D811D911D119110531A30B0F369
:102B30003EF490958095709561957F4F8F4F9F4F94
:102B40001F910895592F482F372F262F660F771F73
:102B5000881F991F660F771F881F991F620F731FA9
:102B6000841F951F660F771F881F991F08950E9465
:102B7000F91508F481E00895E89409C097FB3EF444
:102B800090958095709561957F4F8F4F9F4F9923BA
:102B9000A9F0F92F96E9BB279395F6958795779538
:102BA0006795B795F111F8CFFAF4BB0F11F460FFF8
:102BB0001BC06F5F7F4F8F4F9F4F16C0882311F050
:102BC00096E911C0772321F09EE8872F762F05C064
:102BD000662371F096E8862F70E060E02AF09A95FF
:102BE000660F771F881FDAF7880F9695879597F9F4
:102BF0000895990F0008550FAA0BE0E8FEEF16168E
:102C00001706E807F907C0F012161306E407F507E0
:102C100098F0621B730B840B950B39F40A2661F054
:102C2000232B242B252B21F408950A2609F4A140F7
:102C3000A6958FEF811D811D08950E9430160C947A
:102C4000A1160E94931638F00E949A1620F0952340
:102C500011F00C948A160C94901611240C94D5162D
:102C60000E94B21670F3959FC1F3950F50E0551F67
:102C7000629FF001729FBB27F00DB11D639FAA27D1
:102C8000F00DB11DAA1F649F6627B00DA11D661F20
:102C9000829F2227B00DA11D621F739FB00DA11D41
:102CA000621F839FA00D611D221F749F3327A00DFB
:102CB000611D231F849F600D211D822F762F6A2F97
:102CC00011249F5750409AF0F1F088234AF0EE0FFC
:102CD000FF1FBB1F661F771F881F91505040A9F729
:102CE0009E3F510580F00C948A160C94D5165F3FD8
:102CF000E4F3983ED4F3869577956795B795F79565
:102D0000E7959F5FC1F7FE2B880F911D96958795DC
:102D100097F9089597F99F6780E870E060E008955B
:102D20009FEF80EC089500240A94161617061806E3
:102D30000906089500240A941216130614060506BF
:102D40000895092E0394000C11F4882352F0BB0F50
:102D500040F4BF2B11F460FF04C06F5F7F4F8F4FB3
:102D60009F4F089557FD9058440F551F59F05F3FEE
:102D700071F04795880F97FB991F61F09F3F79F09D
:102D800087950895121613061406551FF2CF46951F
:102D9000F1DF08C0161617061806991FF1CF8695A1
:102DA0007105610508940895E894BB276627772785
:102DB000CB0197F90895052E97FB1EF400940E940D
:102DC000F21657FD07D00E94441707FC03D04EF4BB
:102DD0000C94F21650954095309521953F4F4F4FEA
:102DE0005F4F089590958095709561957F4F8F4FB7
:102DF0009F4F08950E946617A59F900DB49F900D58
:102E0000A49F800D911D11240895B7FF0C94FA160C
:102E10000E94FA16821B930B08952F923F924F92B5
:102E20005F926F927F928F929F92AF92BF92CF925A
:102E3000DF92EF92FF920F931F93CF93DF93CDB763
:102E4000DEB7CA1BDB0B0FB6F894DEBF0FBECDBFDB
:102E500009942A88398848885F846E847D848C84AC
:102E60009B84AA84B984C884DF80EE80FD800C81B5
:102E70001B81AA81B981CE0FD11D0FB6F894DEBF98
:102E80000FBECDBFED010895A1E21A2EAA1BBB1BF8
:102E9000FD010DC0AA1FBB1FEE1FFF1FA217B30726
:102EA000E407F50720F0A21BB30BE40BF50B661F3C
:102EB000771F881F991F1A9469F760957095809500
:102EC00090959B01AC01BD01CF010895A29FB00177
:102ED000B39FC001A39F700D811D1124911DB29F4E
:102EE000700D811D1124911D0895991B79E004C076
:102EF000991F961708F0961B881F7A95C9F7809539
:102F00000895AA1BBB1B51E107C0AA1FBB1FA61730
:102F1000B70710F0A61BB70B881F991F5A95A9F782
:102F200080959095BC01CD01089597FB072E16F46E
:102F3000009407D077FD09D00E94811707FC05D0C7
:102F40003EF4909581959F4F0895709561957F4FC0
:102F500008950E946617B7FF0895821B930B08958A
:102F6000EE0FFF1F0590F491E02D09945058BB27F8
:102F7000AA270E94CE170C94A1160E94931638F02F
:102F80000E949A1620F039F49F3F19F426F40C940D
:102F900090160EF4E095E7FB0C948A16E92F0E9438
:102FA000B21658F3BA17620773078407950720F023
:102FB00079F4A6F50C94D4160EF4E0950B2EBA2FE6
:102FC000A02D0B01B90190010C01CA01A00111242F
:102FD000FF27591B99F0593F50F4503E68F11A16DB
:102FE000F040A22F232F342F4427585FF3CF46956C
:102FF00037952795A795F0405395C9F77EF41F168E
:10300000BA0B620B730B840BBAF09150A1F0FF0F57
:10301000BB1F661F771F881FC2F70EC0BA0F621F43
:10302000731F841F48F4879577956795B795F79533
:103030009E3F08F0B0CF9395880F08F09927EE0FC8
:103040009795879508950E94BA1688F09F5798F033
:10305000B92F9927B751B0F0E1F0660F771F881F9D
:10306000991F1AF0BA95C9F714C0B13091F00E94B7
:10307000D416B1E008950C94D416672F782F8827C2
:10308000B85F39F0B93FCCF3869577956795B395DE
:10309000D9F73EF490958095709561957F4F8F4F4D
:1030A0009F4F08950E94F91508F48FEF08950F932C
:1030B0001F93CF93DF938230910510F482E090E06C
:1030C000E0913E04F0913F0430E020E0B0E0A0E069
:1030D000309799F42115310509F44AC0281B390BA2
:1030E00024303105D8F58A819B816115710589F1FC
:1030F000FB0193838283FE0111C0408151810281D3
:10310000138148175907E0F04817590799F41097A9
:1031100061F012960C93129713961C933296CF017E
:10312000DF91CF911F910F91089500933E0410936A
:103130003F04F4CF2115310551F04217530738F001
:10314000A901DB019A01BD01DF01F801C1CFEF0147
:10315000F9CF90933F0480933E04CDCFFE01E20F60
:10316000F31F819391932250310939832883D7CF5C
:1031700020913C0430913D04232B41F42091060121
:103180003091070130933D0420933C0420910401C9
:10319000309105012115310541F42DB73EB740911D
:1031A000080150910901241B350BE0913C04F0917A
:1031B0003D04E217F307A0F42E1B3F0B2817390735
:1031C00078F0AC014E5F5F4F2417350748F04E0F83
:1031D0005F1F50933D0440933C04819391939FCF94
:1031E000F0E0E0E09CCFCF93DF930097E9F0FC01A3
:1031F000329713821282A0913E04B0913F04ED01F8
:1032000030E020E01097A1F420813181820F931FDC
:1032100020913C0430913D042817390709F061C022
:10322000F0933D04E0933C04DF91CF910895EA01CF
:10323000CE17DF07E8F54A815B819E0141155105F4
:10324000B1F7E901FB83EA8349915991C40FD51F76
:10325000EC17FD0761F4808191810296840F951F20
:10326000E90199838883828193819B838A83F0E03B
:10327000E0E012968D919C9113970097B9F52D91EE
:103280003C911197CD010296820F931F20913C042F
:1032900030913D042817390739F6309751F51092CF
:1032A0003F0410923E04B0933D04A0933C04BCCF75
:1032B000D383C28340815181840F951FC817D907DA
:1032C00061F44E5F5F4F88819981480F591F518388
:1032D00040838A819B81938382832115310509F084
:1032E000B0CFF0933F04E0933E049ECFFD01DC019C
:1032F000C0CF13821282D7CFB0E0A0E0E2E8F9E1BC
:103300000C940F178C01009751F4CB010E945718B1
:103310008C01C801CDB7DEB7E0E10C942B17FC019E
:10332000E60FF71F9C0122503109E217F30708F45A
:103330009DC0D901CD91DC911197C617D70798F0A0
:10334000C530D10530F3CE0104978617970708F3EF
:10335000C61BD70B2297C193D1936D937C93CF015A
:103360000E94F318D6CF5B01AC1ABD0A4C018C0E3B
:103370009D1EA0913E04B0913F04512C412CF12C94
:10338000E12C109731F580913C0490913D04881513
:10339000990509F05CC04616570608F058C08091A0
:1033A000040190910501009741F48DB79EB74091BB
:1033B000080150910901841B950BE817F90708F0E3
:1033C00055C0F0933D04E0933C04F90171836083A0
:1033D000A0CF8D919C91119712966C901297139695
:1033E0007C901397A815B90559F56C0142E0C40EFD
:1033F000D11CCA14DB0420F1AC014A195B09DA01C3
:103400001296159780F06282738251834083D901AE
:103410006D937C93E114F10471F0D7011396FC9342
:10342000EE93129776CF22968C0F9D1FF901918310
:103430008083F301EFCFF0933F04E0933E0469CF24
:103440004816590608F42C017D01D3019ACFCB010F
:103450000E9457187C01009749F0AE01B8010E9404
:10346000391AC8010E94F318870153CF10E000E019
:1034700050CFFB01DC0102C001900D924150504041
:10348000D8F70895FB01DC018D910190801901109E
:10349000D9F3990B0895FB01DC0101900D920020F6
:1034A000E1F70895FB01DC014150504030F08D916F
:1034B0000190801919F40020B9F7881B990B089521
:1034C000FB01DC014150504048F001900D9200207A
:1034D000C9F701C01D9241505040E0F70895AEE099
:1034E000B0E0E5E7FAE10C941B170D891E8986E030
:1034F0008C831A8309838FEF9FE79E838D83AE01B0
:10350000475E5F4F6F89788DCE0101960E94921AB7
:103510002F813885020F131FF80110822E96E4E0E8
:103520000C943717ABE0B0E0E8E9FAE10C940D1722
:103530007C013B018A01FC0117821682838181FF95
:10354000C8C1CE0101965C01F7019381F30193FD9F
:10355000859193FF81913F01882309F453C18532FE
:1035600039F493FD859193FF81913F01853229F4D0
:10357000B70190E00E94821CE7CF912C212C312CC6
:10358000FFE1F31538F08B3211F190F4803209F13C
:10359000833229F137FC3CC020ED280F2A3050F54A
:1035A00036FE20C08AE0989E200D1124922E06C07F
:1035B0008D3291F0803371F7689430F8F30193FD08
:1035C000859193FF81913F018111DACF21C06894E9
:1035D00031F8689432F8F2CF689433F8EFCF6894FA
:1035E00034F8ECCFEAE02E9E200D1124222E6894B0
:1035F00035F8E4CF8E3229F436FC04C1689436F8ED
:10360000DDCF8C3619F4689437F8D8CF8836B1F20C
:10361000982F9F7D95549330E0F08336A1F1833746
:10362000C1F1833509F063C02801F2E04F0E511C4F
:10363000F801C080D180692D70E036FC02C06FEFC8
:103640007FEFC6010E946C1C4C01689437F8820120
:103650000AC00C5F1F4FFFE3F98388248394912CE9
:103660006501E89437F833FE2DC0522C8114910483
:1036700071F5552009F468CFB70180E290E00E940F
:10368000821C5A94F6CFF801808189830E5F1F4F08
:10369000E4CF2801F2E04F0E511CF801C080D18028
:1036A000692D70E036FC02C06FEF7FEFC6010E940B
:1036B000771C4C018201D5CFB70180E290E00E94D7
:1036C000821C2A942814190409F0B0F7CECFF60111
:1036D00037FC859137FE81916F01B70190E00E9420
:1036E000821C51105A94F1E08F1A9108BFCF843692
:1036F00019F0893609F077C0F80137FE6BC0608198
:103700007181828193810C5F1F4FF32DFF763F2ED5
:1037100097FF09C090958095709561957F4F8F4F69
:103720009F4F689437F82AE030E0A5010E94B21C50
:10373000C82ECA188C2C432C36FE0CC0E89440F8D6
:10374000C91440F434FE05C032FC03C0F32DFE7EE4
:103750004F2E892C44FE95C0FE01EC0DF11D808199
:10376000803309F087C0242D297E422E842D887055
:10377000582E43FC95C040FE8FC09C2C821418F438
:103780002C0C922C981844FE91C0B70180E390E075
:103790000E94821C42FE09C088E790E041FE02C000
:1037A00088E590E0B7010E94821CC91408F48AC021
:1037B000CA94D12C9FEFC91AD90ACA0CDB1CF60196
:1037C00082916F01B70190E00E94821CAC14BD048D
:1037D000B1F74FCF60817181072E000C880B990BD8
:1037E0000E5F1F4F92CFD32CE894D4F82AE030E03C
:1037F000853739F1232D297FD22E8F3601F148F4F8
:103800008835A9F0F701868197812B96E2E10C9427
:103810002917803749F08837A9F7D4FE02C0689489
:10382000D2F820E130E00DC06894D4F8F6CF34FE31
:1038300003C0822F8660D82E20E132E002C028E04B
:1038400030E0F801D7FE0FC06081718182819381E1
:103850000C5F1F4FA5010E94B21CC82ECA183D2C38
:10386000E89437F867CF6081718190E080E00E5F67
:103870001F4FF0CF42FC02C0839478CF839483948F
:1038800075CF842D867809F471CFF6CFB70180E229
:1038900090E00E94821C83948214C0F3512C73CF59
:1038A000522C5818821408F46ECFF8CF842D8678E5
:1038B00009F47BCF8BE241FE80E247FC8DE2B70149
:1038C00090E071CFB70180E390E00E94821C9A944F
:1038D0006CCF8FEF9FEF99CFFC0105906150704046
:1038E0000110D8F7809590958E0F9F1F0895FC01C9
:1038F0006150704001900110D8F7809590958E0F1F
:103900009F1F08950F931F93CF93DF93182F092FB5
:10391000EB018B8181FD09C01FEF0FEF812F902FED
:10392000DF91CF911F910F91089582FF14C02E81D6
:103930003F818C819D81281739073CF4E881F9810A
:10394000CF0101969983888310838E819F81019690
:103950009F838E83E3CFE885F985812F0995892B95
:10396000A1F3DACFFA01AA27283051F1203181F1F1
:10397000E8946F936E7F6E5F7F4F8F4F9F4FAF4F77
:10398000B1E03ED0B4E03CD0670F781F891F9A1F8A
:10399000A11D680F791F8A1F911DA11D6A0F711D3E
:1039A000811D911DA11D20D009F468943F912AE04A
:1039B000269F11243019305D3193DEF6CF01089532
:1039C000462F4770405D4193B3E00FD0C9F7F6CF63
:1039D000462F4F70405D4A3318F0495D31FD40522B
:1039E000419302D0A9F7EACFB4E0A69597958795C1
:1039F00077956795BA95C9F70097610571050895A0
:103A00009B01AC010A2E069457954795379527954B
:103A1000BA95C9F7620F731F841F951FA01D0895E3
:103A200010E0C6E8D0E004C0FE010E94B017219665
:0A3A3000C738D107C9F7F894FFCF9B
:103A3A0001000000000040048000000000001203A2
:103A4A0040026D025F03D0027C02C2022F2F2222A3
:103A5A005C5C6208660C6E0A720D7409005C753053
:103A6A00303030006E756C6C00747275650066617A
:103A7A006C7365000D0A00646174610064726169A7
:103A8A006E56616C76655374617465007361666520
:103A9A00747956616C766553746174650066616EFB
:103AAA0053746174650070756D7053746174650048
:103ABA0066616E53706565640070756D70537065EC
:103ACA00656400647261696E56616C76654C6576F0
:103ADA00656C00666C6F7753656E736F7231006642
:103AEA006C6F7753656E736F723200666C6F7753C3
:103AFA00656E736F72330072756E74696D650073EB
:103B0A00657269616C4E756D62657200504F544101
:103B1A0000504F544200504F544300383537333425
:103B2A003332333633303335313331413035320085
:103B3A005468652074696D652074726176656C6974
:103B4A006E67206973206A75737420746F6F2064BE
:103B5A00616E6765726F75732E2042657474657243
:103B6A0020746861742049206465766F7465206DDD
:103B7A007973656C6620746F207374756479207428
:103B8A006865206F74686572206772656174206D5C
:103B9A00797374657279206F662074686520756E12
:103BAA006976657273653A20632B2B20706F696E94
:103BBA00746572732E00494E434841523A200025DB
:0E3BCA003032643A253032643A2530326400DD
:00000001FF
