:100000000C9487000C94AF000C94AF000C94AF00DC
:100010000C94AF000C94AF000C94AF000C94AF00A4
:100020000C94AF000C94AF000C94AF000C94AF0094
:100030000C94AF000C94AF000C94AF000C94AF0084
:100040000C944A0E0C94AF000C94BA0E0C94940EBF
:100050000C94AF000C94AF000C94AF000C94AF0064
:100060000C94AF000C94AF00CDCCCC3D0AD7233C10
:1000700017B7D13877CC2B329595E6241FB14F0AAC
:100080000000803FCDCCCC3D6F12833A95BFD63374
:100090007D1D9026B3CE010C000020410000C84217
:1000A00000401C4620BCBE4CCA1B0E5AAEC59D74F7
:1000B00000000000240027002A00000000002500A6
:1000C00028002B0000000000230026002900040463
:1000D00004040404040402020202020203030303F0
:1000E00003030102040810204080010204081020CC
:1000F00001020408102000000008000201000003B3
:1001000004070000000000000000F40EEC0E1124B3
:100110001FBECFEFD8E0DEBFCDBF13E0A0E0B1E05F
:10012000EEEDFAE302C005900D92A636B107D9F7BD
:1001300024E0A6E6B3E001C01D92AC3DB207E1F7B2
:1001400010E0C6E8D0E004C02197FE010E94FB1732
:10015000C538D107C9F70E94B70F0C94621D0C94E3
:100160000000833081F028F4813099F08230A9F0CA
:1001700008958730A9F08830C9F08430B1F48091B7
:1001800080008F7D03C0809180008F7780938000F6
:10019000089584B58F7784BD089584B58F7DFBCF96
:1001A0008091B0008F778093B00008958091B00067
:1001B0008F7DF9CFCF93DF93282F30E0F901EA50FC
:1001C000FF4F8491F901EE51FF4FD491F901E253B1
:1001D000FF4FC491CC23A1F081110E94B100EC2FFC
:1001E000F0E0EE0FFF1FEC53FF4FA591B491EC919F
:1001F000ED2381E090E009F480E0DF91CF91089554
:1002000080E090E0FACF1F93CF93DF93282F30E068
:10021000F901EA50FF4F8491F901EE51FF4FD4915B
:10022000F901E253FF4FC491CC23A9F0162F81119D
:100230000E94B100EC2FF0E0EE0FFF1FE654FF4FDD
:10024000A591B4918FB7F894EC91111108C0D09595
:10025000DE23DC938FBFDF91CF911F910895DE2BBA
:10026000F8CFCF93DF9390E0FC01EE51FF4F249144
:1002700082539F4FFC0184918823C9F090E0880F3E
:10028000991FFC01E055FF4FA591B491FC01E65484
:10029000FF4FC591D49161110DC09FB7F8948C9117
:1002A000209582238C938881282328839FBFDF9108
:1002B000CF910895623051F49FB7F8943C91822F0A
:1002C000809583238C93E8812E2BEFCF8FB7F89402
:1002D000EC912E2B2C938FBFEACF1F93CF93DF93FC
:1002E000182FEB0161E00E943101209739F460E0A2
:1002F000812FDF91CF911F910C940301CF3FD10546
:1003000011F461E0F5CFE12FF0E0EA50FF4FE49106
:10031000E33031F140F4E130B1F0E230E1F0C038E7
:10032000D1057CF7E4CFE73029F1E83059F1E4302A
:10033000B1F780918000806280938000D0938B0021
:10034000C0938A0004C084B5806884BDC7BDDF91B6
:10035000CF911F91089584B5806284BDC8BDF7CF49
:1003600080918000806880938000D0938900C09342
:100370008800EDCF8091B00080688093B000C0937A
:10038000B300E5CF8091B00080628093B000C0934D
:10039000B400DDCF8E50806480937C0080917A0021
:1003A000806480937A0080917A0086FDFCCF8091F2
:1003B00078009091790008953FB7F8948091D70321
:1003C0009091D803A091D903B091DA0326B5A89BE8
:1003D00005C02F3F19F00196A11DB11D3FBFBA2FD7
:1003E000A92F982F8827BC01CD01620F711D811D97
:1003F000911D42E0660F771F881F991F4A95D1F71C
:1004000008958F929F92AF92BF92CF92DF92EF9218
:10041000FF926B017C010E94DC014B015C01C11465
:10042000D104E104F104B9F00E94DC0168197909F2
:100430008A099B09683E73408105910580F321E09C
:10044000C21AD108E108F10888EE880E83E0981EF0
:10045000A11CB11CE4CFFF90EF90DF90CF90BF9034
:10046000AF909F908F9008952FB7F8946091D30329
:100470007091D4038091D5039091D6032FBF089536
:10048000AF92BF92CF92DF92EF92FF920F931F93A2
:10049000CF93DF936C017B018B01040F151FEB01E0
:1004A0005E01AE18BF08C017D10759F06991D60197
:1004B000ED91FC910190F081E02DC6010995892B09
:1004C00079F7C501DF91CF911F910F91FF90EF90C8
:1004D000DF90CF90BF90AF900895FC01538D448D75
:1004E000252F30E0842F90E0821B930B541710F0DF
:1004F000CF96089501970895FC01918D828D9817EC
:1005000061F0A28DAE0FBF2FB11D5D968C91928DC3
:100510009F5F9F73928F90E008958FEF9FEF0895F4
:100520000F931F930E9434026093E3037093E403DC
:100530008093E5039093E6038BED93E00E947C02A9
:1005400097FF1DC00E9434020091E3031091E40361
:100550002091E5033091E603601B710B820B930B36
:100560000091DF031091E0032091E1033091E20359
:100570006017710782079307F8F28FEF9FEF1F91C3
:100580000F910895FC01918D828D981731F0828D25
:10059000E80FF11D858D90E008958FEF9FEF08958E
:1005A000FC01918D228D892F90E0805C9F4F821BF2
:1005B00091098F73992708958BED93E00E94D002E3
:1005C00021E0892B09F420E0822F089580E090E05B
:1005D000892B29F00E94DC0281110C9400000895FF
:1005E000FC01A48DA80FB92FB11DA35ABF4F2C91A8
:1005F000848D90E001968F739927848FA689B7899F
:100600002C93A089B1898C91837080648C93938D95
:10061000848D981306C00288F389E02D80818F7D38
:1006200080830895EF92FF920F931F93CF93DF93F0
:10063000EC0181E0888F9B8D8C8D98131AC0E8891E
:10064000F989808185FF15C09FB7F894EE89FF89ED
:100650006083E889F98980818370806480839FBF8B
:1006600081E090E0DF91CF911F910F91FF90EF908B
:100670000895F62E0B8D10E00F5F1F4F0F7311279B
:10068000E02E8C8D8E110CC00FB607FCFACFE889D6
:10069000F989808185FFF5CFCE010E94F002F1CF6C
:1006A000EB8DEC0FFD2FF11DE35AFF4FF0829FB74A
:1006B000F8940B8FEA89FB8980818062CFCFCF933A
:1006C000DF93EC01888D8823B9F0AA89BB89E8897A
:1006D000F9898C9185FD03C0808186FD0DC00FB620
:1006E00007FCF7CF8C9185FFF2CF808185FFEDCF9E
:1006F000CE010E94F002E9CFDF91CF910895CF9310
:10070000DF93EC01BC0185E00E946D01BE0186E033
:100710000E946D01BE0189E0DF91CF910C946D01C3
:100720000F931F93CF93DF938B01EA01BC0185E008
:100730000E946D01B80186E00E946D01BE0189E052
:10074000DF91CF911F910F910C946D010895FB01E2
:10075000309729F0948190789660948380830895EF
:10076000CF93DF93EC0188819981DC01ED91FC91BD
:100770000190F081E02D09952A813B81820F931F22
:100780009B838A83DF91CF910895CF93DF93EC0110
:1007900088819981DC01ED91FC910280F381E02D4B
:1007A00009952A813B81820F931F9B838A83DF9166
:1007B000CF9108958F929F92AF92BF92CF92DF9286
:1007C000EF92FF920F931F93CF93DF93CDB7DEB7D6
:1007D00066970FB6F894DEBF0FBECDBF6C018E01D9
:1007E000095E1F4F78018AE0882E912CA12CB12C34
:1007F000CB01BA01A50194010E94A217942F852F65
:10080000605DF80162938F01A901692F782F41156E
:1008100051056105710561F7A7014E1B5F0BBF0113
:10082000C6010E94C50366960FB6F894DEBF0FBEE0
:10083000CDBFDF91CF911F910F91FF90EF90DF908F
:10084000CF90BF90AF909F908F900895FC0125812D
:10085000222339F0F8E02F0290011124820F931F18
:10086000089590E080E0089582E00E94DA00019708
:1008700019F481E08093A5038DE00E94DA000197CE
:1008800019F481E08093A00384E00E94DA000197CC
:1008900019F481E080939B0308958091A503811151
:1008A00015C09091A003911112C090919B039111DA
:1008B0000EC08091C603811109C09091C4039111AB
:1008C00006C08091C20391E08927089580E00895D1
:1008D0001092C9031092C8031092CD031092CC035A
:1008E0001092CB031092CA0350E040E070E060E049
:1008F00090E080E00C949003FC0101900020E9F767
:100900003197AF01481B590BBC018BED93E00C9460
:100910004002CF93DF930E947C04EC018CE191E0D4
:100920000E947C048C0F9D1FDF91CF91089560E0A1
:1009300088E00E9403018FE191E00E9489041092F7
:10094000A60360E087E00E94030160E085E00E946A
:1009500003011092C60385E391E00C948904FB0126
:1009600001900020E9F73197AF01461B570B0C941B
:10097000C5031F93CF93DF93E0E4F1E012811123CD
:1009800079F0329621816213F9CFEC016CE50E9477
:10099000B003612FCE01DF91CF911F910C94B00372
:1009A0006111F9CF61E571E0DF91CF911F910C9456
:1009B000AF042F923F924F925F926F927F928F92ED
:1009C0009F92AF92BF92CF92DF92EF92FF920F93DE
:1009D0001F93CF93DF93CDB7DEB76C970FB6F89424
:1009E000DEBF0FBECDBF7C018B01DC0114968C9164
:1009F00014978F77863009F464C2B0F48230E8F03F
:100A00001296CD90DC901397AC901196BC908430E8
:100A100008F026C2A601B501C8010E94C503D8018D
:100A200012968D919C9103C28C3069F160F48830EC
:100A300009F441C28A3009F426C268E571E0C801B0
:100A40000E94AF04E7C1803209F4EDC18034A9F7F8
:100A50006BE5C8010E94B003D701ED90FC90E11452
:100A6000F10409F4DBC1B801C7010E94D904C70130
:100A70000E9426047C01892B09F4D0C16CE2C801D4
:100A80000E94B003ECCFF701C080D180E280F380F8
:100A9000A7019601C701B6010E9415168111CDCF9D
:100AA00020E030E0A901C701B6010E941516882395
:100AB00079F0A7019601C701B6010E9402189B01B7
:100AC000AC01C701B6010E941516882309F4B5CF01
:100AD00020E030E0A901C701B6010E94151687FF8A
:100AE00008C06DE2C8010E94B003F7FAF094F7F86D
:100AF000F09420E836E948E15BE4C701B6010E94C2
:100B0000A41887FD7CC074E1872E912CE0E2AE2E04
:100B1000B12C712C612CF401E856FF4F25913591D1
:100B200045915491C701B6010E94A41887FD0FC0DA
:100B3000F401E859FF4F2591359145915491C70132
:100B4000B6010E947B166B017C016A0C7B1CB5947C
:100B5000A794F4E08F1A91082CEF82162FEF9206DB
:100B6000D1F63FEF3F8B20E030E0A901C701B6018D
:100B70000E94A41818160CF04AC02CEA35EC47E283
:100B800057E3C701B6010E94151618160CF43FC0B2
:100B9000AF89B4E0AB02C0011124912C812CFC017F
:100BA000E058FF4F1F019C0128563F4F29013F8904
:100BB0003F3F69F1F101E80DF91D2591359145910E
:100BC0005491C701B6010E94151687FF0FC0F201AC
:100BD000E80DF91D2591359145915491C701B60154
:100BE0000E947B166B017C016A187B08B594A79460
:100BF0008F8981508F8B94E0891A9108D8CF50E269
:100C0000A52EB12C85E08F8B712C612CACCFC70148
:100C1000B6010E9475184B015C011B012C01A6E076
:100C2000AC8F80E492E4AFE0B0E0888F998FAA8F18
:100C3000BB8F9C8D9F8BA92FA150AC8FBAE02B1638
:100C4000310441045104C8F0688D798D8A8D9B8DE3
:100C50002AE030E040E050E00E94A217288F398F50
:100C60004A8F5B8FC201B1012AE030E040E050E0E2
:100C70000E94A21719012A01DCCFC501B4010E940C
:100C80001A169B01AC01C701B6010E9401186B0145
:100C90007C01688D798D8A8D9B8D0E941A169B012F
:100CA000AC01C701B6010E947B161B012C010E94FA
:100CB00075186B017C010E941A169B01AC01C201E0
:100CC000B1010E9401189B01AC010E9402180E9410
:100CD0007518C60ED71EE81EF91E888D998DAA8D2F
:100CE000BB8DC816D906EA06FB06C0F09FEF891A2D
:100CF000990AA90AB90A6114710439F1AAE08A169D
:100D00009104A104B10408F1BFEF6B1A7B0AC12C56
:100D1000D12C7601812C912C540183942AE0222E2F
:100D2000312C412C512CC701B601A20191010E9426
:100D3000A217672B682B692B61F4EF891E164CF400
:100D400069017A01E150EF8BEECFC12CD12C7601F5
:100D5000E5CFB501A401C8010E94DA03FF89FF2392
:100D600091F14E0121E1820E911CF88F54019AE01D
:100D7000292E312C412C512C388D3150388F3F3F4A
:100D800069F0C701B601A20191010E94A217605D3E
:100D9000D4016E934D0169017A01EECFBF898B2F8B
:100DA00090E0BC0160957095F501E81BF90B319757
:100DB0008EE2808344275527461B570B6A0D7B1D07
:100DC000C8010E94C5036114710421F165E6C801E0
:100DD0000E94B003730177FE07C06DE2C8010E9454
:100DE000B003F194E194F108FE0177969F018AE047
:100DF000C82ED12CC701B6010E94D317805D829303
:100E00007B01672BB9F7A9014E1B5F0BBF01C8011E
:100E10000E94C503F8018281938109C06DE5C80174
:100E20000E94B003F7CFB701C8010E946D076C960E
:100E30000FB6F894DEBF0FBECDBFDF91CF911F91EB
:100E40000F91FF90EF90DF90CF90BF90AF909F9069
:100E50008F907F906F905F904F903F902F9008956C
:100E600062E2C8010E94B0037501CE0CDF1CCE14F3
:100E7000DF0439F0D7016D917D01C8010E94B904EA
:100E8000F6CF62E2CCCFF701C080D180E280F38060
:100E9000B701A601F7FE0BC06DE2C8010E94B003C6
:100EA00044275527BA014C195D096E097F09C8010D
:100EB0000E94DA03B4CDF7014081518162817381D0
:100EC000F6CFF70180816DE571E0811102C062E625
:100ED00071E0C8010E94AF04A2CDCF92DF92EF92E1
:100EE000FF920F931F93CF93DF93EC018B016BE77E
:100EF0000E94B003F801008111810115110541F133
:100F0000F801C680D78062E2CE010E94B00376016C
:100F1000F70161917F01662321F0CE010E94B9049F
:100F2000F7CF62E2CE010E94B0036AE3CE010E94D5
:100F3000B003BE01C8010E94D904C8010E94260462
:100F40008C01892B29F06CE2CE010E94B003D5CF31
:100F50006DE7CE010E94B0038A819B81DF91CF9122
:100F60001F910F91FF90EF90DF90CF900895FC01BB
:100F7000A081B181109749F0FD0101900020E9F7AF
:100F80003197CF018A1B9B0B089590E080E0089574
:100F9000FB01DC018D919C91009761F06081718172
:100FA0006115710539F0448155810E94A41A21E030
:100FB000892B09F020E0822F0895FC018081918126
:100FC000009711F00C94451908950F931F93CF9338
:100FD000DF93EC0188819981009759F02A813B8148
:100FE0002617370730F081E0DF91CF911F910F91E5
:100FF00008958B016F5F7F4F0E94CE19009759F0C3
:10100000998388831B830A832C813D81232B59F785
:10101000FC011082E8CF80E0E7CFEF92FF920F93C0
:101020001F93CF93DF93EC017B018A01BA010E94E9
:10103000E50728813981811114C02115310519F086
:10104000C9010E944519198218821D821C821B82C7
:101050001A82CE01DF91CF911F910F91FF90EF90F7
:1010600008951D830C83B701C9010E949D1AF1CF19
:10107000FC01118210821382128215821482FB01FC
:1010800001900020E9F73197AF01461B570B0C94F4
:101090000D08AF92BF92CF92DF92EF92FF920F9323
:1010A0001F93CF93DF93EC017B016A0184E0A82EAC
:1010B000B12C4430510520F45A0194E0C92ED12CB2
:1010C00060E571E0CE010E943808D70114960D91B9
:1010D0001C91A016B10628F5C016D10608F48601A9
:1010E000D701ED91FC911197E00FF11FD080108294
:1010F0006D917C916A0D7B1D61157105F1F0FB010D
:1011000001900020E9F73197AF01461B570BCE0144
:101110000E940D08F70180819181080F191FD801E5
:10112000DC92CE01DF91CF911F910F91FF90EF9054
:10113000DF90CF90BF90AF900895888199810097FC
:1011400011F00E944519198218821D821C821B828F
:101150001A82E0CFCF92DF92EF92FF920F931F930C
:10116000CF93DF93009759F480E090E0DF91CF9127
:101170001F910F91FF90EF90DF90CF900895611530
:10118000710591F38A017B01EC01C880D980C114FB
:10119000D10489F1D60116966D917C91C7010E9408
:1011A000941A892B31F1C6010E9426046C01EFCFFD
:1011B0003897D8011596FC93EE9314973097A1F2C7
:1011C000AA81BB81109791F0CF018A1B9B0B23E072
:1011D000959587952A95E1F715968C93FB83EA837D
:1011E00015821482F782E682CF01C0CFF983E883AB
:1011F000F5CFC601BBCFD8011496ED91FC911597A0
:1012000012968D919C910896E817F90788F681E06F
:10121000F8018087A9CF2F923F924F925F926F92F1
:101220007F928F929F92AF92BF92CF92DF92EF9276
:10123000FF920F931F93CF93DF93CDB7DEB7CC51BF
:10124000D1400FB6F894DEBF0FBECDBF2B014901D0
:10125000C75EDE4FE882F9820A831B83C951D14001
:10126000CE010F969A8389839C838B831E0121EF85
:10127000221A2EEF320A3E822D8238862F8219865C
:1012800080E28E871B861A861D861C86AE014F5F04
:101290005F4F68E671E0CE010A960E94AA088C01B1
:1012A000009749F0FC0184818078806284831182F8
:1012B000108213821282AE014F5F5F4F6DE671E0C4
:1012C000C8010E94AA08BC018091C2030E94A70322
:1012D000AE014F5F5F4F6DE771E0C8010E94AA0841
:1012E000BC018091A6030E94A703AE014F5F5F4F30
:1012F0006EE871E0C8010E94AA08BC018091C40395
:101300000E94A703AE014F5F5F4F67E971E0C8011C
:101310000E94AA08BC018091C6030E94A703AE01E7
:101320004F5F5F4F61EA71E0C8010E94AA08FC01AB
:10133000892B81F02091890330918A0394819078E0
:101340009A609483C901330FAA0BBB0B80839183EE
:10135000A283B383AE014F5F5F4F6AEA71E0C801B9
:101360000E94AA08FC01892B81F02091850330910D
:101370008603948190789A609483C901330FAA0BF5
:10138000BB0B80839183A283B383AE014F5F5F4F1A
:1013900064EB71E0C8010E94AA08FC01892B81F06E
:1013A0002091870330918803948190789A60948388
:1013B000C901330FAA0BBB0B80839183A283B38334
:1013C000AE014F5F5F4F64EC71E0C8010E94AA0854
:1013D0007C01009781F0FC01848180788C6084839B
:1013E000B201550C880B990B0E941C16F701608303
:1013F000718382839383AE014F5F5F4F60ED71E035
:10140000C8010E94AA083C01009781F0FC01848178
:1014100080788C608483B401990C880B990B0E94AE
:101420001C16F3016083718382839383AE014F5F47
:101430005F4F6CED71E0C8010E94AA085C01009743
:10144000B1F0FC01848180788C608483C75EDE4FBC
:1014500028813981C951D140B901330F880B990BCB
:101460000E941C16F5016083718382839383AE0111
:101470004F5F5F4F68EE71E0C8010E94AA086C01DF
:10148000892B09F44FC08AEA93E0C95EDE4F998345
:101490008883C751D140CB5EDE4F99838883C55185
:1014A000D140CE018B5E9E4F0E94B7074C01A980B0
:1014B000BA80EB80FC808AEA482E83E0582E9401A3
:1014C00026553C4F3901F501E80DF91DEE15FF05D4
:1014D00008F468C0CE018B5E9E4F0E94B7079C0146
:1014E0002F5F3F4F2E0D3F1D4D815E8142175307E9
:1014F00008F07FC081E08987F12CE12CCE01895E64
:101500009E4F0E94B707AC0130E020E0E114F104E7
:1015100011F026EA33E0F60194819078232B09F04C
:101520007FC09483AE014F5F5F4F60EF71E0C801F1
:101530000E94AA08DC01892B71F0A090D204B0901F
:10154000D304A114B10409F072C014968C911497BD
:10155000807814968C938BED93E0F10191838083D6
:1015600013821282BE01665F7F4FC1010E946D0728
:10157000C45EDE4F0FB6F894DEBF0FBECDBFDF9165
:10158000CF911F910F91FF90EF90DF90CF90BF9080
:10159000AF909F908F907F906F905F904F903F9013
:1015A0002F9008958081811118C0CD5EDE4F598241
:1015B0004882C351D140CE018D5E9E4F0E94B70735
:1015C0008816990651F4D501EAEAF3E06E167F0613
:1015D00051F09D9181919817C9F3F50181915F01B7
:1015E0008111FBCF70CFA114B10409F473CF750141
:1015F00085CF3C832B83E114F10409F47FCFEAEA21
:10160000F3E0D701AC0146555C4FE417F50719F03C
:1016100021912D93FACF8E0D9F1DFC0110826ECF6C
:1016200095609483F182E082538342837BCF209143
:10163000D6043091D70489819A814B815C817501F0
:10164000E20EF31EBC01620F731F64177507C8F426
:10165000FB01608161110DC0B5018C016E157F0524
:1016600071F0FB01C190BF01F801D1908F01CD1441
:10167000A9F3FC016191CF016111FBCFE3CF00978A
:1016800081F5C9010196840F951F6D817E816817D0
:10169000790778F481E0898790E080E070E060E08D
:1016A00014964C9114974078672BF1F414964C9350
:1016B00052CF9C838B834115510571F3CA0185017B
:1016C000020F131F0A151B0539F0F50161915F0127
:1016D000FC016193CF01F6CFFA01E20FF31F1082F4
:1016E000CA0166EA73E0DCCF456014964C93149708
:1016F00011969C938E9313963C932E9312972BCF17
:10170000CF92DF92EF92FF920F931F93CF93DF93CD
:1017100000D000D000D0CDB7DEB78C016DEF71E006
:10172000CE0101960E943808F801248135818D810F
:101730009E81F12C2817390738F0BE016F5F7F4F6B
:10174000C8010E94C807F82ECE0101960E94DD074D
:10175000FF2091F1F80144815581B801CE01019635
:101760000E94490889819A81C12CD12C7601009769
:1017700019F00E94D9156B01CE0101960E94DD0778
:10178000C60101978F3F910540F4B60183E00E94A6
:101790006D01D0928603C092850326960FB6F89409
:1017A000DEBF0FBECDBFDF91CF911F910F91FF9094
:1017B000EF90DF90CF90089562E072E0CE01019645
:1017C0000E943808F801248135818D819E81281777
:1017D000390738F0BE016F5F7F4FC8010E94C8070C
:1017E000F82ECE0101960E94DD07FF2029F1F801B5
:1017F00044815581B801CE0101960E944908898132
:101800009A81C12CD12C7601009719F00E94D9152C
:101810006B01CE0101960E94DD07C60101978F3F43
:10182000910508F0BACFB6018AE00E946D01D0920E
:101830008A03C0928903B1CF67E072E0CE010196BE
:101840000E943808F801248135818D819E812817F6
:10185000390738F0BE016F5F7F4FC8010E94C8078B
:10186000F82ECE0101960E94DD07FF2009F495CFE6
:10187000F80144815581B801CE0101960E944908C2
:1018800089819A81C12CD12C7601009719F00E9490
:10189000D9156B01CE0101960E94DD07C6010197A3
:1018A0008F3F910508F079CFB6018BE00E946D0162
:1018B000D0928803C092870370CF0F931F93CF936A
:1018C000DF93CDB7DEB72C970FB6F894DEBF0FBE0F
:1018D000CDBF8BED93E00E94D002181619060CF0D4
:1018E00059C060E571E0CE0107960E9438080E9459
:1018F00090020B851C8597FD1CC08A309105C9F0AC
:1019000089831A820F5F1F4FB801CE0107960E948C
:10191000E507882361F32F8138858B859C85BE017F
:101920006F5F7F4F820F931F0E949D1A1C870B874A
:10193000DECF01151105C9F51092660386E693E026
:10194000FC0101900020E9F7CF01875693400297F0
:10195000E8F18CE092E00E9489041A8219821C82CC
:101960001B821E821D826F8178856115710531F0A1
:101970004B855C85CE0101960E940D08CE01019633
:101980000E94800BCE0101960E94DD07CE010796D2
:101990000E94DD072C960FB6F894DEBF0FBECDBFB8
:1019A000DF91CF911F910F9108950831110510F02B
:1019B00008E110E06F817885A80186E693E00E9437
:1019C000B21AF801EA59FC4F1082B8CF8AE192E0CE
:1019D0000E947C0486E693E00E94890481E292E002
:1019E0000E94890485E392E00E947C0486E693E0ED
:1019F0000E94890481E292E00E948904809166033A
:101A00008334B1F044F4813479F0823409F0BECFEC
:101A10001092C603BBCF853491F074F0863409F080
:101A2000B5CF1092C203B2CF81E08093C603AECF90
:101A300081E08093C403AACF1092C403A7CF81E0B2
:101A40008093C203A3CFCF93DF93C8ECD0E00E9472
:101A500034040E945D0C4091CA035091CB034F5F48
:101A60005F4F5093CB034093CA036091CC037091B6
:101A7000CD038091C8039091C9030E9490030E94F6
:101A80004D04811138C00E946804C4EFD1E0609118
:101A9000CC037091CD0348EC50E08091C803909145
:101AA000C9030E9490030E944D0481112EC00E9420
:101AB0006804C8ECD0E00E9434040E945D0C4091A0
:101AC000CA035091CB03415051095093CB0340932B
:101AD000CA036091CC037091CD038091C8039091AB
:101AE000C9030E9490030E944D04811118C0DF9128
:101AF000CF910C94680463E070E080E090E00E9475
:101B00000102219709F0A3CFC0CF63E070E080E02D
:101B100090E00E940102219709F0B9CFCACF63E09B
:101B200070E080E090E00E940102219721F6DF91B1
:101B3000CF910895CF93DF93C8ECD0E00E94340496
:101B40006091CC037091CD036F5F7F4F7093CD0395
:101B50006093CC034091CA035091CB038091C8039A
:101B60009091C9030E9490030E944D04811124C0EA
:101B70000E946804C8ECD0E00E9434040E945D0C0E
:101B80006091CC037091CD03615071097093CD03C6
:101B90006093CC034091CA035091CB038091C8035A
:101BA0009091C9030E9490030E944D04811110C0BE
:101BB000DF91CF910C9468040E945D0C63E070E0AB
:101BC00080E090E00E940102219709F0B7CFD2CFC8
:101BD00063E070E080E090E00E940102219761F6EE
:101BE000DF91CF910895CF93DF93C8ECD0E00E94AE
:101BF00034040E945D0C8091C8039091C903019642
:101C00009093C9038093C8034091CA035091CB03BA
:101C10006091CC037091CD030E9490030E944D040B
:101C2000811123C00E946804C8ECD0E00E943404F3
:101C30000E945D0C8091C8039091C9030197909315
:101C4000C9038093C8034091CA035091CB036091AC
:101C5000CC037091CD030E9490030E944D0481112A
:101C60000EC0DF91CF910C94680463E070E080E0D7
:101C700090E00E940102219709F0B9CFD5CF63E02F
:101C800070E080E090E00E940102219779F6DF91F8
:101C9000CF9108951F920F920FB60F9211242F9398
:101CA0003F938F939F93AF93BF938091D303909172
:101CB000D403A091D503B091D6033091D20323E091
:101CC000230F2D3758F50196A11DB11D2093D20386
:101CD0008093D3039093D403A093D503B093D603FA
:101CE0008091D7039091D803A091D903B091DA03E2
:101CF0000196A11DB11D8093D7039093D803A093A3
:101D0000D903B093DA03BF91AF919F918F913F9127
:101D10002F910F900FBE0F901F90189526E8230F5C
:101D20000296A11DB11DD2CF1F920F920FB60F9236
:101D300011242F933F934F935F936F937F938F93D0
:101D40009F93AF93BF93EF93FF938BED93E00E942C
:101D5000F002FF91EF91BF91AF919F918F917F9191
:101D60006F915F914F913F912F910F900FBE0F9008
:101D70001F9018951F920F920FB60F9211242F9358
:101D80008F939F93EF93FF93E091EB03F091EC031C
:101D90008081E091F103F091F20382FD1BC09081FC
:101DA0008091F4038F5F8F732091F503821741F0C8
:101DB000E091F403F0E0E552FC4F958F8093F4033B
:101DC000FF91EF919F918F912F910F900FBE0F90E8
:101DD0001F9018958081F4CF8CEC94E00E94DD0771
:101DE00082ED94E00C94DD07CF92DF92EF92FF92A8
:101DF000EBEDF3E01382128288EE93E0A0E0B0E016
:101E000084839583A683B7838EE091E0918380835A
:101E100085EC90E09587848784EC90E097878687AF
:101E200080EC90E0918B808B81EC90E0938B828BA7
:101E300082EC90E0958B848B86EC90E0978B868B80
:101E4000118E128E138E148E69E472E082ED94E08E
:101E50000E9438080E94811523ECC22ED12CE12C5F
:101E6000F12CA70196010E9439176B5F7F4F8F4FAE
:101E70009F4F0E941C166093C8047093C9048093FE
:101E8000CA049093CB040E948115A70196010E9479
:101E900039176B5F7F4F8F4F9F4F0E941C166093C7
:101EA000C4047093C5048093C6049093C7040E9431
:101EB0008115A70196010E9439176B5F7F4F8F4FE5
:101EC0009F4F0E941C166093C0047093C1048093BE
:101ED000C2049093C304E8EAF4E0148215821682E7
:101EE000178210861186128613861486158616862A
:101EF0001786108A118A128A138A148A158A168AFA
:101F0000178AE0E9F4E0148215821682178210869F
:101F10001186128613861486158616861786108AF1
:101F2000118A128A138A148A158A168A178AE8E790
:101F3000F4E01482158216821782108611861286AA
:101F400013861486158616861786108A118A128AB9
:101F5000138A148A158A168A178A6EE572E08CEC49
:101F600094E0FF90EF90DF90CF900C943808CF93DF
:101F7000DF93CDB7DEB7AD970FB6F894DEBF0FBED7
:101F8000CDBF789484B5826084BD84B5816084BD02
:101F900085B5826085BD85B5816085BD80916E0007
:101FA000816080936E001092810080918100826038
:101FB0008093810080918100816080938100809175
:101FC00080008160809380008091B1008460809364
:101FD000B1008091B00081608093B00080917A0060
:101FE000846080937A0080917A00826080937A0086
:101FF00080917A00816080937A0080917A00806875
:1020000080937A001092C100E091EB03F091EC0311
:1020100082E08083E091E703F091E8031082E09191
:10202000E903F091EA038FEC80831092F303E091CF
:10203000EF03F091F00386E08083E091ED03F091EF
:10204000EE03808180618083E091ED03F091EE03E7
:10205000808188608083E091ED03F091EE038081C0
:1020600080688083E091ED03F091EE0380818F7DA5
:10207000808360E082E00E94310161E085E00E949F
:10208000310160E085E00E94030160E08DE00E9484
:10209000310161E086E00E94310160E086E00E944B
:1020A000030160E084E00E94310161E089E00E9468
:1020B000310160E089E00E94030161E087E00E9455
:1020C000310160E087E00E94030161E083E00E944B
:1020D000310161E08CE00E94310161E08BE00E94FF
:1020E000310161E088E00E9431010E94340262E027
:1020F00081E10E94310162E082E10E94310162E0EF
:1021000083E10E94310160E08EE00E94310160E0D5
:102110008FE00E94310160E080E10E9431010E9465
:102120009704A3E06A2E712C08EC10E080918303E1
:102130009091840301969093840380938303C090CD
:102140008103D090820340907F0350908003A601CA
:10215000B2010E94900361E070E080E090E00E9494
:1021600001020150110911F7F8ECEF2EF12C00914A
:102170008303109184030150110910938403009389
:102180008303A601B201C8010E94900361E070E0E0
:1021900080E090E00E94010221E0E21AF10839F7A4
:1021A000E8ECEE2EF12C60917F03709180036F5F5D
:1021B0007F4F7093800360937F03A601C8010E9444
:1021C000900361E070E080E090E00E94010281E015
:1021D000E81AF10841F778EC472E512CE0907F0384
:1021E000F090800391E0E91AF108F0928003E09208
:1021F0007F03A601B701C8010E94900361E070E06F
:1022000080E090E00E940102E1E04E1A510831F7AF
:1022100068ECC62ED12C40918103509182034F5F10
:102220005F4F5093820340938103B701C8010E941E
:10223000900361E070E080E090E00E940102F1E034
:10224000CF1AD10841F758ECC52ED12C409181030B
:10225000509182034150510950938203409381036E
:10226000B701C8010E94900361E070E080E090E057
:102270000E94010221E0C21AD10841F781E0681AE8
:10228000710809F051CF08EC10E080918303909120
:102290008403019690938403809383030E947F03B9
:1022A00061E070E080E090E00E94010201501109BD
:1022B00061F708EC10E0809183039091840301970B
:1022C00090938403809383030E947F0361E070E016
:1022D00080E090E00E9401020150110961F708ECD2
:1022E00010E080917F03909180030196909380038A
:1022F00080937F030E947F0361E070E080E090E0C4
:102300000E9401020150110961F708EC10E0809170
:102310007F039091800301979093800380937F03C4
:102320000E947F0361E070E080E090E00E94010283
:102330000150110961F708EC10E080918103909140
:102340008203019690938203809381030E947F030E
:1023500061E070E080E090E00E940102015011090C
:1023600061F708EC10E0809181039091820301975E
:1023700090938203809381030E947F0361E070E069
:1023800080E090E00E9401020150110961F7409144
:10239000D0045091D1046091CC047091CD048BEDA8
:1023A00093E00E9440028CE191E00E947C0440E2B4
:1023B000442E43E0542E612C712CBB24B39427E4AB
:1023C000222E23E0322E3AEA832E33E0932E0E940F
:1023D00034048EE00E94CA018FE00E94CA0180E1AD
:1023E0000E94CA016091C8047091C9048091CA0416
:1023F0009091CB040E946E187BA36AA36091C404E1
:102400007091C5048091C6049091C7040E946E1813
:102410007FA36EA36091C0047091C1048091C20437
:102420009091C3040E946E187BA76AA781E10E9465
:10243000CA019C01990F440B550B285C31094109D5
:102440005109AFEFB0E00E945817A30192010E941A
:10245000391769012F3F310521F01CF0CC24CA94B3
:10246000D12CD7FE02C0D12CC12CD0929603C092A1
:10247000950382E10E94CA019C01990F440B550B00
:10248000285C310941095109AFEFB0E00E945817AB
:10249000A30192010E94391779012F3F310521F0E4
:1024A0001CF0EE24EA94F12CF7FE02C0F12CE12C92
:1024B000F0929403E092930383E10E94CA019C018D
:1024C000990F440B550B2659310941095109AFEFBA
:1024D000B0E00E94581722E533E040E050E00E944F
:1024E000391789012F3F310519F014F00FEF10E073
:1024F00017FF02C010E000E01093920300939103D5
:1025000080918F03909190039C012A503109C2164B
:10251000D30624F00A968C159D0574F4B60183E069
:102520000E946D01D0928603C0928503D0929003E1
:10253000C0928F03B092C10380918D0390918E035E
:102540009C012A503109E216F3062CF00A968E15EA
:102550009F050CF0FCC1B7018AE00E946D01F0926A
:102560008A03E0928903F0928E03E0928D03B09289
:10257000C0038091A503882331F10E9434020091A9
:10258000A1031091A2032091A3033091A403601B27
:10259000710B820B930B6D3B72408105910538F0F6
:1025A0008091C603882309F4F0C11092C6030E94EB
:1025B00034026093A1037093A2038093A3039093CA
:1025C000A4031092A5038091A003882331F10E94F7
:1025D000340200919C0310919D0320919E03309141
:1025E0009F03601B710B820B930B6D3B7240810547
:1025F000910538F08091C403882309F4C9C1109271
:10260000C4030E94340260939C0370939D038093E3
:102610009E0390939F031092A00380919B038823B5
:1026200031F10E9434020091970310919803209198
:10263000990330919A03601B710B820B930B6D3BD6
:1026400072408105910538F08091C203882309F416
:10265000A2C11092C2030E94340260939703709348
:1026600098038093990390939A0310929B030E947E
:102670005D0CF090C6038091A903F81609F445C0DB
:1026800084EE92E00E947C042F2D30E050E040E088
:1026900019A28E010F5D1F4FCA01B9012AE030E077
:1026A00040E050E00E94A217605DF80162938F0144
:1026B000211531054105510579F7309719F0CF0102
:1026C0000E947C048CE191E00E947C04FF2009F4CC
:1026D00065C161E088E00E9403018EEE92E00E94F5
:1026E0008904B092A60361E087E00E94030161E0E3
:1026F00085E00E940301B092C60382E093E00E944D
:1027000089048091C6038093A9038091C4039091AA
:10271000A803891799F0882309F443C161E08CE08C
:102720000E94030161E086E00E9403018CE093E0D7
:102730000E9489048091C4038093A8038091C203FE
:102740009091A7038917B1F0882309F435C16FEF81
:1027500070E08BE00E946D0161E089E00E9403015E
:10276000B092C2038FE193E00E9489048091C2037A
:102770008093A7030E9434020E9434026B017C0103
:1027800028EE33E040E050E00E94A217CA01B901F0
:1027900020E13EE040E050E00E94A217CB016CE354
:1027A00070E00E94E7179F938F937F936F93C70109
:1027B000B60120E83EEE46E350E00E94A2173F93A8
:1027C0002F933F922F929F928F920E94C11A0FB621
:1027D000F894DEBF0FBECDBF8091C103882309F4FA
:1027E000F9C01092C10386E593E00E948904EAA42F
:1027F000FBA40CA51DA52EA13FA148A559A56AA122
:102800007BA18CA19DA10E940B090E944D048823ED
:1028100009F490C00E9434020091CE031091CF03BE
:102820002091D0033091D103601B710B820B930B6D
:10283000603177428105910508F47CC00E94340222
:102840006093CE037093CF038093D0039093D10312
:102850000E94F30D0E94F30D08EC10E00E94340476
:102860000E945D0C6091CC037091CD036F5F7F4F30
:102870007093CD036093CC034091CA035091CB0376
:102880008091C8039091C9030E9490030E944D0457
:102890008111CAC00E94680404EF11E00E94340450
:1028A0000E945D0C4091CA035091CB0368EC70E02C
:1028B0008091C8039091C9030E9490030E944D0427
:1028C0008111BDC00E94680408EC10E00E9434042D
:1028D0000E945D0C6091CC037091CD036150710931
:1028E0007093CD036093CC034091CA035091CB0306
:1028F0008091C8039091C9030E9490030E944D04E7
:102900008111A8C00E9468040E949A0D0E949A0D2D
:102910000E949A0D0E944D04811102C00E94680419
:102920000E94230D0E94230D0E944D04811102C0BC
:102930000E94680480E090E0892B09F448CD0E9451
:10294000DC02882309F439CD0E94000036CD809145
:102950008B0390918C039C012A50310902171307B5
:102960002CF00A96801791070CF003CEB8018BE08B
:102970000E946D01109388030093870310938C03CA
:1029800000938B03B092BF03F4CDB092C6030FCE79
:10299000B092C40336CEB092C2035DCE0E949704BB
:1029A000B0CE60E08CE00E94030160E086E00E940F
:1029B000030185E193E0BCCE70E060E08BE00E9413
:1029C0006D0160E089E00E9403011092C20382E37E
:1029D00093E0CACE8091C003882319F01092C003FF
:1029E00002CF8091BF0381110FC08091C6039091E7
:1029F000C70398130CC08091C4039091C503981726
:102A000049F08093C503EFCE1092BF03ECCE8093C4
:102A1000C703E9CE8091C2039091C303981709F4CC
:102A2000F4CE8093C303DFCE63E070E080E090E0FB
:102A30000E9401020150110909F010CF2DCF63E06F
:102A400070E080E090E00E9401020150110909F05D
:102A500025CF3ACF63E070E080E090E00E94010271
:102A60000150110909F032CF4FCF8F929F92AF9250
:102A7000BF92CF92DF92EF92FF92CF93DF93EC0160
:102A8000688179818A819B81611571058105910534
:102A900021F464E279ED8BE597E02DE133EF41E03D
:102AA00050E00E94391749015A019B01AC01A7EA85
:102AB000B1E40E9458176B017C01ACEEB4EFA501A4
:102AC00094010E946617C60ED71EE81EF91EF7FE77
:102AD00006C081E0C81AD108E10880E8F80AC88277
:102AE000D982EA82FB82C701B6019F77DF91CF913D
:102AF000FF90EF90DF90CF90BF90AF909F908F901E
:102B000008958F929F92AF92BF92CF92DF92EF92F1
:102B1000FF926091000170910101809102019091FA
:102B20000301611571058105910521F464E279EDD8
:102B30008BE597E02DE133EF41E050E00E9439173B
:102B400049015A019B01AC01A7EAB1E40E94581760
:102B50006B017C01ACEEB4EFA50194010E946617F5
:102B6000C60ED71EE81EF91EF7FE06C081E0C81A81
:102B7000D108E10880E8F80AC0920001D092010172
:102B8000E0920201F0920301C701B6019F77FF9026
:102B9000EF90DF90CF90BF90AF909F908F9008956F
:102BA00060930001709301018093020190930301EF
:102BB00008951F93FC0199278827BC01E89411917F
:102BC0001032E9F3193010F01E30C8F31B3251F007
:102BD0001D3249F4689406C00E940016610F711DF1
:102BE000811D911D119110531A30B0F33EF4909550
:102BF0008095709561957F4F8F4F9F4F1F910895DE
:102C0000592F482F372F262F660F771F881F991FA0
:102C1000660F771F881F991F620F731F841F951FF0
:102C2000660F771F881F991F08950E94571608F492
:102C300081E00895E89409C097FB3EF49095809553
:102C4000709561957F4F8F4F9F4F9923A9F0F92F72
:102C500096E9BB279395F695879577956795B795F0
:102C6000F111F8CFFAF4BB0F11F460FF1BC06F5FD6
:102C70007F4F8F4F9F4F16C0882311F096E911C0E8
:102C8000772321F09EE8872F762F05C0662371F009
:102C900096E8862F70E060E02AF09A95660F771F1D
:102CA000881FDAF7880F9695879597F90895990FF9
:102CB0000008550FAA0BE0E8FEEF16161706E80706
:102CC000F907C0F012161306E407F50798F0621B27
:102CD000730B840B950B39F40A2661F0232B242BFC
:102CE000252B21F408950A2609F4A140A6958FEF1B
:102CF000811D811D08950E948E160C94FF160E945E
:102D0000F11638F00E94F81620F0952311F00C947B
:102D1000E8160C94EE1611240C9433170E94101729
:102D200070F3959FC1F3950F50E0551F629FF0011E
:102D3000729FBB27F00DB11D639FAA27F00DB11D37
:102D4000AA1F649F6627B00DA11D661F829F2227C0
:102D5000B00DA11D621F739FB00DA11D621F839F47
:102D6000A00D611D221F749F3327A00D611D231F1D
:102D7000849F600D211D822F762F6A2F11249F576B
:102D800050409AF0F1F088234AF0EE0FFF1FBB1F6E
:102D9000661F771F881F91505040A9F79E3F51052D
:102DA00080F00C94E8160C9433175F3FE4F3983EE0
:102DB000D4F3869577956795B795F795E7959F5FD7
:102DC000C1F7FE2B880F911D9695879597F9089569
:102DD00097F99F6780E870E060E008959FEF80ECCE
:102DE000089500240A941616170618060906089571
:102DF00000240A9412161306140605060895092ED7
:102E00000394000C11F4882352F0BB0F40F4BF2B45
:102E100011F460FF04C06F5F7F4F8F4F9F4F089585
:102E200057FD9058440F551F59F05F3F71F047957B
:102E3000880F97FB991F61F09F3F79F08795089560
:102E4000121613061406551FF2CF4695F1DF08C07F
:102E5000161617061806991FF1CF8695710561059C
:102E600008940895E894BB2766277727CB0197F944
:102E70000895052E97FB1EF400940E94501757FDED
:102E800007D00E94A21707FC03D04EF40C945017F1
:102E900050954095309521953F4F4F4F5F4F089586
:102EA00090958095709561957F4F8F4F9F4F0895B6
:102EB0000E94C417A59F900DB49F900DA49F800DF4
:102EC000911D11240895B7FF0C9458170E945817AC
:102ED000821B930B08952F923F924F925F926F92B5
:102EE0007F928F929F92AF92BF92CF92DF92EF929A
:102EF000FF920F931F93CF93DF93CDB7DEB7CA1B1B
:102F0000DB0B0FB6F894DEBF0FBECDBF09942A8845
:102F1000398848885F846E847D848C849B84AA84ED
:102F2000B984C884DF80EE80FD800C811B81AA817A
:102F3000B981CE0FD11D0FB6F894DEBF0FBECDBF45
:102F4000ED010895A1E21A2EAA1BBB1BFD010DC0C5
:102F5000AA1FBB1FEE1FFF1FA217B307E407F50749
:102F600020F0A21BB30BE40BF50B661F771F881F25
:102F7000991F1A9469F760957095809590959B01BB
:102F8000AC01BD01CF010895A29FB001B39FC00164
:102F9000A39F700D811D1124911DB29F700D811D85
:102FA0001124911D0895AA1BBB1B51E107C0AA1F44
:102FB000BB1FA617B70710F0A61BB70B881F991FDA
:102FC0005A95A9F780959095BC01CD01089597FB7E
:102FD000072E16F4009407D077FD09D00E94D3176E
:102FE00007FC05D03EF4909581959F4F089570950C
:102FF00061957F4F0895EE0FFF1F0590F491E02D2E
:1030000009945058BB27AA270E9419180C94FF1640
:103010000E94F11638F00E94F81620F039F49F3F14
:1030200019F426F40C94EE160EF4E095E7FB0C94DC
:10303000E816E92F0E94101758F3BA1762077307B2
:103040008407950720F079F4A6F50C9432170EF456
:10305000E0950B2EBA2FA02D0B01B90190010C01A8
:10306000CA01A0011124FF27591B99F0593F50F4C0
:10307000503E68F11A16F040A22F232F342F442718
:10308000585FF3CF469537952795A795F040539510
:10309000C9F77EF41F16BA0B620B730B840BBAF0E0
:1030A0009150A1F0FF0FBB1F661F771F881FC2F74B
:1030B0000EC0BA0F621F731F841F48F4879577955F
:1030C0006795B795F7959E3F08F0B0CF9395880F19
:1030D00008F09927EE0F9795879508950E94751827
:1030E0006894B1110C94331708950E94181788F052
:1030F0009F5798F0B92F9927B751B0F0E1F0660FBC
:10310000771F881F991F1AF0BA95C9F714C0B130FC
:1031100091F00E943217B1E008950C943217672F96
:10312000782F8827B85F39F0B93FCCF3869577952B
:103130006795B395D9F73EF4909580957095619514
:103140007F4F8F4F9F4F08950E94571608F48FEFBF
:1031500008950F931F93CF93DF938230910510F45E
:1031600082E090E0E091DA04F091DB0430E020E0CE
:10317000B0E0A0E0309799F42115310509F44AC078
:10318000281B390B24303105D8F58A819B816115C4
:10319000710589F1FB0193838283FE0111C0408197
:1031A00051810281138148175907E0F048175907E8
:1031B00099F4109761F012960C93129713961C9342
:1031C0003296CF01DF91CF911F910F910895009317
:1031D000DA041093DB04F4CF2115310551F04217C6
:1031E000530738F0A901DB019A01BD01DF01F801A5
:1031F000C1CFEF01F9CF9093DB048093DA04CDCFF8
:10320000FE01E20FF31F819391932250310939831C
:103210002883D7CF2091D8043091D904232B41F4AF
:1032200020910601309107013093D9042093D804EE
:1032300020910401309105012115310541F42DB78C
:103240003EB74091080150910901241B350BE091D4
:10325000D804F091D904E217F307A0F42E1B3F0B1A
:103260002817390778F0AC014E5F5F4F24173507F8
:1032700048F04E0F5F1F5093D9044093D8048193B8
:1032800091939FCFF0E0E0E09CCFCF93DF93009746
:10329000E9F0FC01329713821282A091DA04B09116
:1032A000DB04ED0130E020E01097A1F420813181B2
:1032B000820F931F2091D8043091D9042817390721
:1032C00009F061C0F093D904E093D804DF91CF9165
:1032D0000895EA01CE17DF07E8F54A815B819E0178
:1032E00041155105B1F7E901FB83EA8349915991F1
:1032F000C40FD51FEC17FD0761F480819181029600
:10330000840F951FE90199838883828193819B8330
:103310008A83F0E0E0E012968D919C9113970097DC
:10332000B9F52D913C911197CD010296820F931F13
:103330002091D8043091D9042817390739F63097ED
:1033400051F51092DB041092DA04B093D904A093E3
:10335000D804BCCFD383C28340815181840F951F91
:10336000C817D90761F44E5F5F4F88819981480F74
:10337000591F518340838A819B81938382832115C6
:10338000310509F0B0CFF093DB04E093DA049ECF6F
:10339000FD01DC01C0CF13821282D7CFB0E0A0E0E4
:1033A000E4EDF9E10C946D178C01009751F4CB0119
:1033B0000E94A9188C01C801CDB7DEB7E0E10C94DA
:1033C0008917FC01E60FF71F9C0122503109E21713
:1033D000F30708F49DC0D901CD91DC911197C61770
:1033E000D70798F0C530D10530F3CE010497861782
:1033F000970708F3C61BD70B2297C193D1936D9300
:103400007C93CF010E944519D6CF5B01AC1ABD0A4F
:103410004C018C0E9D1EA091DA04B091DB04512C5E
:10342000412CF12CE12C109731F58091D80490912A
:10343000D9048815990509F05CC04616570608F0AE
:1034400058C08091040190910501009741F48DB717
:103450009EB74091080150910901841B950BE81714
:10346000F90708F055C0F093D904E093D804F901A6
:1034700071836083A0CF8D919C91119712966C906F
:10348000129713967C901397A815B90559F56C01FE
:1034900042E0C40ED11CCA14DB0420F1AC014A196D
:1034A0005B09DA011296159780F06282738251836C
:1034B0004083D9016D937C93E114F10471F0D7013D
:1034C0001396FC93EE93129776CF22968C0F9D1F46
:1034D000F90191838083F301EFCFF093DB04E09354
:1034E000DA0469CF4816590608F42C017D01D3018E
:1034F0009ACFCB010E94A9187C01009749F0AE0138
:10350000B8010E948B1AC8010E944519870153CF48
:1035100010E000E050CFFB01DC0102C001900D92F1
:1035200041505040D8F70895FB01DC018D91019086
:1035300080190110D9F3990B0895FB01DC0101906A
:103540000D920020E1F70895FB01DC01415050404D
:1035500030F08D910190801919F40020B9F7881B83
:10356000990B0895FB01DC014150504048F0019057
:103570000D920020C9F701C01D9241505040E0F764
:103580000895AEE0B0E0E7ECFAE10C9479170D890C
:103590001E8986E08C831A8309838FEF9FE79E83C1
:1035A0008D83AE01475E5F4F6F89788DCE010196A6
:1035B0000E94E41A2F813885020F131FF801108230
:1035C0002E96E4E00C949517ABE0B0E0EAEEFAE159
:1035D0000C946B177C013B018A01FC011782168257
:1035E000838181FFC8C1CE0101965C01F7019381FF
:1035F000F30193FD859193FF81913F01882309F4A5
:1036000053C1853239F493FD859193FF81913F0138
:10361000853229F4B70190E00E94D41CE7CF912CA9
:10362000212C312CFFE1F31538F08B3211F190F49D
:10363000803209F1833229F137FC3CC020ED280F9C
:103640002A3050F536FE20C08AE0989E200D1124C5
:10365000922E06C08D3291F0803371F7689430F865
:10366000F30193FD859193FF81913F018111DACFA1
:1036700021C0689431F8689432F8F2CF689433F836
:10368000EFCF689434F8ECCFEAE02E9E200D1124A1
:10369000222E689435F8E4CF8E3229F436FC04C12A
:1036A000689436F8DDCF8C3619F4689437F8D8CFA3
:1036B0008836B1F2982F9F7D95549330E0F0833691
:1036C000A1F18337C1F1833509F063C02801F2E02D
:1036D0004F0E511CF801C080D180692D70E036FC7E
:1036E00002C06FEF7FEFC6010E94BE1C4C016894C0
:1036F00037F882010AC00C5F1F4FFFE3F98388246B
:103700008394912C6501E89437F833FE2DC0522C38
:103710008114910471F5552009F468CFB70180E256
:1037200090E00E94D41C5A94F6CFF80180818983DE
:103730000E5F1F4FE4CF2801F2E04F0E511CF8013D
:10374000C080D180692D70E036FC02C06FEF7FEF42
:10375000C6010E94C91C4C018201D5CFB70180E28D
:1037600090E00E94D41C2A942814190409F0B0F7A0
:10377000CECFF60137FC859137FE81916F01B701FD
:1037800090E00E94D41C51105A94F1E08F1A9108D5
:10379000BFCF843619F0893609F077C0F80137FEBB
:1037A0006BC060817181828193810C5F1F4FF32D0B
:1037B000FF763F2E97FF09C0909580957095619593
:1037C0007F4F8F4F9F4F689437F82AE030E0A50174
:1037D0000E94041DC82ECA188C2C432C36FE0CC027
:1037E000E89440F8C91440F434FE05C032FC03C02C
:1037F000F32DFE7E4F2E892C44FE95C0FE01EC0D6C
:10380000F11D8081803309F087C0242D297E422E4E
:10381000842D8870582E43FC95C040FE8FC09C2C90
:10382000821418F42C0C922C981844FE91C0B70105
:1038300080E390E00E94D41C42FE09C088E790E03B
:1038400041FE02C088E590E0B7010E94D41CC91473
:1038500008F48AC0CA94D12C9FEFC91AD90ACA0C9D
:10386000DB1CF60182916F01B70190E00E94D41C2D
:10387000AC14BD04B1F74FCF60817181072E000CED
:10388000880B990B0E5F1F4F92CFD32CE894D4F87E
:103890002AE030E0853739F1232D297FD22E8F366B
:1038A00001F148F48835A9F0F701868197812B96BC
:1038B000E2E10C948717803749F08837A9F7D4FEE6
:1038C00002C06894D2F820E130E00DC06894D4F8CA
:1038D000F6CF34FE03C0822F8660D82E20E132E07E
:1038E00002C028E030E0F801D7FE0FC0608171818E
:1038F000828193810C5F1F4FA5010E94041DC82E79
:10390000CA183D2CE89437F867CF6081718190E048
:1039100080E00E5F1F4FF0CF42FC02C0839478CF4F
:103920008394839475CF842D867809F471CFF6CF74
:10393000B70180E290E00E94D41C83948214C0F30B
:10394000512C73CF522C5818821408F46ECFF8CF34
:10395000842D867809F47BCF8BE241FE80E247FC20
:103960008DE2B70190E071CFB70180E390E00E9453
:10397000D41C9A946CCF8FEF9FEF99CFFC010590E8
:10398000615070400110D8F7809590958E0F9F1F61
:103990000895FC016150704001900110D8F78095A6
:1039A00090958E0F9F1F08950F931F93CF93DF93D2
:1039B000182F092FEB018B8181FD09C01FEF0FEF3D
:1039C000812F902FDF91CF911F910F91089582FF4A
:1039D00014C02E813F818C819D81281739073CF4CA
:1039E000E881F981CF0101969983888310838E81C4
:1039F0009F8101969F838E83E3CFE885F985812F90
:103A00000995892BA1F3DACFFA01AA27283051F1C1
:103A1000203181F1E8946F936E7F6E5F7F4F8F4FFF
:103A20009F4FAF4FB1E03ED0B4E03CD0670F781F5E
:103A3000891F9A1FA11D680F791F8A1F911DA11D43
:103A40006A0F711D811D911DA11D20D009F468947C
:103A50003F912AE0269F11243019305D3193DEF624
:103A6000CF010895462F4770405D4193B3E00FD0DA
:103A7000C9F7F6CF462F4F70405D4A3318F0495DC5
:103A800031FD4052419302D0A9F7EACFB4E0A695A8
:103A90009795879577956795BA95C9F700976105CA
:103AA000710508959B01AC010A2E06945795479520
:103AB00037952795BA95C9F7620F731F841F951F15
:103AC000A01D089510E0C6E8D0E004C0FE010E94E9
:0E3AD000FB172196C738D107C9F7F894FFCF2E
:103ADE00010000000000DC04800000000000120362
:103AEE0040026D025F03D0027C02C2020D0A007B0F
:103AFE005341464554595F56414C56453A434C4FF7
:103B0E005345447D007B50554D503A4F46467D00FF
:103B1E002F2F22225C5C6208660C6E0A720D7409ED
:103B2E00005C7530303030006E756C6C00747275E0
:103B3E00650066616C736500646174610064726136
:103B4E00696E56616C766553746174650073616657
:103B5E0065747956616C766553746174650066613F
:103B6E006E53746174650070756D70537461746515
:103B7E000066616E53706565640070756D7053708C
:103B8E0065656400647261696E56616C76654C653C
:103B9E0076656C00666C6F7753656E736F7231006D
:103BAE00666C6F7753656E736F723200666C6F77EB
:103BBE0053656E736F72330072756E74696D650046
:103BCE0073657269616C4E756D62657200504F540B
:103BDE004100504F544200504F544300506F746593
:103BEE006E74696F6D6574657200636D64323A2030
:103BFE00002A2A2A2A2A2A2A2A2A2A2A2A2A2A2A41
:103C0E002A2A2A2A00696E20636F6D6D616E6448E0
:103C1E00616E646C65723A20003835373334333256
:103C2E003336333033353133314130353200546829
:103C3E00652074696D652074726176656C696E6756
:103C4E00206973206A75737420746F6F2064616EBF
:103C5E006765726F75732E20426574746572207479
:103C6E006861742049206465766F7465206D797380
:103C7E00656C6620746F2073747564792074686542
:103C8E00206F74686572206772656174206D797338
:103C9E0074657279206F662074686520756E69761A
:103CAE00657273653A20632B2B20706F696E746595
:103CBE0072732E00436F6D6D616E643A20007B53FC
:103CCE0041464554595F56414C56453A4F50454E24
:103CDE007D007B50554D503A4F4E7D007B46414EF8
:103CEE003A4F4E7D007B46414E3A4F46467D007B15
:103CFE00445241494E5F56414C56453A4F50454EFF
:103D0E007D007B445241494E5F56414C56453A43E5
:103D1E004C4F5345447D00253032643A2530326491
:103D2E003A25303264004368616E676520646574BD
:063D3E006563746564007A
:00000001FF
