:100000000C9487000C94AF000C94AF000C94AF00DC
:100010000C94AF000C94AF000C94AF000C94AF00A4
:100020000C94AF000C94AF000C94AF000C94AF0094
:100030000C94AF000C94AF000C94AF000C94AF0084
:100040000C94462F0C94AF000C94D02F0C94AA2F34
:100050000C94AF000C94AF000C94AF000C94AF0064
:100060000C94AF000C94AF00CDCCCC3D0AD7233C10
:1000700017B7D13877CC2B329595E6241FB14F0AAC
:100080000000803FCDCCCC3D6F12833A95BFD63374
:100090007D1D9026B3CE010C000020410000C84217
:1000A00000401C4620BCBE4CCA1B0E5AAEC59D74F7
:1000B00000000000240027002A00000000002500A6
:1000C00028002B00000000080002010000030407C4
:1000D00000000000000000000000000023002600D7
:1000E00029000404040404040404020202020202BB
:1000F00003030303030301020408102040800102EC
:10010000040810200102040810202D2F202F112494
:100110001FBECFEFD8E0DEBFCDBF13E0A0E0B1E05F
:10012000ECE1F2E702C005900D92AE33B107D9F7CA
:1001300024E0AEE3B3E001C01D92A53AB207E1F7B7
:1001400010E0C6E8D0E004C02197FE010E940F3302
:10015000C538D107C9F70E94A12F0C9401390C941E
:10016000000008958330B1F060F08730E9F0883006
:1001700009F1843021F5E0E8F0E080818F7D808313
:100180000895813069F0823021F484B58F7D84BD7B
:1001900008950895E0E8F0E080818F7780830895E6
:1001A00084B58F7784BD0895E0EBF0E080818F7790
:1001B00080830895E0EBF0E080818F7D8083089557
:1001C000CF93DF93282F30E0F901EC53FF4F849158
:1001D000F901EA50FF4FD491F901EE51FF4FC4915C
:1001E000CC23B1F081110EC0EC2FF0E0EE0FFF1F19
:1001F000E852FF4FA591B491EC91ED2331F490E0DA
:1002000080E008C00E94B200EFCF81E090E002C021
:1002100090E080E0DF91CF9108951F93CF93DF931B
:10022000282F30E0F901EC53FF4F8491F901EA5097
:10023000FF4F1491F901EE51FF4FC491CC23A9F067
:10024000D62F811116C0EC2FF0E0EE0FFF1FE65401
:10025000FF4FA591B4918FB7F894D1110DC09C9127
:10026000E12FE095E923EC938FBFDF91CF911F91B0
:1002700008950E94B200E7CFEC91E12BEC93F4CF0C
:10028000CF93DF9390E0FC01EA50FF4F24918E5111
:100290009F4FFC018491882319F190E0880F991FEA
:1002A000FC01E055FF4FA591B491FC01E654FF4FCE
:1002B000C591D491662349F06230A9F08FB7F894C4
:1002C000EC91E22BEC938FBF0BC09FB7F8948C910D
:1002D000E22FE0958E238C938881E823E8839FBFEB
:1002E000DF91CF9108959FB7F8943C91822F80952C
:1002F00083238C93E881E22BE8839FBFF1CF1F9388
:10030000CF93DF93182FEB0161E00E94400120970B
:10031000D9F0CF3FD10501F1E12FF0E0EC53FF4FD1
:10032000E491E33061F1E8F0E730E9F1E83009F415
:1003300042C0E43071F1C038D1050CF444C061E032
:10034000812F0E940D0104C060E0812F0E940D01E9
:10035000DF91CF911F91089561E0812F0E940D01DF
:10036000F7CFE13039F0E23031F784B5806284BDF7
:10037000C8BDEECF84B5806884BDC7BDE9CFE0E8D5
:10038000F0E0808180688083D0938900C0938800EA
:10039000DFCFE0E8F0E0808180628083D0938B0043
:1003A000C0938A00D5CFE0EBF0E080818068808345
:1003B000C093B300CDCFE0EBF0E08081806280831A
:1003C000C093B400C5CF60E0812F0E940D01C0CF63
:1003D0008E3008F08E508770806480937C00EAE74E
:1003E000F0E080818064808380917A0086FDFCCF7C
:1003F00080917800909179000895789484B5826016
:1004000084BD84B5816084BD85B5826085BD85B5B8
:10041000816085BDEEE6F0E0808181608083E1E867
:10042000F0E010828081826080838081816080839F
:10043000E0E8F0E0808181608083E1EBF0E08081A2
:1004400084608083E0EBF0E0808181608083EAE774
:10045000F0E08081846080838081826080838081FD
:10046000816080838081806880831092C1000895BC
:100470003FB7F89480919D0490919E04A0919F04B1
:10048000B091A00426B5A89B05C02F3F19F0019696
:10049000A11DB11D3FBFBA2FA92F982F8827BC01DE
:1004A000CD01620F711D811D911D660F771F881F81
:1004B000991F660F771F881F991F08958F929F922B
:1004C000AF92BF92CF92DF92EF92FF926B017C01CD
:1004D0000E9438024B015C011BC021E0C21AD10806
:1004E000E108F10888EE880E83E0981EA11CB11C7B
:1004F000C114D104E104F10459F00E9438026819D2
:1005000079098A099B09683E73408105910528F79E
:10051000C114D104E104F10459F7FF90EF90DF908A
:10052000CF90BF90AF909F908F9008952FB7F89481
:100530006091990470919A0480919B0490919C041D
:100540002FBF089508954F925F926F927F92AF925E
:10055000BF92CF92DF92EF92FF920F931F93CF93B0
:10056000DF93CDB7DEB729013A019B01AC01241915
:1005700035094609570989899A89AB89BC89BC0123
:10058000CD016A197B098C099D090E94EB32A801F3
:10059000970124193509460957090E945132CA01A9
:1005A000B9016A0D7B1D8C1D9D1DDF91CF911F919F
:1005B0000F91FF90EF90DF90CF90BF90AF907F9022
:1005C0006F905F904F9008950F931F93CF93DF9399
:1005D000EC010E949602688779878A879B87E88169
:1005E000F9810284F385E02DCE0109959923ACF4BD
:1005F0000E949602088519852A853B85601B710B30
:10060000820B930B0C811D812E813F816017710736
:100610008207930720F38FEF9FEFDF91CF911F9118
:100620000F910895DB0114964D915C9115976D9192
:100630007C91DC01ED91FC910280F381E02D099524
:100640000895CF92DF92EF92FF920F931F93CF9373
:10065000DF938C01DB01D0E0C0E07A0181E0E81A91
:10066000F108452BA1F0F80180819181FC012081E6
:1006700031816D01FFEFCF1ADF0A6C91C801F901DA
:100680000995892B21F02196A701D601E6CFCE014D
:10069000DF91CF911F910F91FF90EF90DF90CF905E
:1006A0000895019709F008956F3F7F4FE1F7EBEF51
:1006B000F3E01382128288EE93E0A0E0B0E084833E
:1006C0009583A683B7838EE091E09183808385EC48
:1006D00090E09587848784EC90E09787868780EC0C
:1006E00090E0918B808B81EC90E0938B828B82ECFD
:1006F00090E0958B848B86EC90E0978B868B118EA7
:10070000128E138E148ECFCFFC01938D848D98178B
:1007100020F4891B990B019708952FE330E0291BE2
:100720003109820F932F911D0895FC01918D828DC7
:10073000981761F0A28DAE0FBF2FB11D5D968C9101
:10074000928D9F5F9F73928F90E008958FEF9FEF40
:100750000895FC01918D828D981731F0828DE80FFC
:10076000F11D858D90E008958FEF9FEF0895FC01B6
:10077000218D30E0205C3F4F828DA901481B51093B
:10078000CA018F73992708958BEF93E00E94B703F6
:1007900021E0892B09F420E0822F0895CF92DF9287
:1007A000EF92FF921F93CF93DF93EC016A017B01DD
:1007B000122F60E079E08DE390E0A70196010E949E
:1007C000BA3221503109410951095695479537955B
:1007D0002795E889F98982E08083C11481EED806E3
:1007E000E104F10421F0211580E1380798F0E8894F
:1007F000F989108260E874E88EE190E0A701960123
:100800000E94BA3221503109410951095695479544
:1008100037952795EC85FD853083EE85FF85208310
:10082000188EEC89FD891083EA89FB8980818061BB
:100830008083EA89FB89808188608083EA89FB89DB
:10084000808180688083EA89FB8980818F7D8083B5
:10085000DF91CF911F91FF90EF90DF90CF9008959F
:10086000FC01A48DA80FB92FB11DA35ABF4F2C9125
:10087000848D90E001968F739078848FA689B789D4
:100880002C93A089B1898C91837080648C93938D13
:10089000848D981308950288F389E02D80818F7DDF
:1008A0008083F8CF0F931F93CF93DF93EC0181E008
:1008B000888F9B8D8C8D9817B1F0062F8B8D90E0D3
:1008C00001968F739078182F8C8D81131EC00FB6F0
:1008D00007FCFACFE889F989808185FFF5CFCE0141
:1008E0000E943004F1CFE889F989808185FFE5CF46
:1008F0009FB7F894EE89FF896083E889F989808140
:100900008370806480839FBF10C0EB8DEC0FFD2F40
:10091000F11DE35AFF4F00839FB7F8941B8FEA89BC
:10092000FB898081806280839FBF81E090E0DF91BE
:10093000CF911F910F910895CF93DF93EC01888D94
:10094000811104C00DC00FB607FE0DC0EA89FB89F6
:10095000808185FDF8CFA889B9898C9186FFF3CF76
:10096000DF91CF910895808185FFF0CFE889F989E3
:10097000808185FFEBCFCE010E943004E7CF80E07D
:1009800090E0892B21F00E94C403811101C00895D9
:100990000E940000FCCFCF93DF93EC01BC0185E007
:1009A0000E947F01BE0186E00E947F01BE0189E0B6
:1009B0000E947F01DF91CF910895CF93DF93D0E024
:1009C000C0E0C83CD1059CF48091F9039091FA03F2
:1009D00001969093FA038093F9030E94CB0461E09F
:1009E00070E080E090E00E945E022196EACFD0E0C5
:1009F000C0E0C83CD1059CF48091F9039091FA03C2
:100A000001979093FA038093F9030E94CB0461E06D
:100A100070E080E090E00E945E022196EACFD0E094
:100A2000C0E0C83CD1059CF48091F5039091F60399
:100A300001969093F6038093F5030E94CB0461E046
:100A400070E080E090E00E945E022196EACFD0E064
:100A5000C0E0C83CD1059CF48091F5039091F60369
:100A600001979093F6038093F5030E94CB0461E015
:100A700070E080E090E00E945E022196EACFD0E034
:100A8000C0E0C83CD1059CF48091F7039091F80335
:100A900001969093F8038093F7030E94CB0461E0E2
:100AA00070E080E090E00E945E022196EACFD0E004
:100AB000C0E0C83CD1059CF48091F7039091F80305
:100AC00001979093F8038093F7030E94CB0461E0B1
:100AD00070E080E090E00E945E022196EACFDF9114
:100AE000CF9108950F931F93CF93DF938B01EA016A
:100AF000BC0185E00E947F01B80186E00E947F0171
:100B0000BE0189E00E947F01DF91CF911F910F917B
:100B100008950F931F93CF93DF93D0E0C0E0AAC056
:100B200010E000E0083C1105E4F48091F903909195
:100B3000FA0301979093FA038093F9034091F70326
:100B40005091F8036091F5037091F6030E947205CD
:100B500061E070E080E090E00E945E020F5F1F4F56
:100B6000E1CF10E000E0083C1105ECF46091F503E2
:100B70007091F6036F5F7F4F7093F6036093F503F8
:100B80004091F7035091F8038091F9039091FA0393
:100B90000E94720561E070E080E090E00E945E02D9
:100BA0000F5F1F4FE0CF10E000E0083C1105ECF4B0
:100BB0006091F5037091F603615071097093F6032B
:100BC0006093F5034091F7035091F8038091F90386
:100BD0009091FA030E94720561E070E080E090E07D
:100BE0000E945E020F5F1F4FE0CF10E000E0083C64
:100BF0001105ECF44091F7035091F8034F5F5F4FFC
:100C00005093F8034093F7036091F5037091F60356
:100C10008091F9039091FA030E94720561E070E0FF
:100C200080E090E00E945E020F5F1F4FE0CF10E077
:100C300000E0083C1105ECF44091F7035091F803F3
:100C4000415051095093F8034093F7036091F50325
:100C50007091F6038091F9039091FA030E94720556
:100C600061E070E080E090E00E945E020F5F1F4F45
:100C7000E0CF2196C330D10514F510E000E0083C28
:100C800011050CF04DCF8091F9039091FA03019674
:100C90009093FA038093F9034091F7035091F8037E
:100CA0006091F5037091F6030E94720561E070E0B7
:100CB00080E090E00E945E020F5F1F4FE0CF0E9435
:100CC000DD04DF91CF911F910F910895CF93DF93B2
:100CD000EB01823479F08334A9F0813419F0DF918B
:100CE000CF91089583E00E947F01D093F403C093D5
:100CF000F303F5CF8AE00E947F01D093F203C09303
:100D0000F103EDCF8BE00E947F01D093F003C093FD
:100D1000EF03E5CFFC0160817181072E000C880B89
:100D2000990B0E9434310895CF93DF93EC01CB01EE
:100D3000BA010E94083479836883DF91CF910895C6
:100D4000CF92DF92EF92FF926B017C0120E030E0C6
:100D5000A9010E942D31882371F0A7019601C701D6
:100D6000B6010E942A33A70196010E942D318823E3
:100D700041F080E001C080E0FF90EF90DF90CF90E5
:100D8000089581E0F9CFCF93C1E09B01AC010E94AF
:100D90002D31811101C0C0E08C2FCF9108950895AD
:100DA000FC01659175918591949108950895DC01F8
:100DB000ED91FC911197309781F094819078906239
:100DC00094833E2F2F2F1182108213821282632F61
:100DD000722F12968D919C91089530E020E0F7CF0C
:100DE000AF92BF92CF92DF92EF92FF920F931F9339
:100DF00081E10E94E801BC01990F880B990B1F92B9
:100E00001F921F922FEF2F93A12CB12C650118EE8A
:100E1000E12E13E0F12E00E010E028EC30E040E09D
:100E200050E00E94A3020F900F900F900F90772335
:100E30003CF06F3F710531F02CF06FEF70E002C0B5
:100E400070E060E0709387036093860382E10E9404
:100E5000E801BC01990F880B990B1F921F921F92FA
:100E60002FEF2F93A12CB12C650118EEE12E13E08A
:100E7000F12E00E010E028EC30E040E050E00E946D
:100E8000A3020F900F900F900F9077233CF06F3FCD
:100E9000710531F02CF06FEF70E002C070E060E09F
:100EA000709385036093840383E10E94E801BC0191
:100EB000990F880B990B1F921F921F922FEF2F9360
:100EC000A12CB12C650118EEE12E13E0F12E00E00B
:100ED00010E026E930E040E050E00E94A3020F90CD
:100EE0000F900F900F9077233CF06F3F710531F01A
:100EF0002CF06FEF70E002C070E060E0709383034D
:100F00006093820380918003909181039C012A5019
:100F1000310960918603709187036217730724F08B
:100F20000A968617970774F481E40E9466068091FA
:100F3000860390918703909381038093800381E0DF
:100F400080937F0380917D0390917E039C012A50C2
:100F500031096091840370918503621773072CF146
:100F60000A96861797070CF180917A0390917B037C
:100F70009C012A50310960918203709183036217AA
:100F8000730724F00A9686179707ECF483E40E940F
:100F90006606809182039091830390937B038093F4
:100FA0007A0381E0809379030EC082E40E94660692
:100FB000809184039091850390937E0380937D03B9
:100FC00081E080937C0390E080E01F910F91FF907F
:100FD000EF90DF90CF90BF90AF9008959091550320
:100FE0008091E503981721F08093550381E00895DF
:100FF000909154038091E603981721F08093540355
:1010000081E00895909153038091E803981721F0AF
:101010008093530381E0089580E0089580917F03D9
:1010200081110AC080917C03811109C080917903EC
:10103000811110927903089510927F030895109200
:101040007C03089581E080934803089581E08093B4
:101050004D03089581E080935203089582E00E9439
:10106000E000019759F08DE00E94E000019749F0FF
:1010700084E00E94E000019739F008950E942A0858
:10108000F2CF0E942608F4CF0E942208F6CF80916A
:101090005203811116C080914D03811114C08091BB
:1010A0004803811112C08091E503811110C0809125
:1010B000E60381110EC08091E803882361F080E08F
:1010C000089580E0089580E0089580E0089580E02C
:1010D000089580E0089581E00895CF93DF93EC01B7
:1010E000BC0185E00E947F01BE0186E00E947F0175
:1010F000BE0189E00E947F01DF91CF9108950F9397
:101100001F93CF93DF938B01EA01BC0185E00E941E
:101110007F01B80186E00E947F01BE0189E00E9444
:101120007F01DF91CF911F910F910895109243039A
:101130001092420310923F0310923E03109241031B
:101140001092400350E040E070E060E090E080E00A
:101150000E947F0808950F931F9390E0FC01EA50CE
:10116000FF4F7491FC01EE51FF4FE4916111672F25
:1011700089019A013F70F0E0EE0FFF1FE852FF4F28
:1011800085919491462F672F0E9408306115710553
:101190008105910529F06F5F7F4F8F4F9F4F9F70A3
:1011A0001F910F9108951F93CF93DF93EC01CB0113
:1011B000BA010E940F34162F20E432E44FE050E0D1
:1011C00061E0812F0E94AB087983688320E432E4D8
:1011D0004FE050E060E0812F0E94AB087B836A8380
:1011E00028813981620F731F072E000C880B990B21
:1011F0000E9434319B01AC012C833D834E835F837D
:1012000060E074E284E799E40E9496336887798706
:101210008A879B8720E030E040EF50E40E949633BD
:101220006C877D878E879F8720E030E040E752E41F
:101230000E949633688B798B8A8B9B8B2C893D8996
:101240004E895F890E942A33DF91CF911F910895C3
:101250002F923F924F925F926F927F928F929F92C6
:10126000AF92BF92CF92DF92EF92FF920F931F93B4
:10127000CF93DF93EC018B011A018EE00E94E8010D
:10128000BC01990F880B990B0E9434312B013C0152
:101290008FE00E94E801BC01990F880B990B0E9416
:1012A00034314B015C0180E10E94E801BC01990FDF
:1012B000880B990B0E9434316B017C01B301A201B0
:1012C00088EB93E00E94D308AB01BC01CE010E94E1
:1012D0009406B501A40180EA93E00E94D308AB0113
:1012E000BC01C8010E949406B701A60188E893E0FA
:1012F0000E94D308AB01BC01C1010E949406DF919A
:10130000CF911F910F91FF90EF90DF90CF90BF9002
:10131000AF909F908F907F906F905F904F903F9095
:101320002F900895FC0180819181009719F00E940F
:10133000F130089560E070E0CB0108950F931F93A2
:10134000CF93DF9341155105F1F061157105D9F087
:10135000FC01C481D5812C173D07D0F441505109BF
:10136000C21BD30BC417D50708F0EA018B01FC019F
:1013700060817181620F731FAE01C8010E945136F6
:10138000C00FD11F1882DF91CF911F910F91089547
:10139000FB011082F8CFDC0114962D913C91DB010A
:1013A0001496ED91FC912E1B3F0B24173507C0F0CE
:1013B000DC012D913C9121153105A1F0DB016D91EE
:1013C0007C916115710581F0CA01AF01820F931FF5
:1013D0000E94433621E0892B09F020E0822F0895F6
:1013E00080E0089580E0089580E00895FC01448144
:1013F0005581FB01248135814217530728F050E0C5
:1014000040E00E94CB09089580E00895DC01ED9151
:10141000FC910280F381E02D42E050E06CE171E04C
:10142000099508950F931F93CF93DF93EC010E94CA
:1014300012038C01CE010E94060A800F911FDF91DA
:10144000CF911F910F9108956115710581F0FB01F6
:1014500001900020E9F73197AF01461B570BDC01E3
:10146000ED91FC910280F381E02D0995089590E0C3
:1014700080E008950F931F93CF93DF93EC010E94B8
:10148000240A8C01CE010E94060A800F911FDF9171
:10149000CF911F910F91089570E060E08BE00E9462
:1014A0007F0160E089E00E940D011092E8036FE186
:1014B00071E08BEF93E00E943A0A08956FEF70E0BD
:1014C0008BE00E947F0161E089E00E940D0181E0D4
:1014D0008093E80364E371E08BEF93E00E943A0AA3
:1014E00008958091E803811103C00E945E0A089567
:1014F0000E944C0A089560E08CE00E940D0160E0BB
:1015000086E00E940D011092E60367E471E08BEF24
:1015100093E00E943A0A089561E08CE00E940D0178
:1015200061E086E00E940D0181E08093E60361E5C1
:1015300071E08BEF93E00E943A0A08958091E603F0
:10154000811103C00E948C0A08950E947B0A0895AD
:1015500061E088E00E940D016AE571E08BEF93E0A5
:101560000E943A0A81E08093E70308950E94A80A46
:1015700061E087E00E940D0161E085E00E940D01BD
:1015800081E08093E5036EE671E08BEF93E00E94CB
:101590003A0A089560E088E00E940D0168E771E072
:1015A0008BEF93E00E943A0A1092E70308950E949D
:1015B000CA0A60E087E00E940D0160E085E00E94B9
:1015C0000D011092E5036EE871E08BEF93E00E944D
:1015D0003A0A08958091E503811103C00E94B60A7A
:1015E00008950E94D70A08950F931F938091520384
:1015F00081110BC080914D0381112AC08091480355
:10160000811149C01F910F9108950E949602009187
:101610004E0310914F032091500330915103601BF2
:10162000710B820B930B693C71058105910568F480
:101630000E94960260934E0370934F038093500371
:101640009093510310925203D5CF0E94EA0AF0CF33
:101650000E9496020091490310914A0320914B0386
:1016600030914C03601B710B820B930B693C71052D
:101670008105910568F40E94960260934903709376
:101680004A0380934B0390934C0310924D03B6CFC3
:101690000E949E0AF0CF0E9496020091440310918E
:1016A00045032091460330914703601B710B820B69
:1016B000930B693C71058105910568F40E949602BF
:1016C00060934403709345038093460390934703CC
:1016D0001092480397CF0E94710AF0CF26E040E8AD
:1016E00055E260E070E08BEF93E00E94CE0360E093
:1016F00082E00E94400161E085E00E94400160E0DC
:1017000085E00E940D0160E08DE00E94400161E0F3
:1017100086E00E94400160E086E00E940D0160E0EA
:1017200084E00E94400161E089E00E94400160E0A5
:1017300089E00E940D0161E087E00E94400160E0C5
:1017400087E00E940D0161E083E00E94400161E0BA
:101750008CE00E94400161E08BE00E94400161E06A
:1017600088E00E9440010E94960262E081E10E94AE
:10177000400162E082E10E94400162E083E10E9458
:10178000400160E08EE00E94400160E08FE00E9436
:10179000400160E080E10E9440010E94D70A0E945F
:1017A00089056AE573E08BEF93E00E94120A0895C1
:1017B000CF93DF93EC0169E971E08BEF93E00E9436
:1017C0003A0A6DEA71E08BEF93E00E94240ABE01B1
:1017D0008BEF93E00E943A0A69E971E08BEF93E0A6
:1017E0000E943A0A88818334A9F044F08534C1F01C
:1017F000A4F0863461F40E944C0A09C0813429F0B7
:10180000823429F40E94D70A02C00E94B60ADF91EE
:10181000CF9108950E948C0AFACF0E947B0AF7CFDD
:101820000E945E0AF4CF0F931F93CF93DF93EC01D6
:101830008B016F5F7F4F888199810E946835009787
:1018400051F0998388831B830A8381E0DF91CF91D4
:101850001F910F91089580E0F9CFCF93DF93EC01B2
:1018600028813981232B29F02A813B8126173707CC
:1018700070F4CE010E94130C882351F08C819D815D
:10188000892B49F4E881F981108281E001C081E06F
:10189000DF91CF91089581E0FBCFEF92FF920F93FC
:1018A0001F93CF93DF93FC01C481D581C40FD51F53
:1018B0006115710501F1452B41F481E0DF91CF9174
:1018C0001F910F91FF90EF9008957B018C01BE0155
:1018D0000E942D0C882391F3F801208131818481AD
:1018E0009581B701820F931F0E943C36F801D58382
:1018F000C48381E0E3CF80E0E1CFCF93DF9300D0DA
:10190000CDB7DEB769831A8241E050E0BE016F5F58
:101910007F4F0E944D0C0F900F90DF91CF91089553
:10192000CF93DF93EC0188819981009711F00E9499
:10193000DF34198218821D821C821B821A82DF9179
:10194000CF910895EF92FF920F931F93CF93DF9360
:10195000EC017B018A01BA010E942D0C882379F0E9
:101960001D830C83B701888199810E943C36CE018A
:10197000DF91CF911F910F91FF90EF900895CE01CD
:101980000E94900CF4CFCF93DF93EC0161157105A9
:1019900071F0FB0101900020E9F73197AF01461B80
:1019A000570B0E94A20CCE01DF91CF9108950E94A7
:1019B000900CF9CFCF93DF93EC01FB0186179707CB
:1019C00049F0608171816115710541F04481558153
:1019D0000E94A20CCE01DF91CF9108950E94900C3D
:1019E000F9CFFC01118210821382128215821482B7
:1019F0000E94DA0C0895FC01118210821382128277
:101A0000158214826115710551F0FB0101900020CF
:101A1000E9F73197AF01461B570B0E94A20C0895BE
:101A2000AF92BF92CF92DF92EF92FF920F931F93EC
:101A3000CF93DF935C016B018A01E901241735071D
:101A400020F08D2FEA01022F182F69E872E0C501FE
:101A50000E94FB0CD6011496ED90FC90CE15DF058C
:101A6000D0F4E016F10608F07801D601ED91FC9172
:101A70001197EE0DFF1D108110826D917C916C0FFE
:101A80007D1FC5010E94C30CF60180819181E80E83
:101A9000F91ED7011C93C501DF91CF911F910F91C2
:101AA000FF90EF90DF90CF90BF90AF900895FF929E
:101AB0000F931F93CF93DF93EC018B01F42E69E812
:101AC00072E00E94FB0CC8010E94E40299237CF0A2
:101AD0002F2D0F2C000C330B2817390741F0682FDE
:101AE000CE010E947D0CC8010E94E402EFCFCE011E
:101AF000DF91CF911F910F91FF900895FC0180819C
:101B00009181009711F00E94DF3408950F931F9385
:101B1000CF93DF93EC018B01019751F0CD2B19F49A
:101B20000F3F1F4F79F0DF91CF911F910F910895D3
:101B30006F3F7F4F99F761EC71E089EE93E00E946F
:101B4000FB0CECCF89EE93E00E947E0DECCF0F935F
:101B50001F93CF93DF93EC018B01019751F0CD2BB5
:101B600019F40F3F1F4F79F0DF91CF911F910F9123
:101B700008956F3F7F4F99F766ED71E08AE593E036
:101B80000E94FB0CECCF8AE593E00E947E0DECCF27
:101B9000CF92DF92EF92FF920F931F93CF93DF9339
:101BA000CDB7DEB7A4970FB6F894DEBF0FBECDBF9A
:101BB0008C0165E572E0CE014F960E94FB0CBE01E0
:101BC000615E7F4FC8010E94F609F82ECE014F9644
:101BD0000E947E0DFF2061F1F8012481358144E0EF
:101BE00050E0B801CE0149960E94100DCE014996F1
:101BF0000E9492096B01CE0149960E947E0DC6019A
:101C000001978F3F910578F0A4960FB6F894DEBF48
:101C10000FBECDBFDF91CF911F910F91FF90EF903D
:101C2000DF90CF900895B60181E40E946606ECCF64
:101C30006AE572E0CE0143960E94FB0CBE016D5E28
:101C40007F4FC8010E94F609F82ECE0143960E94EC
:101C50007E0DFF20E9F0F8012481358144E050E059
:101C6000B801CE010D960E94100DCE010D960E9476
:101C700092096B01CE010D960E947E0DC60101975F
:101C80008F3F910508F6B60182E40E946606BCCF3C
:101C90006FE572E0CE0107960E94FB0CBE01695F02
:101CA0007F4FC8010E94F609F82ECE0107960E94C8
:101CB0007E0DFF2009F4A8CFF8012481358144E08E
:101CC00050E0B801CE0101960E94100DCE010196A0
:101CD0000E9492096B01CE0101960E947E0DC60101
:101CE00001978F3F910508F08FCFB60183E40E94E2
:101CF00066068ACFCF93DF93CDB7DEB72C970FB6AA
:101D0000F894DEBF0FBECDBF8BEF93E00E94B70308
:101D100018161906ACF54AE06BEF73E0CE01079692
:101D20000E94570D30E020E049E150E060E673E0AA
:101D3000CE0107960E949E0980E693E0FC01019087
:101D40000020E9F7CF0181569340029714F164E631
:101D500072E08BEF93E00E943A0ABE01695F7F4F09
:101D6000CE0101960E94F10CCE0101960E94C80D91
:101D7000CE0101960E947E0DCE0107960E947E0D37
:101D80002C960FB6F894DEBF0FBECDBFDF91CF917A
:101D9000089562E772E08BEF93E00E94240A60E608
:101DA00073E08BEF93E00E943A0A80E693E00E9492
:101DB000D80BE2CF0F931F93CF93DF93D0E0C0E017
:101DC00026C00E94960810E000E0083C1105F4F4DB
:101DD0000E942E080E947A0E809142039091430344
:101DE000019790934303809342030E946D080E94E1
:101DF0004708882349F065E070E080E090E00E94A9
:101E00005E020F5F1F4FE1CF0E9496082196C330FC
:101E1000D10514F510E000E0083C1105A4F60E947D
:101E20002E080E947A0E80914203909143030196FE
:101E300090934303809342030E946D080E944708D9
:101E4000882309F4BECF65E070E080E090E00E9456
:101E50005E020F5F1F4FE0CFDF91CF911F910F9177
:101E60000895CF93DF93DEC00E949608D0E0C0E0D3
:101E7000C83CD1052CF50E942E080E947A0E809154
:101E8000420390914303019790934303809342034D
:101E9000409140035091410360913E0370913F0394
:101EA0000E947F0865E070E080E090E00E945E02A2
:101EB0000E944708882311F02196DACF0E949608E5
:101EC000D0E0C0E0C83CD10534F50E942E080E9445
:101ED0007A0E60913E0370913F036F5F7F4F709366
:101EE0003F0360933E034091400350914103809132
:101EF0004203909143030E947F0865E070E080E018
:101F000090E00E945E020E944708882311F021960B
:101F1000D9CF0E949608D0E0C0E0C83CD10534F586
:101F20000E942E080E947A0E60913E0370913F033A
:101F30006150710970933F0360933E0340914003E9
:101F40005091410380914203909143030E947F0886
:101F50000E944708882341F065E070E080E090E04F
:101F60000E945E022196D9CF0E949608D0E0C0E080
:101F7000C83CD10534F50E942E080E947A0E40918B
:101F80004003509141034F5F5F4F50934103409393
:101F9000400360913E0370913F0380914203909112
:101FA00043030E947F0865E070E080E090E00E94BB
:101FB0005E020E944708882311F02196D9CF0E9423
:101FC0009608D0E0C0E0C83CD10534F50E942E0848
:101FD0000E947A0E409140035091410341505109B3
:101FE000509341034093400360913E0370913F033F
:101FF00080914203909143030E947F0865E070E066
:1020000080E090E00E945E020E944708882311F061
:102010002196D9CF0E9496080E944708882381F113
:102020000E94DA0E0E944708882361F1D0E0C0E0E8
:10203000C83CD1050CF01ACF0E942E080E947A0EDF
:1020400080914203909143030196909343038093C0
:102050004203409140035091410360913E037091CF
:102060003F030E947F0865E070E080E090E00E94FE
:102070005E020E944708882309F4F6CE2196D8CF45
:102080000E949608DF91CF910895CF92DF92EF9250
:10209000FF92611571058105910559F4462F372F7F
:1020A000282F642F732F822FFF90EF90DF90CF9017
:1020B00008956B017C010E949930A70196010E944E
:1020C0005132462F372F282FECCFCF92DF92EF924D
:1020D000FF9262177307840795072CF0FF90EF902B
:1020E000DF90CF9008956B017C01CA01B9016C1992
:1020F0007D098E099F090E9445106C0D7D1D8E1D66
:102100009F1DECCF019709F008956F3F7F4FE1F7D6
:1021100028EC30E040E050E065E070E080E090E0E6
:102120000E94651028EC30E040E050E065E070E08F
:1021300080E090E00E946510E8EBF3E014821582E5
:1021400016821782108611861286138614861586CB
:1021500016861786108A118A128A138A148A158A9B
:10216000168A178AE0EAF3E0148215821682178233
:102170001086118612861386148615861686178693
:10218000108A118A128A138A148A158A168A178A63
:10219000E8E8F3E014821582168217821086118611
:1021A000128613861486158616861786108A118A5B
:1021B000128A138A148A158A168A178AA5CF0F9352
:1021C0001F938B019C01672B91F0FA01411551057A
:1021D00081F0BC0101900020E9F73197E41BF50B79
:1021E000E817F90741F080E01F910F9108950E94D0
:1021F00025360E94253690E080E009C00E942536F1
:102200000E9425360E9425360E94253601968617A3
:102210009707F8F40115110589F32817390780F39A
:10222000FC01E00FF11FA081FA014115510551F3A6
:1022300001900020E9F73197E41BF50BE817F90747
:1022400018F3FA01E80FF91FE081EA17F9F280E0CC
:10225000CBCF81E0C9CF9C01CB01BA01A9010E947B
:10226000DF100895CF93DF93EA01FC01009729F175
:1022700001900020E9F73197E81BF90BCE17DF0733
:10228000F8F030E020E02C173D0700F5DB01A20F4D
:10229000B31FFC010097B1F001900020E9F73197DE
:1022A000E81BF90BE217F30778F0FC01E20FF31FCC
:1022B00050815C932F5F3F4FE6CFF0E0E0E0DECF50
:1022C0000E9425360E9425360E942536DF91CF9147
:1022D00008952F923F924F925F926F927F928F92CA
:1022E0009F92AF92BF92CF92DF92EF92FF920F93A5
:1022F0001F93CF93DF93CDB7DEB7A9970FB6F894AE
:10230000DEBF0FBECDBF7C018B01DC011496EC91CA
:102310001497EF77E250EF3308F09FC5F0E0ED56E9
:10232000FE4E0C940F335D165D16C415C415FA16D7
:102330002D17C7162D1775162D17D2112D172D17FE
:102340002D172D172D172D172D172D172D172D176D
:102350002D172D172D172D172D172D172D172D175D
:102360002D17D4142D172D172D172D172D172D17A9
:102370002D172D172D172D172D172D172D172D173D
:102380002D172D172D172D172D172D172D172D172D
:102390002D172D172D172D172D172D172D172D171D
:1023A0002D178514FC01C080D180E280F380C70125
:1023B000B6010E94C30681113DC0C701B6010E944B
:1023C000A00681114DC020E030E0A901C701B6018F
:1023D0000E942D318823B4F4D8018D919C91DC01A9
:1023E000ED91FC910190F081E02D6DE20995F801ED
:1023F00022813381820F931F93838283F7FAF094B3
:10240000F7F8F09486E089A320E836E948E15BE438
:10241000C701B6010E943E3488230CF467C068945B
:10242000AA24A5F8B12C0F2EF5E07F2EF02D312C2B
:10243000212C2FC0D8018D919C91DC01ED91FC9154
:102440000280F381E02D44E050E06AE872E00995F3
:10245000F80122813381820F931F9383828301C20B
:10246000D8018D919C91DC01ED91FC910280F3816A
:10247000E02D44E050E06AE872E00995F80122811D
:102480003381820F931F93838283EBC1B594A7940A
:102490007A947720ACF1872C072C000C9908C401A2
:1024A000880F991F880F991F88569F4F0E94D0064A
:1024B0000E94D606A70196010E942D31181634F30A
:1024C000C401880F991F880F991F88599F4F0E9438
:1024D000D0060E94D6069B01AC01C701B6010E943E
:1024E00093316B017C012A0C3B1CD0CF6894AA2449
:1024F000A5F8B12C0F2EF5E07F2EF02D312C212CDC
:1025000020E030E0A901C701B6010E943E34181650
:102510005CF42CEA35EC47E257E3C701B6010E94B0
:102520002D3118160CF041C038A22F8EC701B6010C
:102530000E940F346EA37FA388A799A76F8B788F13
:10254000898F9A8F2B013C0180E492E4AFE0B0E0E8
:102550008AA39BA3ACA3BDA39AE0491651046104CE
:10256000710408F450C00F2EFAE08F2E912CA12C8C
:10257000B12CF02D6AA17BA18CA19DA1A501940194
:102580000E94BA322AA33BA34CA35DA389A1815028
:1025900089A3C301B201A50194010E94BA322901A5
:1025A0003A01DACFB594A7947A9477200CF4BCCF93
:1025B000872C072C000C9908C401880F991F880FDD
:1025C000991F80589F4F0E94D0060E94D606A701EF
:1025D00096010E943E3418162CF7C401880F991FEB
:1025E000880F991F88569F4F0E94D0060E94D606DA
:1025F0009B01AC01C701B6010E9493316B017C01C4
:102600002A183B08CFCF6EA17FA188A599A50E946B
:1026100032319B01AC01C701B6010E9429336B0125
:102620007C016AA17BA18CA19DA10E9432319B01FA
:10263000AC01C701B6010E9493314B015C010E94BD
:102640000F346B017C010E9432319B01AC01C5014A
:10265000B4010E9429339B01AC010E942A330E94DD
:102660000F34C60ED71EE81EF91ECB8EDC8EED8E03
:10267000FE8E8AA19BA1ACA1BDA1C816D906EA060F
:10268000FB0618F11B8E1C8E1D8E1E8E8EA19FA127
:10269000A8A5B9A50196A11DB11D8F8B988FA98FF3
:1026A000BA8F2114310489F00A97A105B10568F0A9
:1026B0009FEF291A390A38A22F8E81E090E0A0E01E
:1026C000B0E08F8B988FA98FBA8F8B8C9C8CAD8C40
:1026D000BE8CC501B4012AE030E040E050E00E9429
:1026E000BA32672B682B692B91F4F9A01F147CF484
:1026F000C501B4012AE030E040E050E00E94BA3267
:102700002B8F3C8F4D8F5E8FFA94F9A2DECF6F89AD
:10271000788D898D9A8D7E01A7E1EA0EF11C2AE061
:1027200030E040E050E00E94BA32605DF701629311
:102730007F01622F732F842F952F611571058105FD
:10274000910569F7AE01495E5F4F4E1B5F0BD801E3
:102750008D919C91DC01ED91FC910280F381E02D43
:10276000B7010995F80122813381820F931F93836A
:10277000828329A1211191C08F8D98A1892B09F401
:1027800070C0D8018D919C91DC01ED91FC9101907C
:10279000F081E02D65E60995F80122813381820FF1
:1027A000931F93838283EF8CF8A0FF20A4F4808191
:1027B0009181DC01ED91FC910190F081E02D6DE2C1
:1027C0000995F80122813381820F931F93838283BD
:1027D000F194E194F108FE0177969701ADECBCEC21
:1027E0000E94DC3296958795969587959695879564
:1027F0009C01220F331F220F331F820F931F880F5C
:10280000991F9701281B390BC901805D829397019D
:102810000E94DC327C01F694E794F694E794F694F7
:10282000E794E114F104C9F6AE01495E5F4F4E1B17
:102830005F0BD8018D919C91DC012D913C91D901C8
:1028400012962D913C91BF01F9010995D80112967C
:102850002D913C911397820F931F13969C938E9307
:102860001297F80182819381A9960FB6F894DEBF82
:102870000FBECDBFDF91CF911F910F91FF90EF90D1
:10288000DF90CF90BF90AF909F908F907F906F9090
:102890005F904F903F902F9008956B8D7C8D8D8D24
:1028A0009E8D7E01F1E1EF0EF11CDD24DA94D20E53
:1028B000222381F02AE030E040E050E00E94BA326A
:1028C000605DD7016E937D01622F732F842F952F4A
:1028D0002D2DEBCF8EE2F7018293BF01AE014F5E4B
:1028E0005F4F4E1B5F0BD8018D919C91DC01ED91E8
:1028F000FC910280F381E02D0995F801228133815A
:10290000820F931F9383828337CFDB018D919C913C
:10291000DC01ED91FC910190F081E02D6BE50995D2
:10292000F80122813381820F931F93838283D70121
:10293000ED90FC90E114F10421F1B801C7010E946F
:102940006911F70185818823E1F0F8E08F02C00169
:102950001124E80EF91EE114F10499F0D8018D91CB
:102960009C91DC01ED91FC910190F081E02D6CE2F5
:102970000995F80122813381820F931F938382830B
:10298000D9CFD8018D919C91DC01ED91FC91019002
:10299000F081E02D6DE50995F80122813381820FE8
:1029A000931F9383828360CFDB018D919C91DC0127
:1029B000ED91FC910190F081E02D6BE70995F80114
:1029C00022813381820F931F93838283D701AD903D
:1029D000BC90A9C00E942536FF20A1F1F60180819C
:1029E0009181DC01ED91FC910190F081E02D6CE58D
:1029F0000995F60122813381820F931F938382838D
:102A000080819181DC01ED91FC910190F081E02DBC
:102A10006F2D0995F60122813381820F931F9383D5
:102A20008283D4016C916623B9F1BFEF8B1A9B0AA4
:102A3000EBE7F2E0F080FF2079F28181681761F224
:102A40003296F8CF662391F0D6018D919C91DC01EE
:102A5000ED91FC910190F081E02D0995F601228124
:102A60003381820F931F93838283DBCFD6018D91B5
:102A70009C91DC01ED91FC910280F381E02D46E018
:102A800050E06FE872E00995F60122813381820FF0
:102A9000931F93838283C5CFD8018D919C91DC01D4
:102AA000ED91FC910190F081E02D62E20995F80131
:102AB00022813381820F931F93838283808191814E
:102AC000DC01ED91FC910190F081E02D6AE3099524
:102AD000F80122813381820F931F93838283B8018F
:102AE000C5010E946911D50115968C918823C9F101
:102AF000B8E08B02C0011124A80EB91EA114B104C4
:102B000081F1F80180819181DC01ED91FC910190CE
:102B1000F081E02D6CE20995F80122813381820F6A
:102B2000931F93838283A114B104D9F06801F50146
:102B3000868097808114910409F44CCFD8018D913F
:102B40009C91DC01ED91FC910190F081E02D62E21D
:102B50000995F80122813381820F931F9383828329
:102B600060CFD8018D919C91DC01ED91FC91019099
:102B7000F081E02D6DE70995F80122813381820F04
:102B8000931F9383828370CE1296CD90DC9013971F
:102B9000AD90BC907B01A114B10499F0FB01808140
:102BA0009181DC01ED91FC910190F081E02D62E2D8
:102BB0000995F80122813381820F931F93838283C9
:102BC00029C00E942536DD20D9F1F701808191814D
:102BD000DC01ED91FC910190F081E02D6CE509950F
:102BE000F70122813381820F931F93838283808137
:102BF0009181DC01ED91FC910190F081E02D6D2D32
:102C00000995F70122813381820F931F9383828379
:102C1000640153014601F1E08F1A9108CD28D1F1EA
:102C200035012FEF621A720AD5016C91EBE7F2E0E1
:102C3000D080DD2041F28181681729F23296F8CFE9
:102C4000662391F0D7018D919C91DC01ED91FC916F
:102C50000190F081E02D0995F70122813381820FE7
:102C6000931F93838283D4CFD7018D919C91DC01F4
:102C7000ED91FC910280F381E02D46E050E06FE899
:102C800072E00995F70122813381820F931F9383AC
:102C90008283BECFD8018D919C91DC01ED91FC9196
:102CA0000190F081E02D62E20995F80122813381E3
:102CB000820F931F93838283D7CD12964D915C919F
:102CC00013976D917C91F80180819181DC01ED91E8
:102CD000FC910280F381E02D0995F8012281338176
:102CE000820F931F93838283BFCDCD90DD90ED90B3
:102CF000FC90FF200CF048C0FB0180819181DC0139
:102D0000ED91FC910190F081E02D6DE20995F801C3
:102D100022813381820F931F9383828366277727D3
:102D2000CB016C197D098E099F097E01F7E1EF0E39
:102D3000F11C2AE030E040E050E00E94BA32605DD1
:102D4000D7016E937D01622F732F842F952F61150C
:102D500071058105910569F7AE01495E5F4F4A1B18
:102D60005B0BF80180819181DC01ED91FC91028087
:102D7000F381E02DB7010995F80122813381820F9B
:102D8000931F9383828370CDC701B601CECF6D911F
:102D90007D918D919C917E01B7E1EB0EF11C2AE0B3
:102DA00030E040E050E00E94BA32605DF70162938B
:102DB0007F01622F732F842F952F61157105810577
:102DC000910569F7AE01495E5F4F4E1B5F0BD8015D
:102DD0008D919C91DC01ED91FC910280F381E02DBD
:102DE000B7010995F80122813381820F931F9383E4
:102DF00082833ACD8C9181111AC0DB018D919C9117
:102E0000DC01ED91FC910280F381E02D45E050E082
:102E10006BE972E00995F80122813381820F931FDB
:102E200093838283D80112968D919C911DCDFB01D5
:102E300080819181DC01ED91FC910280F381E02D94
:102E400044E050E066E972E00995F801228133819F
:102E5000820F931F93838283E5CFF8018081918154
:102E6000DC01ED91FC910280F381E02D44E050E023
:102E70006AE872E00995F80122813381820F931F7D
:102E800093838283F1CC2F923F924F925F926F9205
:102E90007F928F929F92AF92BF92CF92DF92EF92EA
:102EA000FF920F931F93CF93DF93CDB7DEB7629757
:102EB0000FB6F894DEBF0FBECDBF5B016A011901EA
:102EC0004B018B0161157105B1F1FB0161157105B4
:102ED00059F001900020E9F731977F01E61AF70ACF
:102EE000D6010D911C910DC0F12CE12CF9CFB70149
:102EF000A801C4010E942B11882381F018C00F5F24
:102F00001F4FF801EE0DFF1DD60112968D919C9179
:102F1000E817F90750F48081882349F3F80180818C
:102F2000882369F30F5F1F4FF9CF10E000E0011510
:102F3000110509F46BC0F501309709F4B1C0019097
:102F40000020E9F73197EA19FB091A830983FC830A
:102F5000EB831E821D8286E0FE013196DE011D9606
:102F600001900D928A95E1F78D859E85892B09F454
:102F70009AC08FEC96E0A0E0892B09F498C086E017
:102F8000FE013D96DE01179601900D928A95E1F7BC
:102F90008F819885892B09F494C08FEC96E0A0E08E
:102FA000892B09F492C08B859C85019709F491C007
:102FB000D10114968C9114978078856014968C9327
:102FC0008F819885F1019183808389859A85938388
:102FD000828381E0012B09F482C062960FB6F894D7
:102FE000DEBF0FBECDBFDF91CF911F910F91FF903C
:102FF000EF90DF90CF90BF90AF909F908F907F9099
:103000006F905F904F903F902F900895F501892821
:10301000C1F101900020E9F731977F01EA18FB0820
:10302000D60112960D911C911397C7010196800F3E
:10303000911F14962D913C9115972817390720F16F
:10304000F60193838283208131818217930710F1E7
:1030500014962D913C9128173907F0F086819781BD
:1030600082179307D8F00115110509F464CFA70161
:10307000B801C5010E943211F801EE0DFF1D10824A
:103080005ACFF12CE12CCCCF81E018968C9310E034
:1030900000E051CF0E9425360E9425360E94253639
:1030A000F0E0E0E052CF80E090E0DC0165CFA0FDF1
:1030B00066CFD10114968C911497807814968C93D6
:1030C00088CF80E090E0DC016BCFA0FD6CCF0E9448
:1030D0002536F101848180788460848371CF80E01B
:1030E0007CCFAF92BF92CF92DF92EF92FF920F937D
:1030F0001F93CF93DF93EC016B01892B09F4FAC086
:10310000DB018D919C91DC01ED91FC910190F081AE
:10311000E02D6BE70995F60122813381820F931F21
:1031200093838283A880B980A9C00E942536CC23CE
:10313000A1F1F80180819181DC01ED91FC91019078
:10314000F081E02D6CE50995F80122813381820F31
:10315000931F9383828380819181DC01ED91FC91A7
:103160000190F081E02D6C2F0995F80122813381C7
:10317000820F931F93838283D7016C916623B9F1E9
:10318000BFEFEB1AFB0AEBE7F2E0C081CC2379F248
:103190008181681761F23296F8CF662391F0D801E9
:1031A0008D919C91DC01ED91FC910190F081E02DDD
:1031B0000995F80122813381820F931F93838283C3
:1031C000DBCFD8018D919C91DC01ED91FC910280C7
:1031D000F381E02D46E050E06FE872E00995F801D8
:1031E00022813381820F931F93838283C5CFD601BF
:1031F0008D919C91DC01ED91FC910190F081E02D8D
:1032000062E20995F60122813381820F931F938335
:10321000828380819181DC01ED91FC910190F081AC
:10322000E02D6AE30995F60122813381820F931F15
:1032300093838283B601C5010E946911D501159659
:103240008C918823D1F1B8E08B02C0011124A80E23
:10325000B91EA114B10489F1F60180819181DC01CC
:10326000ED91FC910190F081E02D6CE20995F60161
:1032700022813381820F931F93838283A114B1042F
:10328000E1F08601D5011696ED90FC90E114F10471
:1032900009F44BCFF60180819181DC01ED91FC9125
:1032A0000190F081E02D62E20995F60122813381DF
:1032B000820F931F938382835FCFD6018D919C9160
:1032C000DC01ED91FC910190F081E02D6DE7099515
:1032D000F60122813381820F931F93838283DF91D2
:1032E000CF911F910F91FF90EF90DF90CF90BF9003
:1032F000AF900895DB018D919C91DC01ED91FC91E3
:103300000280F381E02D44E050E06AE872E0099524
:10331000F60122813381820F931F93838283DFCF53
:10332000CF93DF9300D000D0CDB7DEB77A83698327
:103330001C821B82BE016F5F7F4FFC0180819181E7
:103340000E9471180F900F900F900F90DF91CF9106
:1033500008950E94901908950E94A9190895CF9286
:10336000DF92EF92FF926B017C01B90128173907B8
:10337000A8F090E080E086179707B0F4FA01E80F14
:10338000F91FC114D10461F0E816F90658F0DC0108
:10339000AC0DBD1D3C9130830196EDCF0E942536CA
:1033A0000E9425360E942536FF90EF90DF90CF9047
:1033B0000895CF92DF92EF92FF926B017C01672B11
:1033C00069F02115310561F0DC018417950751F092
:1033D00080E0FF90EF90DF90CF9008950E94253617
:1033E0000E94253690E080E009C00E9425360E94A8
:1033F00025360E9425360E94253601968A179B079E
:10340000C0F4C114D10489F3E816F90680F3FC0175
:10341000EC0DFD1D60812115310559F34817590741
:1034200050F3FC01E20FF31F7081761731F380E057
:10343000D0CF81E0CECF2F923F924F925F926F928A
:103440007F928F929F92AF92BF92CF92DF92EF9234
:10345000FF920F931F93CF93DF93CDB7DEB766979D
:103460000FB6F894DEBF0FBECDBF2A013B01590154
:10347000242E352C862E972C7A01452BA1F16B0139
:10348000D901ED90FC9014C0FC8AEB8ADE8ACD8ACB
:103490002B893C894D895E89622D732D882D992D4C
:1034A0000E94D919882389F01AC08FEFE81AF80A08
:1034B000F701EC0DFD1DD50112968D919C91E81739
:1034C000F90758F480818823F9F2F7018081882375
:1034D00061F3FFEFEF1AFF0AF8CFF12CE12CE114B2
:1034E000F10409F461C0FA82E9827C826B821E8257
:1034F0001D8286E0FE013196DE011D9601900D923F
:103500008A95E1F78D859E85892B09F48BC08FEC18
:1035100096E0A0E0892B09F489C086E0FE013D9683
:10352000DE01179601900D928A95E1F78F819885BB
:10353000892B09F485C08FEC96E0A0E0892B09F473
:1035400083C08B859C85019709F482C0D8011496AD
:103550008C9114978078856014968C938F819885D0
:10356000F8019183808389859A859383828381E0A2
:10357000EF2809F473C066960FB6F894DEBF0FBE4D
:10358000CDBFDF91CF911F910F91FF90EF90DF9012
:10359000CF90BF90AF909F908F907F906F905F90F3
:1035A0004F903F902F900895D5011296ED90FC908A
:1035B0001397C30101968E0D9F1D14962D913C917A
:1035C00015972817390710F1F5019383828320811D
:1035D00031818217930700F114962D913C912817A1
:1035E0003907E0F08681978182179307C8F0E114CC
:1035F000F10409F478CF9301A701C301B2010E943D
:10360000AF19F701E60DF71D10826DCF81E0189616
:103610008C93F12CE12C67CF0E9425360E94253631
:103620000E94253680E090E0DC0174CFA0FD75CFCC
:10363000D80114968C911497807814968C9397CF18
:1036400080E090E0DC017ACFA0FD7BCF0E942536A0
:10365000F801848180788460848380CF80E08BCF80
:103660002F923F924F925F926F927F928F929F9292
:10367000AF92BF92CF92DF92EF92FF920F931F9380
:10368000CF93DF93CDB7DEB7C35FD1400FB6F894C9
:10369000DEBF0FBECDBFC451DE4F688379838A83FE
:1036A0009B83CC5ED140FE01E15BFF4FCF010E96C4
:1036B00091838083938382838E01035A1E4F1583E7
:1036C00004831783068310861586CF010996DF01D0
:1036D00089839A83AB83BC83875591090E94D7065F
:1036E000D8016D937D938D939C9313971296AD9013
:1036F000BC901397CD90DC90C114D10409F4D9C1CA
:1037000081EA92E0009709F4D1C17C01892B21F173
:10371000F601008111810115110519F1D8011696E4
:103720006D917C91E114F10499F06115710591F0AE
:10373000C7010E943336892BA1F0F80185818823C7
:1037400071F0F8E08F02C0011124080F191FE3CFB8
:103750000E9425360E94253610E000E002C010E0ED
:1037600000E00115110509F454C0302F212F832FDB
:10377000922FC15ADE4FA881B981CF55D1408D8398
:103780009E83AF83B887CE0105960E94D7062B0192
:103790003C012D964CAE5DAE6EAE7FAE2D972D9654
:1037A000AEACBFAC2D972B96EEACFFAC2B97E114D3
:1037B000F10409F4E6C286EA92E0009709F4DEC259
:1037C0008C01892B09F47CC1F701C080D180C11420
:1037D000D10409F47AC1D60116966D917C91011538
:1037E000110509F469C16115710509F467C1C801C2
:1037F0000E943336892B09F468C1F601858188233C
:1038000009F461C1F8E08F02C0011124C80ED91E6D
:10381000DECFD50112962D913C911397285F3F4F33
:1038200014968D919C9115978217930708F4B1C057
:103830000897F50195838483009771F1D60112965C
:10384000ED91FC91309709F4AFC0009709F4A6C040
:103850009C012E1B3F0BA901559547955595479502
:10386000559547952115BCEF3B070CF499C0293FAE
:1038700033400CF097C04583D60113969C938E93EA
:103880001297DC0115961C92159714961C921497AA
:1038900017961C921E921697009709F4A9C07C01F6
:1038A00021EA32E02115310509F484C0F9010190C3
:1038B0000020E9F7AF01425A5240CF59DE4F398319
:1038C0002883C156D140CD59DE4F59834883C35612
:1038D000D14041E050E0CB59DE4F59834883C55673
:1038E000D14046E0FE01EF59FE4FDE01AB51BE4F25
:1038F00001900D924A95E1F7CB51DE4F48815981F5
:10390000C55ED140452B09F458C04FEC56E060E04D
:10391000452B09F456C0E114F10409F455C046E002
:10392000FE01EB51FE4FDE01A152BE4F01900D9200
:103930004A95E1F7C152DE4F48815981CF5DD140B0
:10394000452B09F443C04FEC56E060E0452B09F4E9
:1039500041C0CD51DE4F48815981C35ED1404130D5
:103960005105E1F1F701448140684483C152DE4FC3
:1039700048815981CF5DD140D70117965C934E9312
:10398000169741E0232B91F1442391F1382F292FF1
:10399000EECE81E018968C93C8017ECF0E9425362A
:1039A0000E9425360E942536F601918380839383F9
:1039B000828367CF50E040E080CF40E050E0BA0122
:1039C000A7CF60FDA8CFDDCF0E94253640E050E0B4
:1039D000BA01BCCF60FDBDCF0E942536D701149639
:1039E0004C9114974F7714964C93C0CF40E0CCCFB6
:1039F000009709F458C0D601ED91FC9105C09801DB
:103A00008217930769F0F901309751F0258122233D
:103A1000B1F3B8E02B02900111242E0F3F1FF0CF1D
:103A2000DC0115962C91222331F0B8E02B028001A5
:103A30001124080F191F309751F10115110531F0AC
:103A4000C8018E1B9F0B81159C4FDCF001151105E1
:103A500031F0C8018E1B9F0B893F9340A4F40115E0
:103A6000110599F0C8018E1B9F0B9595879595952B
:103A70008795959587958583012B69F030E020E047
:103A800076CE0E9425360E94253680E0F4CFD601FE
:103A90000D931C93F1CFD6011396FC93EE931297DE
:103AA00030E020E064CE30E020E061CE30E020E085
:103AB0005ECE30E020E05BCE0E9425360E942536A7
:103AC000D12CC12C02C0D12CC12CC114D10411F0B5
:103AD000F60159C1D50112962D913C911397285F9B
:103AE0003F4F14968D919C9115978217930708F478
:103AF000B8C00897F50195838483009771F1D701C9
:103B00001296ED91FC91309709F4B6C0009709F434
:103B1000ADC09C012E1B3F0BA901559547955595AE
:103B20004795559547952115BCEF3B070CF4A0C070
:103B3000293F33400CF09EC04583D70113969C93D8
:103B40008E931297DC0115961C92159714961C9271
:103B5000149717961C921E921697009709F4B0C0FE
:103B6000AC0126EA32E02115310509F48BC0F901D8
:103B700001900020E9F7BF01675A7240CF59DE4F2C
:103B800039832883C156D140CD59DE4F798368836C
:103B9000C356D14061E070E0CB59DE4F7983688332
:103BA000C556D14066E0FE01EF59FE4FDE01A75237
:103BB000BE4F01900D926A95E1F7C752DE4F6881C2
:103BC0007981C95DD140672B09F45FC00F2EFFECEE
:103BD0008F2EF6E09F2EF02DA12C892809F459C0D4
:103BE0004115510509F458C066E0FE01E752FE4F49
:103BF000DE01AD52BE4F01900D926A95E1F7CD52B4
:103C0000DE4F68817981C35DD140672B09F446C0DE
:103C10000F2EFFEC8F2EF6E09F2EF02DA12C892881
:103C200009F440C0C952DE4F68817981C75DD14037
:103C300061307105D9F1FA01648160686483CD5205
:103C4000DE4F68817981C35DD140DA0117967C939C
:103C50006E93169741E0232B89F1442389F1FC01EF
:103C600092C081E018968C93C60177CF0E942536CA
:103C70000E9425360E942536F70191838083938325
:103C8000828360CF70E060E079CF812C912C540169
:103C9000A4CFA0FCA5CFDECF0E942536812C912C8D
:103CA0005401BDCFA0FCBECF0E942536DA01149688
:103CB0006C9114976F7714966C93C1CF40E0CDCF81
:103CC000009709F458C0D701ED91FC9105C0960109
:103CD0008217930769F0F901309751F0258122236B
:103CE000B1F3B8E02B02900111242E0F3F1FF0CF4B
:103CF000DC0115962C91222331F0B8E02B026001F3
:103D00001124C80ED91E309751F1C114D10431F0DD
:103D1000C6018E1B9F0B81159C4FDCF0C114D10492
:103D200031F0C6018E1B9F0B893F9340A4F4C11450
:103D3000D10499F0C6018E1B9F0B9595879595959B
:103D40008795959587958583CD2869F0F0E0E0E02B
:103D50001AC00E9425360E94253680E0F4CFD70194
:103D6000CD92DC92F1CFD7011396FC93EE9312978C
:103D7000F0E0E0E008C0F0E0E0E005C0F0E0E0E006
:103D800002C0F0E0E0E09091E803309729F08481F0
:103D9000807886608483908326964CAE5DAE6EAE4E
:103DA0007FAE26972696AEACBFAC26972496EEAC97
:103DB000FFAC2497E114F10409F48DC186EB92E085
:103DC000009709F485C18C01892B59F1F701C08056
:103DD000D1800AC00E9425360E942536F8E08F0265
:103DE000C0011124C80ED91EC114D104A9F0D601F6
:103DF00016966D917C910115110561F361157105A0
:103E000059F3C8010E943336892B31F0F6018581C0
:103E10008111E4CFD12CC12CC114D10429F0F601B9
:103E20005CC1D12CC12CF8CFD50112962D913C91BB
:103E30001397285F3F4F14968D919C911597821789
:103E4000930708F4B8C00897F50195838483009719
:103E500071F1D7011296ED91FC91309709F4B6C03B
:103E6000009709F4ADC09C012E1B3F0BA90155958D
:103E7000479555954795559547952115BCEF3B07B7
:103E80000CF4A0C0293F33400CF09EC04583D701FD
:103E900013969C938E931297DC0115961C9215979E
:103EA00014961C92149717961C921E9216970097C0
:103EB00009F4B0C0AC0126EB32E02115310509F45C
:103EC0008BC0F90101900020E9F7BF01675B7240E8
:103ED000CF59DE4F39832883C156D140CD59DE4FAB
:103EE00079836883C356D14061E070E0CB59DE4FDF
:103EF00079836883C556D14066E0FE01EF59FE4FD5
:103F0000DE01A353BE4F01900D926A95E1F7C353B2
:103F1000DE4F68817981CD5CD140672B09F45FC0A9
:103F20000F2EFFEC8F2EF6E09F2EF02DA12C89286E
:103F300009F459C04115510509F458C066E0FE0165
:103F4000E353FE4FDE01A953BE4F01900D926A95D7
:103F5000E1F7C953DE4F68817981C75CD140672B97
:103F600009F446C00F2EFFEC8F2EF6E09F2EF02DA9
:103F7000A12C892809F440C0C553DE4F688179819E
:103F8000CB5CD14061307105D9F1FA016481606880
:103F90006483C953DE4F68817981C75CD140DA01FF
:103FA00017967C936E93169741E0232B89F1442357
:103FB00089F1FC0192C081E018968C93C60177CFFD
:103FC0000E9425360E9425360E942536F7019183EE
:103FD00080839383828360CF70E060E079CF812C0F
:103FE000912C5401A4CFA0FCA5CFDECF0E94253692
:103FF000812C912C5401BDCFA0FCBECF0E94253650
:10400000DA0114966C9114976F7714966C93C1CF64
:1040100040E0CDCF009709F458C0D701ED91FC9155
:1040200005C096018217930769F0F901309751F0A6
:1040300025812223B1F3B8E02B02900111242E0F29
:104040003F1FF0CFDC0115962C91222331F0B8E010
:104050002B0260011124C80ED91E309751F1C114F2
:10406000D10431F0C6018E1B9F0B81159C4FDCF0F3
:10407000C114D10431F0C6018E1B9F0B893F9340C0
:10408000A4F4C114D10499F0C6018E1B9F0B959521
:10409000879595958795959587958583CD2869F022
:1040A000F0E0E0E01AC00E9425360E94253680E04C
:1040B000F4CFD701CD92DC92F1CFD7011396FC93C8
:1040C000EE931297F0E0E0E008C0F0E0E0E005C019
:1040D000F0E0E0E002C0F0E0E0E09091E70330972C
:1040E00029F0848180788660848390834BAE5CAEB7
:1040F0006DAE7EAEADACBEACEBACFCACE114F1048D
:1041000009F48DC187EC92E0009709F485C18C0118
:10411000892B21F1F701C080D180C114D10419F19C
:10412000D60116966D917C910115110599F06115D6
:10413000710591F0C8010E943336892BA1F0F60178
:104140008581882371F0F8E08F02C0011124C80E28
:10415000D91EE3CF0E9425360E942536D12CC12CD2
:1041600002C0D12CC12CC114D10411F0F60159C1E7
:10417000D50112962D913C911397285F3F4F1496CD
:104180008D919C9115978217930708F4B8C00897F2
:10419000F50195838483009771F1D7011296ED9113
:1041A000FC91309709F4B6C0009709F4ADC09C01AA
:1041B0002E1B3F0BA901559547955595479555954C
:1041C00047952115BCEF3B070CF4A0C0293F3340B5
:1041D0000CF09EC04583D70113969C938E93129743
:1041E000DC0115961C92159714961C92149717963D
:1041F0001C921E921697009709F4B0C0AC0127ECF0
:1042000032E02115310509F48BC0F901019000203D
:10421000E9F7BF01685C7240CF59DE4F39832883CC
:10422000C156D140CD59DE4F79836883C356D14002
:1042300061E070E0CB59DE4F79836883C556D14089
:1042400066E0FE01EF59FE4FDE01AF53BE4F019015
:104250000D926A95E1F7CF53DE4F68817981C15C99
:10426000D140672B09F45FC00F2EFFEC8F2EF6E0D4
:104270009F2EF02DA12C892809F459C04115510514
:1042800009F458C066E0FE01EF53FE4FDE01A5546D
:10429000BE4F01900D926A95E1F7C554DE4F6881DB
:1042A0007981CB5BD140672B09F446C00F2EFFEC20
:1042B0008F2EF6E09F2EF02DA12C892809F440C006
:1042C000C154DE4F68817981CF5BD1406130710587
:1042D000D9F1FA01648160686483C554DE4F688156
:1042E0007981CB5BD140DA0117967C936E93169758
:1042F00041E0232B89F1442389F1FC0192C081E044
:1043000018968C93C60177CF0E9425360E942536D9
:104310000E942536F701918380839383828360CF47
:1043200070E060E079CF812C912C5401A4CFA0FCE7
:10433000A5CFDECF0E942536812C912C5401BDCF14
:10434000A0FCBECF0E942536DA0114966C9114971A
:104350006F7714966C93C1CF40E0CDCF009709F4EE
:1043600058C0D701ED91FC9105C0960182179307C3
:1043700069F0F901309751F025812223B1F3B8E0BB
:104380002B02900111242E0F3F1FF0CFDC01159658
:104390002C91222331F0B8E02B0260011124C80EC9
:1043A000D91E309751F1C114D10431F0C6018E1BD2
:1043B0009F0B81159C4FDCF0C114D10431F0C60174
:1043C0008E1B9F0B893F9340A4F4C114D10499F034
:1043D000C6018E1B9F0B959587959595879595950D
:1043E00087958583CD2869F0F0E0E0E01AC00E944F
:1043F00025360E94253680E0F4CFD701CD92DC929D
:10440000F1CFD7011396FC93EE931297F0E0E0E022
:1044100008C0F0E0E0E005C0F0E0E0E002C0F0E05D
:10442000E0E09091E603309729F0848180788660FF
:10443000848390834CAA5DAA6EAA7FAAAEA8BFA867
:10444000ECA8FDA8E114F10409F48DC180ED92E01F
:10445000009709F485C18C01892B59F1F701C080BF
:10446000D1800AC00E9425360E942536F8E08F02CE
:10447000C0011124C80ED91EC114D104A9F0D6015F
:1044800016966D917C910115110561F36115710509
:1044900059F3C8010E943336892B31F0F60185812A
:1044A0008111E4CFD12CC12CC114D10429F0F60123
:1044B0005CC1D12CC12CF8CFD50112962D913C9125
:1044C0001397285F3F4F14968D919C9115978217F3
:1044D000930708F4B8C00897F50195838483009783
:1044E00071F1D7011296ED91FC91309709F4B6C0A5
:1044F000009709F4ADC09C012E1B3F0BA9015595F7
:10450000479555954795559547952115BCEF3B0720
:104510000CF4A0C0293F33400CF09EC04583D70166
:1045200013969C938E931297DC0115961C92159707
:1045300014961C92149717961C921E921697009729
:1045400009F4B0C0AC0120ED32E02115310509F4C9
:104550008BC0F90101900020E9F7BF01615D724055
:10456000CF59DE4F39832883C156D140CD59DE4F14
:1045700079836883C356D14061E070E0CB59DE4F48
:1045800079836883C556D14066E0FE01EF59FE4F3E
:10459000DE01AB54BE4F01900D926A95E1F7CB540A
:1045A000DE4F68817981C55BD140672B09F45FC01C
:1045B0000F2EFFEC8F2EF6E09F2EF02DA12C8928D8
:1045C00009F459C04115510509F458C066E0FE01CF
:1045D000EB54FE4FDE01A155BE4F01900D926A953E
:1045E000E1F7C155DE4F68817981CF5AD140672B01
:1045F00009F446C00F2EFFEC8F2EF6E09F2EF02D13
:10460000A12C892809F440C0CD54DE4F68817981FE
:10461000C35BD14061307105D9F1FA0164816068F2
:104620006483C155DE4F68817981CF5AD140DA0168
:1046300017967C936E93169741E0232B89F14423C0
:1046400089F1FC0192C081E018968C93C60177CF66
:104650000E9425360E9425360E942536F701918357
:1046600080839383828360CF70E060E079CF812C78
:10467000912C5401A4CFA0FCA5CFDECF0E942536FB
:10468000812C912C5401BDCFA0FCBECF0E942536B9
:10469000DA0114966C9114976F7714966C93C1CFCE
:1046A00040E0CDCF009709F458C0D701ED91FC91BF
:1046B00005C096018217930769F0F901309751F010
:1046C00025812223B1F3B8E02B02900111242E0F93
:1046D0003F1FF0CFDC0115962C91222331F0B8E07A
:1046E0002B0260011124C80ED91E309751F1C1145C
:1046F000D10431F0C6018E1B9F0B81159C4FDCF05D
:10470000C114D10431F0C6018E1B9F0B893F934029
:10471000A4F4C114D10499F0C6018E1B9F0B95958A
:10472000879595958795959587958583CD2869F08B
:10473000F0E0E0E01AC00E9425360E94253680E0B5
:10474000F4CFD701CD92DC92F1CFD7011396FC9331
:10475000EE931297F0E0E0E008C0F0E0E0E005C082
:10476000F0E0E0E002C0F0E0E0E09091E503309797
:1047700029F0848180788660848390834DA65EA62C
:104780006FA678AAAFA4B8A8EDA4FEA4E114F10422
:1047900009F48DC18AED92E0009709F485C18C017E
:1047A000892B21F1F701C080D180C114D10419F106
:1047B000D60116966D917C910115110599F0611540
:1047C000710591F0C8010E943336892BA1F0F601E2
:1047D0008581882371F0F8E08F02C0011124C80E92
:1047E000D91EE3CF0E9425360E942536D12CC12C3C
:1047F00002C0D12CC12CC114D10411F0F60159C151
:10480000D50112962D913C911397285F3F4F149636
:104810008D919C9115978217930708F4B8C008975B
:10482000F50195838483009771F1D7011296ED917C
:10483000FC91309709F4B6C0009709F4ADC09C0113
:104840002E1B3F0BA90155954795559547955595B5
:1048500047952115BCEF3B070CF4A0C0293F33401E
:104860000CF09EC04583D70113969C938E931297AC
:10487000DC0115961C92159714961C9214971796A6
:104880001C921E921697009709F4B0C0AC012AED55
:1048900032E02115310509F48BC0F90101900020A7
:1048A000E9F7BF016B5D7240CF59DE4F3983288332
:1048B000C156D140CD59DE4F79836883C356D1406C
:1048C00061E070E0CB59DE4F79836883C556D140F3
:1048D00066E0FE01EF59FE4FDE01A755BE4F019085
:1048E0000D926A95E1F7C755DE4F68817981C95A03
:1048F000D140672B09F45FC00F2EFFEC8F2EF6E03E
:104900009F2EF02DA12C892809F459C0411551057D
:1049100009F458C066E0FE01E755FE4FDE01AD55D3
:10492000BE4F01900D926A95E1F7CD55DE4F68813B
:104930007981C35AD140672B09F446C00F2EFFEC92
:104940008F2EF6E09F2EF02DA12C892809F440C06F
:10495000C955DE4F68817981C75AD14061307105F0
:10496000D9F1FA01648160686483CD55DE4F6881B6
:104970007981C35AD140DA0117967C936E931697CA
:1049800041E0232B89F1442389F1FC0192C081E0AD
:1049900018968C93C60177CF0E9425360E94253643
:1049A0000E942536F701918380839383828360CFB1
:1049B00070E060E079CF812C912C5401A4CFA0FC51
:1049C000A5CFDECF0E942536812C912C5401BDCF7E
:1049D000A0FCBECF0E942536DA0114966C91149784
:1049E0006F7714966C93C1CF40E0CDCF009709F458
:1049F00058C0D701ED91FC9105C09601821793072D
:104A000069F0F901309751F025812223B1F3B8E024
:104A10002B02900111242E0F3F1FF0CFDC011596C1
:104A20002C91222331F0B8E02B0260011124C80E32
:104A3000D91E309751F1C114D10431F0C6018E1B3B
:104A40009F0B81159C4FDCF0C114D10431F0C601DD
:104A50008E1B9F0B893F9340A4F4C114D10499F09D
:104A6000C6018E1B9F0B9595879595958795959576
:104A700087958583CD2869F0F0E0E0E01AC00E94B8
:104A800025360E94253680E0F4CFD701CD92DC9206
:104A9000F1CFD7011396FC93EE931297F0E0E0E08C
:104AA00008C0F0E0E0E005C0F0E0E0E002C0F0E0C7
:104AB000E0E02091F1033091F203309761F08481BE
:104AC00080788A608483C901330FAA0BBB0B808373
:104AD0009183A283B3834EA25FA268A679A6A8A4FD
:104AE000B9A4EEA0FFA0E114F10409F48DC183EE96
:104AF00092E0009709F485C18C01892B21F1F7011F
:104B0000C080D180C114D10419F1D60116966D91DF
:104B10007C910115110599F06115710591F0C8019D
:104B20000E943336892BA1F0F6018581882371F02C
:104B3000F8E08F02C0011124C80ED91EE3CF0E94F5
:104B400025360E942536D12CC12C02C0D12CC12C77
:104B5000C114D10411F0F60159C1D50112962D915D
:104B60003C911397285F3F4F14968D919C91159718
:104B70008217930708F4B8C00897F50195838483DA
:104B8000009771F1D7011296ED91FC91309709F4DD
:104B9000B6C0009709F4ADC09C012E1B3F0BA901C4
:104BA0005595479555954795559547952115BCEFD2
:104BB0003B070CF4A0C0293F33400CF09EC0458356
:104BC000D70113969C938E931297DC0115961C9235
:104BD000159714961C92149717961C921E9216976E
:104BE000009709F4B0C0AC0123EE32E02115310585
:104BF00009F48BC0F90101900020E9F7BF01645E60
:104C00007240CF59DE4F39832883C156D140CD59E8
:104C1000DE4F79836883C356D14061E070E0CB59A1
:104C2000DE4F79836883C556D14066E0FE01EF59B7
:104C3000FE4FDE01A356BE4F01900D926A95E1F73B
:104C4000C356DE4F68817981CD59D140672B09F475
:104C50005FC00F2EFFEC8F2EF6E09F2EF02DA12CC3
:104C6000892809F459C04115510509F458C066E076
:104C7000FE01E356FE4FDE01A956BE4F01900D9294
:104C80006A95E1F7C956DE4F68817981C759D140ED
:104C9000672B09F446C00F2EFFEC8F2EF6E09F2EF7
:104CA000F02DA12C892809F440C0C556DE4F68813B
:104CB0007981CB59D14061307105D9F1FA01648114
:104CC00060686483C956DE4F68817981C759D140D5
:104CD000DA0117967C936E93169741E0232B89F1A6
:104CE000442389F1FC0192C081E018968C93C6019F
:104CF00077CF0E9425360E9425360E942536F7017F
:104D0000918380839383828360CF70E060E079CF6A
:104D1000812C912C5401A4CFA0FCA5CFDECF0E9402
:104D20002536812C912C5401BDCFA0FCBECF0E9412
:104D30002536DA0114966C9114976F7714966C935C
:104D4000C1CF40E0CDCF009709F458C0D701ED9115
:104D5000FC9105C096018217930769F0F90130971D
:104D600051F025812223B1F3B8E02B0290011124E8
:104D70002E0F3F1FF0CFDC0115962C91222331F02E
:104D8000B8E02B0260011124C80ED91E309751F1F2
:104D9000C114D10431F0C6018E1B9F0B81159C4FAD
:104DA000DCF0C114D10431F0C6018E1B9F0B893F8A
:104DB0009340A4F4C114D10499F0C6018E1B9F0B3B
:104DC0009595879595958795959587958583CD2814
:104DD00069F0F0E0E0E01AC00E9425360E94253616
:104DE00080E0F4CFD701CD92DC92F1CFD7011396BA
:104DF000FC93EE931297F0E0E0E008C0F0E0E0E012
:104E000005C0F0E0E0E002C0F0E0E0E02091F30354
:104E10003091F403309761F0848180788A608483D4
:104E2000C901330FAA0BBB0B80839183A283B38389
:104E30004F8E58A269A27AA2A9A0BAA0EF8CF8A0BE
:104E4000E114F10409F48DC18DEE92E0009709F4AC
:104E500085C18C01892B59F1F701C080D1800AC02E
:104E60000E9425360E942536F8E08F02C0011124E9
:104E7000C80ED91EC114D104A9F0D60116966D91A1
:104E80007C910115110561F36115710559F3C80194
:104E90000E943336892B31F0F60185818111E4CFF0
:104EA000D12CC12CC114D10429F0F6015CC1D12C44
:104EB000C12CF8CFD50112962D913C911397285F04
:104EC0003F4F14968D919C9115978217930708F484
:104ED000B8C00897F50195838483009771F1D701D5
:104EE0001296ED91FC91309709F4B6C0009709F441
:104EF000ADC09C012E1B3F0BA901559547955595BB
:104F00004795559547952115BCEF3B070CF4A0C07C
:104F1000293F33400CF09EC04583D70113969C93E4
:104F20008E931297DC0115961C92159714961C927D
:104F3000149717961C921E921697009709F4B0C00A
:104F4000AC012DEE32E02115310509F48BC0F901D9
:104F500001900020E9F7BF016E5E7240CF59DE4F2D
:104F600039832883C156D140CD59DE4F7983688378
:104F7000C356D14061E070E0CB59DE4F798368833E
:104F8000C556D14066E0FE01EF59FE4FDE01AF5637
:104F9000BE4F01900D926A95E1F7CF56DE4F6881C2
:104FA0007981C159D140672B09F45FC00F2EFFEC06
:104FB0008F2EF6E09F2EF02DA12C892809F459C0E0
:104FC0004115510509F458C066E0FE01EF56FE4F49
:104FD000DE01A557BE4F01900D926A95E1F7C557C6
:104FE000DE4F68817981CB58D140672B09F446C0E8
:104FF0000F2EFFEC8F2EF6E09F2EF02DA12C89288E
:1050000009F440C0C157DE4F68817981CF58D14043
:1050100061307105D9F1FA01648160686483C55714
:10502000DE4F68817981CB58D140DA0117967C93A5
:105030006E93169741E0232B89F1442389F1FC01FB
:1050400092C081E018968C93C60177CF0E942536D6
:105050000E9425360E942536F70191838083938331
:10506000828360CF70E060E079CF812C912C540175
:10507000A4CFA0FCA5CFDECF0E942536812C912C99
:105080005401BDCFA0FCBECF0E942536DA01149694
:105090006C9114976F7714966C93C1CF40E0CDCF8D
:1050A000009709F458C0D701ED91FC9105C0960115
:1050B0008217930769F0F901309751F02581222377
:1050C000B1F3B8E02B02900111242E0F3F1FF0CF57
:1050D000DC0115962C91222331F0B8E02B026001FF
:1050E0001124C80ED91E309751F1C114D10431F0EA
:1050F000C6018E1B9F0B81159C4FDCF0C114D1049F
:1051000031F0C6018E1B9F0B893F9340A4F4C1145C
:10511000D10499F0C6018E1B9F0B959587959595A7
:105120008795959587958583CD2869F0F0E0E0E037
:105130001AC00E9425360E94253680E0F4CFD701A0
:10514000CD92DC92F1CFD7011396FC93EE93129798
:10515000F0E0E0E008C0F0E0E0E005C0F0E0E0E012
:1051600002C0F0E0E0E02091EF033091F0033097CF
:1051700061F0848180788A608483C901330FAA0B2F
:10518000BB0B80839183A283B383CE0184519E4F56
:105190000E948A064B015C01488E598E6A8E7B8E76
:1051A0002A8C3B8CC88CD98CC114D10409F4BEC1A3
:1051B0008DEF92E0009709F4B6C17C01892B21F1B3
:1051C000F601008111810115110519F1D80116961A
:1051D0006D917C91E114F10499F06115710591F0E4
:1051E000C7010E943336892BA1F0F80185818823FD
:1051F00071F0F8E08F02C0011124080F191FE3CFEE
:105200000E9425360E94253610E000E002C010E022
:1052100000E00115110511F0F8018AC1D1011296C3
:105220002D913C911397285F3F4F14968D919C913F
:1052300015978217930708F4D5C00897F101958355
:105240008483009771F1D6011296ED91FC9130970D
:1052500009F4D3C0009709F4CAC09C012E1B3F0B70
:10526000A90155954795559547955595479521150C
:10527000BCEF3B070CF4BDC0293F33400CF0BBC072
:105280004583D60113969C938E931297DC01159655
:105290001C92159714961C92149717961C921E92A6
:1052A0001697009709F4E1C07C012DEF32E021153B
:1052B000310509F4A8C0F90101900020E9F7BF0108
:1052C0006E5F7240CF59DE4F39832883C156D1407B
:1052D000CD59DE4F79836883C356D14061E070E0D9
:1052E000CB59DE4F79836883C556D14066E0FE0115
:1052F000EF59FE4FDE01AB57BE4F01900D926A95FC
:10530000E1F7CB57DE4F68817981C558D140672BD3
:1053100009F47CC04FEC56E0C051DE4F59834883FE
:10532000C05FD140CE50DE4F19821882C25FD1409B
:10533000C051DE4F68817981C05FD140672B09F48D
:105340006EC0E114F10409F472C066E0FE01EB578F
:10535000FE4FDE01A158BE4F01900D926A95E1F714
:10536000C158DE4F68817981CF57D140672B09F44E
:1053700060C0AFECB6E0C051DE4FB983A883C05F18
:10538000D140CE50DE4F19821882C25FD140C05149
:10539000DE4F68817981C05FD140672B09F452C02C
:1053A000CD57DE4F68817981C358D1406130710596
:1053B00009F451C0F701648160686483C158DE4F0D
:1053C00068817981CF57D140D70117967C936E932E
:1053D000169741E0232B09F446C0442309F445C045
:1053E000FC01A6C081E018968C93C8015ACF0E9498
:1053F00025360E9425360E942536F601918380834A
:105400009383828343CF70E060E05CCFC051DE4F76
:10541000188219821A821B82C05FD14089CFCE5078
:10542000DE4F7881C25FD14070FD8BCFD2CF0E941A
:105430002536C051DE4F188219821A821B82C05F46
:10544000D140A5CFCE50DE4F7881C25FD14070FDF4
:10545000A7CF0E942536D70114966C9114976F77C9
:1054600014966C93ABCF40E0B8CF009709F458C0C6
:10547000D601ED91FC9105C098018217930769F060
:10548000F901309751F025812223B1F3B8E02B02C6
:10549000900111242E0F3F1FF0CFDC0115962C91A7
:1054A000222331F0B8E02B0280011124080F191FCC
:1054B000309751F10115110531F0C8018E1B9F0B7A
:1054C00081159C4FDCF00115110531F0C8018E1BD0
:1054D0009F0B893F9340A4F40115110599F0C80171
:1054E0008E1B9F0B95958795959587959595879597
:1054F0008583012B69F0F0E0E0E01AC00E942536B8
:105500000E94253680E0F4CFD6010D931C93F1CF95
:10551000D6011396FC93EE931297F0E0E0E008C0FA
:10552000F0E0E0E005C0F0E0E0E002C0F0E0E0E044
:10553000309741F0848180788C608483808291826E
:10554000A282B382498A5A8A6B8A7C8AAB88BC88D9
:10555000E988FA88E114F10409F4C0C189E093E014
:10556000009709F4B8C18C01892B21F1F701C080A3
:10557000D180C114D10419F1D60116966D917C9198
:105580000115110599F06115710591F0C8010E948E
:105590003336892BA1F0F6018581882371F0F8E07C
:1055A0008F02C0011124C80ED91EE3CF0E942536F8
:1055B0000E942536D12CC12C02C0D12CC12CC11483
:1055C000D10419F03C2D2D2D8BC1D50112962D91B2
:1055D0003C911397285F3F4F14968D919C9115979E
:1055E0008217930708F4D6C00897F5019583848342
:1055F000009771F1D7011296ED91FC91309709F463
:10560000D4C0009709F4CBC09C012E1B3F0BA9010D
:105610005595479555954795559547952115BCEF57
:105620003B070CF4BEC0293F33400CF0BCC045839F
:10563000D70113969C938E931297DC0115961C92BA
:10564000159714961C92149717961C921E921697F3
:10565000009709F4E2C08C0129E033E021153105FF
:1056600009F4A9C0F90101900020E9F7BF016A50CF
:105670007340CF59DE4F39832883C156D140CD596D
:10568000DE4F79836883C356D14061E070E0CB5927
:10569000DE4F79836883C556D14066E0FE01EF593D
:1056A000FE4FDE01A758BE4F01900D926A95E1F7BB
:1056B000C758DE4F68817981C957D140672B09F4FB
:1056C0007DC04FEC56E0C051DE4F59834883C05F28
:1056D000D140CE50DE4F19821882C25FD140C051F6
:1056E000DE4F68817981C05FD140672B09F46FC0BC
:1056F0000115110509F473C066E0FE01E758FE4F7D
:10570000DE01AD58BE4F01900D926A95E1F7CD587C
:10571000DE4F68817981C357D140672B09F461C09E
:10572000AFECB6E0C051DE4FB983A883C05FD14073
:10573000CE50DE4F19821882C25FD140C051DE4F79
:1057400068817981C05FD140672B09F453C0C95883
:10575000DE4F68817981C757D1406130710509F406
:1057600052C0F801648160686483CD58DE4F68815F
:105770007981C357D140D80117967C936E931697C1
:1057800041E0232B09F447C0442309F446C0382FD5
:10579000292FA6C081E018968C93C60159CF0E948C
:1057A00025360E9425360E942536F7019183808395
:1057B0009383828342CF70E060E05BCFC051DE4FC5
:1057C000188219821A821B82C05FD14088CFCE50C6
:1057D000DE4F7881C25FD14070FD8ACFD1CF0E9469
:1057E0002536C051DE4F188219821A821B82C05F93
:1057F000D140A4CFCE50DE4F7881C25FD14070FD42
:10580000A6CF0E942536D80114966C9114976F7715
:1058100014966C93AACF40E0B7CF009709F458C014
:10582000D701ED91FC9105C096018217930769F0AD
:10583000F901309751F025812223B1F3B8E02B0212
:10584000900111242E0F3F1FF0CFDC0115962C91F3
:10585000222331F0B8E02B0260011124C80ED91EBA
:10586000309751F1C114D10431F0C6018E1B9F0B4A
:1058700081159C4FDCF0C114D10431F0C6018E1BA0
:105880009F0B893F9340A4F4C114D10499F0C60141
:105890008E1B9F0B959587959595879595958795E3
:1058A0008583CD2869F030E020E01AC00E942536BB
:1058B0000E94253680E0F4CFD701CD92DC92F1CF63
:1058C000D7011396FC93EE93129730E020E008C0C6
:1058D00030E020E005C030E020E002C030E020E011
:1058E000832F922F009791F0C551DE4F1882CB5E27
:1058F000D14020ED33E0232BE9F19C01A50160EDBF
:1059000073E0CE0185519E4F0E9443174A865B8605
:105910006C867D86AC84BD84CA84DB84C114D104CA
:1059200009F491C181E193E0009709F489C17C01F8
:10593000892B49F1D6010D911C910115110541F1F9
:10594000F80166817781E114F104C9F061157105F0
:10595000C1F0C7010E943336892BD1F0D8011596CA
:105960008C91882399F0B8E08B02C0011124080FB4
:10597000191FE3CFFC01248120782483C7CF0E9424
:1059800025360E94253610E000E002C010E000E05D
:105990000115110519F0902F812F57C1F501828152
:1059A00093810896248135812817390708F4BBC0F4
:1059B00028503109358324832115310579F1D60129
:1059C0001296ED91FC91309709F4B7C0211531057D
:1059D00009F4ADC0C9018E1B9F0BAC0155954795CD
:1059E00055954795559547958115BCEF9B070CF448
:1059F000A0C0893F93400CF09EC04583D60113960A
:105A00003C932E931297D90115961C9215971496D4
:105A10001C92149717961C921E9216972115310509
:105A200009F4AFC0A90181E193E0009709F48BC0AC
:105A3000FC0101900020E9F7BF0162517340C35996
:105A4000DE4F99838883CD56D140C159DE4F79838B
:105A50006883CF56D14061E070E0CF58DE4F798344
:105A60006883C157D14066E0FE01E359FE4FDE0175
:105A7000A959BE4F01900D926A95E1F7C959DE4FC1
:105A800068817981C756D140672B09F45FC00F2E1A
:105A9000FFEC4F2EF6E05F2EF02D612C452809F427
:105AA00059C04115510509F458C066E0FE01E95995
:105AB000FE4FDE01AF59BE4F01900D926A95E1F79E
:105AC000CF59DE4F68817981C156D140672B09F4E7
:105AD00046C00F2EFFEC4F2EF6E05F2EF02D612C0E
