:100000000C9487000C94AF000C94AF000C94AF00DC
:100010000C94AF000C94AF000C94AF000C94AF00A4
:100020000C94AF000C94AF000C94AF000C94AF0094
:100030000C94AF000C94AF000C94AF000C94AF0084
:100040000C940D0C0C94AF000C947D0C0C94570C7C
:100050000C94AF000C94AF000C94AF000C94AF0064
:100060000C94AF000C94AF00CDCCCC3D0AD7233C10
:1000700017B7D13877CC2B329595E6241FB14F0AAC
:100080000000803FCDCCCC3D6F12833A95BFD63374
:100090007D1D9026B3CE010C000020410000C84217
:1000A00000401C4620BCBE4CCA1B0E5AAEC59D74F7
:1000B00000000000240027002A00000000002500A6
:1000C00028002B0000000000230026002900040463
:1000D00004040404040402020202020203030303F0
:1000E00003030102040810204080010204081020CC
:1000F00001020408102000000008000201000003B3
:1001000004070000000000000000B70CAF0C112431
:100110001FBECFEFD8E0DEBFCDBF12E0A0E0B1E060
:10012000ECEDF5E302C005900D92AA3AB107D9F7BC
:1001300024E0AAEAB2E001C01D92A631B207E1F7BD
:1001400010E0C6E8D0E004C02197FE010E947A15B5
:10015000C538D107C9F70E947A0D0C94E11A0C94A6
:100160000000833081F028F4813099F08230A9F0CA
:1001700008958730A9F08830C9F08430B1F48091B7
:1001800080008F7D03C0809180008F7780938000F6
:10019000089584B58F7784BD089584B58F7DFBCF96
:1001A0008091B0008F778093B00008958091B00067
:1001B0008F7DF9CFCF93DF93282F30E0F901EA50FC
:1001C000FF4F8491F901EE51FF4FD491F901E253B1
:1001D000FF4FC491CC23A1F081110E94B100EC2FFC
:1001E000F0E0EE0FFF1FEC53FF4FA591B491EC919F
:1001F000ED2381E090E009F480E0DF91CF91089554
:1002000080E090E0FACF1F93CF93DF93282F30E068
:10021000F901EA50FF4F8491F901EE51FF4FD4915B
:10022000F901E253FF4FC491CC23A9F0162F81119D
:100230000E94B100EC2FF0E0EE0FFF1FE654FF4FDD
:10024000A591B4918FB7F894EC91111108C0D09595
:10025000DE23DC938FBFDF91CF911F910895DE2BBA
:10026000F8CFCF93DF9390E0FC01EE51FF4F249144
:1002700082539F4FFC0184918823C9F090E0880F3E
:10028000991FFC01E055FF4FA591B491FC01E65484
:10029000FF4FC591D49161110DC09FB7F8948C9117
:1002A000209582238C938881282328839FBFDF9108
:1002B000CF910895623051F49FB7F8943C91822F0A
:1002C000809583238C93E8812E2BEFCF8FB7F89402
:1002D000EC912E2B2C938FBFEACF1F93CF93DF93FC
:1002E000182FEB0161E00E943101209739F460E0A2
:1002F000812FDF91CF911F910C940301CF3FD10546
:1003000011F461E0F5CFE12FF0E0EA50FF4FE49106
:10031000E33031F140F4E130B1F0E230E1F0C038E7
:10032000D1057CF7E4CFE73029F1E83059F1E4302A
:10033000B1F780918000806280938000D0938B0021
:10034000C0938A0004C084B5806884BDC7BDDF91B6
:10035000CF911F91089584B5806284BDC8BDF7CF49
:1003600080918000806880938000D0938900C09342
:100370008800EDCF8091B00080688093B000C0937A
:10038000B300E5CF8091B00080628093B000C0934D
:10039000B400DDCF8E50806480937C0080917A0021
:1003A000806480937A0080917A0086FDFCCF8091F2
:1003B00078009091790008953FB7F89480911103E7
:1003C00090911203A0911303B091140326B5A89B3A
:1003D00005C02F3F19F00196A11DB11D3FBFBA2FD7
:1003E000A92F982F8827BC01CD01620F711D811D97
:1003F000911D42E0660F771F881F991F4A95D1F71C
:1004000008958F929F92AF92BF92CF92DF92EF9218
:10041000FF926B017C010E94DC014B015C01C11465
:10042000D104E104F104B9F00E94DC0168197909F2
:100430008A099B09683E73408105910580F321E09C
:10044000C21AD108E108F10888EE880E83E0981EF0
:10045000A11CB11CE4CFFF90EF90DF90CF90BF9034
:10046000AF909F908F9008952FB7F89460910D03EF
:1004700070910E0380910F03909110032FBF089588
:10048000AF92BF92CF92DF92EF92FF920F931F93A2
:10049000CF93DF936C017B018B01040F151FEB01E0
:1004A0005E01AE18BF08C017D10759F06991D60197
:1004B000ED91FC910190F081E02DC6010995892B09
:1004C00079F7C501DF91CF911F910F91FF90EF90C8
:1004D000DF90CF90BF90AF900895FC01538D448D75
:1004E000252F30E0842F90E0821B930B541710F0DF
:1004F000CF96089501970895FC01918D828D9817EC
:1005000061F0A28DAE0FBF2FB11D5D968C91928DC3
:100510009F5F9F73928F90E008958FEF9FEF0895F4
:100520000F931F930E94340260931D0370931E0368
:1005300080931F039093200385E193E00E947C0247
:1005400097FF1DC00E94340200911D0310911E03ED
:1005500020911F0330912003601B710B820B930BC2
:100560000091190310911A0320911B0330911C0371
:100570006017710782079307F8F28FEF9FEF1F91C3
:100580000F910895FC01918D828D981731F0828D25
:10059000E80FF11D858D90E008958FEF9FEF08958E
:1005A000FC01918D228D892F90E0805C9F4F821BF2
:1005B00091098F739927089585E193E00E94D002F5
:1005C00021E0892B09F420E0822F089580E090E05B
:1005D000892B29F00E94DC0281110C9400000895FF
:1005E000FC01A48DA80FB92FB11DA35ABF4F2C91A8
:1005F000848D90E001968F739927848FA689B7899F
:100600002C93A089B1898C91837080648C93938D95
:10061000848D981306C00288F389E02D80818F7D38
:1006200080830895EF92FF920F931F93CF93DF93F0
:10063000EC0181E0888F9B8D8C8D98131AC0E8891E
:10064000F989808185FF15C09FB7F894EE89FF89ED
:100650006083E889F98980818370806480839FBF8B
:1006600081E090E0DF91CF911F910F91FF90EF908B
:100670000895F62E0B8D10E00F5F1F4F0F7311279B
:10068000E02E8C8D8E110CC00FB607FCFACFE889D6
:10069000F989808185FFF5CFCE010E94F002F1CF6C
:1006A000EB8DEC0FFD2FF11DE35AFF4FF0829FB74A
:1006B000F8940B8FEA89FB8980818062CFCFCF933A
:1006C000DF93EC01888D8823B9F0AA89BB89E8897A
:1006D000F9898C9185FD03C0808186FD0DC00FB620
:1006E00007FCF7CF8C9185FFF2CF808185FFEDCF9E
:1006F000CE010E94F002E9CFDF91CF910895CF9310
:10070000DF93EC01BC0185E00E946D01BE0186E033
:100710000E946D01BE0189E0DF91CF910C946D01C3
:100720000F931F93CF93DF938B01EA01BC0185E008
:100730000E946D01B80186E00E946D01BE0189E052
:10074000DF91CF911F910F910C946D010895FB01E2
:10075000309729F0948190789660948380830895EF
:10076000CF93DF93EC0188819981DC01ED91FC91BD
:100770000190F081E02D09952A813B81820F931F22
:100780009B838A83DF91CF910895CF93DF93EC0110
:1007900088819981DC01ED91FC910280F381E02D4B
:1007A00009952A813B81820F931F9B838A83DF9166
:1007B000CF9108958F929F92AF92BF92CF92DF9286
:1007C000EF92FF920F931F93CF93DF93CDB7DEB7D6
:1007D00066970FB6F894DEBF0FBECDBF6C018E01D9
:1007E000095E1F4F78018AE0882E912CA12CB12C34
:1007F000CB01BA01A50194010E942115942F852FE8
:10080000605DF80162938F01A901692F782F41156E
:1008100051056105710561F7A7014E1B5F0BBF0113
:10082000C6010E94C50366960FB6F894DEBF0FBEE0
:10083000CDBFDF91CF911F910F91FF90EF90DF908F
:10084000CF90BF90AF909F908F900895FC0125812D
:10085000222339F0F8E02F0290011124820F931F18
:10086000089590E080E0089560E088E00E94030130
:100870001092EA0260E087E00E94030160E085E0F8
:100880000E94030110920A030895FC018081918166
:10089000009711F00C94C4160895FC0101900020FB
:1008A000E9F73197AF01481B590BBC0185E193E093
:1008B0000C944002CF93DF930E944D04EC018CE135
:1008C00091E00E944D048C0F9D1FDF91CF91089500
:1008D000FB0101900020E9F73197AF01461B570B50
:1008E0000C94C5031F93CF93DF93EFE1F1E01281E6
:1008F000112379F0329621816213F9CFEC016CE576
:100900000E94B003612FCE01DF91CF911F910C9413
:10091000B0036111F9CF60E371E0DF91CF911F91D6
:100920000C9468042F923F924F925F926F927F9245
:100930008F929F92AF92BF92CF92DF92EF92FF92EF
:100940000F931F93CF93DF93CDB7DEB76C970FB69E
:10095000F894DEBF0FBECDBF7C018B01DC01149685
:100960008C9114978F77863009F464C2B0F482308A
:10097000E8F01296CD90DC901397AC901196BC9055
:10098000843008F026C2A601B501C8010E94C50343
:10099000D80112968D919C9103C28C3069F160F45C
:1009A000883009F441C28A3009F426C267E371E055
:1009B000C8010E946804E7C1803209F4EDC18034A7
:1009C000A9F76BE5C8010E94B003D701ED90FC9038
:1009D000E114F10409F4DBC1B801C7010E949204DB
:1009E000C7010E9426047C01892B09F4D0C16CE266
:1009F000C8010E94B003ECCFF701C080D180E28033
:100A0000F380A7019601C701B6010E9494138111DA
:100A1000CDCF20E030E0A901C701B6010E949413B8
:100A2000882379F0A7019601C701B6010E948115BC
:100A30009B01AC01C701B6010E949413882309F4FD
:100A4000B5CF20E030E0A901C701B6010E949413A0
:100A500087FF08C06DE2C8010E94B003F7FAF09466
:100A6000F7F8F09420E836E948E15BE4C701B60105
:100A70000E94231687FD7CC074E1872E912CE0E252
:100A8000AE2EB12C712C612CF401E856FF4F25914C
:100A9000359145915491C701B6010E94231687FDF7
:100AA0000FC0F401E859FF4F2591359145915491BC
:100AB000C701B6010E94FA136B017C016A0C7B1C12
:100AC000B594A794F4E08F1A91082CEF82162FEFBB
:100AD0009206D1F63FEF3F8B20E030E0A901C7013D
:100AE000B6010E94231618160CF04AC02CEA35EC09
:100AF00047E257E3C701B6010E94941318160CF49D
:100B00003FC0AF89B4E0AB02C0011124912C812C0D
:100B1000FC01E058FF4F1F019C0128563F4F29015F
:100B20003F893F3F69F1F101E80DF91D25913591AC
:100B300045915491C701B6010E94941387FF0FC0DD
:100B4000F201E80DF91D2591359145915491C701A8
:100B5000B6010E94FA136B017C016A187B08B594F8
:100B6000A7948F8981508F8B94E0891A9108D8CFF0
:100B700050E2A52EB12C85E08F8B712C612CACCF6F
:100B8000C701B6010E94F4154B015C011B012C0149
:100B9000A6E0AC8F80E492E4AFE0B0E0888F998F5C
:100BA000AA8FBB8F9C8D9F8BA92FA150AC8FBAE0D1
:100BB0002B16310441045104C8F0688D798D8A8D5B
:100BC0009B8D2AE030E040E050E00E942115288F04
:100BD000398F4A8F5B8FC201B1012AE030E040E0DB
:100BE00050E00E94211519012A01DCCFC501B40192
:100BF0000E9499139B01AC01C701B6010E948015A8
:100C00006B017C01688D798D8A8D9B8D0E94991373
:100C10009B01AC01C701B6010E94FA131B012C0114
:100C20000E94F4156B017C010E9499139B01AC0199
:100C3000C201B1010E9480159B01AC010E94811587
:100C40000E94F415C60ED71EE81EF91E888D998DD8
:100C5000AA8DBB8DC816D906EA06FB06C0F09FEF29
:100C6000891A990AA90AB90A6114710439F1AAE02A
:100C70008A169104A104B10408F1BFEF6B1A7B0A34
:100C8000C12CD12C7601812C912C540183942AE023
:100C9000222E312C412C512CC701B601A201910109
:100CA0000E942115672B682B692B61F4EF891E16B2
:100CB0004CF469017A01E150EF8BEECFC12CD12CBD
:100CC0007601E5CFB501A401C8010E94DA03FF89CE
:100CD000FF2391F14E0121E1820E911CF88F540106
:100CE0009AE0292E312C412C512C388D3150388FDF
:100CF0003F3F69F0C701B601A20191010E94211591
:100D0000605DD4016E934D0169017A01EECFBF8918
:100D10008B2F90E0BC0160957095F501E81BF90BF5
:100D200031978EE2808344275527461B570B6A0D67
:100D30007B1DC8010E94C5036114710421F165E6A1
:100D4000C8010E94B003730177FE07C06DE2C801BD
:100D50000E94B003F194E194F108FE0177969F019F
:100D60008AE0C82ED12CC701B6010E945215805DC1
:100D700082937B01672BB9F7A9014E1B5F0BBF0163
:100D8000C8010E94C503F8018281938109C06DE505
:100D9000C8010E94B003F7CFB701C8010E9426071F
:100DA0006C960FB6F894DEBF0FBECDBFDF91CF912A
:100DB0001F910F91FF90EF90DF90CF90BF90AF9079
:100DC0009F908F907F906F905F904F903F902F906B
:100DD000089562E2C8010E94B0037501CE0CDF1CC9
:100DE000CE14DF0439F0D7016D917D01C8010E9456
:100DF0007204F6CF62E2CCCFF701C080D180E280EE
:100E0000F380B701A601F7FE0BC06DE2C8010E9496
:100E1000B00344275527BA014C195D096E097F09B3
:100E2000C8010E94DA03B4CDF7014081518162818B
:100E30007381F6CFF70180816CE371E0811102C00C
:100E400061E471E0C8010E946804A2CDCF92DF92F4
:100E5000EF92FF920F931F93CF93DF93EC018B01DF
:100E60006BE70E94B003F8010081118101151105A3
:100E700041F1F801C680D78062E2CE010E94B00342
:100E80007601F70161917F01662321F0CE010E9476
:100E90007204F7CF62E2CE010E94B0036AE3CE0192
:100EA0000E94B003BE01C8010E949204C8010E94C2
:100EB00026048C01892B29F06CE2CE010E94B0033C
:100EC000D5CF6DE7CE010E94B0038A819B81DF916F
:100ED000CF911F910F91FF90EF90DF90CF900895E9
:100EE000FC01A081B181109749F0FD010190002023
:100EF000E9F73197CF018A1B9B0B089590E080E0C2
:100F00000895FB01DC018D919C91009761F0608157
:100F100071816115710539F0448155810E94231852
:100F200021E0892B09F020E0822F08950F931F9371
:100F3000CF93DF93EC0188819981009759F02A8142
:100F40003B812617370730F081E0DF91CF911F9169
:100F50000F9108958B016F5F7F4F0E944D1700978F
:100F600059F0998388831B830A832C813D81232B2D
:100F700059F7FC011082E8CF80E0E7CFEF92FF92B3
:100F80000F931F93CF93DF93EC017B018A01BA018A
:100F90000E94960728813981811114C021153105DD
:100FA00019F0C9010E94C416198218821D821C8280
:100FB0001B821A82CE01DF91CF911F910F91FF907A
:100FC000EF9008951D830C83B701C9010E941C187E
:100FD000F1CFFC01118210821382128215821482D9
:100FE000FB0101900020E9F73197AF01461B570B39
:100FF0000C94BE07AF92BF92CF92DF92EF92FF9216
:101000000F931F93CF93DF93EC017B016A0184E080
:10101000A82EB12C4430510520F45A0194E0C92E79
:10102000D12C6FE271E0CE010E94E907D70114963E
:101030000D911C91A016B10628F5C016D10608F432
:101040008601D701ED91FC911197E00FF11FD0803F
:1010500010826D917C916A0D7B1D61157105F1F017
:10106000FB0101900020E9F73197AF01461B570BB8
:10107000CE010E94BE07F70180819181080F191FE0
:10108000D801DC92CE01DF91CF911F910F91FF909B
:10109000EF90DF90CF90BF90AF90089588819981B5
:1010A000009711F00E94C416198218821D821C82BA
:1010B0001B821A82E0CFCF92DF92EF92FF920F93C2
:1010C0001F93CF93DF93009759F480E090E0DF9176
:1010D000CF911F910F91FF90EF90DF90CF900895E7
:1010E0006115710591F38A017B01EC01C880D980FB
:1010F000C114D10489F1D60116966D917C91C70176
:101100000E941318892B31F1C6010E9426046C013C
:10111000EFCF3897D8011596FC93EE93149730973C
:10112000A1F2AA81BB81109791F0CF018A1B9B0B82
:1011300023E0959587952A95E1F715968C93FB8387
:10114000EA8315821482F782E682CF01C0CFF98349
:10115000E883F5CFC601BBCFD8011496ED91FC9181
:10116000159712968D919C910896E817F90788F6C5
:1011700081E0F8018087A9CF2F923F924F925F9232
:101180006F927F928F929F92AF92BF92CF92DF9297
:10119000EF92FF920F931F93CF93DF93CDB7DEB7FC
:1011A000C051D2400FB6F894DEBF0FBECDBF2B01A9
:1011B0004901C35FDD4FE882F9820A831B83CD506A
:1011C000D240CE010F969A8389839C838B831E0124
:1011D0002DEF221A320A3E822D8238862F821986FE
:1011E00080E28E871B861A861D861C86AE014F5FA5
:1011F0005F4F67E471E0CE010A960E945B088C01A4
:10120000009749F0FC018481807880628483118298
:10121000108213821282AE014F5F5F4F6CE471E067
:10122000C8010E945B08BC01809106030E94A703CD
:10123000AE014F5F5F4F6CE571E0C8010E945B0833
:10124000BC018091EA020E94A703AE014F5F5F4F8D
:101250006DE671E0C8010E945B08BC018091080343
:101260000E94A703AE014F5F5F4F66E771E0C801C0
:101270000E945B08BC0180910A030E94A703AE0193
:101280004F5F5F4F60E871E0C8010E945B08FC019E
:10129000892B81F02091B4023091B502948190782D
:1012A0009A609483C901330FAA0BBB0B808391838F
:1012B000A283B383AE014F5F5F4F69E871E0C8015D
:1012C0000E945B08FC01892B81F02091B0023091D3
:1012D000B102948190789A609483C901330FAA0B6C
:1012E000BB0B80839183A283B383AE014F5F5F4FBB
:1012F00063E971E0C8010E945B08FC01892B81F061
:101300002091B2023091B302948190789A609483D4
:10131000C901330FAA0BBB0B80839183A283B383D4
:10132000AE014F5F5F4F63EA71E0C8010E945B0846
:101330007C01009781F0FC01848180788C6084833B
:10134000B201550C880B990B0E949B13F701608327
:10135000718382839383AE014F5F5F4F6FEA71E0C9
:10136000C8010E945B083C01009781F0FC01848168
:1013700080788C608483B401990C880B990B0E944F
:101380009B13F3016083718382839383AE014F5F6C
:101390005F4F6BEB71E0C8010E945B085C01009736
:1013A000B1F0FC01848180788C608483C35FDD4F61
:1013B00028813981CD50D240B901330F880B990B68
:1013C0000E949B13F5016083718382839383AE0136
:1013D0004F5F5F4F67EC71E0C8010E945B086C01D2
:1013E000892B09F44FC08EEE92E0C55FDD4F9983E3
:1013F0008883CB50D240C75FDD4F99838883C95023
:10140000D240CE01875F9D4F0E9470074C01A9809A
:10141000BA80EB80FC808EEE482E82E0582E94013C
:1014200022513D4F3901F501E80DF91DEE15FF057B
:1014300008F468C0CE01875F9D4F0E9470079C0131
:101440002F5F3F4F2E0D3F1D4D815E814217530789
:1014500008F07FC081E08987F12CE12CCE01855F07
:101460009D4F0E947007AC0130E020E0E114F104D0
:1014700011F026EA33E0F60194819078232B09F0ED
:101480007FC09483AE014F5F5F4F6FEC71E0C80186
:101490000E945B08DC01892B71F0A0900C04B090D5
:1014A0000D04A114B10409F072C014968C91149724
:1014B000807814968C9385E193E0F1019183808389
:1014C00013821282BE01665F7F4FC1010E94260710
:1014D000C05FDD4F0FB6F894DEBF0FBECDBFDF910A
:1014E000CF911F910F91FF90EF90DF90CF90BF9021
:1014F000AF909F908F907F906F905F904F903F90B4
:101500002F9008958081811118C0C95FDD4F5982E5
:101510004882C750D240CE01895F9D4F0E9470071C
:101520008816990651F4D501EEEEF2E06E167F06AC
:1015300051F09D9181919817C9F3F50181915F0157
:101540008111FBCF70CFA114B10409F473CF7501E1
:1015500085CF3C832B83E114F10409F47FCFEEEEB9
:10156000F2E0D701AC0142515D4FE417F50719F0E5
:1015700021912D93FACF8E0D9F1DFC0110826ECF0D
:1015800095609483F182E082538342837BCF2091E4
:1015900010043091110489819A814B815C8175011D
:1015A000E20EF31EBC01620F731F64177507C8F4C7
:1015B000FB01608161110DC0B5018C016E157F05C5
:1015C00071F0FB01C190BF01F801D1908F01CD14E2
:1015D000A9F3FC016191CF016111FBCFE3CF00972B
:1015E00081F5C9010196840F951F6D817E81681771
:1015F000790778F481E0898790E080E070E060E02E
:1016000014964C9114974078672BF1F414964C93F0
:1016100052CF9C838B834115510571F3CA0185011B
:10162000020F131F0A151B0539F0F50161915F01C7
:10163000FC016193CF01F6CFFA01E20FF31F108294
:10164000CA0166EA73E0DCCF456014964C931497A8
:1016500011969C938E9313963C932E9312972BCFB7
:10166000CF92DF92EF92FF920F931F93CF93DF936E
:1016700000D000D000D0CDB7DEB78C016CED71E0AA
:10168000CE0101960E94E907F801248135818D8100
:101690009E81F12C2817390738F0BE016F5F7F4F0C
:1016A000C8010E948107F82ECE0101960E944504D0
:1016B000FF2091F1F80144815581B801CE010196D6
:1016C0000E94FA0789819A81C12CD12C760100975A
:1016D00019F00E9458136B01CE0101960E94450437
:1016E000C60101978F3F910540F4B60183E00E9447
:1016F0006D01D092B102C092B00226960FB6F89456
:10170000DEBF0FBECDBFDF91CF911F910F91FF9034
:10171000EF90DF90CF90089561EE71E0CE010196D9
:101720000E94E907F801248135818D819E81281767
:10173000390738F0BE016F5F7F4FC8010E948107F3
:10174000F82ECE0101960E944504FF2029F1F801F0
:1017500044815581B801CE0101960E94FA07898122
:101760009A81C12CD12C7601009719F00E94581350
:101770006B01CE0101960E944504C60101978F3F7F
:10178000910508F0BACFB6018AE00E946D01D092AF
:10179000B502C092B402B1CF66EE71E0CE010196FF
:1017A0000E94E907F801248135818D819E812817E7
:1017B000390738F0BE016F5F7F4FC8010E94810773
:1017C000F82ECE0101960E944504FF2009F495CF22
:1017D000F80144815581B801CE0101960E94FA07B3
:1017E00089819A81C12CD12C7601009719F00E9431
:1017F00058136B01CE0101960E944504C601019762
:101800008F3F910508F079CFB6018BE00E946D0102
:10181000D092B302C092B20270CF1F920F920FB655
:101820000F9211242F933F938F939F93AF93BF9366
:1018300080910D0390910E03A0910F03B0911003BE
:1018400030910C0323E0230F2D3758F50196A11D8D
:10185000B11D20930C0380930D0390930E03A0936E
:101860000F03B09310038091110390911203A09184
:101870001303B09114030196A11DB11D80931103B0
:1018800090931203A0931303B0931403BF91AF91ED
:101890009F918F913F912F910F900FBE0F901F90AE
:1018A000189526E8230F0296A11DB11DD2CF1F92D5
:1018B0000F920FB60F9211242F933F934F935F9384
:1018C0006F937F938F939F93AF93BF93EF93FF9308
:1018D00085E193E00E94F002FF91EF91BF91AF91FB
:1018E0009F918F917F916F915F914F913F912F9138
:1018F0000F900FBE0F901F9018951F920F920FB66A
:101900000F9211242F938F939F93EF93FF93E09166
:101910002503F09126038081E0912B03F0912C03A5
:1019200082FD1BC0908180912E038F5F8F73209169
:101930002F03821741F0E0912E03F0E0EB5EFC4FA5
:10194000958F80932E03FF91EF919F918F912F910F
:101950000F900FBE0F901F9018958081F4CF86E0F6
:1019600094E00E9445048CE094E00C944504CF92EE
:10197000DF92EF92FF92E5E1F3E01382128288EEAC
:1019800093E0A0E0B0E084839583A683B7838EE0E4
:1019900091E09183808385EC90E09587848784EC47
:1019A00090E09787868780EC90E0918B808B81EC2C
:1019B00090E0938B828B82EC90E0958B848B86EC0D
:1019C00090E0978B868B118E128E138E148E6BEE99
:1019D00071E08CE094E00E94E9070E94001323EC80
:1019E000C22ED12CE12CF12CA70196010E94B81433
:1019F0006B5F7F4F8F4F9F4F0E949B13609302043A
:101A00007093030480930404909305040E940013D0
:101A1000A70196010E94B8146B5F7F4F8F4F9F4FB5
:101A20000E949B136093FE037093FF038093000456
:101A3000909301040E940013A70196010E94B8141C
:101A40006B5F7F4F8F4F9F4F0E949B136093FA03F2
:101A50007093FB038093FC039093FD03E2EEF3E0AD
:101A600014821582168217821086118612861386BA
:101A70001486158616861786108A118A128A138A8A
:101A8000148A158A168A178AEAECF3E01482158202
:101A90001682178210861186128613861486158682
:101AA00016861786108A118A128A138A148A158A52
:101AB000168A178AE2EBF3E01482158216821782E7
:101AC000108611861286138614861586168617864A
:101AD000108A118A128A138A148A158A168A178A1A
:101AE00060E072E086E094E0FF90EF90DF90CF90AE
:101AF0000C94E907CF93DF93CDB7DEB768970FB6A5
:101B0000F894DEBF0FBECDBF789484B5826084BDEB
:101B100084B5816084BD85B5826085BD85B58160F1
:101B200085BD80916E00816080936E00109281006F
:101B3000809181008260809381008091810081602A
:101B400080938100809180008160809380008091EB
:101B5000B10084608093B1008091B0008160809377
:101B6000B00080917A00846080937A0080917A003E
:101B7000826080937A0080917A00816080937A00FD
:101B800080917A00806880937A001092C100E09181
:101B90002503F091260382E08083E0912103F091F8
:101BA00022031082E0912303F09124038FEC8083C1
:101BB00010922D03E0912903F0912A0386E080839F
:101BC000E0912703F0912803808180618083E09178
:101BD0002703F0912803808188608083E0912703A8
:101BE000F0912803808180688083E0912703F09141
:101BF000280380818F7D808360E082E00E94310134
:101C000061E085E00E94310160E085E00E9403010F
:101C100060E08DE00E94310161E086E00E943101C8
:101C200060E086E00E94030160E084E00E943101F0
:101C300061E089E00E94310160E089E00E940301D7
:101C400061E087E00E94310160E087E00E940301CB
:101C500061E083E00E94310161E08CE00E9431018B
:101C600061E08BE00E94310161E088E00E94310177
:101C70000E94340262E081E10E94310162E082E16F
:101C80000E94310162E083E10E94310160E08EE058
:101C90000E94310160E08FE00E94310160E080E14C
:101CA0000E9431010E943404A3E0AA2EB12C08EC5A
:101CB00010E08091AE029091AF0201969093AF0236
:101CC0008093AE02C090AC02D090AD028090AA0288
:101CD0009090AB02A601B4010E94900361E070E015
:101CE00080E090E00E9401020150110911F7F8EC28
:101CF000EF2EF12C0091AE021091AF0201501109AC
:101D00001093AF020093AE02A601B401C8010E9475
:101D1000900361E070E080E090E00E94010221E029
:101D2000E21AF10839F7E8ECEE2EF12C6091AA02E4
:101D30007091AB026F5F7F4F7093AB026093AA020A
:101D4000A601C8010E94900361E070E080E090E08D
:101D50000E94010281E0E81AF10841F778EC872E31
:101D6000912CE090AA02F090AB0291E0E91AF10800
:101D7000F092AB02E092AA02A601B701C8010E944C
:101D8000900361E070E080E090E00E940102E1E0F9
:101D90008E1A910831F768ECC62ED12C4091AC0216
:101DA0005091AD024F5F5F4F5093AD024093AC0234
:101DB000B701C8010E94900361E070E080E090E00C
:101DC0000E940102F1E0CF1AD10841F758ECC52E6C
:101DD000D12C4091AC025091AD0241505109509329
:101DE000AD024093AC02B701C8010E94900361E0CC
:101DF00070E080E090E00E94010221E0C21AD10868
:101E000041F781E0A81AB10809F051CF08EC10E0C1
:101E10008091AE029091AF0201969093AF028093B1
:101E2000AE020E947F0361E070E080E090E00E94DB
:101E300001020150110961F708EC10E08091AE0237
:101E40009091AF0201979093AF028093AE020E94EF
:101E50007F0361E070E080E090E00E9401020150A9
:101E6000110961F708EC10E08091AA029091AB0291
:101E700001969093AB028093AA020E947F0361E0D7
:101E800070E080E090E00E9401020150110961F7CA
:101E900008EC10E08091AA029091AB020197909318
:101EA000AB028093AA020E947F0361E070E080E0B1
:101EB00090E00E9401020150110961F708EC10E066
:101EC0008091AC029091AD0201969093AD02809307
:101ED000AC020E947F0361E070E080E090E00E942D
:101EE00001020150110961F708EC10E08091AC0289
:101EF0009091AD0201979093AD028093AC020E9445
:101F00007F0361E070E080E090E00E9401020150F8
:101F1000110961F730E2832E33E0932EA12CB12C0E
:101F200040E8442E4EEE542E46E3642E712C2BE9ED
:101F3000222E22E0322E82E00E94DA00019719F46C
:101F400081E08093D0028DE00E94DA00019719F4BD
:101F500081E08093CB0284E00E94DA00019719F4BB
:101F600081E08093C6028EE00E94CA018FE00E9449
:101F7000CA0180E10E94CA016091020470910304C9
:101F800080910404909105040E94ED157E876D8771
:101F90006091FE037091FF03809100049091010411
:101FA0000E94ED157A8B698B6091FA037091FB03A7
:101FB0008091FC039091FD030E94ED157E8B6D8B4B
:101FC00081E10E94CA019C01990F440B550B285CCA
:101FD000310941095109AFEFB0E00E94D714A501C2
:101FE00094010E94B81469012F3F310521F01CF0C3
:101FF000CC24CA94D12CD7FE02C0D12CC12CD092B3
:10200000C102C092C00282E10E94CA019C01990FE4
:10201000440B550B285C310941095109AFEFB0E081
:102020000E94D714A50194010E94B81479012F3F92
:10203000310521F01CF0EE24EA94F12CF7FE02C0E9
:10204000F12CE12CF092BF02E092BE0283E10E94EB
:10205000CA019C01990F440B550B265931094109BE
:102060005109AFEFB0E00E94D71422E533E040E021
:1020700050E00E94B81489012F3F310519F014F087
:102080000FEF10E017FF02C010E000E01093BD0258
:102090000093BC028091BA029091BB029C012A502D
:1020A0003109C216D30624F00A968C159D057CF4DE
:1020B000B60183E00E946D01D092B102C092B002DD
:1020C000D092BB02C092BA0281E080930503809156
:1020D000B8029091B9029C012A503109E216F30628
:1020E0002CF00A968E159F050CF0BEC0B7018AE051
:1020F0000E946D01F092B502E092B402F092B90232
:10210000E092B80281E0809304038091D00288239A
:1021100031F10E9434020091CC021091CD02209145
:10212000CE023091CF02601B710B820B930B69358D
:1021300072408105910538F080910A03882309F4E3
:10214000B2C010920A030E9434026093CC027093D2
:10215000CD028093CE029093CF021092D002809154
:10216000CB02882331F10E9434020091C702109102
:10217000C8022091C9023091CA02601B710B820B08
:10218000930B693572408105910538F08091080301
:10219000882309F48CC0109208030E9434026093D3
:1021A000C7027093C8028093C9029093CA0210922A
:1021B000CB028091C602882331F10E943402009143
:1021C000C2021091C3022091C4023091C502601B6B
:1021D000710B820B930B693572408105910538F0C4
:1021E00080910603882309F466C0109206030E94BA
:1021F00034026093C2027093C3028093C40290932E
:10220000C5021092C60285E193E00E94D002181622
:1022100019060CF086C06FE271E0CE0107960E94AD
:10222000E9070E9490020B851C8597FD48C08A3003
:10223000910509F444C089831A820F5F1F4FB801CA
:10224000CE0107960E949607882359F32F8138857F
:102250008B859C85BE016F5F7F4F820F931F0E940D
:102260001C181C870B87DDCF8091B6029091B702B6
:102270009C012A503109021713072CF00A96801787
:1022800091070CF042CFB8018BE00E946D011093D2
:10229000B3020093B2021093B7020093B60281E03A
:1022A0008093030332CF81E080930A034CCF81E017
:1022B0008093080372CF81E08093060398CF0115C5
:1022C000110509F0D0C01092D102E1EDF2E00190C9
:1022D0000020E9F7CF01825D9240029708F4D4C054
:1022E00086E892E00E945A041A8219821C821B829C
:1022F0001E821D826F8178856115710531F04B85D5
:102300005C85CE0101960E94BE07CE0101960E9417
:10231000300BCE0101960E944504CE0107960E9423
:10232000450480910A039091ED028917C1F088233A
:1023300009F4DBC061E088E00E94030111E0109322
:10234000EA0261E087E00E94030161E085E00E940B
:10235000030110930A0380910A038093ED02109108
:1023600008038091EC02181769F0112309F4C0C02A
:1023700061E08CE00E94030161E086E00E940301BD
:102380001093EC02809106039091EB02891799F06B
:10239000882309F4B3C06FEF70E08BE00E946D01F9
:1023A00061E089E00E94030181E08093060380914F
:1023B00006038093EB020E9434020E9434026B01F8
:1023C0007C0128EE33E040E050E00E942115CA0174
:1023D000B90120E13EE040E050E00E942115CB0130
:1023E0006CE370E00E9466159F938F937F936F93C9
:1023F000C701B601A30192010E9421153F932F93BB
:102400003F922F928EEE92E09F938F930E944018FE
:102410000FB6F894DEBF0FBECDBF809105038823B1
:1024200009F478C010920503ED88FE880F89188D95
:1024300029893A894B895C896D857E858F85988944
:102440000E94BC088DE191E00E945A0480E090E077
:10245000892B09F470CD0E94DC02882309F467CD32
:102460000E94000064CD0831110510F008E110E071
:102470006F817885A80181ED92E00E943118F80102
:10248000EF52FD4F108221CF84E992E00E944D046B
:1024900081ED92E00E945A0481ED92E00E945A047C
:1024A0008091D1028334B1F044F4813479F08234E4
:1024B00009F033CF10920A0330CF853491F074F0D5
:1024C000863409F02ACF1092060327CF81E080934B
:1024D0000A0323CF81E0809308031FCF10920803E3
:1024E0001CCF81E08093060318CF0E94340433CFC1
:1024F00060E08CE00E94030160E03FCF70E060E0AC
:102500008BE00E946D0160E089E00E94030110925F
:1025100006034DCF80910403882319F01092040321
:1025200083CF8091030381110FC080910A039091A2
:102530000B0398130CC0809108039091090398171E
:1025400049F08093090370CF109203036DCF8093FD
:102550000B036ACF8091060390910703981709F443
:1025600075CF8093070360CF8F929F92AF92BF92F7
:10257000CF92DF92EF92FF92CF93DF93EC016881CD
:1025800079818A819B81611571058105910521F40D
:1025900064E279ED8BE597E02DE133EF41E050E027
:1025A0000E94B81449015A019B01AC01A7EAB1E4A9
:1025B0000E94D7146B017C01ACEEB4EFA50194012D
:1025C0000E94E514C60ED71EE81EF91EF7FE06C0CF
:1025D00081E0C81AD108E10880E8F80AC882D982E7
:1025E000EA82FB82C701B6019F77DF91CF91FF900E
:1025F000EF90DF90CF90BF90AF909F908F90089515
:102600008F929F92AF92BF92CF92DF92EF92FF9202
:10261000609100017091010180910201909103018C
:10262000611571058105910521F464E279ED8BE571
:1026300097E02DE133EF41E050E00E94B8144901EA
:102640005A019B01AC01A7EAB1E40E94D7146B01C7
:102650007C01ACEEB4EFA50194010E94E514C60E16
:10266000D71EE81EF91EF7FE06C081E0C81AD10881
:10267000E10880E8F80AC0920001D0920101E092DE
:102680000201F0920301C701B6019F77FF90EF901E
:10269000DF90CF90BF90AF909F908F900895609300
:1026A000000170930101809302019093030108954A
:1026B0001F93FC0199278827BC01E89411911032DF
:1026C000E9F3193010F01E30C8F31B3251F01D32FF
:1026D00049F4689406C00E947F13610F711D811D2B
:1026E000911D119110531A30B0F33EF490958095DE
:1026F000709561957F4F8F4F9F4F1F910895592F70
:10270000482F372F262F660F771F881F991F660FB8
:10271000771F881F991F620F731F841F951F660FF5
:10272000771F881F991F08950E94D61308F481E02F
:102730000895E89409C097FB3EF4909580957095B4
:1027400061957F4F8F4F9F4F9923A9F0F92F96E9FD
:10275000BB279395F695879577956795B795F11172
:10276000F8CFFAF4BB0F11F460FF1BC06F5F7F4F0F
:102770008F4F9F4F16C0882311F096E911C0772321
:1027800021F09EE8872F762F05C0662371F096E82A
:10279000862F70E060E02AF09A95660F771F881FF9
:1027A000DAF7880F9695879597F90895990F00089D
:1027B000550FAA0BE0E8FEEF16161706E807F90713
:1027C000C0F012161306E407F50798F0621B730BAE
:1027D000840B950B39F40A2661F0232B242B252B2F
:1027E00021F408950A2609F4A140A6958FEF811DD2
:1027F000811D08950E940D140C947E140E94701483
:1028000038F00E94771420F0952311F00C9467148F
:102810000C946D1411240C94B2140E948F1470F354
:10282000959FC1F3950F50E0551F629FF001729F75
:10283000BB27F00DB11D639FAA27F00DB11DAA1F84
:10284000649F6627B00DA11D661F829F2227B00DD1
:10285000A11D621F739FB00DA11D621F839FA00D5C
:10286000611D221F749F3327A00D611D231F849FAC
:10287000600D211D822F762F6A2F11249F57504003
:102880009AF0F1F088234AF0EE0FFF1FBB1F661F7E
:10289000771F881F91505040A9F79E3F510580F047
:1028A0000C9467140C94B2145F3FE4F3983ED4F395
:1028B000869577956795B795F795E7959F5FC1F7EB
:1028C000FE2B880F911D9695879597F9089597F996
:1028D0009F6780E870E060E008959FEF80EC0895C6
:1028E00000240A94161617061806090608950024EF
:1028F0000A9412161306140605060895092E039469
:10290000000C11F4882352F0BB0F40F4BF2B11F4DC
:1029100060FF04C06F5F7F4F8F4F9F4F089557FD3B
:102920009058440F551F59F05F3F71F04795880F3D
:1029300097FB991F61F09F3F79F0879508951216D4
:1029400013061406551FF2CF4695F1DF08C0161680
:1029500017061806991FF1CF869571056105089431
:102960000895E894BB2766277727CB0197F9089548
:10297000052E97FB1EF400940E94CF1457FD07D03C
:102980000E94211507FC03D04EF40C94CF145095EF
:102990004095309521953F4F4F4F5F4F089590954B
:1029A0008095709561957F4F8F4F9F4F08950E943E
:1029B0004315A59F900DB49F900DA49F800D911D70
:1029C00011240895B7FF0C94D7140E94D714821BCA
:1029D000930B08952F923F924F925F926F927F9246
:1029E0008F929F92AF92BF92CF92DF92EF92FF921F
:1029F0000F931F93CF93DF93CDB7DEB7CA1BDB0BCB
:102A00000FB6F894DEBF0FBECDBF09942A8839886F
:102A100048885F846E847D848C849B84AA84B98476
:102A2000C884DF80EE80FD800C811B81AA81B98182
:102A3000CE0FD11D0FB6F894DEBF0FBECDBFED0196
:102A40000895A1E21A2EAA1BBB1BFD010DC0AA1FEF
:102A5000BB1FEE1FFF1FA217B307E407F50720F007
:102A6000A21BB30BE40BF50B661F771F881F991F82
:102A70001A9469F760957095809590959B01AC01CB
:102A8000BD01CF010895A29FB001B39FC001A39FD4
:102A9000700D811D1124911DB29F700D811D112497
:102AA000911D0895AA1BBB1B51E107C0AA1FBB1FA4
:102AB000A617B70710F0A61BB70B881F991F5A95CA
:102AC000A9F780959095BC01CD01089597FB072E3D
:102AD00016F4009407D077FD09D00E94521507FC28
:102AE00005D03EF4909581959F4F0895709561951E
:102AF0007F4F0895EE0FFF1F0590F491E02D09948C
:102B00005058BB27AA270E9498150C947E140E9447
:102B1000701438F00E94771420F039F49F3F19F4B4
:102B200026F40C946D140EF4E095E7FB0C946714F6
:102B3000E92F0E948F1458F3BA17620773078407AE
:102B4000950720F079F4A6F50C94B1140EF4E095F5
:102B50000B2EBA2FA02D0B01B90190010C01CA0157
:102B6000A0011124FF27591B99F0593F50F4503E02
:102B700068F11A16F040A22F232F342F4427585FF4
:102B8000F3CF469537952795A795F0405395C9F70C
:102B90007EF41F16BA0B620B730B840BBAF09150C4
:102BA000A1F0FF0FBB1F661F771F881FC2F70EC063
:102BB000BA0F621F731F841F48F487957795679536
:102BC000B795F7959E3F08F0B0CF9395880F08F022
:102BD0009927EE0F9795879508950E94F4156894AC
:102BE000B1110C94B21408950E94971488F09F5765
:102BF00098F0B92F9927B751B0F0E1F0660F771F21
:102C0000881F991F1AF0BA95C9F714C0B13091F016
:102C10000E94B114B1E008950C94B114672F782F7D
:102C20008827B85F39F0B93FCCF3869577956795DB
:102C3000B395D9F73EF490958095709561957F4F47
:102C40008F4F9F4F08950E94D61308F48FEF089579
:102C50000F931F93CF93DF938230910510F482E09E
:102C600090E0E0911404F091150430E020E0B0E031
:102C7000A0E0309799F42115310509F44AC0281BCA
:102C8000390B24303105D8F58A819B816115710596
:102C900089F1FB0193838283FE0111C04081518140
:102CA0000281138148175907E0F04817590799F432
:102CB000109761F012960C93129713961C9332960C
:102CC000CF01DF91CF911F910F91089500931404CC
:102CD00010931504F4CF2115310551F04217530715
:102CE00038F0A901DB019A01BD01DF01F801C1CF74
:102CF000EF01F9CF9093150480931404CDCFFE011A
:102D0000E20FF31F81939193225031093983288375
:102D1000D7CF2091120430911304232B41F420913A
:102D2000060130910701309313042093120420917F
:102D30000401309105012115310541F42DB73EB74D
:102D40004091080150910901241B350BE0911204B8
:102D5000F0911304E217F307A0F42E1B3F0B281782
:102D6000390778F0AC014E5F5F4F2417350748F004
:102D70004E0F5F1F5093130440931204819391935D
:102D80009FCFF0E0E0E09CCFCF93DF930097E9F096
:102D9000FC01329713821282A0911404B0911504A1
:102DA000ED0130E020E01097A1F420813181820F05
:102DB000931F20911204309113042817390709F04A
:102DC00061C0F0931304E0931204DF91CF91089552
:102DD000EA01CE17DF07E8F54A815B819E014115C4
:102DE0005105B1F7E901FB83EA8349915991C40F79
:102DF000D51FEC17FD0761F4808191810296840F45
:102E0000951FE90199838883828193819B838A83BB
:102E1000F0E0E0E012968D919C9113970097B9F540
:102E20002D913C911197CD010296820F931F209115
:102E30001204309113042817390739F6309751F5E9
:102E40001092150410921404B0931304A09312046A
:102E5000BCCFD383C28340815181840F951FC81793
:102E6000D90761F44E5F5F4F88819981480F591FE0
:102E7000518340838A819B8193838283211531050D
:102E800009F0B0CFF0931504E09314049ECFFD0138
:102E9000DC01C0CF13821282D7CFB0E0A0E0E3E51F
:102EA000F7E10C94EC148C01009751F4CB010E94D3
:102EB00028168C01C801CDB7DEB7E0E10C940815E7
:102EC000FC01E60FF71F9C0122503109E217F307BE
:102ED00008F49DC0D901CD91DC911197C617D70791
:102EE00098F0C530D10530F3CE01049786179707C7
:102EF00008F3C61BD70B2297C193D1936D937C9394
:102F0000CF010E94C416D6CF5B01AC1ABD0A4C019A
:102F10008C0E9D1EA0911404B0911504512C412CCF
:102F2000F12CE12C109731F580911204909113044B
:102F30008815990509F05CC04616570608F058C078
:102F40008091040190910501009741F48DB79EB7DF
:102F50004091080150910901841B950BE817F9076E
:102F600008F055C0F0931304E0931204F901718343
:102F70006083A0CF8D919C91119712966C901297BF
:102F800013967C901397A815B90559F56C0142E08A
:102F9000C40ED11CCA14DB0420F1AC014A195B0930
:102FA000DA011296159780F0628273825183408312
:102FB000D9016D937C93E114F10471F0D70113965C
:102FC000FC93EE93129776CF22968C0F9D1FF901FA
:102FD00091838083F301EFCFF0931504E093140401
:102FE00069CF4816590608F42C017D01D3019ACF08
:102FF000CB010E9428167C01009749F0AE01B80170
:103000000E940A18C8010E94C416870153CF10E01D
:1030100000E050CFFB01DC0102C001900D92415055
:103020005040D8F70895FB01DC018D910190801983
:103030000110D9F3990B0895FB01DC0101900D9269
:103040000020E1F70895FB01DC014150504030F0D1
:103050008D910190801919F40020B9F7881B990B04
:103060000895FB01DC014150504048F001900D9261
:103070000020C9F701C01D9241505040E0F708956B
:10308000AEE0B0E0E6E4F8E10C94F8140D891E8996
:1030900086E08C831A8309838FEF9FE79E838D835D
:1030A000AE01475E5F4F6F89788DCE0101960E9419
:1030B00063182F813885020F131FF80110822E9696
:1030C000E4E00C941415ABE0B0E0E9E6F8E10C9410
:1030D000EA147C013B018A01FC011782168283817C
:1030E00081FFC8C1CE0101965C01F7019381F30114
:1030F00093FD859193FF81913F01882309F453C18A
:10310000853239F493FD859193FF81913F0185329A
:1031100029F4B70190E00E94531AE7CF912C212C9B
:10312000312CFFE1F31538F08B3211F190F480323D
:1031300009F1833229F137FC3CC020ED280F2A30F9
:1031400050F536FE20C08AE0989E200D1124922E64
:1031500006C08D3291F0803371F7689430F8F30136
:1031600093FD859193FF81913F018111DACF21C0B9
:10317000689431F8689432F8F2CF689433F8EFCF5E
:10318000689434F8ECCFEAE02E9E200D1124222E14
:10319000689435F8E4CF8E3229F436FC04C1689483
:1031A00036F8DDCF8C3619F4689437F8D8CF8836E6
:1031B000B1F2982F9F7D95549330E0F08336A1F1C2
:1031C0008337C1F1833509F063C02801F2E04F0E67
:1031D000511CF801C080D180692D70E036FC02C01E
:1031E0006FEF7FEFC6010E943D1A4C01689437F8DB
:1031F00082010AC00C5F1F4FFFE3F9838824839488
:10320000912C6501E89437F833FE2DC0522C8114BF
:10321000910471F5552009F468CFB70180E290E080
:103220000E94531A5A94F6CFF801808189830E5F69
:103230001F4FE4CF2801F2E04F0E511CF801C0806F
:10324000D180692D70E036FC02C06FEF7FEFC601C0
:103250000E94481A4C018201D5CFB70180E290E06C
:103260000E94531A2A942814190409F0B0F7CECFFB
:10327000F60137FC859137FE81916F01B70190E02F
:103280000E94531A51105A94F1E08F1A9108BFCF3F
:10329000843619F0893609F077C0F80137FE6BC023
:1032A00060817181828193810C5F1F4FF32DFF76C6
:1032B0003F2E97FF09C090958095709561957F4F3F
:1032C0008F4F9F4F689437F82AE030E0A5010E94A5
:1032D000831AC82ECA188C2C432C36FE0CC0E894D6
:1032E00040F8C91440F434FE05C032FC03C0F32D8D
:1032F000FE7E4F2E892C44FE95C0FE01EC0DF11D83
:103300008081803309F087C0242D297E422E842DB0
:103310008870582E43FC95C040FE8FC09C2C8214B0
:1033200018F42C0C922C981844FE91C0B70180E33D
:1033300090E00E94531A42FE09C088E790E041FEE7
:1033400002C088E590E0B7010E94531AC91408F43E
:103350008AC0CA94D12C9FEFC91AD90ACA0CDB1CA7
:10336000F60182916F01B70190E00E94531AAC14EC
:10337000BD04B1F74FCF60817181072E000C880B1F
:10338000990B0E5F1F4F92CFD32CE894D4F82AE00C
:1033900030E0853739F1232D297FD22E8F3601F188
:1033A00048F48835A9F0F701868197812B96E2E1F0
:1033B0000C940615803749F08837A9F7D4FE02C06F
:1033C0006894D2F820E130E00DC06894D4F8F6CFCC
:1033D00034FE03C0822F8660D82E20E132E002C086
:1033E00028E030E0F801D7FE0FC060817181828152
:1033F00093810C5F1F4FA5010E94831AC82ECA1823
:103400003D2CE89437F867CF6081718190E080E0CF
:103410000E5F1F4FF0CF42FC02C0839478CF83949D
:10342000839475CF842D867809F471CFF6CFB701D8
:1034300080E290E00E94531A83948214C0F3512CCE
:1034400073CF522C5818821408F46ECFF8CF842D05
:10345000867809F47BCF8BE241FE80E247FC8DE267
:10346000B70190E071CFB70180E390E00E94531A5A
:103470009A946CCF8FEF9FEF99CFFC01059061502C
:1034800070400110D8F7809590958E0F9F1F08957A
:10349000FC016150704001900110D8F78095909523
:1034A0008E0F9F1F08950F931F93CF93DF93182FB5
:1034B000092FEB018B8181FD09C01FEF0FEF812FD9
:1034C000902FDF91CF911F910F91089582FF14C02B
:1034D0002E813F818C819D81281739073CF4E8813A
:1034E000F981CF0101969983888310838E819F8112
:1034F00001969F838E83E3CFE885F985812F099517
:10350000892BA1F3DACFFA01AA27283051F1203113
:1035100081F1E8946F936E7F6E5F7F4F8F4F9F4F67
:10352000AF4FB1E03ED0B4E03CD0670F781F891FA9
:103530009A1FA11D680F791F8A1F911DA11D6A0F77
:10354000711D811D911DA11D20D009F468943F912A
:103550002AE0269F11243019305D3193DEF6CF0129
:103560000895462F4770405D4193B3E00FD0C9F7EF
:10357000F6CF462F4F70405D4A3318F0495D31FD5C
:103580004052419302D0A9F7EACFB4E0A6959795AF
:10359000879577956795BA95C9F700976105710585
:1035A00008959B01AC010A2E0694579547953795CF
:1035B0002795BA95C9F7620F731F841F951FA01D29
:1035C000089510E0C6E8D0E004C0FE010E947A151C
:0C35D0002196C738D107C9F7F894FFCF47
:1035DC00010000000000160480000000000012032F
:1035EC0040026D025F03D0027C02C2020D0A002F62
:1035FC002F22225C5C6208660C6E0A720D74090044
:10360C005C7530303030006E756C6C0074727565A2
:10361C000066616C73650064617461006472616959
:10362C006E56616C76655374617465007361666582
:10363C00747956616C766553746174650066616E5D
:10364C0053746174650070756D70537461746500AA
:10365C0066616E53706565640070756D705370654E
:10366C00656400647261696E56616C76654C657652
:10367C00656C00666C6F7753656E736F72310066A4
:10368C006C6F7753656E736F723200666C6F775325
:10369C00656E736F72330072756E74696D6500734D
:1036AC00657269616C4E756D62657200504F544164
:1036BC0000504F544200504F544300383537333488
:1036CC0033323336333033353133314130353200E8
:1036DC005468652074696D652074726176656C69D7
:1036EC006E67206973206A75737420746F6F206421
:1036FC00616E6765726F75732E20426574746572A6
:10370C0020746861742049206465766F7465206D3F
:10371C007973656C6620746F20737475647920748A
:10372C006865206F74686572206772656174206DBE
:10373C00797374657279206F662074686520756E74
:10374C006976657273653A20632B2B20706F696EF6
:10375C00746572732E00506F74656E74696F6D654D
:10376C0074657200636D64323A2000253032643A1D
:0A377C00253032643A253032640033
:00000001FF
