:100000000C9487000C94AF000C94AF000C94AF00DC
:100010000C94AF000C94AF000C94AF000C94AF00A4
:100020000C94AF000C94AF000C94AF000C94AF0094
:100030000C94AF000C94AF000C94AF000C94AF0084
:100040000C94830D0C94AF000C94F30D0C94CD0D17
:100050000C94AF000C94AF000C94AF000C94AF0064
:100060000C94AF000C94AF00CDCCCC3D0AD7233C10
:1000700017B7D13877CC2B329595E6241FB14F0AAC
:100080000000803FCDCCCC3D6F12833A95BFD63374
:100090007D1D9026B3CE010C000020410000C84217
:1000A00000401C4620BCBE4CCA1B0E5AAEC59D74F7
:1000B00000000000240027002A00000000002500A6
:1000C00028002B0000000000230026002900040463
:1000D00004040404040402020202020203030303F0
:1000E00003030102040810204080010204081020CC
:1000F00001020408102000000008000201000003B3
:10010000040700000000000000002D0E250E112441
:100110001FBECFEFD8E0DEBFCDBF13E0A0E0B1E05F
:10012000E2ECF9E302C005900D92A636B107D9F7CB
:1001300024E0A6E6B3E001C01D92AC3DB207E1F7B2
:1001400010E0C6E8D0E004C02197FE010E946D17C0
:10015000C538D107C9F70E94F00E0C94D41C0C943A
:100160000000833081F028F4813099F08230A9F0CA
:1001700008958730A9F08830C9F08430B1F48091B7
:1001800080008F7D03C0809180008F7780938000F6
:10019000089584B58F7784BD089584B58F7DFBCF96
:1001A0008091B0008F778093B00008958091B00067
:1001B0008F7DF9CFCF93DF93282F30E0F901EA50FC
:1001C000FF4F8491F901EE51FF4FD491F901E253B1
:1001D000FF4FC491CC23A1F081110E94B100EC2FFC
:1001E000F0E0EE0FFF1FEC53FF4FA591B491EC919F
:1001F000ED2381E090E009F480E0DF91CF91089554
:1002000080E090E0FACF1F93CF93DF93282F30E068
:10021000F901EA50FF4F8491F901EE51FF4FD4915B
:10022000F901E253FF4FC491CC23A9F0162F81119D
:100230000E94B100EC2FF0E0EE0FFF1FE654FF4FDD
:10024000A591B4918FB7F894EC91111108C0D09595
:10025000DE23DC938FBFDF91CF911F910895DE2BBA
:10026000F8CFCF93DF9390E0FC01EE51FF4F249144
:1002700082539F4FFC0184918823C9F090E0880F3E
:10028000991FFC01E055FF4FA591B491FC01E65484
:10029000FF4FC591D49161110DC09FB7F8948C9117
:1002A000209582238C938881282328839FBFDF9108
:1002B000CF910895623051F49FB7F8943C91822F0A
:1002C000809583238C93E8812E2BEFCF8FB7F89402
:1002D000EC912E2B2C938FBFEACF1F93CF93DF93FC
:1002E000182FEB0161E00E943101209739F460E0A2
:1002F000812FDF91CF911F910C940301CF3FD10546
:1003000011F461E0F5CFE12FF0E0EA50FF4FE49106
:10031000E33031F140F4E130B1F0E230E1F0C038E7
:10032000D1057CF7E4CFE73029F1E83059F1E4302A
:10033000B1F780918000806280938000D0938B0021
:10034000C0938A0004C084B5806884BDC7BDDF91B6
:10035000CF911F91089584B5806284BDC8BDF7CF49
:1003600080918000806880938000D0938900C09342
:100370008800EDCF8091B00080688093B000C0937A
:10038000B300E5CF8091B00080628093B000C0934D
:10039000B400DDCF8E50806480937C0080917A0021
:1003A000806480937A0080917A0086FDFCCF8091F2
:1003B00078009091790008953FB7F8948091D70321
:1003C0009091D803A091D903B091DA0326B5A89BE8
:1003D00005C02F3F19F00196A11DB11D3FBFBA2FD7
:1003E000A92F982F8827BC01CD01620F711D811D97
:1003F000911D42E0660F771F881F991F4A95D1F71C
:1004000008958F929F92AF92BF92CF92DF92EF9218
:10041000FF926B017C010E94DC014B015C01C11465
:10042000D104E104F104B9F00E94DC0168197909F2
:100430008A099B09683E73408105910580F321E09C
:10044000C21AD108E108F10888EE880E83E0981EF0
:10045000A11CB11CE4CFFF90EF90DF90CF90BF9034
:10046000AF909F908F9008952FB7F8946091D30329
:100470007091D4038091D5039091D6032FBF089536
:10048000AF92BF92CF92DF92EF92FF920F931F93A2
:10049000CF93DF936C017B018B01040F151FEB01E0
:1004A0005E01AE18BF08C017D10759F06991D60197
:1004B000ED91FC910190F081E02DC6010995892B09
:1004C00079F7C501DF91CF911F910F91FF90EF90C8
:1004D000DF90CF90BF90AF900895FC01538D448D75
:1004E000252F30E0842F90E0821B930B541710F0DF
:1004F000CF96089501970895FC01918D828D9817EC
:1005000061F0A28DAE0FBF2FB11D5D968C91928DC3
:100510009F5F9F73928F90E008958FEF9FEF0895F4
:100520000F931F930E9434026093E3037093E403DC
:100530008093E5039093E6038BED93E00E947C02A9
:1005400097FF1DC00E9434020091E3031091E40361
:100550002091E5033091E603601B710B820B930B36
:100560000091DF031091E0032091E1033091E20359
:100570006017710782079307F8F28FEF9FEF1F91C3
:100580000F910895FC01918D828D981731F0828D25
:10059000E80FF11D858D90E008958FEF9FEF08958E
:1005A000FC01918D228D892F90E0805C9F4F821BF2
:1005B00091098F73992708958BED93E00E94D002E3
:1005C00021E0892B09F420E0822F089580E090E05B
:1005D000892B29F00E94DC0281110C9400000895FF
:1005E000FC01A48DA80FB92FB11DA35ABF4F2C91A8
:1005F000848D90E001968F739927848FA689B7899F
:100600002C93A089B1898C91837080648C93938D95
:10061000848D981306C00288F389E02D80818F7D38
:1006200080830895EF92FF920F931F93CF93DF93F0
:10063000EC0181E0888F9B8D8C8D98131AC0E8891E
:10064000F989808185FF15C09FB7F894EE89FF89ED
:100650006083E889F98980818370806480839FBF8B
:1006600081E090E0DF91CF911F910F91FF90EF908B
:100670000895F62E0B8D10E00F5F1F4F0F7311279B
:10068000E02E8C8D8E110CC00FB607FCFACFE889D6
:10069000F989808185FFF5CFCE010E94F002F1CF6C
:1006A000EB8DEC0FFD2FF11DE35AFF4FF0829FB74A
:1006B000F8940B8FEA89FB8980818062CFCFCF933A
:1006C000DF93EC01888D8823B9F0AA89BB89E8897A
:1006D000F9898C9185FD03C0808186FD0DC00FB620
:1006E00007FCF7CF8C9185FFF2CF808185FFEDCF9E
:1006F000CE010E94F002E9CFDF91CF910895CF9310
:10070000DF93EC01BC0185E00E946D01BE0186E033
:100710000E946D01BE0189E0DF91CF910C946D01C3
:100720000F931F93CF93DF938B01EA01BC0185E008
:100730000E946D01B80186E00E946D01BE0189E052
:10074000DF91CF911F910F910C946D010895FB01E2
:10075000309729F0948190789660948380830895EF
:10076000CF93DF93EC0188819981DC01ED91FC91BD
:100770000190F081E02D09952A813B81820F931F22
:100780009B838A83DF91CF910895CF93DF93EC0110
:1007900088819981DC01ED91FC910280F381E02D4B
:1007A00009952A813B81820F931F9B838A83DF9166
:1007B000CF9108958F929F92AF92BF92CF92DF9286
:1007C000EF92FF920F931F93CF93DF93CDB7DEB7D6
:1007D00066970FB6F894DEBF0FBECDBF6C018E01D9
:1007E000095E1F4F78018AE0882E912CA12CB12C34
:1007F000CB01BA01A50194010E941417942F852FF3
:10080000605DF80162938F01A901692F782F41156E
:1008100051056105710561F7A7014E1B5F0BBF0113
:10082000C6010E94C50366960FB6F894DEBF0FBEE0
:10083000CDBFDF91CF911F910F91FF90EF90DF908F
:10084000CF90BF90AF909F908F900895FC0125812D
:10085000222339F0F8E02F0290011124820F931F18
:10086000089590E080E0089582E00E94DA00019708
:1008700019F481E08093A6038DE00E94DA000197CD
:1008800019F481E08093A10384E00E94DA000197CB
:1008900019F481E080939C0308958091A60381114F
:1008A00015C09091A103911112C090919C039111D8
:1008B0000EC08091C603811109C09091C4039111AB
:1008C00006C08091C20391E08927089580E00895D1
:1008D0001092CD031092CC031092C9031092C8035A
:1008E0001092CB031092CA0350E040E070E060E049
:1008F00090E080E00C949003FC0101900020E9F767
:100900003197AF01481B590BBC018BED93E00C9460
:100910004002CF93DF930E947C04EC018CE191E0D4
:100920000E947C048C0F9D1FDF91CF91089570E091
:1009300060E08BE00E946D0160E089E00E940301AD
:100940001092C2038FE191E00C9489046FEF70E084
:100950008BE00E946D0161E089E00E94030181E06B
:100960008093C20384E391E00C9489041092C40341
:1009700060E08CE00E94030160E086E00E940301D9
:1009800087E491E00C94890481E08093C40361E0E2
:100990008CE00E94030161E086E00E94030181E592
:1009A00091E00C94890460E088E00E9403018AE5EC
:1009B00091E00E94890410927F0360E087E00E942A
:1009C000030160E085E00E9403011092C60380E706
:1009D00091E00C948904CF9361E088E00E940301C8
:1009E0008BE791E00E948904C1E0C0937F0361E03E
:1009F00087E00E94030161E085E00E940301C0934B
:100A0000C6038FE891E0CF910C948904FB0101901B
:100A10000020E9F73197AF01461B570B0C94C50333
:100A20001F93CF93DF93E9E9F1E01281112379F06D
:100A3000329621816213F9CFEC016CE50E94B0037C
:100A4000612FCE01DF91CF911F910C94B003611102
:100A5000F9CF6AEA71E0DF91CF911F910C940605FE
:100A60002F923F924F925F926F927F928F929F92BE
:100A7000AF92BF92CF92DF92EF92FF920F931F93AC
:100A8000CF93DF93CDB7DEB76C970FB6F894DEBF88
:100A90000FBECDBF7C018B01DC0114968C911497A5
:100AA0008F77863009F464C2B0F48230E8F0129691
:100AB000CD90DC901397AC901196BC90843008F0E8
:100AC00026C2A601B501C8010E94C503D80112962D
:100AD0008D919C9103C28C3069F160F4883009F4E7
:100AE00041C28A3009F426C261EB71E0C8010E945C
:100AF0000605E7C1803209F4EDC18034A9F76BE542
:100B0000C8010E94B003D701ED90FC90E114F104FC
:100B100009F4DBC1B801C7010E943005C7010E947A
:100B200026047C01892B09F4D0C16CE2C8010E9423
:100B3000B003ECCFF701C080D180E280F380A70141
:100B40009601C701B6010E9487158111CDCF20E023
:100B500030E0A901C701B6010E948715882379F00A
:100B6000A7019601C701B6010E9474179B01AC0151
:100B7000C701B6010E948715882309F4B5CF20E08C
:100B800030E0A901C701B6010E94871587FF08C0A0
:100B90006DE2C8010E94B003F7FAF094F7F8F09400
:100BA00020E836E948E15BE4C701B6010E94161867
:100BB00087FD7CC074E1872E912CE0E2AE2EB12C33
:100BC000712C612CF401E856FF4F25913591459128
:100BD0005491C701B6010E94161887FD0FC0F40199
:100BE000E859FF4F2591359145915491C701B601C0
:100BF0000E94ED156B017C016A0C7B1CB594A794D7
:100C0000F4E08F1A91082CEF82162FEF9206D1F69E
:100C10003FEF3F8B20E030E0A901C701B6010E9401
:100C2000161818160CF04AC02CEA35EC47E257E3C8
:100C3000C701B6010E94871518160CF43FC0AF8992
:100C4000B4E0AB02C0011124912C812CFC01E058CE
:100C5000FF4F1F019C0128563F4F29013F893F3F0D
:100C600069F1F101E80DF91D2591359145915491F6
:100C7000C701B6010E94871587FF0FC0F201E80D7A
:100C8000F91D2591359145915491C701B6010E94F6
:100C9000ED156B017C016A187B08B594A7948F89C8
:100CA00081508F8B94E0891A9108D8CF50E2A52EFD
:100CB000B12C85E08F8B712C612CACCFC701B601B4
:100CC0000E94E7174B015C011B012C01A6E0AC8FD1
:100CD00080E492E4AFE0B0E0888F998FAA8FBB8F59
:100CE0009C8D9F8BA92FA150AC8FBAE02B1631049D
:100CF00041045104C8F0688D798D8A8D9B8D2AE05E
:100D000030E040E050E00E941417288F398F4A8F5E
:100D10005B8FC201B1012AE030E040E050E00E9468
:100D2000141719012A01DCCFC501B4010E948C15EA
:100D30009B01AC01C701B6010E9473176B017C01D6
:100D4000688D798D8A8D9B8D0E948C159B01AC01DD
:100D5000C701B6010E94ED151B012C010E94E71787
:100D60006B017C010E948C159B01AC01C201B10199
:100D70000E9473179B01AC010E9474170E94E71731
:100D8000C60ED71EE81EF91E888D998DAA8DBB8DC3
:100D9000C816D906EA06FB06C0F09FEF891A990A21
:100DA000A90AB90A6114710439F1AAE08A169104FA
:100DB000A104B10408F1BFEF6B1A7B0AC12CD12C3E
:100DC0007601812C912C540183942AE0222E312C1F
:100DD000412C512CC701B601A20191010E941417A8
:100DE000672B682B692B61F4EF891E164CF469019F
:100DF0007A01E150EF8BEECFC12CD12C7601E5CFFB
:100E0000B501A401C8010E94DA03FF89FF2391F113
:100E10004E0121E1820E911CF88F54019AE0292E97
:100E2000312C412C512C388D3150388F3F3F69F097
:100E3000C701B601A20191010E941417605DD4019F
:100E40006E934D0169017A01EECFBF898B2F90E03F
:100E5000BC0160957095F501E81BF90B31978EE2A6
:100E6000808344275527461B570B6A0D7B1DC801FD
:100E70000E94C5036114710421F165E6C8010E9456
:100E8000B003730177FE07C06DE2C8010E94B00392
:100E9000F194E194F108FE0177969F018AE0C82E53
:100EA000D12CC701B6010E944517805D82937B015A
:100EB000672BB9F7A9014E1B5F0BBF01C8010E9448
:100EC000C503F8018281938109C06DE5C8010E94C4
:100ED000B003F7CFB701C8010E94C4076C960FB6E4
:100EE000F894DEBF0FBECDBFDF91CF911F910F9160
:100EF000FF90EF90DF90CF90BF90AF909F908F903A
:100F00007F906F905F904F903F902F90089562E296
:100F1000C8010E94B0037501CE0CDF1CCE14DF04A3
:100F200039F0D7016D917D01C8010E941005F6CFFF
:100F300062E2CCCFF701C080D180E280F380B701BC
:100F4000A601F7FE0BC06DE2C8010E94B003442762
:100F50005527BA014C195D096E097F09C8010E9425
:100F6000DA03B4CDF7014081518162817381F6CFFC
:100F7000F701808166EB71E0811102C06BEB71E0DB
:100F8000C8010E940605A2CDCF92DF92EF92FF9298
:100F90000F931F93CF93DF93EC018B016BE70E94BC
:100FA000B003F801008111810115110541F1F8012B
:100FB000C680D78062E2CE010E94B0037601F701BD
:100FC00061917F01662321F0CE010E941005F7CFC9
:100FD00062E2CE010E94B0036AE3CE010E94B00338
:100FE000BE01C8010E943005C8010E9426048C0180
:100FF000892B29F06CE2CE010E94B003D5CF6DE7BA
:10100000CE010E94B0038A819B81DF91CF911F9115
:101010000F91FF90EF90DF90CF900895FC01A08199
:10102000B181109749F0FD0101900020E9F7319757
:10103000CF018A1B9B0B089590E080E00895FB018F
:10104000DC018D919C91009761F060817181611547
:10105000710539F0448155810E94161A21E0892BCF
:1010600009F020E0822F0895FC0180819181009792
:1010700011F00C94B71808950F931F93CF93DF933B
:10108000EC0188819981009759F02A813B812617CC
:10109000370730F081E0DF91CF911F910F910895D4
:1010A0008B016F5F7F4F0E944019009759F0998321
:1010B00088831B830A832C813D81232B59F7FC01F4
:1010C0001082E8CF80E0E7CFEF92FF920F931F935B
:1010D000CF93DF93EC017B018A01BA010E943C08A7
:1010E00028813981811114C02115310519F0C901F8
:1010F0000E94B718198218821D821C821B821A82D4
:10110000CE01DF91CF911F910F91FF90EF90089545
:101110001D830C83B701C9010E940F1AF1CFFC0196
:10112000118210821382128215821482FB010190B7
:101130000020E9F73197AF01461B570B0C94640868
:10114000AF92BF92CF92DF92EF92FF920F931F93D5
:10115000CF93DF93EC017B016A0184E0A82EB12CD0
:101160004430510520F45A0194E0C92ED12C69EA8B
:1011700071E0CE010E948F08D70114960D911C9149
:10118000A016B10628F5C016D10608F48601D701CD
:10119000ED91FC911197E00FF11FD08010826D91BD
:1011A0007C916A0D7B1D61157105F1F0FB010190C9
:1011B0000020E9F73197AF01461B570BCE010E9483
:1011C0006408F70180819181080F191FD801DC9212
:1011D000CE01DF91CF911F910F91FF90EF90DF90A3
:1011E000CF90BF90AF90089588819981009711F0BA
:1011F0000E94B718198218821D821C821B821A82D3
:10120000E0CFCF92DF92EF92FF920F931F93CF9395
:10121000DF93009759F480E090E0DF91CF911F9128
:101220000F91FF90EF90DF90CF90089561157105B9
:1012300091F38A017B01EC01C880D980C114D104EB
:1012400089F1D60116966D917C91C7010E94061A0C
:10125000892B31F1C6010E9426046C01EFCF38972B
:10126000D8011596FC93EE9314973097A1F2AA81BA
:10127000BB81109791F0CF018A1B9B0B23E09595C2
:1012800087952A95E1F715968C93FB83EA8315825F
:101290001482F782E682CF01C0CFF983E883F5CFCD
:1012A000C601BBCFD8011496ED91FC91159712960B
:1012B0008D919C910896E817F90788F681E0F8016E
:1012C0008087A9CF2F923F924F925F926F927F9229
:1012D0008F929F92AF92BF92CF92DF92EF92FF9246
:1012E0000F931F93CF93DF93CDB7DEB7CC51D1408F
:1012F0000FB6F894DEBF0FBECDBF2B014901C75E0C
:10130000DE4FE882F9820A831B83C951D140CE01A6
:101310000F969A8389839C838B831E0121EF221A67
:101320002EEF320A3E822D8238862F82198680E285
:101330008E871B861A861D861C86AE014F5F5F4F07
:1013400061EC71E0CE010A960E9401098C010097C0
:1013500049F0FC018481807880628483118210824C
:1013600013821282AE014F5F5F4F66EC71E0C801DD
:101370000E940109BC018091C2030E94A703AE0133
:101380004F5F5F4F66ED71E0C8010E940109BC012B
:1013900080917F030E94A703AE014F5F5F4F67EE0E
:1013A00071E0C8010E940109BC018091C4030E9440
:1013B000A703AE014F5F5F4F60EF71E0C8010E946D
:1013C0000109BC018091C6030E94A703AE014F5FD3
:1013D0005F4F6AEF71E0C8010E940109FC01892B8F
:1013E00081F020918A0330918B03948190789A60E8
:1013F0009483C901330FAA0BBB0B80839183A28313
:10140000B383AE014F5F5F4F63E072E0C8010E949B
:101410000109FC01892B81F020918603309187031B
:10142000948190789A609483C901330FAA0BBB0B07
:1014300080839183A283B383AE014F5F5F4F6DE0E2
:1014400072E0C8010E940109FC01892B81F0209102
:10145000880330918903948190789A609483C901BC
:10146000330FAA0BBB0B80839183A283B383AE019E
:101470004F5F5F4F6DE172E0C8010E9401097C017E
:10148000009781F0FC01848180788C608483B201B4
:10149000550C880B990B0E948E15F70160837183A0
:1014A00082839383AE014F5F5F4F69E272E0C801B0
:1014B0000E9401093C01009781F0FC018481807841
:1014C0008C608483B401990C880B990B0E948E1553
:1014D000F3016083718382839383AE014F5F5F4F1B
:1014E00065E372E0C8010E9401095C010097B1F058
:1014F000FC01848180788C608483C75EDE4F288104
:101500003981C951D140B901330F880B990B0E9421
:101510008E15F5016083718382839383AE014F5FE3
:101520005F4F61E472E0C8010E9401096C01892BE0
:1015300009F44FC08AEA93E0C95EDE4F998388833D
:10154000C751D140CB5EDE4F99838883C551D140CE
:10155000CE018B5E9E4F0E940E084C01A980BA807E
:10156000EB80FC808AEA482E83E0582E94012655B1
:101570003C4F3901F501E80DF91DEE15FF0508F4A2
:1015800068C0CE018B5E9E4F0E940E089C012F5FAB
:101590003F4F2E0D3F1D4D815E814217530708F0CE
:1015A0007FC081E08987F12CE12CCE01895E9E4FBE
:1015B0000E940E08AC0130E020E0E114F10411F0CB
:1015C00026EA33E0F60194819078232B09F07FC05E
:1015D0009483AE014F5F5F4F69E472E0C8010E94DF
:1015E0000109DC01892B71F0A090D204B090D304E2
:1015F000A114B10409F072C014968C9114978078EC
:1016000014968C938BED93E0F10191838083138288
:101610001282BE01665F7F4FC1010E94C407C45E93
:10162000DE4F0FB6F894DEBF0FBECDBFDF91CF9176
:101630001F910F91FF90EF90DF90CF90BF90AF90F0
:101640009F908F907F906F905F904F903F902F90E2
:1016500008958081811118C0CD5EDE4F5982488285
:10166000C351D140CE018D5E9E4F0E940E08881658
:10167000990651F4D501EAEAF3E06E167F0651F0BF
:101680009D9181919817C9F3F50181915F018111B5
:10169000FBCF70CFA114B10409F473CF750185CFCE
:1016A0003C832B83E114F10409F47FCFEAEAF3E0F1
:1016B000D701AC0146555C4FE417F50719F02191AD
:1016C0002D93FACF8E0D9F1DFC0110826ECF956079
:1016D0009483F182E082538342837BCF2091D604AE
:1016E0003091D70489819A814B815C817501E20E2A
:1016F000F31EBC01620F731F64177507C8F4FB016A
:10170000608161110DC0B5018C016E157F0571F00E
:10171000FB01C190BF01F801D1908F01CD14A9F355
:10172000FC016191CF016111FBCFE3CF009781F5FF
:10173000C9010196840F951F6D817E816817790715
:1017400078F481E0898790E080E070E060E01496B2
:101750004C9114974078672BF1F414964C9352CF28
:101760009C838B834115510571F3CA018501020FDA
:10177000131F0A151B0539F0F50161915F01FC018A
:101780006193CF01F6CFFA01E20FF31F1082CA0175
:1017900066EA73E0DCCF456014964C93149711967B
:1017A0009C938E9313963C932E9312972BCFCF92AC
:1017B000DF92EF92FF920F931F93CF93DF9300D0AE
:1017C00000D000D0CDB7DEB78C0166E572E0CE0167
:1017D00001960E948F08F801248135818D819E81B8
:1017E000F12C2817390738F0BE016F5F7F4FC80111
:1017F0000E941F08F82ECE0101960E943408FF2097
:1018000091F1F80144815581B801CE0101960E9401
:10181000A00889819A81C12CD12C7601009719F0FA
:101820000E944B156B01CE0101960E943408C6013F
:1018300001978F3F910540F4B60183E00E946D014E
:10184000D0928703C092860326960FB6F894DEBF27
:101850000FBECDBFDF91CF911F910F91FF90EF9001
:10186000DF90CF9008956BE572E0CE0101960E9463
:101870008F08F801248135818D819E8128173907D1
:1018800038F0BE016F5F7F4FC8010E941F08F82E1D
:10189000CE0101960E943408FF2029F1F80144810D
:1018A0005581B801CE0101960E94A00889819A81D4
:1018B000C12CD12C7601009719F00E944B156B01B9
:1018C000CE0101960E943408C60101978F3F910511
:1018D00008F0BACFB6018AE00E946D01D0928B0366
:1018E000C0928A03B1CF60E672E0CE0101960E94F9
:1018F0008F08F801248135818D819E812817390751
:1019000038F0BE016F5F7F4FC8010E941F08F82E9C
:10191000CE0101960E943408FF2009F495CFF8010A
:1019200044815581B801CE0101960E94A0088981A9
:101930009A81C12CD12C7601009719F00E944B1589
:101940006B01CE0101960E943408C60101978F3FBA
:10195000910508F079CFB6018BE00E946D01D0921D
:101960008903C092880370CF0F931F93CF93DF93A7
:10197000CDB7DEB72C970FB6F894DEBF0FBECDBF44
:101980008BED93E00E94D002181619060CF059C096
:1019900069EA71E0CE0107960E948F080E949002CA
:1019A0000B851C8597FD1CC08A309105C9F0898381
:1019B0001A820F5F1F4FB801CE0107960E943C08A4
:1019C000882361F32F8138858B859C85BE016F5FED
:1019D0007F4F820F931F0E940F1A1C870B87DECF49
:1019E00001151105C9F51092660386E693E0FC0126
:1019F00001900020E9F7CF01875693400297E8F164
:101A000085E692E00E9489041A8219821C821B8258
:101A10001E821D826F8178856115710531F04B85BD
:101A20005C85CE0101960E946408CE0101960E9459
:101A3000D70BCE0101960E943408CE0107960E9472
:101A400034082C960FB6F894DEBF0FBECDBFDF91E1
:101A5000CF911F910F9108950831110510F008E101
:101A600010E06F817885A80186E693E00E94241A31
:101A7000F801EA59FC4F1082B8CF83E792E00E9448
:101A80007C0486E693E00E9489048AE792E00E9443
:101A900089048EE892E00E947C0486E693E00E942E
:101AA00089048AE792E00E94890480916603833466
:101AB000C9F04CF481340CF28091C603882379F08C
:101AC0000E94D304BACF843489F087340CF0B5CFA8
:101AD0008091C2038823A1F00E949704AECF0E9498
:101AE000EB04ABCF81E08093C403A7CF8091C40304
:101AF000882319F00E94B604A0CF0E94C4049DCF91
:101B00000E94A6049ACF1F920F920FB60F92112433
:101B10002F933F938F939F93AF93BF938091D30362
:101B20009091D403A091D503B091D6033091D20304
:101B300023E0230F2D3758F50196A11DB11D2093E9
:101B4000D2038093D3039093D403A093D503B0938F
:101B5000D6038091D7039091D803A091D903B09177
:101B6000DA030196A11DB11D8093D7039093D8038A
:101B7000A093D903B093DA03BF91AF919F918F9156
:101B80003F912F910F900FBE0F901F90189526E850
:101B9000230F0296A11DB11DD2CF1F920F920FB637
:101BA0000F9211242F933F934F935F936F937F93E3
:101BB0008F939F93AF93BF93EF93FF938BED93E03E
:101BC0000E94F002FF91EF91BF91AF919F918F9191
:101BD0007F916F915F914F913F912F910F900FBE29
:101BE0000F901F9018951F920F920FB60F9211240D
:101BF0002F938F939F93EF93FF93E091EB03F091DB
:101C0000EC038081E091F103F091F20382FD1BC0AF
:101C100090818091F4038F5F8F732091F503821779
:101C200041F0E091F403F0E0E552FC4F958F809392
:101C3000F403FF91EF919F918F912F910F900FBE21
:101C40000F901F9018958081F4CF8CEC94E00E9447
:101C5000340882ED94E00C943408CF92DF92EF9236
:101C6000FF92EBEDF3E01382128288EE93E0A0E0A6
:101C7000B0E084839583A683B7838EE091E091835F
:101C8000808385EC90E09587848784EC90E097874B
:101C9000868780EC90E0918B808B81EC90E0938B39
:101CA000828B82EC90E0958B848B86EC90E0978B16
:101CB000868B118E128E138E148E62EA72E082ED84
:101CC00094E00E948F080E94F31423ECC22ED12CC2
:101CD000E12CF12CA70196010E94AB166B5F7F4FA0
:101CE0008F4F9F4F0E948E156093C8047093C90454
:101CF0008093CA049093CB040E94F314A701960129
:101D00000E94AB166B5F7F4F8F4F9F4F0E948E15C7
:101D10006093C4047093C5048093C6049093C70471
:101D20000E94F314A70196010E94AB166B5F7F4FD0
:101D30008F4F9F4F0E948E156093C0047093C10413
:101D40008093C2049093C304E8EAF4E014821582FD
:101D500016821782108611861286138614861586BF
:101D600016861786108A118A128A138A148A158A8F
:101D7000168A178AE0E9F4E0148215821682178227
:101D80001086118612861386148615861686178687
:101D9000108A118A128A138A148A158A168A178A57
:101DA000E8E7F4E014821582168217821086118605
:101DB000128613861486158616861786108A118A4F
:101DC000128A138A148A158A168A178A67EB72E0B8
:101DD0008CEC94E0FF90EF90DF90CF900C948F0804
:101DE000CF93DF93CDB7DEB7AD970FB6F894DEBFD4
:101DF0000FBECDBF789484B5826084BD84B5816008
:101E000084BD85B5826085BD85B5816085BD8091C5
:101E10006E00816080936E0010928100809181003D
:101E20008260809381008091810081608093810035
:101E3000809180008160809380008091B1008460F7
:101E40008093B1008091B00081608093B000809158
:101E50007A00846080937A0080917A008260809317
:101E60007A0080917A00816080937A0080917A0074
:101E7000806880937A001092C100E091EB03F091AA
:101E8000EC0382E08083E091E703F091E8031082A5
:101E9000E091E903F091EA038FEC80831092F30361
:101EA000E091EF03F091F00386E08083E091ED0391
:101EB000F091EE03808180618083E091ED03F091E9
:101EC000EE03808188608083E091ED03F091EE0362
:101ED000808180688083E091ED03F091EE03808142
:101EE0008F7D808360E082E00E94310161E085E0C7
:101EF0000E94310160E085E00E94030160E08DE016
:101F00000E94310161E086E00E94310160E086E0DC
:101F10000E94030160E084E00E94310161E089E0F9
:101F20000E94310160E089E00E94030161E087E0E6
:101F30000E94310160E087E00E94030161E083E0DC
:101F40000E94310161E08CE00E94310161E08BE090
:101F50000E94310161E088E00E9431010E94340258
:101F600062E081E10E94310162E082E10E94310180
:101F700062E083E10E94310160E08EE00E94310165
:101F800060E08FE00E94310160E080E10E94310159
:101F90000E94D304A3E06A2E712C08EC10E080911B
:101FA0008403909185030196909385038093840325
:101FB000C0908203D09083034090800350908103AF
:101FC000A601B2010E94900361E070E080E090E021
:101FD0000E9401020150110911F7F8ECEF2EF12CCB
:101FE000009184031091850301501109109385031A
:101FF00000938403A601B201C8010E94900361E02E
:1020000070E080E090E00E94010221E0E21AF10815
:1020100039F7E8ECEE2EF12C60918003709181038A
:102020006F5F7F4F7093810360938003A601C801A7
:102030000E94900361E070E080E090E00E94010265
:1020400081E0E81AF10841F778EC472E512CE09036
:102050008003F090810391E0E91AF108F092810386
:10206000E0928003A601B701C8010E94900361E0DD
:1020700070E080E090E00E940102E1E04E1A510819
:1020800031F768ECC62ED12C409182035091830326
:102090004F5F5F4F5093830340938203B701C801A2
:1020A0000E94900361E070E080E090E00E940102F5
:1020B000F1E0CF1AD10841F758ECC52ED12C409150
:1020C00082035091830341505109509383034093FD
:1020D0008203B701C8010E94900361E070E080E0D4
:1020E00090E00E94010221E0C21AD10841F781E08C
:1020F000681A710809F051CF08EC10E08091840350
:1021000090918503019690938503809384030E94A8
:102110007F0361E070E080E090E00E9401020150E6
:10212000110961F708EC10E0809184039091850318
:10213000019790938503809384030E947F0361E05D
:1021400070E080E090E00E9401020150110961F707
:1021500008EC10E0809180039091810301969093A8
:102160008103809380030E947F0361E070E080E040
:1021700090E00E9401020150110961F708EC10E0A3
:1021800080918003909181030197909381038093C4
:1021900080030E947F0361E070E080E090E00E9495
:1021A00001020150110961F708EC10E080918203EF
:1021B00090918303019690938303809382030E94FE
:1021C0007F0361E070E080E090E00E940102015036
:1021D000110961F708EC10E080918203909183036C
:1021E000019790938303809382030E947F0361E0B1
:1021F00070E080E090E00E9401020150110961F757
:102200004091D0045091D1046091CC047091CD04E0
:102210008BED93E00E9440028CE191E00E947C04EF
:1022200040E2442E43E0542E612C712CBB24B39425
:1022300027E4222E23E0322E3AEA832E33E0932E37
:102240000E9434048EE00E94CA018FE00E94CA01FD
:1022500080E10E94CA016091C8047091C904809114
:10226000CA049091CB040E94E0177BA36AA36091FB
:10227000C4047091C5048091C6049091C7040E9463
:10228000E0177FA36EA36091C0047091C104809198
:10229000C2049091C3040E94E0177BA76AA781E162
:1022A0000E94CA019C01990F440B550B285C31090F
:1022B00041095109AFEFB0E00E94CA16A301920193
:1022C0000E94AB1669012F3F310521F01CF0CC2490
:1022D000CA94D12CD7FE02C0D12CC12CD092970326
:1022E000C092960382E10E94CA019C01990F440B9F
:1022F000550B285C310941095109AFEFB0E00E944C
:10230000CA16A30192010E94AB1679012F3F310535
:1023100021F01CF0EE24EA94F12CF7FE02C0F12C1F
:10232000E12CF0929503E092940383E10E94CA01AC
:102330009C01990F440B550B26593109410951094C
:10234000AFEFB0E00E94CA1622E533E040E050E073
:102350000E94AB1689012F3F310519F014F00FEFE1
:1023600010E017FF02C010E000E010939303009309
:10237000920380919003909191039C012A5031091E
:10238000C216D30624F00A968C159D0574F4B60186
:1023900083E00E946D01D0928703C0928603D092A1
:1023A0009103C0929003B092C10380918E039091EB
:1023B0008F039C012A503109E216F3062CF00A968D
:1023C0008E159F050CF01BC2B7018AE00E946D01BB
:1023D000F0928B03E0928A03F0928F03E0928E03D7
:1023E000B092C0038091A603882331F10E94340289
:1023F0000091A2031091A3032091A4033091A5039F
:10240000601B710B820B930B693E73408105910534
:1024100038F08091C603882309F40FC21092C603D6
:102420000E9434026093A2037093A3038093A403D9
:102430009093A5031092A6038091A103882331F104
:102440000E94340200919D0310919E0320919F03EE
:102450003091A003601B710B820B930B693E73409C
:102460008105910538F08091C403882309F4E8C1FF
:102470001092C4030E94340260939D0370939E03E4
:1024800080939F039093A0031092A10380919C03DB
:10249000882331F10E94340200919803109199032E
:1024A00020919A0330919B03601B710B820B930B5D
:1024B000693E73408105910538F08091C2038823FD
:1024C00009F4C1C11092C2030E94340260939803C0
:1024D0007093990380939A0390939B0310929C03AB
:1024E0000E94B40CF090C6038091A903F81679F10C
:1024F0008DE393E00E947C042F2D30E050E040E01B
:1025000019A28E010F5D1F4FCA01B9012AE030E008
:1025100040E050E00E941417605DF80162938F0163
:10252000211531054105510579F7309719F0CF0193
:102530000E947C048CE191E00E947C04FF2009F45D
:1025400085C10E94EB048091C6038093A90380910A
:10255000C4039091A803891749F0882309F479C12D
:102560000E94C4048091C4038093A8038091C20395
:102570009091A703891749F0882309F46DC10E943F
:10258000A6048091C2038093A7030E9434020E9494
:1025900034026B017C0128EE33E040E050E00E9401
:1025A0001417CA01B90120E13EE040E050E00E946A
:1025B0001417CB016CE370E00E9459179F938F931F
:1025C0007F936F93C701B60120E83EEE46E350E0EB
:1025D0000E9414173F932F933F922F929F928F92B6
:1025E0000E94331A0FB6F894DEBF0FBECDBF8091A4
:1025F000C103882309F433C11092C10386E593E037
:102600000E948904EAA4FBA40CA51DA52EA13FA14C
:1026100048A559A56AA17BA18CA19DA10E94620930
:102620000E944D04882309F4DDC00E943402AB01EE
:10263000BC018091CE039091CF03A091D003B091C3
:10264000D103805F984DAF4FBF4F84179507A60702
:10265000B70708F0C7C00E9434026093CE0370939E
:10266000CF038093D0039093D1030E944D0488231D
:1026700009F4B8C008EC10E00E9434048091CC0347
:102680009091CD0301969093CD038093CC0340911C
:10269000CA035091CB036091C8037091C9030E9493
:1026A00090030E944D04811104C10E94680408EC4B
:1026B00010E00E9434048091CC039091CD030197E7
:1026C0009093CD038093CC034091CA035091CB03E8
:1026D0006091C8037091C9030E9490030E944D0449
:1026E0008111F4C00E94680408EC10E00E943404D8
:1026F0006091C8037091C9036F5F7F4F7093C903E6
:102700006093C8034091CA035091CB038091CC03DE
:102710009091CD030E9490030E944D048111E3C06B
:102720000E94680408EC10E00E9434046091C80321
:102730007091C903615071097093C9036093C80314
:102740004091CA035091CB038091CC039091CD036B
:102750000E9490030E944D048111D2C00E9468041F
:1027600008EC10E00E9434044091CA035091CB035E
:102770004F5F5F4F5093CB034093CA036091C803F0
:102780007091C9038091CC039091CD030E94900376
:102790000E944D048111C1C00E94680408EC10E041
:1027A0000E9434044091CA035091CB034150510917
:1027B0005093CB034093CA036091C8037091C9033F
:1027C0008091CC039091CD030E9490030E944D0410
:1027D0008111B0C00E9468040E944D04811145CF50
:1027E0000E946804E0E0F0E0EF2B09F429CD0E949C
:1027F000DC02882309F41ACD0E94000017CD8091D5
:102800008C0390918D039C012A5031090217130704
:102810002CF00A96801791070CF0E4CDB8018BE0FC
:102820000E946D01109389030093880310938D0318
:1028300000938C03B092BF03D5CDB092C603F0CD08
:10284000B092C40317CEB092C2033ECE0E94D3040E
:102850007ACE0E94B60486CE0E94970492CE8091D2
:10286000C003882319F01092C003C8CE8091BF0323
:1028700081110FC08091C6039091C70398130CC0BB
:102880008091C4039091C503981749F08093C503C4
:10289000B5CE1092BF03B2CE8093C703AFCE809166
:1028A000C2039091C303981709F4BACE8093C3036F
:1028B000A5CE0E94B40C65E070E080E090E00E943C
:1028C00001020150110909F0D7CEF1CE0E94B40CDB
:1028D00065E070E080E090E00E9401020150110983
:1028E00009F0E7CE01CF0E94B40C65E070E080E013
:1028F00090E00E9401020150110909F0F7CE12CFB9
:102900000E94B40C65E070E080E090E00E9401025B
:102910000150110909F008CF23CF0E94B40C65E0E3
:1029200070E080E090E00E9401020150110909F07E
:1029300019CF34CF0E94B40C65E070E080E090E0E5
:102940000E9401020150110909F02ACF45CF8F9250
:102950009F92AF92BF92CF92DF92EF92FF92CF936E
:10296000DF93EC01688179818A819B816115710512
:102970008105910521F464E279ED8BE597E02DE185
:1029800033EF41E050E00E94AB1649015A019B0130
:10299000AC01A7EAB1E40E94CA166B017C01ACEE5F
:1029A000B4EFA50194010E94D816C60ED71EE81EEA
:1029B000F91EF7FE06C081E0C81AD108E10880E8D8
:1029C000F80AC882D982EA82FB82C701B6019F77E2
:1029D000DF91CF91FF90EF90DF90CF90BF90AF90BD
:1029E0009F908F9008958F929F92AF92BF92CF92B7
:1029F000DF92EF92FF92609100017091010180914E
:102A0000020190910301611571058105910521F481
:102A100064E279ED8BE597E02DE133EF41E050E0A2
:102A20000E94AB1649015A019B01AC01A7EAB1E42F
:102A30000E94CA166B017C01ACEEB4EFA5019401B3
:102A40000E94D816C60ED71EE81EF91EF7FE06C055
:102A500081E0C81AD108E10880E8F80AC0920001B4
:102A6000D0920101E0920201F0920301C701B60188
:102A70009F77FF90EF90DF90CF90BF90AF909F90A7
:102A80008F9008956093000170930101809302017B
:102A90009093030108951F93FC0199278827BC0197
:102AA000E89411911032E9F3193010F01E30C8F398
:102AB0001B3251F01D3249F4689406C00E94721511
:102AC000610F711D811D911D119110531A30B0F3CA
:102AD0003EF490958095709561957F4F8F4F9F4FF5
:102AE0001F910895592F482F372F262F660F771FD4
:102AF000881F991F660F771F881F991F620F731F0A
:102B0000841F951F660F771F881F991F08950E94C5
:102B1000C91508F481E00895E89409C097FB3EF4D4
:102B200090958095709561957F4F8F4F9F4F99231A
:102B3000A9F0F92F96E9BB279395F6958795779598
:102B40006795B795F111F8CFFAF4BB0F11F460FF58
:102B50001BC06F5F7F4F8F4F9F4F16C0882311F0B0
:102B600096E911C0772321F09EE8872F762F05C0C4
:102B7000662371F096E8862F70E060E02AF09A955F
:102B8000660F771F881FDAF7880F9695879597F954
:102B90000895990F0008550FAA0BE0E8FEEF1616EE
:102BA0001706E807F907C0F012161306E407F50741
:102BB00098F0621B730B840B950B39F40A2661F0B5
:102BC000232B242B252B21F408950A2609F4A14058
:102BD000A6958FEF811D811D08950E9400160C940B
:102BE00071160E94631638F00E946A1620F0952331
:102BF00011F00C945A160C94601611240C94A5161E
:102C00000E94821670F3959FC1F3950F50E0551FF7
:102C1000629FF001729FBB27F00DB11D639FAA2731
:102C2000F00DB11DAA1F649F6627B00DA11D661F80
:102C3000829F2227B00DA11D621F739FB00DA11DA1
:102C4000621F839FA00D611D221F749F3327A00D5B
:102C5000611D231F849F600D211D822F762F6A2FF7
:102C600011249F5750409AF0F1F088234AF0EE0F5C
:102C7000FF1FBB1F661F771F881F91505040A9F789
:102C80009E3F510580F00C945A160C94A5165F3F98
:102C9000E4F3983ED4F3869577956795B795F795C5
:102CA000E7959F5FC1F7FE2B880F911D969587953D
:102CB00097F9089597F99F6780E870E060E00895BC
:102CC0009FEF80EC089500240A9416161706180644
:102CD0000906089500240A94121613061406050620
:102CE0000895092E0394000C11F4882352F0BB0FB1
:102CF00040F4BF2B11F460FF04C06F5F7F4F8F4F14
:102D00009F4F089557FD9058440F551F59F05F3F4E
:102D100071F04795880F97FB991F61F09F3F79F0FD
:102D200087950895121613061406551FF2CF46957F
:102D3000F1DF08C0161617061806991FF1CF869501
:102D40007105610508940895E894BB2766277727E5
:102D5000CB0197F90895052E97FB1EF400940E946D
:102D6000C21657FD07D00E94141707FC03D04EF47B
:102D70000C94C21650954095309521953F4F4F4F7A
:102D80005F4F089590958095709561957F4F8F4F17
:102D90009F4F08950E943617A59F900DB49F900DE8
:102DA000A49F800D911D11240895B7FF0C94CA169D
:102DB0000E94CA16821B930B08952F923F924F9246
:102DC0005F926F927F928F929F92AF92BF92CF92BB
:102DD000DF92EF92FF920F931F93CF93DF93CDB7C4
:102DE000DEB7CA1BDB0B0FB6F894DEBF0FBECDBF3C
:102DF00009942A88398848885F846E847D848C840D
:102E00009B84AA84B984C884DF80EE80FD800C8115
:102E10001B81AA81B981CE0FD11D0FB6F894DEBFF8
:102E20000FBECDBFED010895A1E21A2EAA1BBB1B58
:102E3000FD010DC0AA1FBB1FEE1FFF1FA217B30786
:102E4000E407F50720F0A21BB30BE40BF50B661F9C
:102E5000771F881F991F1A9469F760957095809560
:102E600090959B01AC01BD01CF010895A29FB001D7
:102E7000B39FC001A39F700D811D1124911DB29FAE
:102E8000700D811D1124911D0895AA1BBB1B51E1DA
:102E900007C0AA1FBB1FA617B70710F0A61BB70BCA
:102EA000881F991F5A95A9F780959095BC01CD016F
:102EB000089597FB072E16F4009407D077FD09D0EC
:102EC0000E94451707FC05D03EF4909581959F4FD1
:102ED0000895709561957F4F0895EE0FFF1F05903F
:102EE000F491E02D09945058BB27AA270E948B1714
:102EF0000C9471160E94631638F00E946A1620F036
:102F000039F49F3F19F426F40C9460160EF4E09502
:102F1000E7FB0C945A16E92F0E94821658F3BA1751
:102F2000620773078407950720F079F4A6F50C94DF
:102F3000A4160EF4E0950B2EBA2FA02D0B01B901AB
:102F400090010C01CA01A0011124FF27591B99F01F
:102F5000593F50F4503E68F11A16F040A22F232F2B
:102F6000342F4427585FF3CF469537952795A7957B
:102F7000F0405395C9F77EF41F16BA0B620B730B22
:102F8000840BBAF09150A1F0FF0FBB1F661F771F93
:102F9000881FC2F70EC0BA0F621F731F841F48F448
:102FA000879577956795B795F7959E3F08F0B0CFD1
:102FB0009395880F08F09927EE0F979587950895B8
:102FC0000E94E7176894B1110C94A51608950E9409
:102FD0008A1688F09F5798F0B92F9927B751B0F00B
:102FE000E1F0660F771F881F991F1AF0BA95C9F78D
:102FF00014C0B13091F00E94A416B1E008950C9471
:10300000A416672F782F8827B85F39F0B93FCCF323
:10301000869577956795B395D9F73EF49095809509
:10302000709561957F4F8F4F9F4F08950E94C915EE
:1030300008F48FEF08950F931F93CF93DF9382309F
:10304000910510F482E090E0E091DA04F091DB0465
:1030500030E020E0B0E0A0E0309799F42115310590
:1030600009F44AC0281B390B24303105D8F58A8170
:103070009B816115710589F1FB0193838283FE01B8
:1030800011C0408151810281138148175907E0F036
:103090004817590799F4109761F012960C931297FC
:1030A00013961C933296CF01DF91CF911F910F9110
:1030B00008950093DA041093DB04F4CF2115310551
:1030C00051F04217530738F0A901DB019A01BD0105
:1030D000DF01F801C1CFEF01F9CF9093DB048093BA
:1030E000DA04CDCFFE01E20FF31F819391932250BA
:1030F000310939832883D7CF2091D8043091D9045E
:10310000232B41F420910601309107013093D9041B
:103110002093D80420910401309105012115310537
:1031200041F42DB73EB74091080150910901241B8D
:10313000350BE091D804F091D904E217F307A0F41D
:103140002E1B3F0B2817390778F0AC014E5F5F4FFD
:103150002417350748F04E0F5F1F5093D904409352
:10316000D804819391939FCFF0E0E0E09CCFCF9380
:10317000DF930097E9F0FC01329713821282A0914D
:10318000DA04B091DB04ED0130E020E01097A1F407
:1031900020813181820F931F2091D8043091D9046E
:1031A0002817390709F061C0F093D904E093D804D7
:1031B000DF91CF910895EA01CE17DF07E8F54A8144
:1031C0005B819E0141155105B1F7E901FB83EA835B
:1031D00049915991C40FD51FEC17FD0761F4808107
:1031E00091810296840F951FE901998388838281DA
:1031F00093819B838A83F0E0E0E012968D919C910D
:1032000013970097B9F52D913C911197CD01029636
:10321000820F931F2091D8043091D90428173907C1
:1032200039F6309751F51092DB041092DA04B0931E
:10323000D904A093D804BCCFD383C28340815181E9
:10324000840F951FC817D90761F44E5F5F4F8881BF
:103250009981480F591F518340838A819B819383B1
:1032600082832115310509F0B0CFF093DB04E093A0
:10327000DA049ECFFD01DC01C0CF13821282D7CFCA
:10328000B0E0A0E0E6E4F9E10C94DF168C010097D1
:1032900051F4CB010E941B188C01C801CDB7DEB7D9
:1032A000E0E10C94FB16FC01E60FF71F9C01225095
:1032B0003109E217F30708F49DC0D901CD91DC91E3
:1032C0001197C617D70798F0C530D10530F3CE0156
:1032D00004978617970708F3C61BD70B2297C1934D
:1032E000D1936D937C93CF010E94B718D6CF5B0129
:1032F000AC1ABD0A4C018C0E9D1EA091DA04B0914F
:10330000DB04512C412CF12CE12C109731F58091EC
:10331000D8049091D9048815990509F05CC0461627
:10332000570608F058C0809104019091050100975C
:1033300041F48DB79EB74091080150910901841B5B
:10334000950BE817F90708F055C0F093D904E093FE
:10335000D804F90171836083A0CF8D919C9111975E
:1033600012966C90129713967C901397A815B90536
:1033700059F56C0142E0C40ED11CCA14DB0420F1E3
:10338000AC014A195B09DA011296159780F0628246
:10339000738251834083D9016D937C93E114F104CE
:1033A00071F0D7011396FC93EE93129776CF229685
:1033B0008C0F9D1FF90191838083F301EFCFF09370
:1033C000DB04E093DA0469CF4816590608F42C01AF
:1033D0007D01D3019ACFCB010E941B187C0100977D
:1033E00049F0AE01B8010E94FD19C8010E94B7184A
:1033F000870153CF10E000E050CFFB01DC0102C099
:1034000001900D9241505040D8F70895FB01DC0126
:103410008D91019080190110D9F3990B0895FB014A
:10342000DC0101900D920020E1F70895FB01DC0121
:103430004150504030F08D910190801919F40020D6
:10344000B9F7881B990B0895FB01DC0141505040EE
:1034500048F001900D920020C9F701C01D92415023
:103460005040E0F70895AEE0B0E0E9E3FAE10C94F3
:10347000EB160D891E8986E08C831A8309838FEFF2
:103480009FE79E838D83AE01475E5F4F6F89788D86
:10349000CE0101960E94561A2F813885020F131F04
:1034A000F80110822E96E4E00C940717ABE0B0E030
:1034B000ECE5FAE10C94DD167C013B018A01FC018C
:1034C00017821682838181FFC8C1CE0101965C01FB
:1034D000F7019381F30193FD859193FF81913F0162
:1034E000882309F453C1853239F493FD859193FF04
:1034F00081913F01853229F4B70190E00E94461C7A
:10350000E7CF912C212C312CFFE1F31538F08B32D1
:1035100011F190F4803209F1833229F137FC3CC07B
:1035200020ED280F2A3050F536FE20C08AE0989E04
:10353000200D1124922E06C08D3291F0803371F748
:10354000689430F8F30193FD859193FF81913F01D9
:103550008111DACF21C0689431F8689432F8F2CF43
:10356000689433F8EFCF689434F8ECCFEAE02E9EFD
:10357000200D1124222E689435F8E4CF8E3229F4E0
:1035800036FC04C1689436F8DDCF8C3619F46894A3
:1035900037F8D8CF8836B1F2982F9F7D9554933065
:1035A000E0F08336A1F18337C1F1833509F063C0C0
:1035B0002801F2E04F0E511CF801C080D180692D26
:1035C00070E036FC02C06FEF7FEFC6010E94301C36
:1035D0004C01689437F882010AC00C5F1F4FFFE36B
:1035E000F98388248394912C6501E89437F833FE9D
:1035F0002DC0522C8114910471F5552009F468CF27
:10360000B70180E290E00E94461C5A94F6CFF80180
:10361000808189830E5F1F4FE4CF2801F2E04F0EB7
:10362000511CF801C080D180692D70E036FC02C0C9
:103630006FEF7FEFC6010E943B1C4C018201D5CF8A
:10364000B70180E290E00E94461C2A9428141904D5
:1036500009F0B0F7CECFF60137FC859137FE8191A6
:103660006F01B70190E00E94461C51105A94F1E09E
:103670008F1A9108BFCF843619F0893609F077C0C8
:10368000F80137FE6BC060817181828193810C5F8C
:103690001F4FF32DFF763F2E97FF09C09095809521
:1036A000709561957F4F8F4F9F4F689437F82AE050
:1036B00030E0A5010E94761CC82ECA188C2C432C21
:1036C00036FE0CC0E89440F8C91440F434FE05C03E
:1036D00032FC03C0F32DFE7E4F2E892C44FE95C094
:1036E000FE01EC0DF11D8081803309F087C0242D8F
:1036F000297E422E842D8870582E43FC95C040FEB2
:103700008FC09C2C821418F42C0C922C981844FE18
:1037100091C0B70180E390E00E94461C42FE09C0C0
:1037200088E790E041FE02C088E590E0B7010E9482
:10373000461CC91408F48AC0CA94D12C9FEFC91A38
:10374000D90ACA0CDB1CF60182916F01B70190E027
:103750000E94461CAC14BD04B1F74FCF608171814B
:10376000072E000C880B990B0E5F1F4F92CFD32CA6
:10377000E894D4F82AE030E0853739F1232D297F09
:10378000D22E8F3601F148F48835A9F0F7018681F1
:1037900097812B96E2E10C94F916803749F088372F
:1037A000A9F7D4FE02C06894D2F820E130E00DC041
:1037B0006894D4F8F6CF34FE03C0822F8660D82EEA
:1037C00020E132E002C028E030E0F801D7FE0FC06F
:1037D00060817181828193810C5F1F4FA5010E94DE
:1037E000761CC82ECA183D2CE89437F867CF608144
:1037F000718190E080E00E5F1F4FF0CF42FC02C06D
:10380000839478CF8394839475CF842D867809F43C
:1038100071CFF6CFB70180E290E00E94461C8394FE
:103820008214C0F3512C73CF522C5818821408F410
:103830006ECFF8CF842D867809F47BCF8BE241FEE2
:1038400080E247FC8DE2B70190E071CFB70180E3E1
:1038500090E00E94461C9A946CCF8FEF9FEF99CF17
:10386000FC010590615070400110D8F7809590954B
:103870008E0F9F1F0895FC01615070400190011050
:10388000D8F7809590958E0F9F1F08950F931F93E3
:10389000CF93DF93182F092FEB018B8181FD09C096
:1038A0001FEF0FEF812F902FDF91CF911F910F917D
:1038B000089582FF14C02E813F818C819D8128173D
:1038C00039073CF4E881F981CF0101969983888317
:1038D00010838E819F8101969F838E83E3CFE8853D
:1038E000F985812F0995892BA1F3DACFFA01AA274F
:1038F000283051F1203181F1E8946F936E7F6E5F33
:103900007F4F8F4F9F4FAF4FB1E03ED0B4E03CD0E0
:10391000670F781F891F9A1FA11D680F791F8A1FC3
:10392000911DA11D6A0F711D811D911DA11D20D02A
:1039300009F468943F912AE0269F11243019305DE4
:103940003193DEF6CF010895462F4770405D4193D5
:10395000B3E00FD0C9F7F6CF462F4F70405D4A3322
:1039600018F0495D31FD4052419302D0A9F7EACFEA
:10397000B4E0A6959795879577956795BA95C9F719
:1039800000976105710508959B01AC010A2E06940C
:103990005795479537952795BA95C9F7620F731FC5
:1039A000841F951FA01D089510E0C6E8D0E004C054
:1039B000FE010E946D172196C738D107C9F7F89408
:0239C000FFCF37
:1039C200010000000000DC0480000000000012037F
:1039D20040026D025F03D0027C02C2020D0A007B2C
:1039E200445241494E5F56414C56453A434C4F531F
:1039F20045447D007B445241494E5F56414C5645F9
:103A02003A4F50454E7D007B46414E3A4F46467DE9
:103A1200007B46414E3A4F4E7D007B534146455412
:103A2200595F56414C56453A434C4F5345447D00ED
:103A32007B50554D503A4F46467D007B534146459B
:103A420054595F56414C56453A4F50454E7D007B86
:103A520050554D503A4F4E7D002F2F22225C5C6212
:103A620008660C6E0A720D7409005C7530303030D5
:103A7200006E756C6C00747275650066616C7365BE
:103A8200006461746100647261696E56616C76658E
:103A920053746174650073616665747956616C76FE
:103AA2006553746174650066616E53746174650078
:103AB20070756D7053746174650066616E537065E4
:103AC20065640070756D7053706565640064726141
:103AD200696E56616C76654C6576656C00666C6FD6
:103AE2007753656E736F723100666C6F7753656ED4
:103AF200736F723200666C6F7753656E736F7233D9
:103B02000072756E74696D650073657269616C4EE1
:103B1200756D62657200504F544100504F5442001F
:103B2200504F544300506F74656E74696F6D6574C5
:103B3200657200636D64323A20002A2A2A2A2A2AF0
:103B42002A2A2A2A2A2A2A2A2A2A2A2A2A00696E7A
:103B520020636F6D6D616E6448616E646C65723A6C
:103B6200200038353733343332333633303335315E
:103B7200333141303532005468652074696D6520F7
:103B820074726176656C696E67206973206A7573F9
:103B92007420746F6F2064616E6765726F75732E27
:103BA20020426574746572207468617420492064CF
:103BB20065766F7465206D7973656C6620746F200D
:103BC200737475647920746865206F7468657220F7
:103BD2006772656174206D797374657279206F669E
:103BE2002074686520756E6976657273653A206324
:103BF2002B2B20706F696E746572732E00436F6D8C
:103C02006D616E643A2000253032643A25303264A8
:103C12003A25303264004368616E676520646574DA
:063C220065637465640097
:00000001FF
