:100000000C9487000C94AF000C94AF000C94AF00DC
:100010000C94AF000C94AF000C94AF000C94AF00A4
:100020000C94AF000C94AF000C94AF000C94410EF4
:100030000C94AF000C94AF000C94AF000C94AF0084
:100040000C949F0D0C94AF000C940F0E0C94E90DC2
:100050000C94AF000C94AF000C94AF000C94AF0064
:100060000C94AF000C94AF00CDCCCC3D0AD7233C10
:1000700017B7D13877CC2B329595E6241FB14F0AAC
:100080000000803FCDCCCC3D6F12833A95BFD63374
:100090007D1D9026B3CE010C000020410000C84217
:1000A00000401C4620BCBE4CCA1B0E5AAEC59D74F7
:1000B00000000000240027002A00000000002500A6
:1000C00028002B0000000000230026002900040463
:1000D00004040404040402020202020203030303F0
:1000E00003030102040810204080010204081020CC
:1000F00001020408102000000008000201000003B3
:1001000004070000000000000000050FFD0E112490
:100110001FBECFEFD8E0DEBFCDBF12E0A0E0B1E060
:10012000EEE6FAE302C005900D92A23AB107D9F7C4
:1001300024E0A2EAB2E001C01D92AA33B207E1F7BF
:1001400010E0C6E8D0E004C02197FE010E94CA1763
:10015000C538D107C9F70E948D0F0C942A1D0C9445
:100160000000833081F028F4813099F08230A9F0CA
:1001700008958730A9F08830C9F08430B1F48091B7
:1001800080008F7D03C0809180008F7780938000F6
:10019000089584B58F7784BD089584B58F7DFBCF96
:1001A0008091B0008F778093B00008958091B00067
:1001B0008F7DF9CFCF93DF93282F30E0F901EA50FC
:1001C000FF4F8491F901EE51FF4FD491F901E253B1
:1001D000FF4FC491CC23A1F081110E94B100EC2FFC
:1001E000F0E0EE0FFF1FEC53FF4FA591B491EC919F
:1001F000ED2381E090E009F480E0DF91CF91089554
:1002000080E090E0FACF1F93CF93DF93282F30E068
:10021000F901EA50FF4F8491F901EE51FF4FD4915B
:10022000F901E253FF4FC491CC23A9F0162F81119D
:100230000E94B100EC2FF0E0EE0FFF1FE654FF4FDD
:10024000A591B4918FB7F894EC91111108C0D09595
:10025000DE23DC938FBFDF91CF911F910895DE2BBA
:10026000F8CFCF93DF9390E0FC01EE51FF4F249144
:1002700082539F4FFC0184918823C9F090E0880F3E
:10028000991FFC01E055FF4FA591B491FC01E65484
:10029000FF4FC591D49161110DC09FB7F8948C9117
:1002A000209582238C938881282328839FBFDF9108
:1002B000CF910895623051F49FB7F8943C91822F0A
:1002C000809583238C93E8812E2BEFCF8FB7F89402
:1002D000EC912E2B2C938FBFEACF1F93CF93DF93FC
:1002E000182FEB0161E00E943101209739F460E0A2
:1002F000812FDF91CF911F910C940301CF3FD10546
:1003000011F461E0F5CFE12FF0E0EA50FF4FE49106
:10031000E33031F140F4E130B1F0E230E1F0C038E7
:10032000D1057CF7E4CFE73029F1E83059F1E4302A
:10033000B1F780918000806280938000D0938B0021
:10034000C0938A0004C084B5806884BDC7BDDF91B6
:10035000CF911F91089584B5806284BDC8BDF7CF49
:1003600080918000806880938000D0938900C09342
:100370008800EDCF8091B00080688093B000C0937A
:10038000B300E5CF8091B00080628093B000C0934D
:10039000B400DDCF8E50806480937C0080917A0021
:1003A000806480937A0080917A0086FDFCCF8091F2
:1003B00078009091790008953FB7F89480913B03BD
:1003C00090913C03A0913D03B0913E0326B5A89BBC
:1003D00005C02F3F19F00196A11DB11D3FBFBA2FD7
:1003E000A92F982F8827BC01CD01620F711D811D97
:1003F000911D42E0660F771F881F991F4A95D1F71C
:1004000008958F929F92AF92BF92CF92DF92EF9218
:10041000FF926B017C010E94DC014B015C01C11465
:10042000D104E104F104B9F00E94DC0168197909F2
:100430008A099B09683E73408105910580F321E09C
:10044000C21AD108E108F10888EE880E83E0981EF0
:10045000A11CB11CE4CFFF90EF90DF90CF90BF9034
:10046000AF909F908F9008952FB7F89460913703C5
:10047000709138038091390390913A032FBF08950A
:10048000AF92BF92CF92DF92EF92FF920F931F93A2
:10049000CF93DF936C017B018B01040F151FEB01E0
:1004A0005E01AE18BF08C017D10759F06991D60197
:1004B000ED91FC910190F081E02DC6010995892B09
:1004C00079F7C501DF91CF911F910F91FF90EF90C8
:1004D000DF90CF90BF90AF900895FC01538D448D75
:1004E000252F30E0842F90E0821B930B541710F0DF
:1004F000CF96089501970895FC01918D828D9817EC
:1005000061F0A28DAE0FBF2FB11D5D968C91928DC3
:100510009F5F9F73928F90E008958FEF9FEF0895F4
:100520000F931F930E943402609347037093480314
:100530008093490390934A038FE393E00E947C02E7
:1005400097FF1DC00E943402009147031091480399
:100550002091490330914A03601B710B820B930B6E
:1005600000914303109144032091450330914603C9
:100570006017710782079307F8F28FEF9FEF1F91C3
:100580000F910895FC01918D828D981731F0828D25
:10059000E80FF11D858D90E008958FEF9FEF08958E
:1005A000FC01918D228D892F90E0805C9F4F821BF2
:1005B00091098F73992708958FE393E00E94D002E9
:1005C00021E0892B09F420E0822F089580E090E05B
:1005D000892B29F00E94DC0281110C9400000895FF
:1005E000FC01A48DA80FB92FB11DA35ABF4F2C91A8
:1005F000848D90E001968F739927848FA689B7899F
:100600002C93A089B1898C91837080648C93938D95
:10061000848D981306C00288F389E02D80818F7D38
:1006200080830895EF92FF920F931F93CF93DF93F0
:10063000EC0181E0888F9B8D8C8D98131AC0E8891E
:10064000F989808185FF15C09FB7F894EE89FF89ED
:100650006083E889F98980818370806480839FBF8B
:1006600081E090E0DF91CF911F910F91FF90EF908B
:100670000895F62E0B8D10E00F5F1F4F0F7311279B
:10068000E02E8C8D8E110CC00FB607FCFACFE889D6
:10069000F989808185FFF5CFCE010E94F002F1CF6C
:1006A000EB8DEC0FFD2FF11DE35AFF4FF0829FB74A
:1006B000F8940B8FEA89FB8980818062CFCFCF933A
:1006C000DF93EC01888D8823B9F0AA89BB89E8897A
:1006D000F9898C9185FD03C0808186FD0DC00FB620
:1006E00007FCF7CF8C9185FFF2CF808185FFEDCF9E
:1006F000CE010E94F002E9CFDF91CF910895CF9211
:10070000DF92EF92FF92CF93DF93EC01603282E0B1
:100710007807CCF5653B710514F064EB70E08981D6
:1007200028E830E0281B310987FD3395220F331F5D
:10073000220F331F6901330FEE08FF088A8128E575
:1007400032E0281B310987FD3395220F331F220F1A
:10075000331F032E000C440B550B2C193D094E0979
:100760005F09DB0177FF02C0B0E0A0E00E9426171E
:1007700024EB30E040E050E00E94FC16C20ED31E95
:10078000E41EF51EB601E881EC3070F5298188E899
:1007900090E0821B910927FD9395880F991F880F80
:1007A000991F681779077CF02A8188E592E0821BFF
:1007B000910927FD9395880F991F880F991F681736
:1007C00079070CF4CB010297880F991F4FB7F89463
:1007D0002E2F30E0F901EE0FFF1FE20FF31FE65559
:1007E000FD4F928381834FBFDF91CF91FF90EF90B8
:1007F000DF90CF9008951F93CF93DF93EC01162FD6
:1008000088818C3008F04EC061E0812F0E94310158
:100810008881282F30E0F901EE0FFF1FE20FF31F50
:10082000E655FD4F1F736081607C612B60831982E8
:100830001A822CE0622F0E949617829FB001112429
:1008400030E020E0AB01420F531FFA01EE0FFF1F13
:10085000E40FF51FE655FD4F908196FD16C02F5F02
:100860003F4F2C30310571F781110FC0109280007D
:1008700082E0809381001092850010928400B19AEA
:1008800080916F00826080936F00E8818E2F90E0EE
:10089000FC01EE0FFF1FE80FF91FE655FD4F8081A9
:1008A000806480838881DF91CF911F910895FC013E
:1008B0009091A9029C3098F481E0890F8093A9025D
:1008C0009083892F90E0FC01EE0FFF1FE80FF91FC6
:1008D000E655FD4F88EB9BE09283818308958FEF6F
:1008E00080830895CF93DF93EC01BC0185E00E94E3
:1008F0006D01BE0186E00E946D01BE0189E0DF91BD
:10090000CF910C946D010F931F93CF93DF938B01C5
:10091000EA01BC0185E00E946D01B80186E00E94F9
:100920006D01BE0189E0DF91CF911F910F910C9471
:100930006D010895FB01309729F0948190789660BD
:10094000948380830895CF93DF93EC01888199810C
:10095000DC01ED91FC910190F081E02D09952A8157
:100960003B81820F931F9B838A83DF91CF910895F0
:10097000CF93DF93EC0188819981DC01ED91FC91AB
:100980000280F381E02D09952A813B81820F931F1C
:100990009B838A83DF91CF9108958F929F92AF922C
:1009A000BF92CF92DF92EF92FF920F931F93CF935C
:1009B000DF93CDB7DEB766970FB6F894DEBF0FBEF4
:1009C000CDBF6C018E01095E1F4F78018AE0882E31
:1009D000912CA12CB12CCB01BA01A50194010E944C
:1009E0006517942F852F605DF80162938F01A9012F
:1009F000692F782F411551056105710561F7A70130
:100A00004E1B5F0BBF01C6010E94B80466960FB66D
:100A1000F894DEBF0FBECDBFDF91CF911F910F9134
:100A2000FF90EF90DF90CF90BF90AF909F908F900E
:100A30000895FC012581222339F0F8E02F0290016E
:100A40001124820F931F089590E080E0089560E0E4
:100A500088E00E9403011092140360E087E00E9486
:100A6000030160E085E00E940301109234030895C1
:100A7000FC0180819181009711F00C940D1908956B
:100A8000FC0101900020E9F73197AF01481B590B99
:100A9000BC018FE393E00C9440028F929F92AF923F
:100AA000BF92CF92DF92EF92FF920F931F93CF935B
:100AB000DF93CDB7DEB7A1970FB6F894DEBF0FBEB8
:100AC000CDBF6C01990FEE08FF08F7FE47C06DE23D
:100AD0008FE393E00E9412038C0122273327A901A0
:100AE0002C193D094E095F0919A2CE0181967C019E
:100AF0009AE0892E912CA12CB12CCA01B901A50133
:100B000094010E946517605DF70162937F012115D2
:100B100031054105510589F790E080E0309719F0E3
:100B2000CF010E944005080F191F8CE191E00E943F
:100B30004005800F911FA1960FB6F894DEBF0FBE3F
:100B4000CDBFDF91CF911F910F91FF90EF90DF907C
:100B5000CF90BF90AF909F908F900895A70196017E
:100B600019A28E010F5D1F4F8AE0C82ED12CE12CF7
:100B7000F12CCA01B901A70196010E946517605DB9
:100B8000F80162938F01211531054105510589F75F
:100B9000309729F0CF010E9440058C01C6CF10E0AC
:100BA00000E0C3CF1F93CF93DF93182FEB016BE0CF
:100BB00070E08CED93E00E94FB03BE01123469F0FB
:100BC000133499F083E00E946D01D093A702C09383
:100BD000A602DF91CF911F9108958AE00E946D01D6
:100BE000D093A502C093A402F4CF8CED93E00E94B1
:100BF0007F03CE010E944D05D093A302C093A202B1
:100C0000E8CFFB0101900020E9F73197AF01461BC7
:100C1000570B0C94B8041F93CF93DF93EFE1F1E0EF
:100C20001281112379F0329621816213F9CFEC0100
:100C30006CE50E94A304612FCE01DF91CF911F913B
:100C40000C94A3046111F9CF60E371E0DF91CF91BF
:100C50001F910C9401062F923F924F925F926F92D8
:100C60007F928F929F92AF92BF92CF92DF92EF923C
:100C7000FF920F931F93CF93DF93CDB7DEB76C979F
:100C80000FB6F894DEBF0FBECDBF7C018B01DC0137
:100C900014968C9114978F77863009F464C2B0F45F
:100CA0008230E8F01296CD90DC901397AC901196BC
:100CB000BC90843008F026C2A601B501C8010E948C
:100CC000B804D80112968D919C9103C28C3069F1C1
:100CD00060F4883009F441C28A3009F426C267E31F
:100CE00071E0C8010E940106E7C1803209F4EDC13C
:100CF0008034A9F76BE5C8010E94A304D701ED90E9
:100D0000FC90E114F10409F4DBC1B801C7010E94B1
:100D10002B06C7010E9419057C01892B09F4D0C15B
:100D20006CE2C8010E94A304ECCFF701C080D1801F
:100D3000E280F380A7019601C701B6010E94D81591
:100D40008111CDCF20E030E0A901C701B6010E949A
:100D5000D815882379F0A7019601C701B6010E9432
:100D6000D1179B01AC01C701B6010E94D815882399
:100D700009F4B5CF20E030E0A901C701B6010E9417
:100D8000D81587FF08C06DE2C8010E94A304F7FAD6
:100D9000F094F7F8F09420E836E948E15BE4C70105
:100DA000B6010E946C1887FD7CC074E1872E912CDF
:100DB000E0E2AE2EB12C712C612CF401E856FF4F0D
:100DC0002591359145915491C701B6010E946C1847
:100DD00087FD0FC0F401E859FF4F259135914591EA
:100DE0005491C701B6010E943E166B017C016A0C4A
:100DF0007B1CB594A794F4E08F1A91082CEF82160F
:100E00002FEF9206D1F63FEF3F8B20E030E0A901B3
:100E1000C701B6010E946C1818160CF04AC02CEAE3
:100E200035EC47E257E3C701B6010E94D815181602
:100E30000CF43FC0AF89B4E0AB02C0011124912C87
:100E4000812CFC01E058FF4F1F019C0128563F4FA9
:100E500029013F893F3F69F1F101E80DF91D259115
:100E6000359145915491C701B6010E94D81587FF6D
:100E70000FC0F201E80DF91D25913591459154916E
:100E8000C701B6010E943E166B017C016A187B08FF
:100E9000B594A7948F8981508F8B94E0891A91081B
:100EA000D8CF50E2A52EB12C85E08F8B712C612C10
:100EB000ACCFC701B6010E943D184B015C011B017C
:100EC0002C01A6E0AC8F80E492E4AFE0B0E0888F24
:100ED000998FAA8FBB8F9C8D9F8BA92FA150AC8F10
:100EE000BAE02B16310441045104C8F0688D798DA5
:100EF0008A8D9B8D2AE030E040E050E00E9465172B
:100F0000288F398F4A8F5B8FC201B1012AE030E010
:100F100040E050E00E94651719012A01DCCFC501AD
:100F2000B4010E94DD159B01AC01C701B6010E940E
:100F3000D0176B017C01688D798D8A8D9B8D0E9405
:100F4000DD159B01AC01C701B6010E943E161B01D5
:100F50002C010E943D186B017C010E94DD159B0154
:100F6000AC01C201B1010E94D0179B01AC010E94EB
:100F7000D1170E943D18C60ED71EE81EF91E888D97
:100F8000998DAA8DBB8DC816D906EA06FB06C0F05E
:100F90009FEF891A990AA90AB90A6114710439F1F3
:100FA000AAE08A169104A104B10408F1BFEF6B1AFC
:100FB0007B0AC12CD12C7601812C912C5401839475
:100FC0002AE0222E312C412C512CC701B601A2015E
:100FD00091010E946517672B682B692B61F4EF89DB
:100FE0001E164CF469017A01E150EF8BEECFC12C53
:100FF000D12C7601E5CFB501A401C8010E94CD0432
:10100000FF89FF2391F14E0121E1820E911CF88F9F
:1010100054019AE0292E312C412C512C388D31501D
:10102000388F3F3F69F0C701B601A20191010E94CC
:101030006517605DD4016E934D0169017A01EECFB1
:10104000BF898B2F90E0BC0160957095F501E81B7E
:10105000F90B31978EE2808344275527461B570BA7
:101060006A0D7B1DC8010E94B8046114710421F14E
:1010700065E6C8010E94A304730177FE07C06DE214
:10108000C8010E94A304F194E194F108FE0177964F
:101090009F018AE0C82ED12CC701B6010E94A21779
:1010A000805D82937B01672BB9F7A9014E1B5F0B13
:1010B000BF01C8010E94B804F8018281938109C070
:1010C0006DE5C8010E94A304F7CFB701C8010E94D3
:1010D000BF086C960FB6F894DEBF0FBECDBFDF9190
:1010E000CF911F910F91FF90EF90DF90CF90BF9025
:1010F000AF909F908F907F906F905F904F903F90B8
:101100002F90089562E2C8010E94A3047501CE0CDD
:10111000DF1CCE14DF0439F0D7016D917D01C801C9
:101120000E940B06F6CF62E2CCCFF701C080D180DF
:10113000E280F380B701A601F7FE0BC06DE2C801A3
:101140000E94A30444275527BA014C195D096E0972
:101150007F09C8010E94CD04B4CDF70140815181BF
:1011600062817381F6CFF70180816CE371E08111B8
:1011700002C061E471E0C8010E940106A2CDCF92D5
:10118000DF92EF92FF920F931F93CF93DF93EC01C7
:101190008B016BE70E94A304F80100811181011506
:1011A000110541F1F801C680D78062E2CE010E94AC
:1011B000A3047601F70161917F01662321F0CE013E
:1011C0000E940B06F7CF62E2CE010E94A3046AE3FD
:1011D000CE010E94A304BE01C8010E942B06C801D3
:1011E0000E9419058C01892B29F06CE2CE010E9426
:1011F000A304D5CF6DE7CE010E94A3048A819B8111
:10120000DF91CF911F910F91FF90EF90DF90CF90E2
:101210000895FC01A081B181109749F0FD01019072
:101220000020E9F73197CF018A1B9B0B089590E0CE
:1012300080E00895FB01DC018D919C91009761F0A5
:10124000608171816115710539F0448155810E9479
:101250006C1A21E0892B09F020E0822F08950F936A
:101260001F93CF93DF93EC0188819981009759F008
:101270002A813B812617370730F081E0DF91CF913B
:101280001F910F9108958B016F5F7F4F0E949619F8
:10129000009759F0998388831B830A832C813D81B1
:1012A000232B59F7FC011082E8CF80E0E7CFEF92C3
:1012B000FF920F931F93CF93DF93EC017B018A0181
:1012C000BA010E942F0928813981811114C021158A
:1012D000310519F0C9010E940D19198218821D8269
:1012E0001C821B821A82CE01DF91CF911F910F9138
:1012F000FF90EF9008951D830C83B701C9010E94F0
:10130000651AF1CFFC0111821082138212821582BC
:101310001482FB0101900020E9F73197AF01461BD1
:10132000570B0C945709AF92BF92CF92DF92EF9276
:10133000FF920F931F93CF93DF93EC017B016A0120
:1013400084E0A82EB12C4430510520F45A0194E0D9
:10135000C92ED12C6FE271E0CE010E948209D70123
:1013600014960D911C91A016B10628F5C016D10651
:1013700008F48601D701ED91FC911197E00FF11F60
:10138000D08010826D917C916A0D7B1D6115710575
:10139000F1F0FB0101900020E9F73197AF01461B06
:1013A000570BCE010E945709F70180819181080FE8
:1013B000191FD801DC92CE01DF91CF911F910F91BF
:1013C000FF90EF90DF90CF90BF90AF90089588810D
:1013D0009981009711F00E940D19198218821D82BF
:1013E0001C821B821A82E0CFCF92DF92EF92FF9293
:1013F0000F931F93CF93DF93009759F480E090E011
:10140000DF91CF911F910F91FF90EF90DF90CF90E0
:1014100008956115710591F38A017B01EC01C88083
:10142000D980C114D10489F1D60116966D917C91B1
:10143000C7010E945C1A892B31F1C6010E9419056F
:101440006C01EFCF3897D8011596FC93EE93149763
:101450003097A1F2AA81BB81109791F0CF018A1B2E
:101460009B0B23E0959587952A95E1F715968C932C
:10147000FB83EA8315821482F782E682CF01C0CF14
:10148000F983E883F5CFC601BBCFD8011496ED915F
:10149000FC91159712968D919C910896E817F90783
:1014A00088F681E0F8018087A9CF2F923F924F9272
:1014B0005F926F927F928F929F92AF92BF92CF92E4
:1014C000DF92EF92FF920F931F93CF93DF93CDB7ED
:1014D000DEB7C051D2400FB6F894DEBF0FBECDBF0D
:1014E0002B014901C35FDD4FE882F9820A831B8328
:1014F000CD50D240CE010F969A8389839C838B83F3
:101500001E012DEF221A320A3E822D8238862F824A
:10151000198680E28E871B861A861D861C86AE0180
:101520004F5F5F4F67E471E0CE010A960E94F409B5
:101530008C01009749F0FC0184818078806284836B
:101540001182108213821282AE014F5F5F4F6CE4F2
:1015500071E0C8010E94F409BC01809130030E942F
:101560009A04AE014F5F5F4F6CE571E0C8010E94C5
:10157000F409BC01809114030E949A04AE014F5FEC
:101580005F4F6DE671E0C8010E94F409BC018091D3
:1015900032030E949A04AE014F5F5F4F66E771E02D
:1015A000C8010E94F409BC01809134030E949A048E
:1015B000AE014F5F5F4F60E871E0C8010E94F4091F
:1015C000FC01892B81F02091A4023091A502948125
:1015D00090789A609483C901330FAA0BBB0B808368
:1015E0009183A283B383AE014F5F5F4F69E871E0DF
:1015F000C8010E94F409FC01892B81F02091A60208
:101600003091A702948190789A609483C901330F36
:10161000AA0BBB0B80839183A283B383AE014F5F80
:101620005F4F63E971E0C8010E94F409FC01892B56
:1016300081F02091A2023091A302948190789A6067
:101640009483C901330FAA0BBB0B80839183A283C0
:10165000B383AE014F5F5F4F63EA71E0C8010E9440
:10166000F4097C01009781F0FC01848180788C6012
:101670008483B201550C880B990B0E94DF15F7018A
:101680006083718382839383AE014F5F5F4F6FEA04
:1016900071E0C8010E94F4093C01009781F0FC014F
:1016A000848180788C608483B401990C880B990BB9
:1016B0000E94DF15F3016083718382839383AE01FF
:1016C0004F5F5F4F6BEB71E0C8010E94F4095C0152
:1016D0000097B1F0FC01848180788C608483C35FC3
:1016E000DD4F28813981CD50D240B901330F880BAD
:1016F000990B0E94DF15F5016083718382839383C8
:10170000AE014F5F5F4F67EC71E0C8010E94F409C2
:101710006C01892B09F44FC088E193E0C55FDD4F70
:1017200099838883CB50D240C75FDD4F99838883EC
:10173000C950D240CE01875F9D4F0E9409094C01DC
:10174000A980BA80EB80FC8088E1482E83E0582E87
:101750009401285E3C4F3901F501E80DF91DEE15A5
:10176000FF0508F468C0CE01875F9D4F0E940909FC
:101770009C012F5F3F4F2E0D3F1D4D815E81421713
:10178000530708F07FC081E08987F12CE12CCE015E
:10179000855F9D4F0E940909AC0130E020E0E11413
:1017A000F10411F029E934E0F60194819078232BBB
:1017B00009F07FC09483AE014F5F5F4F6FEC71E023
:1017C000C8010E94F409DC01892B71F0A09030045B
:1017D000B0903104A114B10409F072C014968C9138
:1017E0001497807814968C938FE393E0F1019183A2
:1017F000808313821282BE01665F7F4FC1010E9407
:10180000BF08C05FDD4F0FB6F894DEBF0FBECDBF7F
:10181000DF91CF911F910F91FF90EF90DF90CF90CC
:10182000BF90AF909F908F907F906F905F904F9000
:101830003F902F9008958081811118C0C95FDD4FBE
:1018400059824882C750D240CE01895F9D4F0E9485
:1018500009098816990651F4D501E8E1F3E06E16FE
:101860007F0651F09D9181919817C9F3F5018191FF
:101870005F018111FBCF70CFA114B10409F473CFC4
:10188000750185CF3C832B83E114F10409F47FCFEC
:10189000E8E1F3E0D701AC01485E5C4FE417F507DF
:1018A00019F021912D93FACF8E0D9F1DFC0110820E
:1018B0006ECF95609483F182E082538342837BCF25
:1018C000209134043091350489819A814B815C8167
:1018D0007501E20EF31EBC01620F731F64177507DA
:1018E000C8F4FB01608161110DC0B5018C016E155A
:1018F0007F0571F0FB01C190BF01F801D1908F010C
:10190000CD14A9F3FC016191CF016111FBCFE3CFAD
:10191000009781F5C9010196840F951F6D817E8125
:101920006817790778F481E0898790E080E070E0BB
:1019300060E014964C9114974078672BF1F414965C
:101940004C9352CF9C838B834115510571F3CA018F
:101950008501020F131F0A151B0539F0F50161916E
:101960005F01FC016193CF01F6CFFA01E20FF31F93
:101970001082CA0169E974E0DCCF456014964C938B
:10198000149711969C938E9313963C932E931297D3
:101990002BCFCF92DF92EF92FF920F931F93CF93B3
:1019A000DF9300D000D000D0CDB7DEB78C016CED56
:1019B00071E0CE0101960E948209F80124813581EF
:1019C0008D819E81F12C2817390738F0BE016F5F99
:1019D0007F4FC8010E941A09F82ECE0101960E947D
:1019E0003805FF2089F1F80144815581B801CE0105
:1019F00001960E94930989819A81C12CD12C76018C
:101A0000009719F00E949C156B01CE0101960E946F
:101A10003805C60101978F3F910538F481E0809326
:101A20002F03B60181E40E94D20526960FB6F894E2
:101A3000DEBF0FBECDBFDF91CF911F910F91FF9001
:101A4000EF90DF90CF90089561EE71E0CE010196A6
:101A50000E948209F801248135818D819E81281799
:101A6000390738F0BE016F5F7F4FC8010E941A0925
:101A7000F82ECE0101960E943805FF2011F1F801E1
:101A800044815581B801CE0101960E949309898154
:101A90009A81C12CD12C7601009719F00E949C15D7
:101AA0006B01CE0101960E943805C60101978F3F58
:101AB000910508F0BACF81E080932E03B60182E44D
:101AC000B2CF66EE71E0CE0101960E948209F80164
:101AD000248135818D819E812817390738F0BE0118
:101AE0006F5F7F4FC8010E941A09F82ECE01019640
:101AF0000E943805FF2009F498CFF80144815581F0
:101B0000B801CE0101960E94930989819A81C12C66
:101B1000D12C7601009719F00E949C156B01CE0123
:101B200001960E943805C60101978F3F910508F084
:101B30007CCF81E080932D03B60183E474CF1F92A4
:101B40000F920FB60F9211242F933F938F939F9371
:101B5000AF93BF938091370390913803A0913903DD
:101B6000B0913A033091360323E0230F2D3758F517
:101B70000196A11DB11D20933603809337039093E6
:101B80003803A0933903B0933A0380913B039091BB
:101B90003C03A0913D03B0913E030196A11DB11DF0
:101BA00080933B0390933C03A0933D03B0933E038B
:101BB000BF91AF919F918F913F912F910F900FBE49
:101BC0000F901F90189526E8230F0296A11DB11DB6
:101BD000D2CF1F920F920FB60F9211242F933F93E3
:101BE0004F935F936F937F938F939F93AF93BF9325
:101BF000EF93FF938FE393E00E94F002FF91EF9148
:101C0000BF91AF919F918F917F916F915F914F9114
:101C10003F912F910F900FBE0F901F9018951F921C
:101C20000F920FB60F9211242F938F939F93EF93E0
:101C3000FF93E0914F03F09150038081E0915503B1
:101C4000F091560382FD1BC09081809158038F5FF5
:101C50008F7320915903821741F0E0915803F0E00F
:101C6000E15CFC4F958F80935803FF91EF919F911A
:101C70008F912F910F900FBE0F901F90189580811C
:101C8000F4CF1F920F920FB60F9211242F933F9310
:101C90004F935F936F937F938F939F93AF93BF9374
:101CA000CF93DF93EF93FF938091A802C091A90295
:101CB000D0E087FF24C010928500109284008091AC
:101CC000A8028F5F8093A8028091A802082E000CC2
:101CD000990B8C179D0724F48091A8028C30C4F1D5
:101CE0008091840090918500049680349C4908F48A
:101CF0007AC08091840090918500049676C080918E
:101D0000A802082E000C990B8C179D07C4F6E091D1
:101D1000A8028E2FEE0F990BFC01EE0FFF1FE80FAC
:101D2000F91FE655FD4F808186FFC9CFE091A802DB
:101D30008E2FEE0F990BFC01EE0FFF1FE80FF91F1E
:101D4000E655FD4F808160E08F730E940301B7CF9D
:101D50002091840030918500E091A8028E2FEE0F33
:101D6000990BFC01EE0FFF1FE80FF91FE655FD4F21
:101D700081819281820F931F9093890080938800C4
:101D8000E091A8028E2FEE0F990BFC01EE0FFF1FC2
:101D9000E80FF91FE655FD4F808186FF11C0E091E5
:101DA000A8028E2FEE0F990BFC01EE0FFF1FE80F1C
:101DB000F91FE655FD4F808161E08F730E9403019A
:101DC000FF91EF91DF91CF91BF91AF919F918F9153
:101DD0007F916F915F914F913F912F910F900FBE27
:101DE0000F901F90189580E49CE990938900809350
:101DF00088008FEF8093A802E3CF8AE294E00E94EC
:101E0000380580E394E00C943805EFE3F3E01382A7
:101E1000128288EE93E0A0E0B0E084839583A683ED
:101E2000B7838EE091E09183808385EC90E0958785
:101E3000848784EC90E09787868780EC90E0918B94
:101E4000808B81EC90E0938B828B82EC90E0958B81
:101E5000848B86EC90E0978B868B118E128E138E7E
:101E6000148E8CED93E00E9457046BEE71E080E3DA
:101E700094E00E9482090E9444150E9444150E9429
:101E80004415EFE0F4E01482158216821782108662
:101E90001186128613861486158616861786108A72
:101EA000118A128A138A148A158A168A178AE7EF0A
:101EB000F3E014821582168217821086118612862C
:101EC00013861486158616861786108A118A128A3A
:101ED000138A148A158A168A178AEFEDF3E01482A2
:101EE0001582168217821086118612861386148632
:101EF000158616861786108A118A128A138A148A02
:101F0000158A168A178A60E072E08AE294E00E94DD
:101F1000820987E294E00C945704CF93DF93CDB706
:101F2000DEB768970FB6F894DEBF0FBECDBF7894CA
:101F300084B5826084BD84B5816084BD85B58260CE
:101F400085BD85B5816085BD80916E00816080937F
:101F50006E001092810080918100826080938100E8
:101F600080918100816080938100809180008160F8
:101F7000809380008091B10084608093B100809153
:101F8000B00081608093B00080917A00846080937B
:101F90007A0080917A00826080937A0080917A0042
:101FA000816080937A0080917A00806880937A00C3
:101FB0001092C100E0914F03F091500382E08083C2
:101FC000E0914B03F0914C031082E0914D03F091AE
:101FD0004E0380E1808310925703E0915303F09108
:101FE000540386E08083E0915103F0915203808195
:101FF00080618083E0915103F09152038081886079
:102000008083E0915103F091520380818068808346
:10201000E0915103F091520380818F7D808360E0D5
:1020200082E00E94310161E085E00E94310160E0C0
:1020300085E00E94030160E08DE00E94310161E0D3
:1020400086E00E94310160E086E00E94030160E0CA
:1020500084E00E94310161E089E00E94310160E08A
:1020600089E00E94030161E087E00E94310160E0A5
:1020700087E00E94030161E083E00E94310161E09A
:102080008CE00E94310161E08BE00E94310161E04F
:1020900088E00E9431010E94340262E081E10E94E6
:1020A000310162E082E10E94310162E083E10E943D
:1020B000310160E08EE00E94310160E08FE00E941B
:1020C000310160E080E10E9431016BE070E087E265
:1020D00094E00E94FB036AE570E087E294E00E94CE
:1020E0007F030E942705E3E0AE2EB12C08EC10E040
:1020F0008091D2029091D30201969093D302809363
:10210000D202C090D002D090D1028090CE029090A6
:10211000CF02A601B4010E94830461E070E080E078
:1021200090E00E9401020150110911F778ECE72EAE
:10213000F12C0091D2021091D30201501109109399
:10214000D3020093D202A601B401C8010E94830405
:1021500061E070E080E090E00E94010221E0E21A7C
:10216000F10839F768ECE62EF12C6091CE027091FF
:10217000CF026F5F7F4F7093CF026093CE02A601B4
:10218000C8010E94830461E070E080E090E00E945A
:10219000010281E0E81AF10841F758EC852E912CF4
:1021A000E090CE02F090CF0291E0E91AF108F092AF
:1021B000CF02E092CE02A601B701C8010E948304BB
:1021C00061E070E080E090E00E940102E1E08E1AA0
:1021D000910831F748ECC42ED12C4091D002509197
:1021E000D1024F5F5F4F5093D1024093D002B701AD
:1021F000C8010E94830461E070E080E090E00E94EA
:102200000102F1E0CF1AD10841F738ECC32ED12CEE
:102210004091D0025091D102415051095093D102C6
:102220004093D002B701C8010E94830461E070E0CE
:1022300080E090E00E94010221E0C21AD10841F73B
:1022400081E0A81AB10809F051CF08EC10E08091A4
:10225000D2029091D30201969093D3028093D2023E
:102260000E94720461E070E080E090E00E94010250
:102270000150110961F708EC10E08091D2029091B1
:10228000D30201979093D3028093D2020E947204EA
:1022900061E070E080E090E00E94010201501109CD
:1022A00061F708EC10E08091CE029091CF02019688
:1022B0009093CF028093CE020E94720461E070E09E
:1022C00080E090E00E9401020150110961F708ECE2
:1022D00010E08091CE029091CF0201979093CF02AF
:1022E0008093CE020E94720461E070E080E090E092
:1022F0000E9401020150110961F708EC10E0809181
:10230000D0029091D10201969093D1028093D00295
:102310000E94720461E070E080E090E00E9401029F
:102320000150110961F708EC10E08091D002909102
:10233000D10201979093D1028093D0020E9472043F
:1023400061E070E080E090E00E940102015011091C
:1023500061F70E94340290E2892E93E0992EA12C1D
:10236000B12C20E8422E2EEE522E26E3622E712C46
:1023700083E9282E82E0382E82E00E94DA0001975D
:1023800019F481E08093FA028DE00E94DA0001974F
:1023900019F481E08093F50284E00E94DA0001974D
:1023A00019F481E08093F0028EE00E94CA016C0172
:1023B000BC01990F880B990B0E94DF156093DC021A
:1023C0007093DD028093DE029093DF028FE00E9423
:1023D000CA017C01BC01990F880B990B0E94DF1583
:1023E0006093D8027093D9028093DA029093DB0253
:1023F00080E10E94CA018C01BC01990F880B990BE6
:102400000E94DF156093D4027093D5028093D602A8
:102410009093D702DE86CD86FA8AE98A1E8B0D8BD1
:1024200081E10E94CA019C01990F440B550B285C65
:10243000310941095109AFEFB0E00E941B17A50116
:1024400094010E94FC1689012F3F310519F014F008
:102450000FEF10E017FF02C010E000E01093EB0256
:102460000093EA0282E10E94CA019C01990F440B89
:10247000550B285C310941095109AFEFB0E00E94CA
:102480001B17A50194010E94FC162F3F310519F07E
:1024900014F02FEF30E037FF02C030E020E030933F
:1024A000E9022093E80283E10E94CA019C01990F8E
:1024B000440B550B2F50310941095109AAE5B0E0F1
:1024C0000E941B1720EF33E040E050E00E94FC1612
:1024D0003093E7022093E6028091E4029091E502B6
:1024E0009C012A5031090217130724F00A9680171D
:1024F00091077CF4B80181E40E94D2058091EA0240
:102500009091EB029093E5028093E40281E0809346
:102510002F038091E2029091E3026091E8027091B2
:10252000E9029C012A5031096217730724F00A96C8
:102530008617970774F482E40E94D2058091E8021E
:102540009091E9029093E3028093E20281E080930C
:102550002E038091E0029091E1026091E602709179
:10256000E7029C012A5031096217730724F00A968A
:1025700086179707A4F483E40E94D2058091E602AF
:102580009091E7029093E1028093E00221E0209392
:102590002D030E944D0586E892E00E94400580913F
:1025A000FA02882331F10E9434020091F602109160
:1025B000F7022091F8023091F902601B710B820B37
:1025C000930B693572408105910538F08091340391
:1025D000882309F492C0109234030E94340260935D
:1025E000F6027093F7028093F8029093F90210922A
:1025F000FA028091F502882331F10E9434020091A1
:10260000F1021091F2022091F3023091F402601B6A
:10261000710B820B930B693572408105910538F07F
:1026200080913203882309F46CC0109232030E9417
:1026300034026093F1027093F2028093F30290935C
:10264000F4021092F5028091F002882331F10E9489
:1026500034020091EC021091ED022091EE023091D3
:10266000EF02601B710B820B930B69357240810581
:10267000910538F080913003882309F446C0109208
:1026800030030E9434026093EC027093ED02809359
:10269000EE029093EF021092F0028FE393E00E941B
:1026A000D002181619060CF062C06FE271E0CE017C
:1026B00007960E9482090E9490020B851C8597FD57
:1026C00028C08A30910529F189831A820F5F1F4F34
:1026D000B801CE0107960E942F09882361F32F814C
:1026E00038858B859C85BE016F5F7F4F820F931F5E
:1026F0000E94651A1C870B87DECF81E0809334032C
:102700006CCF81E08093320392CF81E080933003DD
:10271000B8CF0115110509F0DBC01092FB02EBEFF9
:10272000F2E001900020E9F7CF018C5F9240029720
:1027300008F4DFC01A8219821C821B821E821D824D
:102740006F8178856115710531F04B855C85CE010F
:1027500001960E945709CE0101960E94C90CCE0134
:1027600001960E943805CE0107960E943805809197
:102770003403909117038917C1F0882309F4EEC040
:1027800061E088E00E94030111E01093140361E00E
:1027900087E00E94030161E085E00E94030110933D
:1027A0003403809134038093170310913203809196
:1027B0001603181769F0112309F4D3C061E08CE007
:1027C0000E94030161E086E00E940301109316035A
:1027D00080913003909115038917F1F0882309F453
:1027E000C6C0CE0101960E9457046BE070E0CE0196
:1027F00001960E94FB0364E070E0CE0101960E9406
:102800007F0361E089E00E94030181E0809330034F
:1028100080913003809315030E9434020E94340299
:102820006B017C0128EE33E040E050E00E94651728
:10283000CA01B90120E13EE040E050E00E94651786
:10284000CB016CE370E00E94B6179F938F937F9348
:102850006F93C701B601A30192010E9465173F93D0
:102860002F933F922F9288E193E09F938F930E9442
:10287000891A0FB6F894DEBF0FBECDBF80912F032B
:10288000882309F48BC010922F03ED88FE880F89EE
:10289000188D29893A894B895C896D857E858F855C
:1028A00098890E94550A8DE191E00E9440058CE1D3
:1028B00091E00E94400580E090E0892B09F45CCD16
:1028C0000E94DC02882309F453CD0E94000050CD01
:1028D0000831110510F008E110E06F817885A8013A
:1028E0008BEF92E00E947A1AF801E550FD4F1082BA
:1028F00016CF8AE892E00E9440058BEF92E00E949A
:1029000040058BEF92E00E9440058CE191E00E942F
:1029100040058091FB028334B1F044F4813479F0B6
:10292000823409F020CF109234031DCF853491F00A
:1029300074F0863409F017CF1092300314CF81E081
:102940008093340310CF81E0809332030CCF109238
:10295000320309CF81E08093300305CF0E94270521
:1029600020CF60E08CE00E94030160E02CCFCE011C
:1029700001960E9457046BE070E0CE0101960E9420
:10298000FB036AE570E0CE0101960E947F0360E0E0
:1029900089E00E940301109230033ACF80912E0308
:1029A000882319F010922E0370CF80912D0381118E
:1029B0000FC0809134039091350398130CC080911F
:1029C000320390913303981749F0809333035DCF1E
:1029D00010922D035ACF8093350357CF8091300347
:1029E00090913103981709F466CF809331034DCF4E
:1029F0008F929F92AF92BF92CF92DF92EF92FF920F
:102A0000CF93DF93EC01688179818A819B81611585
:102A100071058105910521F464E279ED8BE597E07C
:102A20002DE133EF41E050E00E94FC1649015A01CC
:102A30009B01AC01A7EAB1E40E941B176B017C016A
:102A4000ACEEB4EFA50194010E942917C60ED71E63
:102A5000E81EF91EF7FE06C081E0C81AD108E10899
:102A600080E8F80AC882D982EA82FB82C701B601EF
:102A70009F77DF91CF91FF90EF90DF90CF90BF9045
:102A8000AF909F908F9008958F929F92AF92BF9238
:102A9000CF92DF92EF92FF9260910001709101015D
:102AA00080910201909103016115710581059105E5
:102AB00021F464E279ED8BE597E02DE133EF41E01D
:102AC00050E00E94FC1649015A019B01AC01A7EAA3
:102AD000B1E40E941B176B017C01ACEEB4EFA501C1
:102AE00094010E942917C60ED71EE81EF91EF7FE94
:102AF00006C081E0C81AD108E10880E8F80AC0924F
:102B00000001D0920101E0920201F0920301C7019D
:102B1000B6019F77FF90EF90DF90CF90BF90AF907E
:102B20009F908F90089560930001709301018093AE
:102B300002019093030108951F93FC0199278827B0
:102B4000BC01E89411911032E9F3193010F01E30F5
:102B5000C8F31B3251F01D3249F4689406C00E943C
:102B6000C315610F711D811D911D119110531A30F4
:102B7000B0F33EF490958095709561957F4F8F4F9F
:102B80009F4F1F910895592F482F372F262F660FDB
:102B9000771F881F991F660F771F881F991F620F65
:102BA000731F841F951F660F771F881F991F089535
:102BB0000E941A1608F481E00895E89409C097FB72
:102BC0003EF490958095709561957F4F8F4F9F4F04
:102BD0009923A9F0F92F96E9BB279395F695879548
:102BE00077956795B795F111F8CFFAF4BB0F11F40B
:102BF00060FF1BC06F5F7F4F8F4F9F4F16C08823B2
:102C000011F096E911C0772321F09EE8872F762FE7
:102C100005C0662371F096E8862F70E060E02AF028
:102C20009A95660F771F881FDAF7880F9695879514
:102C300097F90895990F0008550FAA0BE0E8FEEFE9
:102C400016161706E807F907C0F012161306E40770
:102C5000F50798F0621B730B840B950B39F40A2669
:102C600061F0232B242B252B21F408950A2609F447
:102C7000A140A6958FEF811D811D08950E945116D8
:102C80000C94C2160E94B41638F00E94BB1620F0B5
:102C9000952311F00C94AB160C94B11611240C94DE
:102CA000F6160E94D31670F3959FC1F3950F50E06E
:102CB000551F629FF001729FBB27F00DB11D639FEE
:102CC000AA27F00DB11DAA1F649F6627B00DA11D94
:102CD000661F829F2227B00DA11D621F739FB00D3A
:102CE000A11D621F839FA00D611D221F749F3327AA
:102CF000A00D611D231F849F600D211D822F762F43
:102D00006A2F11249F5750409AF0F1F088234AF01F
:102D1000EE0FFF1FBB1F661F771F881F915050408B
:102D2000A9F79E3F510580F00C94AB160C94F61653
:102D30005F3FE4F3983ED4F3869577956795B79512
:102D4000F795E7959F5FC1F7FE2B880F911D96952C
:102D5000879597F9089597F99F6780E870E060E09C
:102D600008959FEF80EC089500240A941616170624
:102D700018060906089500240A941216130614066C
:102D800005060895092E0394000C11F4882352F0CF
:102D9000BB0F40F4BF2B11F460FF04C06F5F7F4F87
:102DA0008F4F9F4F089557FD9058440F551F59F06E
:102DB0005F3F71F04795880F97FB991F61F09F3F28
:102DC00079F087950895121613061406551FF2CF51
:102DD0004695F1DF08C0161617061806991FF1CFA1
:102DE00086957105610508940895E894BB276627C8
:102DF0007727CB0197F90895052E97FB1EF40094D1
:102E00000E94131757FD07D00E94651707FC03D0D7
:102E10004EF40C94131750954095309521953F4FE3
:102E20004F4F5F4F089590958095709561957F4FB6
:102E30008F4F9F4F08950E948717A59F900DB49FB5
:102E4000900DA49F800D911D11240895B7FF0C943F
:102E50001B170E941B17821B930B08952F923F9202
:102E60004F925F926F927F928F929F92AF92BF929A
:102E7000CF92DF92EF92FF920F931F93CF93DF9346
:102E8000CDB7DEB7CA1BDB0B0FB6F894DEBF0FBEA3
:102E9000CDBF09942A88398848885F846E847D84F0
:102EA0008C849B84AA84B984C884DF80EE80FD80F2
:102EB0000C811B81AA81B981CE0FD11D0FB6F89468
:102EC000DEBF0FBECDBFED010895A1E21A2EAA1BF1
:102ED000BB1BFD010DC0AA1FBB1FEE1FFF1FA217CA
:102EE000B307E407F50720F0A21BB30BE40BF50BC7
:102EF000661F771F881F991F1A9469F76095709550
:102F0000809590959B01AC01BD01CF010895A29FD2
:102F1000B001B39FC001A39F700D811D1124911DAD
:102F2000B29F700D811D1124911D0895991B79E0A8
:102F300004C0991F961708F0961B881F7A95C9F749
:102F400080950895AA1BBB1B51E107C0AA1FBB1F98
:102F5000A617B70710F0A61BB70B881F991F5A9525
:102F6000A9F780959095BC01CD01089597FB072E98
:102F700016F4009407D077FD09D00E94A21707FC31
:102F800005D03EF4909581959F4F08957095619579
:102F90007F4F0895EE0FFF1F0590F491E02D0994E7
:102FA0005058BB27AA270E94E8170C94C2160E940B
:102FB000B41638F00E94BB1620F039F49F3F19F484
:102FC00026F40C94B1160EF4E095E7FB0C94AB16C6
:102FD000E92F0E94D31658F3BA17620773078407C4
:102FE000950720F079F4A6F50C94F5160EF4E0950B
:102FF0000B2EBA2FA02D0B01B90190010C01CA01B3
:10300000A0011124FF27591B99F0593F50F4503E5D
:1030100068F11A16F040A22F232F342F4427585F4F
:10302000F3CF469537952795A795F0405395C9F767
:103030007EF41F16BA0B620B730B840BBAF091501F
:10304000A1F0FF0FBB1F661F771F881FC2F70EC0BE
:10305000BA0F621F731F841F48F487957795679591
:10306000B795F7959E3F08F0B0CF9395880F08F07D
:103070009927EE0F9795879508950E94DB1688F0A3
:103080009F5798F0B92F9927B751B0F0E1F0660F2C
:10309000771F881F991F1AF0BA95C9F714C0B1306D
:1030A00091F00E94F516B1E008950C94F516672F83
:1030B000782F8827B85F39F0B93FCCF3869577959C
:1030C0006795B395D9F73EF4909580957095619585
:1030D0007F4F8F4F9F4F08950E941A1608F48FEF6D
:1030E00008950F931F93CF93DF938230910510F4CF
:1030F00082E090E0E0913804F091390430E020E083
:10310000B0E0A0E0309799F42115310509F44AC0E8
:10311000281B390B24303105D8F58A819B81611534
:10312000710589F1FB0193838283FE0111C0408107
:1031300051810281138148175907E0F04817590758
:1031400099F4109761F012960C93129713961C93B2
:103150003296CF01DF91CF911F910F910895009387
:10316000380410933904F4CF2115310551F042177A
:10317000530738F0A901DB019A01BD01DF01F80115
:10318000C1CFEF01F9CF9093390480933804CDCFAC
:10319000FE01E20FF31F819391932250310939838D
:1031A0002883D7CF2091360430913704232B41F464
:1031B00020910601309107013093370420933604A3
:1031C00020910401309105012115310541F42DB7FD
:1031D0003EB74091080150910901241B350BE09145
:1031E0003604F0913704E217F307A0F42E1B3F0BCF
:1031F0002817390778F0AC014E5F5F4F2417350769
:1032000048F04E0F5F1F509337044093360481936C
:1032100091939FCFF0E0E0E09CCFCF93DF930097B6
:10322000E9F0FC01329713821282A0913804B09128
:103230003904ED0130E020E01097A1F420813181C4
:10324000820F931F209136043091370428173907D5
:1032500009F061C0F0933704E0933604DF91CF9119
:103260000895EA01CE17DF07E8F54A815B819E01E8
:1032700041155105B1F7E901FB83EA834991599161
:10328000C40FD51FEC17FD0761F480819181029670
:10329000840F951FE90199838883828193819B83A1
:1032A0008A83F0E0E0E012968D919C91139700974D
:1032B000B9F52D913C911197CD010296820F931F84
:1032C00020913604309137042817390739F63097A2
:1032D00051F51092390410923804B0933704A0933A
:1032E0003604BCCFD383C28340815181840F951FA4
:1032F000C817D90761F44E5F5F4F88819981480FE5
:10330000591F518340838A819B8193838283211536
:10331000310509F0B0CFF0933904E09338049ECF23
:10332000FD01DC01C0CF13821282D7CFB0E0A0E054
:10333000ECE9F9E10C9430178C01009751F4CB01C2
:103340000E9471188C01C801CDB7DEB7E0E10C9482
:103350004C17FC01E60FF71F9C0122503109E217C0
:10336000F30708F49DC0D901CD91DC911197C617E0
:10337000D70798F0C530D10530F3CE0104978617F2
:10338000970708F3C61BD70B2297C193D1936D9370
:103390007C93CF010E940D19D6CF5B01AC1ABD0AF8
:1033A0004C018C0E9D1EA0913804B0913904512C13
:1033B000412CF12CE12C109731F58091360490913D
:1033C00037048815990509F05CC04616570608F0C1
:1033D00058C08091040190910501009741F48DB788
:1033E0009EB74091080150910901841B950BE81785
:1033F000F90708F055C0F0933704E0933604F9015B
:1034000071836083A0CF8D919C91119712966C90DF
:10341000129713967C901397A815B90559F56C016E
:1034200042E0C40ED11CCA14DB0420F1AC014A19DD
:103430005B09DA011296159780F0628273825183DC
:103440004083D9016D937C93E114F10471F0D701AD
:103450001396FC93EE93129776CF22968C0F9D1FB6
:10346000F90191838083F301EFCFF0933904E09366
:10347000380469CF4816590608F42C017D01D301A0
:103480009ACFCB010E9471187C01009749F0AE01E0
:10349000B8010E94531AC8010E940D19870153CF29
:1034A00010E000E050CFFB01DC0102C001900D9262
:1034B00041505040D8F70895FB01DC018D910190F7
:1034C00080190110D9F3990B0895FB01DC010190DB
:1034D0000D920020E1F70895FB01DC0141505040BE
:1034E00030F08D910190801919F40020B9F7881BF4
:1034F000990B0895FB01DC014150504048F00190C8
:103500000D920020C9F701C01D9241505040E0F7D4
:103510000895AEE0B0E0EFE8FAE10C943C170D89B5
:103520001E8986E08C831A8309838FEF9FE79E8331
:103530008D83AE01475E5F4F6F89788DCE01019616
:103540000E94AC1A2F813885020F131FF8011082D8
:103550002E96E4E00C945817ABE0B0E0E2EBFAE111
:103560000C942E177C013B018A01FC011782168204
:10357000838181FFC8C1CE0101965C01F70193816F
:10358000F30193FD859193FF81913F01882309F415
:1035900053C1853239F493FD859193FF81913F01A9
:1035A000853229F4B70190E00E949C1CE7CF912C52
:1035B000212C312CFFE1F31538F08B3211F190F40E
:1035C000803209F1833229F137FC3CC020ED280F0D
:1035D0002A3050F536FE20C08AE0989E200D112436
:1035E000922E06C08D3291F0803371F7689430F8D6
:1035F000F30193FD859193FF81913F018111DACF12
:1036000021C0689431F8689432F8F2CF689433F8A6
:10361000EFCF689434F8ECCFEAE02E9E200D112411
:10362000222E689435F8E4CF8E3229F436FC04C19A
:10363000689436F8DDCF8C3619F4689437F8D8CF13
:103640008836B1F2982F9F7D95549330E0F0833601
:10365000A1F18337C1F1833509F063C02801F2E09D
:103660004F0E511CF801C080D180692D70E036FCEE
:1036700002C06FEF7FEFC6010E94861C4C01689468
:1036800037F882010AC00C5F1F4FFFE3F9838824DB
:103690008394912C6501E89437F833FE2DC0522CA9
:1036A0008114910471F5552009F468CFB70180E2C7
:1036B00090E00E949C1C5A94F6CFF8018081898387
:1036C0000E5F1F4FE4CF2801F2E04F0E511CF801AE
:1036D000C080D180692D70E036FC02C06FEF7FEFB3
:1036E000C6010E94911C4C018201D5CFB70180E236
:1036F00090E00E949C1C2A942814190409F0B0F749
:10370000CECFF60137FC859137FE81916F01B7016D
:1037100090E00E949C1C51105A94F1E08F1A91087D
:10372000BFCF843619F0893609F077C0F80137FE2B
:103730006BC060817181828193810C5F1F4FF32D7B
:10374000FF763F2E97FF09C0909580957095619503
:103750007F4F8F4F9F4F689437F82AE030E0A501E4
:103760000E94CC1CC82ECA188C2C432C36FE0CC0D0
:10377000E89440F8C91440F434FE05C032FC03C09C
:10378000F32DFE7E4F2E892C44FE95C0FE01EC0DDC
:10379000F11D8081803309F087C0242D297E422EBF
:1037A000842D8870582E43FC95C040FE8FC09C2C01
:1037B000821418F42C0C922C981844FE91C0B70176
:1037C00080E390E00E949C1C42FE09C088E790E0E4
:1037D00041FE02C088E590E0B7010E949C1CC9141C
:1037E00008F48AC0CA94D12C9FEFC91AD90ACA0C0E
:1037F000DB1CF60182916F01B70190E00E949C1CD6
:10380000AC14BD04B1F74FCF60817181072E000C5D
:10381000880B990B0E5F1F4F92CFD32CE894D4F8EE
:103820002AE030E0853739F1232D297FD22E8F36DB
:1038300001F148F48835A9F0F701868197812B962C
:10384000E2E10C944A17803749F08837A9F7D4FE93
:1038500002C06894D2F820E130E00DC06894D4F83A
:10386000F6CF34FE03C0822F8660D82E20E132E0EE
:1038700002C028E030E0F801D7FE0FC060817181FE
:10388000828193810C5F1F4FA5010E94CC1CC82E22
:10389000CA183D2CE89437F867CF6081718190E0B9
:1038A00080E00E5F1F4FF0CF42FC02C0839478CFC0
:1038B0008394839475CF842D867809F471CFF6CFE5
:1038C000B70180E290E00E949C1C83948214C0F3B4
:1038D000512C73CF522C5818821408F46ECFF8CFA5
:1038E000842D867809F47BCF8BE241FE80E247FC91
:1038F0008DE2B70190E071CFB70180E390E00E94C4
:103900009C1C9A946CCF8FEF9FEF99CFFC01059090
:10391000615070400110D8F7809590958E0F9F1FD1
:103920000895FC016150704001900110D8F7809516
:1039300090958E0F9F1F08950F931F93CF93DF9342
:10394000182F092FEB018B8181FD09C01FEF0FEFAD
:10395000812F902FDF91CF911F910F91089582FFBA
:1039600014C02E813F818C819D81281739073CF43A
:10397000E881F981CF0101969983888310838E8134
:103980009F8101969F838E83E3CFE885F985812F00
:103990000995892BA1F3DACFFA01AA27283051F132
:1039A000203181F1E8946F936E7F6E5F7F4F8F4F70
:1039B0009F4FAF4FB1E03ED0B4E03CD0670F781FCF
:1039C000891F9A1FA11D680F791F8A1F911DA11DB4
:1039D0006A0F711D811D911DA11D20D009F46894ED
:1039E0003F912AE0269F11243019305D3193DEF695
:1039F000CF010895462F4770405D4193B3E00FD04B
:103A0000C9F7F6CF462F4F70405D4A3318F0495D35
:103A100031FD4052419302D0A9F7EACFB4E0A69518
:103A20009795879577956795BA95C9F7009761053A
:103A3000710508959B01AC010A2E06945795479590
:103A400037952795BA95C9F7620F731F841F951F85
:103A5000A01D089510E0C6E8D0E004C0FE010E9459
:0E3A6000CA172196C738D107C9F7F894FFCFCF
:103A6E000100000000003A04800000000000120374
:103A7E0040026D025F03D0027C02C2020D0A002FCB
:103A8E002F22225C5C6208660C6E0A720D740900AD
:103A9E005C7530303030006E756C6C00747275650C
:103AAE000066616C736500646174610064726169C3
:103ABE006E56616C766553746174650073616665EC
:103ACE00747956616C766553746174650066616EC7
:103ADE0053746174650070756D7053746174650014
:103AEE0066616E53706565640070756D70537065B8
:103AFE00656400647261696E56616C76654C6576BC
:103B0E00656C00666C6F7753656E736F723100660D
:103B1E006C6F7753656E736F723200666C6F77538E
:103B2E00656E736F72330072756E74696D650073B6
:103B3E00657269616C4E756D62657200504F5441CD
:103B4E0000504F544200504F5443003835373334F1
:103B5E003332333633303335313331413035320051
:103B6E005468652074696D652074726176656C6940
:103B7E006E67206973206A75737420746F6F20648A
:103B8E00616E6765726F75732E204265747465720F
:103B9E0020746861742049206465766F7465206DA9
:103BAE007973656C6620746F2073747564792074F4
:103BBE006865206F74686572206772656174206D28
:103BCE00797374657279206F662074686520756EDE
:103BDE006976657273653A20632B2B20706F696E60
:103BEE00746572732E00746A6F00494E43484152D9
:103BFE003A2000253032643A253032643A2530328C
:023C0E00640050
:00000001FF
