:100000000C9487000C94AF000C94AF000C94AF00DC
:100010000C94AF000C94AF000C94AF000C94AF00A4
:100020000C94AF000C94AF000C94AF000C94AF0094
:100030000C94AF000C94AF000C94AF000C94AF0084
:100040000C94320D0C94AF000C94A20D0C947C0D0A
:100050000C94AF000C94AF000C94AF000C94AF0064
:100060000C94AF000C94AF00CDCCCC3D0AD7233C10
:1000700017B7D13877CC2B329595E6241FB14F0AAC
:100080000000803FCDCCCC3D6F12833A95BFD63374
:100090007D1D9026B3CE010C000020410000C84217
:1000A00000401C4620BCBE4CCA1B0E5AAEC59D74F7
:1000B00000000000240027002A00000000002500A6
:1000C00028002B0000000000230026002900040463
:1000D00004040404040402020202020203030303F0
:1000E00003030102040810204080010204081020CC
:1000F00001020408102000000008000201000003B3
:1001000004070000000000000000DC0DD40D1124E5
:100110001FBECFEFD8E0DEBFCDBF13E0A0E0B1E05F
:10012000E8E5F8E302C005900D92AE33B107D9F7C8
:1001300024E0AEE3B3E001C01D92AD35B207E1F7B4
:1001400010E0C6E8D0E004C02197FE010E94BF166F
:10015000C538D107C9F70E94180E0C941F1C0C94C7
:100160000000833081F028F4813099F08230A9F0CA
:1001700008958730A9F08830C9F08430B1F48091B7
:1001800080008F7D03C0809180008F7780938000F6
:10019000089584B58F7784BD089584B58F7DFBCF96
:1001A0008091B0008F778093B00008958091B00067
:1001B0008F7DF9CFCF93DF93282F30E0F901EA50FC
:1001C000FF4F8491F901EE51FF4FD491F901E253B1
:1001D000FF4FC491CC23A1F081110E94B100EC2FFC
:1001E000F0E0EE0FFF1FEC53FF4FA591B491EC919F
:1001F000ED2381E090E009F480E0DF91CF91089554
:1002000080E090E0FACF1F93CF93DF93282F30E068
:10021000F901EA50FF4F8491F901EE51FF4FD4915B
:10022000F901E253FF4FC491CC23A9F0162F81119D
:100230000E94B100EC2FF0E0EE0FFF1FE654FF4FDD
:10024000A591B4918FB7F894EC91111108C0D09595
:10025000DE23DC938FBFDF91CF911F910895DE2BBA
:10026000F8CFCF93DF9390E0FC01EE51FF4F249144
:1002700082539F4FFC0184918823C9F090E0880F3E
:10028000991FFC01E055FF4FA591B491FC01E65484
:10029000FF4FC591D49161110DC09FB7F8948C9117
:1002A000209582238C938881282328839FBFDF9108
:1002B000CF910895623051F49FB7F8943C91822F0A
:1002C000809583238C93E8812E2BEFCF8FB7F89402
:1002D000EC912E2B2C938FBFEACF1F93CF93DF93FC
:1002E000182FEB0161E00E943101209739F460E0A2
:1002F000812FDF91CF911F910C940301CF3FD10546
:1003000011F461E0F5CFE12FF0E0EA50FF4FE49106
:10031000E33031F140F4E130B1F0E230E1F0C038E7
:10032000D1057CF7E4CFE73029F1E83059F1E4302A
:10033000B1F780918000806280938000D0938B0021
:10034000C0938A0004C084B5806884BDC7BDDF91B6
:10035000CF911F91089584B5806284BDC8BDF7CF49
:1003600080918000806880938000D0938900C09342
:100370008800EDCF8091B00080688093B000C0937A
:10038000B300E5CF8091B00080628093B000C0934D
:10039000B400DDCF8E50806480937C0080917A0021
:1003A000806480937A0080917A0086FDFCCF8091F2
:1003B00078009091790008953FB7F8948091AC034C
:1003C0009091AD03A091AE03B091AF0326B5A89B69
:1003D00005C02F3F19F00196A11DB11D3FBFBA2FD7
:1003E000A92F982F8827BC01CD01620F711D811D97
:1003F000911D42E0660F771F881F991F4A95D1F71C
:1004000008958F929F92AF92BF92CF92DF92EF9218
:10041000FF926B017C010E94DC014B015C01C11465
:10042000D104E104F104B9F00E94DC0168197909F2
:100430008A099B09683E73408105910580F321E09C
:10044000C21AD108E108F10888EE880E83E0981EF0
:10045000A11CB11CE4CFFF90EF90DF90CF90BF9034
:10046000AF909F908F9008952FB7F8946091A80354
:100470007091A9038091AA039091AB032FBF0895B7
:10048000AF92BF92CF92DF92EF92FF920F931F93A2
:10049000CF93DF936C017B018B01040F151FEB01E0
:1004A0005E01AE18BF08C017D10759F06991D60197
:1004B000ED91FC910190F081E02DC6010995892B09
:1004C00079F7C501DF91CF911F910F91FF90EF90C8
:1004D000DF90CF90BF90AF900895FC01538D448D75
:1004E000252F30E0842F90E0821B930B541710F0DF
:1004F000CF96089501970895FC01918D828D9817EC
:1005000061F0A28DAE0FBF2FB11D5D968C91928DC3
:100510009F5F9F73928F90E008958FEF9FEF0895F4
:100520000F931F930E9434026093B8037093B90332
:100530008093BA039093BB0380EB93E00E947C020C
:1005400097FF1DC00E9434020091B8031091B903B7
:100550002091BA033091BB03601B710B820B930B8C
:100560000091B4031091B5032091B6033091B70305
:100570006017710782079307F8F28FEF9FEF1F91C3
:100580000F910895FC01918D828D981731F0828D25
:10059000E80FF11D858D90E008958FEF9FEF08958E
:1005A000FC01918D228D892F90E0805C9F4F821BF2
:1005B00091098F739927089580EB93E00E94D002F0
:1005C00021E0892B09F420E0822F089580E090E05B
:1005D000892B29F00E94DC0281110C9400000895FF
:1005E000FC01A48DA80FB92FB11DA35ABF4F2C91A8
:1005F000848D90E001968F739927848FA689B7899F
:100600002C93A089B1898C91837080648C93938D95
:10061000848D981306C00288F389E02D80818F7D38
:1006200080830895EF92FF920F931F93CF93DF93F0
:10063000EC0181E0888F9B8D8C8D98131AC0E8891E
:10064000F989808185FF15C09FB7F894EE89FF89ED
:100650006083E889F98980818370806480839FBF8B
:1006600081E090E0DF91CF911F910F91FF90EF908B
:100670000895F62E0B8D10E00F5F1F4F0F7311279B
:10068000E02E8C8D8E110CC00FB607FCFACFE889D6
:10069000F989808185FFF5CFCE010E94F002F1CF6C
:1006A000EB8DEC0FFD2FF11DE35AFF4FF0829FB74A
:1006B000F8940B8FEA89FB8980818062CFCFCF933A
:1006C000DF93EC01888D8823B9F0AA89BB89E8897A
:1006D000F9898C9185FD03C0808186FD0DC00FB620
:1006E00007FCF7CF8C9185FFF2CF808185FFEDCF9E
:1006F000CE010E94F002E9CFDF91CF910895CF9310
:10070000DF93EC01BC0185E00E946D01BE0186E033
:100710000E946D01BE0189E0DF91CF910C946D01C3
:100720000F931F93CF93DF938B01EA01BC0185E008
:100730000E946D01B80186E00E946D01BE0189E052
:10074000DF91CF911F910F910C946D010895FB01E2
:10075000309729F0948190789660948380830895EF
:10076000CF93DF93EC0188819981DC01ED91FC91BD
:100770000190F081E02D09952A813B81820F931F22
:100780009B838A83DF91CF910895CF93DF93EC0110
:1007900088819981DC01ED91FC910280F381E02D4B
:1007A00009952A813B81820F931F9B838A83DF9166
:1007B000CF9108958F929F92AF92BF92CF92DF9286
:1007C000EF92FF920F931F93CF93DF93CDB7DEB7D6
:1007D00066970FB6F894DEBF0FBECDBF6C018E01D9
:1007E000095E1F4F78018AE0882E912CA12CB12C34
:1007F000CB01BA01A50194010E946616942F852FA2
:10080000605DF80162938F01A901692F782F41156E
:1008100051056105710561F7A7014E1B5F0BBF0113
:10082000C6010E94C50366960FB6F894DEBF0FBEE0
:10083000CDBFDF91CF911F910F91FF90EF90DF908F
:10084000CF90BF90AF909F908F900895FC0125812D
:10085000222339F0F8E02F0290011124820F931F18
:10086000089590E080E0089582E00E94DA00019708
:1008700019F481E080937E038DE00E94DA000197F5
:1008800019F481E08093790384E00E94DA000197F3
:1008900019F481E080937403089580917E0381119F
:1008A00015C090917903911112C090917403911128
:1008B0000EC080919B03811109C090919903911101
:1008C00006C08091970391E08927089580E00895FC
:1008D0001092A2031092A10310929E0310929D0306
:1008E0001092A00310929F0350E040E070E060E09F
:1008F00090E080E00C949003FC0101900020E9F767
:100900003197AF01481B590BBC0180EB93E00C946D
:100910004002CF93DF930E947C04EC018CE191E0D4
:100920000E947C048C0F9D1FDF91CF91089570E091
:1009300060E08BE00E946D0160E089E00E940301AD
:10094000109297038FE191E00C9489046FEF70E0AF
:100950008BE00E946D0161E089E00E94030181E06B
:100960008093970384E391E00C94890460E08CE029
:100970000E94030160E086E00E9403011092990347
:1009800087E491E00C94890461E08CE00E9403010B
:1009900061E086E00E94030181E08093990381E594
:1009A00091E00C94890460E088E00E9403018AE5EC
:1009B00091E00E9489041092570360E087E00E9452
:1009C000030160E085E00E94030110929B0380E731
:1009D00091E00C948904CF9361E088E00E940301C8
:1009E0008BE791E00E948904C1E0C093570361E066
:1009F00087E00E94030161E085E00E940301C0934B
:100A00009B038FE891E0CF910C948904FB01019046
:100A10000020E9F73197AF01461B570B0C94C50333
:100A20001F93CF93DF93E9E9F1E01281112379F06D
:100A3000329621816213F9CFEC016CE50E94B0037C
:100A4000612FCE01DF91CF911F910C94B003611102
:100A5000F9CF6AEA71E0DF91CF911F910C940605FE
:100A60002F923F924F925F926F927F928F929F92BE
:100A7000AF92BF92CF92DF92EF92FF920F931F93AC
:100A8000CF93DF93CDB7DEB76C970FB6F894DEBF88
:100A90000FBECDBF7C018B01DC0114968C911497A5
:100AA0008F77863009F464C2B0F48230E8F0129691
:100AB000CD90DC901397AC901196BC90843008F0E8
:100AC00026C2A601B501C8010E94C503D80112962D
:100AD0008D919C9103C28C3069F160F4883009F4E7
:100AE00041C28A3009F426C261EB71E0C8010E945C
:100AF0000605E7C1803209F4EDC18034A9F76BE542
:100B0000C8010E94B003D701ED90FC90E114F104FC
:100B100009F4DBC1B801C7010E943005C7010E947A
:100B200026047C01892B09F4D0C16CE2C8010E9423
:100B3000B003ECCFF701C080D180E280F380A70141
:100B40009601C701B6010E94D9148111CDCF20E0D2
:100B500030E0A901C701B6010E94D914882379F0B9
:100B6000A7019601C701B6010E94C6169B01AC0100
:100B7000C701B6010E94D914882309F4B5CF20E03B
:100B800030E0A901C701B6010E94D91487FF08C04F
:100B90006DE2C8010E94B003F7FAF094F7F8F09400
:100BA00020E836E948E15BE4C701B6010E9461171D
:100BB00087FD7CC074E1872E912CE0E2AE2EB12C33
:100BC000712C612CF401E856FF4F25913591459128
:100BD0005491C701B6010E94611787FD0FC0F4014F
:100BE000E859FF4F2591359145915491C701B601C0
:100BF0000E943F156B017C016A0C7B1CB594A79485
:100C0000F4E08F1A91082CEF82162FEF9206D1F69E
:100C10003FEF3F8B20E030E0A901C701B6010E9401
:100C2000611718160CF04AC02CEA35EC47E257E37E
:100C3000C701B6010E94D91418160CF43FC0AF8941
:100C4000B4E0AB02C0011124912C812CFC01E058CE
:100C5000FF4F1F019C0128563F4F29013F893F3F0D
:100C600069F1F101E80DF91D2591359145915491F6
:100C7000C701B6010E94D91487FF0FC0F201E80D29
:100C8000F91D2591359145915491C701B6010E94F6
:100C90003F156B017C016A187B08B594A7948F8976
:100CA00081508F8B94E0891A9108D8CF50E2A52EFD
:100CB000B12C85E08F8B712C612CACCFC701B601B4
:100CC0000E9432174B015C011B012C01A6E0AC8F86
:100CD00080E492E4AFE0B0E0888F998FAA8FBB8F59
:100CE0009C8D9F8BA92FA150AC8FBAE02B1631049D
:100CF00041045104C8F0688D798D8A8D9B8D2AE05E
:100D000030E040E050E00E946616288F398F4A8F0D
:100D10005B8FC201B1012AE030E040E050E00E9468
:100D2000661619012A01DCCFC501B4010E94DE1448
:100D30009B01AC01C701B6010E94C5166B017C0185
:100D4000688D798D8A8D9B8D0E94DE149B01AC018C
:100D5000C701B6010E943F151B012C010E943217EA
:100D60006B017C010E94DE149B01AC01C201B10148
:100D70000E94C5169B01AC010E94C6160E94321744
:100D8000C60ED71EE81EF91E888D998DAA8DBB8DC3
:100D9000C816D906EA06FB06C0F09FEF891A990A21
:100DA000A90AB90A6114710439F1AAE08A169104FA
:100DB000A104B10408F1BFEF6B1A7B0AC12CD12C3E
:100DC0007601812C912C540183942AE0222E312C1F
:100DD000412C512CC701B601A20191010E94661657
:100DE000672B682B692B61F4EF891E164CF469019F
:100DF0007A01E150EF8BEECFC12CD12C7601E5CFFB
:100E0000B501A401C8010E94DA03FF89FF2391F113
:100E10004E0121E1820E911CF88F54019AE0292E97
:100E2000312C412C512C388D3150388F3F3F69F097
:100E3000C701B601A20191010E946616605DD4014E
:100E40006E934D0169017A01EECFBF898B2F90E03F
:100E5000BC0160957095F501E81BF90B31978EE2A6
:100E6000808344275527461B570B6A0D7B1DC801FD
:100E70000E94C5036114710421F165E6C8010E9456
:100E8000B003730177FE07C06DE2C8010E94B00392
:100E9000F194E194F108FE0177969F018AE0C82E53
:100EA000D12CC701B6010E949716805D82937B0109
:100EB000672BB9F7A9014E1B5F0BBF01C8010E9448
:100EC000C503F8018281938109C06DE5C8010E94C4
:100ED000B003F7CFB701C8010E94C4076C960FB6E4
:100EE000F894DEBF0FBECDBFDF91CF911F910F9160
:100EF000FF90EF90DF90CF90BF90AF909F908F903A
:100F00007F906F905F904F903F902F90089562E296
:100F1000C8010E94B0037501CE0CDF1CCE14DF04A3
:100F200039F0D7016D917D01C8010E941005F6CFFF
:100F300062E2CCCFF701C080D180E280F380B701BC
:100F4000A601F7FE0BC06DE2C8010E94B003442762
:100F50005527BA014C195D096E097F09C8010E9425
:100F6000DA03B4CDF7014081518162817381F6CFFC
:100F7000F701808166EB71E0811102C06BEB71E0DB
:100F8000C8010E940605A2CDCF92DF92EF92FF9298
:100F90000F931F93CF93DF93EC018B016BE70E94BC
:100FA000B003F801008111810115110541F1F8012B
:100FB000C680D78062E2CE010E94B0037601F701BD
:100FC00061917F01662321F0CE010E941005F7CFC9
:100FD00062E2CE010E94B0036AE3CE010E94B00338
:100FE000BE01C8010E943005C8010E9426048C0180
:100FF000892B29F06CE2CE010E94B003D5CF6DE7BA
:10100000CE010E94B0038A819B81DF91CF911F9115
:101010000F91FF90EF90DF90CF900895FC01A08199
:10102000B181109749F0FD0101900020E9F7319757
:10103000CF018A1B9B0B089590E080E00895FB018F
:10104000DC018D919C91009761F060817181611547
:10105000710539F0448155810E94611921E0892B85
:1010600009F020E0822F0895FC0180819181009792
:1010700011F00C94021808950F931F93CF93DF93F0
:10108000EC0188819981009759F02A813B812617CC
:10109000370730F081E0DF91CF911F910F910895D4
:1010A0008B016F5F7F4F0E948B18009759F09983D7
:1010B00088831B830A832C813D81232B59F7FC01F4
:1010C0001082E8CF80E0E7CFEF92FF920F931F935B
:1010D000CF93DF93EC017B018A01BA010E943C08A7
:1010E00028813981811114C02115310519F0C901F8
:1010F0000E940218198218821D821C821B821A8289
:10110000CE01DF91CF911F910F91FF90EF90089545
:101110001D830C83B701C9010E945A19F1CFFC014C
:10112000118210821382128215821482FB010190B7
:101130000020E9F73197AF01461B570B0C94640868
:10114000AF92BF92CF92DF92EF92FF920F931F93D5
:10115000CF93DF93EC017B016A0184E0A82EB12CD0
:101160004430510520F45A0194E0C92ED12C69EA8B
:1011700071E0CE010E948F08D70114960D911C9149
:10118000A016B10628F5C016D10608F48601D701CD
:10119000ED91FC911197E00FF11FD08010826D91BD
:1011A0007C916A0D7B1D61157105F1F0FB010190C9
:1011B0000020E9F73197AF01461B570BCE010E9483
:1011C0006408F70180819181080F191FD801DC9212
:1011D000CE01DF91CF911F910F91FF90EF90DF90A3
:1011E000CF90BF90AF90089588819981009711F0BA
:1011F0000E940218198218821D821C821B821A8288
:10120000E0CFCF92DF92EF92FF920F931F93CF9395
:10121000DF93009759F480E090E0DF91CF911F9128
:101220000F91FF90EF90DF90CF90089561157105B9
:1012300091F38A017B01EC01C880D980C114D104EB
:1012400089F1D60116966D917C91C7010E945119C2
:10125000892B31F1C6010E9426046C01EFCF38972B
:10126000D8011596FC93EE9314973097A1F2AA81BA
:10127000BB81109791F0CF018A1B9B0B23E09595C2
:1012800087952A95E1F715968C93FB83EA8315825F
:101290001482F782E682CF01C0CFF983E883F5CFCD
:1012A000C601BBCFD8011496ED91FC91159712960B
:1012B0008D919C910896E817F90788F681E0F8016E
:1012C0008087A9CF2F923F924F925F926F927F9229
:1012D0008F929F92AF92BF92CF92DF92EF92FF9246
:1012E0000F931F93CF93DF93CDB7DEB7C851D14093
:1012F0000FB6F894DEBF0FBECDBF2B01CE010F9607
:101300009A8389839C838B834E0181EF881A8EEFA9
:10131000980A9E828D8298868F82198680E28E87B7
:101320001B861A861D861C86AE014F5F5F4F61ECDF
:1013300071E0CE010A960E9401098C01009749F0E4
:10134000FC01848180788062848311821082138200
:101350001282AE014F5F5F4F66EC71E0C8010E94E0
:101360000109BC01809197030E94A703AE014F5F62
:101370005F4F66ED71E0C8010E940109BC018091D8
:1013800057030E94A703AE014F5F5F4F67EE71E006
:10139000C8010E940109BC01809199030E94A70322
:1013A000AE014F5F5F4F60EF71E0C8010E9401091D
:1013B000BC0180919B030E94A703AE014F5F5F4F6A
:1013C0006AEF71E0C8010E940109FC01892B81F0DC
:1013D0002091620330916303948190789A609483A2
:1013E000C901330FAA0BBB0B80839183A283B38304
:1013F000AE014F5F5F4F63E072E0C8010E940109D8
:10140000FC01892B81F020915E0330915F03948170
:1014100090789A609483C901330FAA0BBB0B808329
:101420009183A283B383AE014F5F5F4F6DE072E0A3
:10143000C8010E940109FC01892B81F02091600301
:1014400030916103948190789A609483C901330F3D
:10145000AA0BBB0B80839183A283B383AE014F5F42
:101460005F4F6DE172E0C8010E9401097C010097A5
:1014700081F0FC01848180788C608483B201550CFA
:10148000880B990B0E94E014F701608371838283BB
:101490009383AE014F5F5F4F69E272E0C8010E9423
:1014A00001096C01892B09F44FC08FE793E0C95EF5
:1014B000DE4F99838883C751D140CB5EDE4F99833D
:1014C0008883C551D140CE018B5E9E4F0E940E088D
:1014D0003C01A980BA80EB80FC808FE7282E83E056
:1014E000382EC30181589C4F2C01F501E60DF71DE4
:1014F000EE15FF0508F468C0CE018B5E9E4F0E947A
:101500000E089C012F5F3F4F2E0D3F1D4D815E81C8
:101510004217530708F07FC081E08987F12CE12C46
:10152000CE01895E9E4F0E940E08AC0130E020E0A3
:10153000E114F10411F026EA33E0F6019481907889
:10154000232B09F07FC09483AE014F5F5F4F61E3AF
:1015500072E0C8010E940109DC01892B71F0A090A2
:101560005304B0905404A114B10409F072C014964D
:101570008C911497807814968C9380EB93E0F4010F
:101580009183808313821282BE01665F7F4FC40104
:101590000E94C407C85EDE4F0FB6F894DEBF0FBED0
:1015A000CDBFDF91CF911F910F91FF90EF90DF9012
:1015B000CF90BF90AF909F908F907F906F905F90F3
:1015C0004F903F902F9008958081811118C0CD5E7B
:1015D000DE4F39822882C351D140CE018D5E9E4FAD
:1015E0000E940E086816790651F4D501EFE7F3E082
:1015F000E415F50551F09D9181919817C9F3F50116
:1016000081915F018111FBCF70CFA114B10409F466
:1016100073CF750185CF3C832B83E114F10409F46A
:101620007FCFEFE7F3E0D701AC0141585C4FE417FF
:10163000F50719F021912D93FACF8E0D9F1DFC0116
:1016400010826ECF95609483F182E082538342834F
:101650007BCF209157043091580489819A814B8126
:101660005C817901EA0CFB1CBC01620F731F6417DB
:101670007507C8F4FB01608161110DC0B5018C01D3
:101680006E157F0571F0FB01C190BF01F801D1908B
:101690008F01CD14A9F3FC016191CF016111FBCF42
:1016A000E3CF009781F5C9010196840F951F6D81E5
:1016B0007E816817790778F481E0898790E080E07F
:1016C00070E060E014964C9114974078672BF1F429
:1016D00014964C9352CF9C838B834115510571F323
:1016E000CA018501020F131F0A151B0539F0F50108
:1016F00061915F01FC016193CF01F6CFFA01E20F26
:10170000F31F1082CA0166EA73E0DCCF45601496CD
:101710004C93149711969C938E9313963C932E930F
:1017200012972BCFCF92DF92EF92FF920F931F93DE
:10173000CF93DF9300D000D000D0CDB7DEB78C01BF
:101740006EE372E0CE0101960E948F08F8012481B9
:1017500035818D819E81F12C2817390738F0BE0123
:101760006F5F7F4FC8010E941F08F82ECE010196BF
:101770000E943408FF2091F1F80144815581B8019D
:10178000CE0101960E94A00889819A81C12CD12C9A
:101790007601009719F00E949D146B01CE0101960D
:1017A0000E943408C60101978F3F910540F4B601AD
:1017B00083E00E946D01D0925F03C0925E03269683
:1017C0000FB6F894DEBF0FBECDBFDF91CF911F9152
:1017D0000F91FF90EF90DF90CF90089563E472E057
:1017E000CE0101960E948F08F801248135818D81F8
:1017F0009E812817390738F0BE016F5F7F4FC801FF
:101800000E941F08F82ECE0101960E943408FF2086
:1018100029F1F80144815581B801CE0101960E9459
:10182000A00889819A81C12CD12C7601009719F0EA
:101830000E949D146B01CE0101960E943408C601DE
:1018400001978F3F910508F0BACFB6018AE00E9458
:101850006D01D0926303C0926203B1CF68E472E07D
:10186000CE0101960E948F08F801248135818D8177
:101870009E812817390738F0BE016F5F7F4FC8017E
:101880000E941F08F82ECE0101960E943408FF2006
:1018900009F495CFF80144815581B801CE01019634
:1018A0000E94A00889819A81C12CD12C76010097D1
:1018B00019F00E949D146B01CE0101960E9434081C
:1018C000C60101978F3F910508F079CFB6018BE0F3
:1018D0000E946D01D0926103C092600370CF0F939C
:1018E0001F93CF93DF93CDB7DEB72C970FB6F89445
:1018F000DEBF0FBECDBF80EB93E00E94D002181672
:1019000019060CF059C069EA71E0CE0107960E94F1
:101910008F080E9490020B851C8597FD1CC08A30A1
:101920009105C9F089831A820F5F1F4FB801CE015C
:1019300007960E943C08882361F32F8138858B85A8
:101940009C85BE016F5F7F4F820F931F0E945A19C3
:101950001C870B87DECF01151105C9F510923E03D8
:101960008EE393E0FC0101900020E9F7CF018F5353
:1019700093400297E8F18DE492E00E9489041A8274
:1019800019821C821B821E821D826F8178856115DF
:10199000710531F04B855C85CE0101960E9464088B
:1019A000CE0101960E94920BCE0101960E9434084E
:1019B000CE0107960E9434082C960FB6F894DEBF2D
:1019C0000FBECDBFDF91CF911F910F9108950831C8
:1019D000110510F008E110E06F817885A8018EE311
:1019E00093E00E946F19F801E25CFC4F1082B8CFBF
:1019F0008BE592E00E947C048EE393E00E948904D0
:101A000082E692E00E94890486E792E00E947C04CC
:101A10008EE393E00E94890482E692E00E948904AA
:101A200080913E038334A9F044F4813479F0823408
:101A300009F0BECF0E94D304BBCF853481F064F09F
:101A4000863409F0B5CF0E949704B2CF0E94EB0410
:101A5000AFCF0E94C404ACCF0E94B604A9CF0E94AD
:101A6000A604A6CF1F920F920FB60F9211242F93A8
:101A70003F938F939F93AF93BF938091A8039091CF
:101A8000A903A091AA03B091AB033091A70323E06F
:101A9000230F2D3758F50196A11DB11D2093A703E3
:101AA0008093A8039093A903A093AA03B093AB03D8
:101AB0008091AC039091AD03A091AE03B091AF03C0
:101AC0000196A11DB11D8093AC039093AD03A0932B
:101AD000AE03B093AF03BF91AF919F918F913F91B0
:101AE0002F910F900FBE0F901F90189526E8230F8F
:101AF0000296A11DB11DD2CF1F920F920FB60F9269
:101B000011242F933F934F935F936F937F938F9302
:101B10009F93AF93BF93EF93FF9380EB93E00E946B
:101B2000F002FF91EF91BF91AF919F918F917F91C3
:101B30006F915F914F913F912F910F900FBE0F903A
:101B40001F9018951F920F920FB60F9211242F938A
:101B50008F939F93EF93FF93E091C003F091C103A4
:101B60008081E091C603F091C70382FD1BC0908184
:101B70008091C9038F5F8F732091CA03821741F050
:101B8000E091C903F0E0E055FC4F958F8093C903C5
:101B9000FF91EF919F918F912F910F900FBE0F901A
:101BA0001F9018958081F4CF8DE494E00E94340852
:101BB00083E594E00C943408E0EBF3E013821282A6
:101BC00088EE93E0A0E0B0E084839583A683B7839A
:101BD0008EE091E09183808385EC90E09587848707
:101BE00084EC90E09787868780EC90E0918B808BE7
:101BF00081EC90E0938B828B82EC90E0958B848BD0
:101C000086EC90E0978B868B118E128E138E148E3D
:101C10006AE872E083E594E00E948F080E94451410
:101C20000E9445146FE972E08DE494E00C948F08F3
:101C3000CF93DF9300D000D000D0CDB7DEB778943B
:101C400084B5826084BD84B5816084BD85B58260C1
:101C500085BD85B5816085BD80916E008160809372
:101C60006E001092810080918100826080938100DB
:101C700080918100816080938100809180008160EB
:101C8000809380008091B10084608093B100809146
:101C9000B00081608093B00080917A00846080936E
:101CA0007A0080917A00826080937A0080917A0035
:101CB000816080937A0080917A00806880937A00B6
:101CC0001092C100E091C003F091C10382E08083D3
:101CD000E091BC03F091BD031082E091BE03F0914E
:101CE000BF038FEC80831092C803E091C403F0918E
:101CF000C50386E08083E091C203F091C303808135
:101D000080618083E091C203F091C3038081886089
:101D10008083E091C203F091C30380818068808357
:101D2000E091C203F091C30380818F7D808360E0E6
:101D300082E00E94310161E085E00E94310160E0B3
:101D400085E00E94030160E08DE00E94310161E0C6
:101D500086E00E94310160E086E00E94030160E0BD
:101D600084E00E94310161E089E00E94310160E07D
:101D700089E00E94030161E087E00E94310160E098
:101D800087E00E94030161E083E00E94310161E08D
:101D90008CE00E94310161E08BE00E94310161E042
:101DA00088E00E9431010E94340262E081E10E94D9
:101DB000310162E082E10E94310162E083E10E9430
:101DC000310160E08EE00E94310160E08FE00E940E
:101DD000310160E080E10E9431010E94D30463E0A0
:101DE000A62EB12C28EC30E03E832D8380915C033D
:101DF00090915D03019690935D0380935C03E09066
:101E00005A03F0905B038090580390905903A70108
:101E1000B4010E94900361E070E080E090E00E94D5
:101E200001024D815E81415051095E834D83452BF6
:101E3000E9F608EC10E080915C0390915D03019756
:101E40009E838D8390935D0380935C03A701B4010F
:101E50000E94900361E070E080E090E00E94010247
:101E60000150110941F708EC10E06091580370919E
:101E700059036F5F7F4F7093590360935803A70115
:101E80008D819E810E94900361E070E080E090E08F
:101E90000E9401020150110941F758EC852E912C46
:101EA00000915803109159030150110910935903DF
:101EB00000935803A701B8018D819E810E94900371
:101EC00061E070E080E090E00E94010291E0891AF8
:101ED000910831F748ECE42EF12C40915A035091CF
:101EE0005B034F5F5F4F50935B0340935A03B8010E
:101EF0008D819E810E94900361E070E080E090E01F
:101F00000E94010221E0E21AF10839F738ECE32ED1
:101F1000F12C40915A0350915B0341505109509369
:101F20005B0340935A03B8018D819E810E94900308
:101F300061E070E080E090E00E94010231E0E31A8D
:101F4000F10839F741E0A41AB10809F04BCF88EC49
:101F500090E09E838D8380915C0390915D03019658
:101F600090935D0380935C030E947F0361E070E0C7
:101F700080E090E00E9401022D813E8121503109D4
:101F80003E832D83232B39F748EC50E05E834D834D
:101F900080915C0390915D03019790935D03809322
:101FA0005C030E947F0361E070E080E090E00E94AB
:101FB00001028D819E8101979E838D83892B41F73C
:101FC00028EC30E03E832D83809158039091590393
:101FD000019690935903809358030E947F0361E018
:101FE00070E080E090E00E9401024D815E814150EE
:101FF00051095E834D83452B39F788EC90E09E8331
:102000008D838091580390915903019790935903C0
:10201000809358030E947F0361E070E080E090E0CD
:102020000E9401022D813E81215031093E832D8382
:10203000232B39F748EC50E05E834D8380915A039F
:1020400090915B03019690935B0380935A030E94E7
:102050007F0361E070E080E090E00E9401028D81EA
:102060009E8101979E838D83892B41F728EC30E078
:102070003E832D8380915A0390915B030197909347
:102080005B0380935A030E947F0361E070E080E06D
:1020900090E00E9401024D815E81415051095E83B2
:1020A0004D83452B39F74091510450915204609172
:1020B0004D0470914E0480EB93E00E9440028CE14D
:1020C00091E00E947C0420E2422E23E0522E612CFB
:1020D000712CDD24D3949FE7292E93E0392E0E94A2
:1020E00034024B015C010E9434048EE00E94CA015C
:1020F0009E838D838FE00E94CA0180E10E94CA0105
:102100008D819E819A83898381E10E94CA019C010D
:10211000990F440B550B285C310941095109AFEF68
:10212000B0E00E941C16A30192010E94FD157901E6
:102130002F3F310521F01CF0EE24EA94F12CF7FE3C
:1021400002C0F12CE12CF0926F03E0926E0382E169
:102150000E94CA019C01990F440B550B285C310960
:1021600041095109AFEFB0E00E941C16A301920192
:102170000E94FD1589012F3F310519F014F00FEF72
:1021800010E017FF02C010E000E010936D03009311
:102190006C0383E10E94CA019C01990F440B550B0B
:1021A0002659310941095109AFEFB0E00E941C16D0
:1021B00022E533E040E050E00E94FD153E832D8390
:1021C0002F3F310529F024F02FEF30E03E832D839F
:1021D0004D815E8157FF02C01E821D828D819E81CE
:1021E00090936B0380936A038091680390916903D5
:1021F0009C012A503109E216F30624F00A968E1546
:102200009F0574F4B70183E00E946D01F0925F03B3
:10221000E0925E03F0926903E0926803D092960325
:1022200080916603909167039C012A50310902173F
:1022300013072CF00A96801791070CF0F6C1B8012D
:102240008AE00E946D011093630300936203109370
:10225000670300936603D092950380917E038823E1
:1022600031F10E94340200917A0310917B03209196
:102270007C0330917D03601B710B820B930B693CD7
:1022800071058105910538F080919B03882309F43D
:10229000EFC10E94D3040E94340260937A037093CA
:1022A0007B0380937C0390937D0310927E03809147
:1022B0007903882331F10E94340200917503109153
:1022C00076032091770330917803601B710B820BAA
:1022D000930B693C71058105910538F08091990354
:1022E000882309F4C8C10E94B6040E943402609396
:1022F000750370937603809377039093780310921D
:10230000790380917403882331F10E943402009193
:102310007003109171032091720330917303601B5D
:10232000710B820B930B693C71058105910538F0A7
:1023300080919703882309F4A1C10E9497040E9409
:1023400034026093700370937103809372039093CF
:102350007303109274030E946F0C0E9434020E9457
:1023600034027B018C0128EE33E040E050E00E9413
:102370006616CA01B90120E13EE040E050E00E944B
:102380006616CB016CE370E00E94AB169F938F93AF
:102390007F936F93C801B70120E83EEE46E350E01B
:1023A0000E9466163F932F932EE133E03F932F93C5
:1023B0003F922F920E947E190FB6F894DEBF0FBE97
:1023C000CDBF80919603882309F45BC110929603D8
:1023D0008DE293E00E94890469817A818B819C81DE
:1023E0000E9462090E944D04882309F411C1809162
:1023F000A3039091A403A091A503B091A603A50106
:102400009401281B390B4A0B5B0BDA01C90181319E
:102410009742A105B10508F4FBC08092A3039092F6
:10242000A403A092A503B092A6030E944D048823A2
:1024300009F4EEC048EC50E05E834D830E94340402
:102440000E946F0C8091A1039091A203019690933A
:10245000A2038093A10340919F035091A003609138
:102460009D0370919E030E94900365E070E080E000
:1024700090E00E9401020E944D0481112CC10E9433
:10248000680428EC30E03E832D830E9434040E94CF
:102490006F0C8091A1039091A20301979093A203E6
:1024A0008093A10340919F035091A00360919D03ED
:1024B00070919E030E94900365E070E080E090E0E0
:1024C0000E9401020E944D0481110EC10E94680405
:1024D00088EC90E09E838D830E9434040E946F0CF0
:1024E00060919D0370919E036F5F7F4F70939E0379
:1024F00060939D0340919F035091A0038091A1039D
:102500009091A2030E94900365E070E080E090E06B
:102510000E9401020E944D048111F0C00E946804D3
:1025200048EC50E05E834D830E9434040E946F0C9F
:1025300060919D0370919E036150710970939E0399
:1025400060939D0340919F035091A0038091A1034C
:102550009091A2030E9490030E944D048111D8C063
:102560000E94680428EC30E03E832D830E943404EE
:102570000E946F0C40919F035091A0034F5F5F4FEB
:102580005093A00340939F0360919D0370919E031D
:102590008091A1039091A2030E94900365E070E0F6
:1025A00080E090E00E9401020E944D048111BFC0B2
:1025B0000E94680488EC90E09E838D830E9434041E
:1025C0000E946F0C40919F035091A003415051090C
:1025D0005093A00340939F0360919D0370919E03CD
:1025E0008091A1039091A2030E94900365E070E0A6
:1025F00080E090E00E9401020E944D048111A1C080
:102600000E9468040E944D048111A5C00E946804C4
:1026100020E030E0232B09F462CD0E94DC02882305
:1026200009F457CD0E94000054CD8091640390912D
:1026300065039C012A5031094D815E814217530781
:102640002CF00A96841795070CF007CE6D817E81D9
:102650008BE00E946D018D819E8190936103809338
:1026600060039093650380936403D0929403F5CD47
:102670000E94EB0410CE0E94C40437CE0E94A60430
:102680005ECE80919503882319F010929503A0CE19
:102690008091940381110FC080919B0390919C03C2
:1026A00098130CC08091990390919A03981749F060
:1026B00080939A038DCE109294038ACE80939C03CC
:1026C00087CE8091970390919803981709F48ACE4A
:1026D000809398037DCE8D819E8101979E838D830B
:1026E000892B09F0ABCECDCE4D815E814150510991
:1026F0005E834D83452B09F0C8CEEACE2D813E8105
:10270000215031093E832D83232B09F0E5CE08CFDC
:1027100065E070E080E090E00E9401028D819E8182
:1027200001979E838D83892B09F0FECE1BCF4D81AF
:102730005E81415051095E834D83452B09F016CFD0
:1027400039CF2D813E81215031093E832D83232BAA
:1027500009F034CF57CF43E050E05E834D8308EC5F
:1027600010E00E9434040E946F0C8091A1039091AC
:10277000A20301969093A2038093A1030E947F037A
:102780000E944D04811121C00E94680408EC10E0F1
:102790000E9434040E946F0C8091A1039091A203C7
:1027A00001979093A2038093A1030E947F030E944C
:1027B0004D04811114C00E9468048D819E8101978F
:1027C0009E838D83892B59F630CE65E070E080E0E2
:1027D00090E00E9401020150110919F6D7CF65E07F
:1027E00070E080E090E00E9401020150110981F642
:1027F000E4CF8F929F92AF92BF92CF92DF92EF92EF
:10280000FF92CF93DF93EC01688179818A819B816C
:10281000611571058105910521F464E279ED8BE57F
:1028200097E02DE133EF41E050E00E94FD154901B2
:102830005A019B01AC01A7EAB1E40E941C166B018E
:102840007C01ACEEB4EFA50194010E942A16C60EDD
:10285000D71EE81EF91EF7FE06C081E0C81AD1088F
:10286000E10880E8F80AC882D982EA82FB82C701BF
:10287000B6019F77DF91CF91FF90EF90DF90CF90DF
:10288000BF90AF909F908F9008958F929F92AF923C
:10289000BF92CF92DF92EF92FF9260910001709110
:1028A000010180910201909103016115710581057B
:1028B000910521F464E279ED8BE597E02DE133EFAA
:1028C00041E050E00E94FD1549015A019B01AC0115
:1028D000A7EAB1E40E941C166B017C01ACEEB4EFD8
:1028E000A50194010E942A16C60ED71EE81EF91EE5
:1028F000F7FE06C081E0C81AD108E10880E8F80AAE
:10290000C0920001D0920101E0920201F092030115
:10291000C701B6019F77FF90EF90DF90CF90BF90F7
:10292000AF909F908F900895609300017093010184
:10293000809302019093030108951F93FC0199274E
:102940008827BC01E89411911032E9F3193010F096
:102950001E30C8F31B3251F01D3249F4689406C092
:102960000E94C414610F711D811D911D119110539E
:102970001A30B0F33EF490958095709561957F4F35
:102980008F4F9F4F1F910895592F482F372F262F74
:10299000660F771F881F991F660F771F881F991F63
:1029A000620F731F841F951F660F771F881F991F63
:1029B00008950E941B1508F481E00895E89409C069
:1029C00097FB3EF490958095709561957F4F8F4F62
:1029D0009F4F9923A9F0F92F96E9BB279395F69578
:1029E000879577956795B795F111F8CFFAF4BB0FF6
:1029F00011F460FF1BC06F5F7F4F8F4F9F4F16C05A
:102A0000882311F096E911C0772321F09EE8872FE3
:102A1000762F05C0662371F096E8862F70E060E09F
:102A20002AF09A95660F771F881FDAF7880F969518
:102A3000879597F90895990F0008550FAA0BE0E8BC
:102A4000FEEF16161706E807F907C0F01216130670
:102A5000E407F50798F0621B730B840B950B39F4B0
:102A60000A2661F0232B242B252B21F408950A2616
:102A700009F4A140A6958FEF811D811D08950E9444
:102A800052150C94C3150E94B51538F00E94BC1560
:102A900020F0952311F00C94AC150C94B215112470
:102AA0000C94F7150E94D41570F3959FC1F3950F00
:102AB00050E0551F629FF001729FBB27F00DB11DC2
:102AC000639FAA27F00DB11DAA1F649F6627B00D52
:102AD000A11D661F829F2227B00DA11D621F739F3B
:102AE000B00DA11D621F839FA00D611D221F749F49
:102AF0003327A00D611D231F849F600D211D822F90
:102B0000762F6A2F11249F5750409AF0F1F08823B6
:102B10004AF0EE0FFF1FBB1F661F771F881F9150E3
:102B20005040A9F79E3F510580F00C94AC150C94D1
:102B3000F7155F3FE4F3983ED4F386957795679554
:102B4000B795F795E7959F5FC1F7FE2B880F911D0D
:102B50009695879597F9089597F99F6780E870E0B3
:102B600060E008959FEF80EC089500240A94161603
:102B7000170618060906089500240A94121613066B
:102B8000140605060895092E0394000C11F48823F9
:102B900052F0BB0F40F4BF2B11F460FF04C06F5F15
:102BA0007F4F8F4F9F4F089557FD9058440F551FEB
:102BB00059F05F3F71F04795880F97FB991F61F0BF
:102BC0009F3F79F087950895121613061406551F36
:102BD000F2CF4695F1DF08C0161617061806991FA2
:102BE000F1CF86957105610508940895E894BB2797
:102BF00066277727CB0197F90895052E97FB1EF4DA
:102C000000940E94141657FD07D00E94661607FC18
:102C100003D04EF40C9414165095409530952195A0
:102C20003F4F4F4F5F4F08959095809570956195F8
:102C30007F4F8F4F9F4F08950E948816A59F900D3C
:102C4000B49F900DA49F800D911D11240895B7FF8E
:102C50000C941C160E941C16821B930B08952F9235
:102C60003F924F925F926F927F928F929F92AF921C
:102C7000BF92CF92DF92EF92FF920F931F93CF9369
:102C8000DF93CDB7DEB7CA1BDB0B0FB6F894DEBF00
:102C90000FBECDBF09942A88398848885F846E8426
:102CA0007D848C849B84AA84B984C884DF80EE8070
:102CB000FD800C811B81AA81B981CE0FD11D0FB679
:102CC000F894DEBF0FBECDBFED010895A1E21A2E2C
:102CD000AA1BBB1BFD010DC0AA1FBB1FEE1FFF1FC0
:102CE000A217B307E407F50720F0A21BB30BE40B10
:102CF000F50B661F771F881F991F1A9469F7609557
:102D00007095809590959B01AC01BD01CF01089510
:102D1000A29FB001B39FC001A39F700D811D11241C
:102D2000911DB29F700D811D1124911D0895AA1B44
:102D3000BB1B51E107C0AA1FBB1FA617B70710F0A6
:102D4000A61BB70B881F991F5A95A9F780959095D8
:102D5000BC01CD01089597FB072E16F4009407D00F
:102D600077FD09D00E94971607FC05D03EF4909598
:102D700081959F4F0895709561957F4F0895EE0F4F
:102D8000FF1F0590F491E02D09945058BB27AA2706
:102D90000E94DD160C94C3150E94B51538F00E94F0
:102DA000BC1520F039F49F3F19F426F40C94B215A9
:102DB0000EF4E095E7FB0C94AC15E92F0E94D415B6
:102DC00058F3BA17620773078407950720F079F460
:102DD000A6F50C94F6150EF4E0950B2EBA2FA02D47
:102DE0000B01B90190010C01CA01A0011124FF27B8
:102DF000591B99F0593F50F4503E68F11A16F040B3
:102E0000A22F232F342F4427585FF3CF46953795B1
:102E10002795A795F0405395C9F77EF41F16BA0B76
:102E2000620B730B840BBAF09150A1F0FF0FBB1F24
:102E3000661F771F881FC2F70EC0BA0F621F731F6D
:102E4000841F48F4879577956795B795F7959E3FCA
:102E500008F0B0CF9395880F08F09927EE0F97955B
:102E6000879508950E94DC1588F09F5798F0B92F38
:102E70009927B751B0F0E1F0660F771F881F991FAF
:102E80001AF0BA95C9F714C0B13091F00E94F61546
:102E9000B1E008950C94F615672F782F8827B85F56
:102EA00039F0B93FCCF3869577956795B395D9F707
:102EB0003EF490958095709561957F4F8F4F9F4F11
:102EC00008950E941B1508F48FEF08950F931F9328
:102ED000CF93DF938230910510F482E090E0E0918F
:102EE0005B04F0915C0430E020E0B0E0A0E03097BB
:102EF00099F42115310509F44AC0281B390B2430F7
:102F00003105D8F58A819B816115710589F1FB0135
:102F100093838283FE0111C040815181028113811C
:102F200048175907E0F04817590799F4109761F0CE
:102F300012960C93129713961C933296CF01DF9141
:102F4000CF911F910F91089500935B0410935C043F
:102F5000F4CF2115310551F04217530738F0A9017C
:102F6000DB019A01BD01DF01F801C1CFEF01F9CF0B
:102F700090935C0480935B04CDCFFE01E20FF31FBE
:102F8000819391932250310939832883D7CF20919F
:102F9000590430915A04232B41F4209106013091B9
:102FA000070130935A042093590420910401309171
:102FB00005012115310541F42DB73EB740910801B7
:102FC00050910901241B350BE0915904F0915A04EA
:102FD000E217F307A0F42E1B3F0B2817390778F0F0
:102FE000AC014E5F5F4F2417350748F04E0F5F1F4F
:102FF00050935A0440935904819391939FCFF0E0EA
:10300000E0E09CCFCF93DF930097E9F0FC0132978B
:1030100013821282A0915B04B0915C04ED0130E058
:1030200020E01097A1F420813181820F931F20911D
:10303000590430915A042817390709F061C0F093F8
:103040005A04E0935904DF91CF910895EA01CE1715
:10305000DF07E8F54A815B819E0141155105B1F713
:10306000E901FB83EA8349915991C40FD51FEC17FD
:10307000FD0761F4808191810296840F951FE9011B
:1030800099838883828193819B838A83F0E0E0E047
:1030900012968D919C9113970097B9F52D913C91C3
:1030A0001197CD010296820F931F20915904309100
:1030B0005A042817390739F6309751F510925C04F5
:1030C00010925B04B0935A04A0935904BCCFD383ED
:1030D000C28340815181840F951FC817D90761F4BD
:1030E0004E5F5F4F88819981480F591F51834083FC
:1030F0008A819B81938382832115310509F0B0CFAA
:10310000F0935C04E0935B049ECFFD01DC01C0CF33
:1031100013821282D7CFB0E0A0E0E1E9F8E10C948D
:1031200031168C01009751F4CB010E9466178C0177
:10313000C801CDB7DEB7E0E10C944D16FC01E60FF7
:10314000F71F9C0122503109E217F30708F49DC0D4
:10315000D901CD91DC911197C617D70798F0C530EA
:10316000D10530F3CE0104978617970708F3C61BE5
:10317000D70B2297C193D1936D937C93CF010E947B
:103180000218D6CF5B01AC1ABD0A4C018C0E9D1EF5
:10319000A0915B04B0915C04512C412CF12CE12CEA
:1031A000109731F58091590490915A04881599052A
:1031B00009F05CC04616570608F058C0809104011B
:1031C00090910501009741F48DB79EB74091080199
:1031D00050910901841B950BE817F90708F055C0B9
:1031E000F0935A04E0935904F90171836083A0CFEE
:1031F0008D919C91119712966C90129713967C90DA
:103200001397A815B90559F56C0142E0C40ED11CFD
:10321000CA14DB0420F1AC014A195B09DA011296E9
:10322000159780F06282738251834083D9016D9338
:103230007C93E114F10471F0D7011396FC93EE93A3
:10324000129776CF22968C0F9D1FF9019183808370
:10325000F301EFCFF0935C04E0935B0469CF481671
:10326000590608F42C017D01D3019ACFCB010E94AD
:1032700066177C01009749F0AE01B8010E94481919
:10328000C8010E940218870153CF10E000E050CF20
:10329000FB01DC0102C001900D9241505040D8F773
:1032A0000895FB01DC018D91019080190110D9F383
:1032B000990B0895FB01DC0101900D920020E1F7CC
:1032C0000895FB01DC014150504030F08D91019098
:1032D000801919F40020B9F7881B990B0895FB0198
:1032E000DC014150504048F001900D920020C9F798
:1032F00001C01D9241505040E0F70895AEE0B0E0AB
:10330000E4E8F9E10C943D160D891E8986E08C8372
:103310001A8309838FEF9FE79E838D83AE01475EFB
:103320005F4F6F89788DCE0101960E94A1192F8180
:103330003885020F131FF80110822E96E4E00C94DA
:103340005916ABE0B0E0E7EAF9E10C942F167C01E6
:103350003B018A01FC0117821682838181FFC8C16B
:10336000CE0101965C01F7019381F30193FD8591F4
:1033700093FF81913F01882309F453C1853239F4C9
:1033800093FD859193FF81913F01853229F4B70127
:1033900090E00E94911BE7CF912C212C312CFFE172
:1033A000F31538F08B3211F190F4803209F1833249
:1033B00029F137FC3CC020ED280F2A3050F536FEAD
:1033C00020C08AE0989E200D1124922E06C08D32D6
:1033D00091F0803371F7689430F8F30193FD859193
:1033E00093FF81913F018111DACF21C0689431F8B8
:1033F000689432F8F2CF689433F8EFCF689434F8D9
:10340000ECCFEAE02E9E200D1124222E689435F890
:10341000E4CF8E3229F436FC04C1689436F8DDCF4F
:103420008C3619F4689437F8D8CF8836B1F2982FD3
:103430009F7D95549330E0F08336A1F18337C1F13D
:10344000833509F063C02801F2E04F0E511CF801EA
:10345000C080D180692D70E036FC02C06FEF7FEF35
:10346000C6010E947B1B4C01689437F882010AC098
:103470000C5F1F4FFFE3F98388248394912C65012F
:10348000E89437F833FE2DC0522C8114910471F565
:10349000552009F468CFB70180E290E00E94911BAB
:1034A0005A94F6CFF801808189830E5F1F4FE4CFD5
:1034B0002801F2E04F0E511CF801C080D180692D27
:1034C00070E036FC02C06FEF7FEFC6010E94861BE2
:1034D0004C018201D5CFB70180E290E00E94911BA0
:1034E0002A942814190409F0B0F7CECFF60137FC5E
:1034F000859137FE81916F01B70190E00E94911B89
:1035000051105A94F1E08F1A9108BFCF843619F008
:10351000893609F077C0F80137FE6BC06081718190
:10352000828193810C5F1F4FF32DFF763F2E97FF13
:1035300009C090958095709561957F4F8F4F9F4FF3
:10354000689437F82AE030E0A5010E94C11BC82E1C
:10355000CA188C2C432C36FE0CC0E89440F8C914D1
:1035600040F434FE05C032FC03C0F32DFE7E4F2E26
:10357000892C44FE95C0FE01EC0DF11D8081803345
:1035800009F087C0242D297E422E842D8870582E64
:1035900043FC95C040FE8FC09C2C821418F42C0C68
:1035A000922C981844FE91C0B70180E390E00E94ED
:1035B000911B42FE09C088E790E041FE02C088E509
:1035C00090E0B7010E94911BC91408F48AC0CA9404
:1035D000D12C9FEFC91AD90ACA0CDB1CF6018291C3
:1035E0006F01B70190E00E94911BAC14BD04B1F7CC
:1035F0004FCF60817181072E000C880B990B0E5FF5
:103600001F4F92CFD32CE894D4F82AE030E08537CE
:1036100039F1232D297FD22E8F3601F148F48835D8
:10362000A9F0F701868197812B96E2E10C944B1665
:10363000803749F08837A9F7D4FE02C06894D2F8E1
:1036400020E130E00DC06894D4F8F6CF34FE03C01A
:10365000822F8660D82E20E132E002C028E030E0E0
:10366000F801D7FE0FC060817181828193810C5F68
:103670001F4FA5010E94C11BC82ECA183D2CE894FB
:1036800037F867CF6081718190E080E00E5F1F4F57
:10369000F0CF42FC02C0839478CF8394839475CF9B
:1036A000842D867809F471CFF6CFB70180E290E0DF
:1036B0000E94911B83948214C0F3512C73CF522C1F
:1036C0005818821408F46ECFF8CF842D867809F448
:1036D0007BCF8BE241FE80E247FC8DE2B70190E0B8
:1036E00071CFB70180E390E00E94911B9A946CCF58
:1036F0008FEF9FEF99CFFC01059061507040011052
:10370000D8F7809590958E0F9F1F0895FC0161500A
:10371000704001900110D8F7809590958E0F9F1FF3
:1037200008950F931F93CF93DF93182F092FEB0169
:103730008B8181FD09C01FEF0FEF812F902FDF914B
:10374000CF911F910F91089582FF14C02E813F8168
:103750008C819D81281739073CF4E881F981CF01DC
:1037600001969983888310838E819F8101969F8320
:103770008E83E3CFE885F985812F0995892BA1F305
:10378000DACFFA01AA27283051F1203181F1E894EB
:103790006F936E7F6E5F7F4F8F4F9F4FAF4FB1E044
:1037A0003ED0B4E03CD0670F781F891F9A1FA11D3F
:1037B000680F791F8A1F911DA11D6A0F711D811D40
:1037C000911DA11D20D009F468943F912AE0269F05
:1037D00011243019305D3193DEF6CF010895462F64
:1037E0004770405D4193B3E00FD0C9F7F6CF462F45
:1037F0004F70405D4A3318F0495D31FD40524193AE
:1038000002D0A9F7EACFB4E0A6959795879577956A
:103810006795BA95C9F700976105710508959B01F1
:10382000AC010A2E06945795479537952795BA957A
:10383000C9F7620F731F841F951FA01D089510E024
:10384000C6E8D0E004C0FE010E94BF162196C7382A
:08385000D107C9F7F894FFCF7E
:103858000100000000005D04800000000000120369
:1038680040026D025F03D0027C02C2020D0A007B97
:10387800445241494E5F56414C56453A434C4F538A
:1038880045447D007B445241494E5F56414C564564
:103898003A4F50454E7D007B46414E3A4F46467D55
:1038A800007B46414E3A4F4E7D007B53414645547E
:1038B800595F56414C56453A434C4F5345447D0059
:1038C8007B50554D503A4F46467D007B5341464507
:1038D80054595F56414C56453A4F50454E7D007BF2
:1038E80050554D503A4F4E7D002F2F22225C5C627E
:1038F80008660C6E0A720D7409005C753030303041
:10390800006E756C6C00747275650066616C736529
:10391800006461746100647261696E56616C7665F9
:1039280053746174650073616665747956616C7669
:103938006553746174650066616E537461746500E3
:1039480070756D7053746174650066616E5370654F
:1039580065640070756D70537065656400647261AC
:10396800696E56616C76654C6576656C00666C6F41
:103978007753656E736F72310072756E74696D6519
:103988000073657269616C4E756D62657200504FA7
:10399800544100504F544200504F544300506F74EC
:1039A800656E74696F6D6574657200636D64323A33
:1039B80020002A2A2A2A2A2A2A2A2A2A2A2A2A2A93
:1039C8002A2A2A2A2A00696E20636F6D6D616E6447
:1039D80048616E646C65723A200038353733343389
:1039E80032333633303335313331413035320054A8
:1039F80068652074696D652074726176656C696E9E
:103A080067206973206A75737420746F6F2064610E
:103A18006E6765726F75732E2042657474657220C7
:103A2800746861742049206465766F7465206D79C7
:103A380073656C6620746F2073747564792074687C
:103A480065206F74686572206772656174206D798E
:103A58007374657279206F662074686520756E6965
:103A680076657273653A20776F6D656E2E00253026
:103A780032643A253032643A253032640043686152
:0E3A88006E6765206465746563746564000094
:00000001FF
