:100000000C9436000C945E000C945E000C945E0020
:100010000C945E000C945E000C945E000C945E00E8
:100020000C945E000C945E000C945E000C945E00D8
:100030000C945E000C945E000C945E000C945E00C8
:100040000C9444030C945E000C94CA030C94A40317
:100050000C945E000C945E000C945E000C945E00A8
:100060000C945E000C945E002B031E0311241FBE33
:10007000CFEFD8E0DEBFCDBF11E0A0E0B1E0EAE80D
:10008000FEE002C005900D92A03BB107D9F722E037
:10009000A0EBB1E001C01D92A636B207E1F710E077
:1000A000C5E3D0E004C02197FE010E944005C4339F
:1000B000D107C9F70E949F030C9438070C940000E5
:1000C000FC01938D848D981720F4891B990B01975F
:1000D00008952FE330E0291B3109820F932F911DE2
:1000E0000895FC01918D828D981761F0A28DAE0F5D
:1000F000BF2FB11D5D968C91928D9F5F9F73928FE4
:1001000090E008958FEF9FEF0895FC01918D828D0F
:10011000981731F0828DE80FF11D858D90E00895DC
:100120008FEF9FEF0895FC01218D30E0205C3F4F61
:10013000828DA901481B5109CA018F73992708951F
:10014000FC01A48DA80FB92FB11DA35ABF4F2C914C
:10015000848D90E001968F739078848FA689B789FB
:100160002C93A089B1898C91837080648C93938D3A
:10017000848D981308950288F389E02D80818F7D06
:100180008083F8CF0F931F93CF93DF93EC0181E02F
:10019000888F9B8D8C8D9817B1F0062F8B8D90E0FA
:1001A00001968F739078182F8C8D81131EC00FB617
:1001B00007FCFACFE889F989808185FFF5CFCE0168
:1001C0000E94A000F1CFE889F989808185FFE5CF01
:1001D0009FB7F894EE89FF896083E889F989808167
:1001E0008370806480839FBF10C0EB8DEC0FFD2F68
:1001F000F11DE35AFF4F00839FB7F8941B8FEA89E4
:10020000FB898081806280839FBF81E090E0DF91E5
:10021000CF911F910F910895CF93DF93EC01888DBB
:10022000811104C00DC00FB607FE0DC0EA89FB891D
:10023000808185FDF8CFA889B9898C9186FFF3CF9D
:10024000DF91CF910895808185FFF0CFE889F9890A
:10025000808185FFEBCFCE010E94A000E7CF8CEB21
:1002600091E00E94930021E0892B09F420E0822F85
:10027000089580E090E0892B21F00E942F018111E8
:1002800001C008950E940000FCCF789484B582607C
:1002900084BD84B5816084BD85B5826085BD85B52A
:1002A000816085BDEEE6F0E0808181608083E1E8D9
:1002B000F0E0108280818260808380818160808311
:1002C000E0E8F0E0808181608083E1EBF0E0808114
:1002D00084608083E0EBF0E0808181608083EAE7E6
:1002E000F0E080818460808380818260808380816F
:1002F000816080838081806880831092C10008952E
:100300000895CF92DF92EF92FF920F931F93CF93B6
:10031000DF938C01DB01D0E0C0E07A0181E0E81AD4
:10032000F108452BA1F0F80180819181FC01208129
:1003300031816D01FFEFCF1ADF0A6C91C801F9011D
:100340000995892B21F02196A701D601E6CFCE0190
:10035000DF91CF911F910F91FF90EF90DF90CF90A1
:100360000895019709F008956F3F7F4FE1F7ECEB97
:10037000F1E01382128288EE93E0A0E0B0E0848383
:100380009583A683B7838EE091E09183808385EC8B
:1003900090E09587848784EC90E09787868780EC4F
:1003A00090E0918B808B81EC90E0938B828B82EC40
:1003B00090E0958B848B86EC90E0978B868B118EEA
:1003C000128E138E148ECFCF089508950F931F931E
:1003D000CF93DF93EC018B016F5F7F4F8881998111
:1003E0000E946B06009751F0998388831B830A83D0
:1003F00081E0DF91CF911F910F91089580E0F9CFB7
:10040000CF93DF93EC0128813981232B29F02A81B6
:100410003B812617370770F4CE010E94E60188233E
:1004200051F08C819D81892B49F4E881F9811082FA
:1004300081E001C081E0DF91CF91089581E0FBCFA1
:10044000CF93DF93EC0188819981009711F00E948E
:10045000E205198218821D821C821B821A82DF919A
:10046000CF910895EF92FF920F931F93CF93DF9355
:10047000EC017B018A01BA010E940002882379F015
:100480001D830C83B701888199810E943107CE01B9
:10049000DF91CF911F910F91FF90EF900895CE01C2
:1004A0000E942002F4CFFC0180819181009711F01D
:1004B0000E94E2050895FC011182108213821282CB
:1004C000158214826115710551F0FB010190002025
:1004D000E9F73197AF01461B570B0E94320208958E
:1004E0000F931F93CF93DF93EC018B01019751F092
:1004F000CD2B19F40F3F1F4F79F0DF91CF911F9152
:100500000F9108956F3F7F4F99F76CE171E086EB93
:1005100091E00E945B02ECCF86EB91E00E945302D7
:10052000ECCF0F931F93CF93DF93EC018B010197D7
:1005300051F0CD2B19F40F3F1F4F79F0DF91CF9180
:100540001F910F9108956F3F7F4F99F761E371E01D
:1005500080EB91E00E945B02ECCF80EB91E00E9487
:100560005302ECCFCF92DF92EF92FF9261157105AB
:100570008105910559F4462F372F282F642F732FAB
:10058000822FFF90EF90DF90CF9008956B017C0158
:100590000E944E04A70196010E94A604462F372F01
:1005A000282FECCFCF92DF92EF92FF926217730762
:1005B000840795072CF0FF90EF90DF90CF9008957F
:1005C0006B017C01CA01B9016C197D098E099F0973
:1005D0000E94B2026C0D7D1D8E1D9F1DECCF0197F8
:1005E00009F008956F3F7F4FE1F720E230E040E0EF
:1005F00050E065E070E080E090E00E94D20228ECDC
:1006000030E040E050E065E070E080E090E00E9483
:10061000D20228EC30E040E050E065E070E080E09D
:1006200090E00E94D20228EC30E040E050E065E02B
:1006300070E080E090E00E94D202D3CF6FEF7FEFB6
:1006400090E080E00E9491026FEF7FEF90E080E009
:100650000E94700208956FEF7FEF81E090E00E94AA
:10066000B1016FEF7FEF81E090E00E94EF026FEF4A
:100670007FEF81E090E00E9470026FEF7FEF81E0FA
:1006800090E00E94910208951F920F920FB60F9270
:1006900011240F931F932F933F934F935F936F9367
:1006A0007F938F939F93AF93BF9300915E021091BE
:1006B0005F02209160023091610290915D02B90168
:1006C000A8014F5F5F4F6F4F7F4F83E0890F8D37DA
:1006D00040F086E8890FB901A8014E5F5F4F6F4F68
:1006E0007F4F80935D0240935E0250935F02609360
:1006F0006002709361028091590290915A02A09118
:100700005B02B0915C020196A11DB11D809359025C
:1007100090935A02A0935B02B0935C02BF91AF9199
:100720009F918F917F916F915F914F913F912F9109
:100730001F910F910F900FBE0F901F9018950E9460
:1007400045010E943901FDCF1F920F920FB60F9203
:1007500011242F933F934F935F936F937F938F93C6
:100760009F93AF93BF93EF93FF938CEB91E00E9425
:10077000A000FF91EF91BF91AF919F918F917F91D9
:100780006F915F914F913F912F910F900FBE0F90FE
:100790001F9018951F920F920FB60F9211242F934E
:1007A0008F939F93AF93BF93EF93FF93E091CC010F
:1007B000F091CD01808182FD14C0ECEBF1E0A689BF
:1007C000B7892C91818D8F5F8F73928D891771F00E
:1007D000DF01E18DF0E0E454FE4F258F59968C93B4
:1007E00005C0E091D201F091D3018081FF91EF919A
:1007F000BF91AF919F918F912F910F900FBE0F904E
:100800001F9018958F929F92AF92BF92CF92DF92D6
:10081000EF92FF92CF93DF93EC01688179818A8117
:100820009B81611571058105910521F464E279EDE3
:100830008BE597E02DE133EF41E050E00E94A60404
:1008400049015A019B01AC01A7EAB1E40E94C50429
:100850006B017C01ACEEB4EFA50194010E94D304BE
:10086000C60ED71EE81EF91EF7FE06C081E0C81AA4
:10087000D108E10880E8F80AC882D982EA82FB82BE
:10088000C701B6019F77DF91CF91FF90EF90DF9086
:10089000CF90BF90AF909F908F9008958F929F922E
:1008A000AF92BF92CF92DF92EF92FF9260910001E0
:1008B0007091010180910201909103016115710510
:1008C0008105910521F464E279ED8BE597E02DE156
:1008D00033EF41E050E00E94A60449015A019B0118
:1008E000AC01A7EAB1E40E94C5046B017C01ACEE47
:1008F000B4EFA50194010E94D304C60ED71EE81ED2
:10090000F91EF7FE06C081E0C81AD108E10880E8A8
:10091000F80AC0920001D0920101E0920201F09227
:100920000301C701B6019F77FF90EF90DF90CF9052
:10093000BF90AF909F908F90089560930001709347
:10094000010180930201909303010895052E97FB06
:100950001EF400940E94BD0457FD07D00E940F05AD
:1009600007FC03D04EF40C94BD045095409530958F
:1009700021953F4F4F4F5F4F08959095809570950B
:1009800061957F4F8F4F9F4F08950E943105A59F1E
:10099000900DB49F900DA49F800D911D112408957A
:1009A000B7FF0C94C5040E94C504821B930B0895E5
:1009B0002F923F924F925F926F927F928F929F926F
:1009C000AF92BF92CF92DF92EF92FF920F931F935D
:1009D000CF93DF93CDB7DEB7CA1BDB0B0FB6F8940E
:1009E000DEBF0FBECDBF09942A88398848885F844E
:1009F0006E847D848C849B84AA84B984C884DF80BF
:100A0000EE80FD800C811B81AA81B981CE0FD11DA2
:100A10000FB6F894DEBF0FBECDBFED010895A1E281
:100A20001A2EAA1BBB1BFD010DC0AA1FBB1FEE1F68
:100A3000FF1FA217B307E407F50720F0A21BB30BB3
:100A4000E40BF50B661F771F881F991F1A9469F72F
:100A500060957095809590959B01AC01BD01CF018B
:100A60000895A29FB001B39FC001A39F700D811D87
:100A70001124911DB29F700D811D1124911D0895A7
:100A8000EE0FFF1F0590F491E02D09940F931F9333
:100A9000CF93DF938230910510F482E090E0E091F3
:100AA0006402F091650230E020E0B0E0A0E0309711
:100AB00099F42115310509F44AC0281B390B24305B
:100AC0003105D8F58A819B816115710589F1FB019A
:100AD00093838283FE0111C0408151810281138181
:100AE00048175907E0F04817590799F4109761F033
:100AF00012960C93129713961C933296CF01DF91A6
:100B0000CF911F910F910895009364021093650295
:100B1000F4CF2115310551F04217530738F0A901E0
:100B2000DB019A01BD01DF01F801C1CFEF01F9CF6F
:100B30009093650280936402CDCFFE01E20FF31F14
:100B4000819391932250310939832883D7CF209103
:100B5000620230916302232B41F42091060130910F
:100B600007013093630220936202209104013091C7
:100B700005012115310541F42DB73EB7409108011B
:100B800050910901241B350BE0916202F091630240
:100B9000E217F307A0F42E1B3F0B2817390778F054
:100BA000AC014E5F5F4F2417350748F04E0F5F1FB3
:100BB0005093630240936202819391939FCFF0E040
:100BC000E0E09CCFCF93DF930097E9F0FC013297F0
:100BD00013821282A0916402B0916502ED0130E0AF
:100BE00020E01097A1F420813181820F931F209182
:100BF0006202309163022817390709F061C0F0934F
:100C00006302E0936202DF91CF910895EA01CE176B
:100C1000DF07E8F54A815B819E0141155105B1F777
:100C2000E901FB83EA8349915991C40FD51FEC1761
:100C3000FD0761F4808191810296840F951FE9017F
:100C400099838883828193819B838A83F0E0E0E0AB
:100C500012968D919C9113970097B9F52D913C9127
:100C60001197CD010296820F931F2091620230915D
:100C700063022817390739F6309751F5109265024B
:100C800010926402B0936302A0936202BCCFD3833C
:100C9000C28340815181840F951FC817D90761F421
:100CA0004E5F5F4F88819981480F591F5183408360
:100CB0008A819B81938382832115310509F0B0CF0E
:100CC000F0936502E09364029ECFFD01DC01C0CF8A
:100CD00013821282D7CFB0E0A0E0E1E7F6E00C94F7
:100CE000DA048C01009751F4CB010E9446058C0177
:100CF000C801CDB7DEB7E0E10C94F604FC01E60FC5
:100D0000F71F9C0122503109E217F30708F49DC038
:100D1000D901CD91DC911197C617D70798F0C5304E
:100D2000D10530F3CE0104978617970708F3C61B49
:100D3000D70B2297C193D1936D937C93CF010E94DF
:100D4000E205D6CF5B01AC1ABD0A4C018C0E9D1E8C
:100D5000A0916402B0916502512C412CF12CE12C40
:100D6000109731F580916202909163028815990580
:100D700009F05CC04616570608F058C0809104017F
:100D800090910501009741F48DB79EB740910801FD
:100D900050910901841B950BE817F90708F055C01D
:100DA000F0936302E0936202F90171836083A0CF44
:100DB0008D919C91119712966C90129713967C903E
:100DC0001397A815B90559F56C0142E0C40ED11C62
:100DD000CA14DB0420F1AC014A195B09DA0112964E
:100DE000159780F06282738251834083D9016D939D
:100DF0007C93E114F10471F0D7011396FC93EE9308
:100E0000129776CF22968C0F9D1FF90191838083D4
:100E1000F301EFCFF0936502E093640269CF4816C7
:100E2000590608F42C017D01D3019ACFCB010E9411
:100E300046057C01009749F0AE01B8010E942807E1
:100E4000C8010E94E205870153CF10E000E050CFB7
:100E5000FB01DC0102C001900D9241505040D8F7D7
:100E60000895FB01DC0101900D920020E1F7089547
:100E700010E0C5E3D0E004C0FE010E9440052196C9
:0A0E8000C633D107C9F7F894FFCF7D
:100E8A000100000000006602800000000000C200AD
:100E9A00810160000C0193007100850038353733F9
:100EAA0034333233363330333531333141303532FE
:100EBA00005468652074696D652074726176656C8A
:100ECA00696E67206973206A75737420746F6F2066
:100EDA0064616E6765726F75732E204265747465FE
:100EEA007220746861742049206465766F74652085
:100EFA006D7973656C6620746F20737475647920DC
:100F0A00746865206F746865722067726561742001
:100F1A006D797374657279206F66207468652075BF
:100F2A006E6976657273653A20776F6D656E2E000D
:00000001FF
