:100000000C9487000C94AF000C94AF000C94AF00DC
:100010000C94AF000C94AF000C94AF000C94AF00A4
:100020000C94AF000C94AF000C94AF000C94AF0094
:100030000C94AF000C94AF000C94AF000C94AF0084
:100040000C9429310C94AF000C94B3310C948D3185
:100050000C94AF000C94AF000C94AF000C94AF0064
:100060000C94AF000C94AF00CDCCCC3D0AD7233C10
:1000700017B7D13877CC2B329595E6241FB14F0AAC
:100080000000803FCDCCCC3D6F12833A95BFD63374
:100090007D1D9026B3CE010C000020410000C84217
:1000A00000401C4620BCBE4CCA1B0E5AAEC59D74F7
:1000B00000000000240027002A00000000002500A6
:1000C00028002B0000000000230026002900040463
:1000D00004040404040402020202020203030303F0
:1000E00003030102040810204080010204081020CC
:1000F00001020408102000000008000201000003B3
:10010000040700000000000000001031033111243A
:100110001FBECFEFD8E0DEBFCDBF13E0A0E0B1E05F
:10012000E6E6F4E702C005900D92A635B107D9F7CF
:1001300024E0A6E5B3E001C01D92AB37B207E1F7BA
:1001400010E0C6E8D0E004C02197FE010E94AD3463
:10015000C538D107C9F70E9484310C94263A0C9413
:10016000000008958330B1F060F08730E9F0883006
:1001700009F1843021F5E0E8F0E080818F7D808313
:100180000895813069F0823021F484B58F7D84BD7B
:1001900008950895E0E8F0E080818F7780830895E6
:1001A00084B58F7784BD0895E0EBF0E080818F7790
:1001B00080830895E0EBF0E080818F7D8083089557
:1001C000CF93DF93282F30E0F901EA50FF4F84915D
:1001D000F901EE51FF4FD491F901E253FF4FC49161
:1001E000CC23B1F081110EC0EC2FF0E0EE0FFF1F19
:1001F000EC53FF4FA591B491EC91ED2331F490E0D5
:1002000080E008C00E94B200EFCF81E090E002C021
:1002100090E080E0DF91CF9108951F93CF93DF931B
:10022000282F30E0F901EA50FF4F8491F901EE5197
:10023000FF4F1491F901E253FF4FC491CC23A9F071
:10024000D62F811116C0EC2FF0E0EE0FFF1FE65401
:10025000FF4FA591B4918FB7F894D1110DC09C9127
:10026000E12FE095E923EC938FBFDF91CF911F91B0
:1002700008950E94B200E7CFEC91E12BEC93F4CF0C
:10028000CF93DF9390E0FC01EE51FF4F2491825316
:100290009F4FFC018491882319F190E0880F991FEA
:1002A000FC01E055FF4FA591B491FC01E654FF4FCE
:1002B000C591D491662349F06230A9F08FB7F894C4
:1002C000EC91E22BEC938FBF0BC09FB7F8948C910D
:1002D000E22FE0958E238C938881E823E8839FBFEB
:1002E000DF91CF9108959FB7F8943C91822F80952C
:1002F00083238C93E881E22BE8839FBFF1CF1F9388
:10030000CF93DF93182FEB0161E00E94400120970B
:10031000D9F0CF3FD10501F1E12FF0E0EA50FF4FD6
:10032000E491E33061F1E8F0E730E9F1E83009F415
:1003300042C0E43071F1C038D1050CF444C061E032
:10034000812F0E940D0104C060E0812F0E940D01E9
:10035000DF91CF911F91089561E0812F0E940D01DF
:10036000F7CFE13039F0E23031F784B5806284BDF7
:10037000C8BDEECF84B5806884BDC7BDE9CFE0E8D5
:10038000F0E0808180688083D0938900C0938800EA
:10039000DFCFE0E8F0E0808180628083D0938B0043
:1003A000C0938A00D5CFE0EBF0E080818068808345
:1003B000C093B300CDCFE0EBF0E08081806280831A
:1003C000C093B400C5CF60E0812F0E940D01C0CF63
:1003D0008E3008F08E508770806480937C00EAE74E
:1003E000F0E080818064808380917A0086FDFCCF7C
:1003F00080917800909179000895789484B5826016
:1004000084BD84B5816084BD85B5826085BD85B5B8
:10041000816085BDEEE6F0E0808181608083E1E867
:10042000F0E010828081826080838081816080839F
:10043000E0E8F0E0808181608083E1EBF0E08081A2
:1004400084608083E0EBF0E0808181608083EAE774
:10045000F0E08081846080838081826080838081FD
:10046000816080838081806880831092C1000895BC
:100470003FB7F8948091730490917404A09175042F
:10048000B091760426B5A89B05C02F3F19F00196C0
:10049000A11DB11D3FBFBA2FA92F982F8827BC01DE
:1004A000CD01620F711D811D911D660F771F881F81
:1004B000991F660F771F881F991F08958F929F922B
:1004C000AF92BF92CF92DF92EF92FF926B017C01CD
:1004D0000E9438024B015C011BC021E0C21AD10806
:1004E000E108F10888EE880E83E0981EA11CB11C7B
:1004F000C114D104E104F10459F00E9438026819D2
:1005000079098A099B09683E73408105910528F79E
:10051000C114D104E104F10459F7FF90EF90DF908A
:10052000CF90BF90AF909F908F9008952FB7F89481
:1005300060916F04709170048091710490917204C5
:100540002FBF089508954F925F926F927F92AF925E
:10055000BF92CF92DF92EF92FF920F931F93CF93B0
:10056000DF93CDB7DEB729013A019B01AC01241915
:1005700035094609570989899A89AB89BC89BC0123
:10058000CD016A197B098C099D090E948934A80153
:10059000970124193509460957090E94EF33CA010A
:1005A000B9016A0D7B1D8C1D9D1DDF91CF911F919F
:1005B0000F91FF90EF90DF90CF90BF90AF907F9022
:1005C0006F905F904F9008950F931F93CF93DF9399
:1005D000EC010E949602688779878A879B87E88169
:1005E000F9810284F385E02DCE0109959923ACF4BD
:1005F0000E949602088519852A853B85601B710B30
:10060000820B930B0C811D812E813F816017710736
:100610008207930720F38FEF9FEFDF91CF911F9118
:100620000F910895DB0114964D915C9115976D9192
:100630007C91DC01ED91FC910280F381E02D099524
:100640000895CF92DF92EF92FF920F931F93CF9373
:10065000DF938C01DB01D0E0C0E07A0181E0E81A91
:10066000F108452BA1F0F80180819181FC012081E6
:1006700031816D01FFEFCF1ADF0A6C91C801F901DA
:100680000995892B21F02196A701D601E6CFCE014D
:10069000DF91CF911F910F91FF90EF90DF90CF905E
:1006A0000895019709F008956F3F7F4FE1F7E1ED5D
:1006B000F3E01382128288EE93E0A0E0B0E084833E
:1006C0009583A683B7838EE091E09183808385EC48
:1006D00090E09587848784EC90E09787868780EC0C
:1006E00090E0918B808B81EC90E0938B828B82ECFD
:1006F00090E0958B848B86EC90E0978B868B118EA7
:10070000128E138E148ECFCFFC01938D848D98178B
:1007100020F4891B990B019708952FE330E0291BE2
:100720003109820F932F911D0895FC01918D828DC7
:10073000981761F0A28DAE0FBF2FB11D5D968C9101
:10074000928D9F5F9F73928F90E008958FEF9FEF40
:100750000895FC01918D828D981731F0828DE80FFC
:10076000F11D858D90E008958FEF9FEF0895FC01B6
:10077000218D30E0205C3F4F828DA901481B51093B
:10078000CA018F739927089581ED93E00E94B70302
:1007900021E0892B09F420E0822F0895CF92DF9287
:1007A000EF92FF921F93CF93DF93EC016A017B01DD
:1007B000122F60E079E08DE390E0A70196010E949E
:1007C00058342150310941095109569547953795BB
:1007D0002795E889F98982E08083C11481EED806E3
:1007E000E104F10421F0211580E1380798F0E8894F
:1007F000F989108260E874E88EE190E0A701960123
:100800000E945834215031094109510956954795A4
:1008100037952795EC85FD853083EE85FF85208310
:10082000188EEC89FD891083EA89FB8980818061BB
:100830008083EA89FB89808188608083EA89FB89DB
:10084000808180688083EA89FB8980818F7D8083B5
:10085000DF91CF911F91FF90EF90DF90CF9008959F
:10086000FC01A48DA80FB92FB11DA35ABF4F2C9125
:10087000848D90E001968F739078848FA689B789D4
:100880002C93A089B1898C91837080648C93938D13
:10089000848D981308950288F389E02D80818F7DDF
:1008A0008083F8CF0F931F93CF93DF93EC0181E008
:1008B000888F9B8D8C8D9817B1F0062F8B8D90E0D3
:1008C00001968F739078182F8C8D81131EC00FB6F0
:1008D00007FCFACFE889F989808185FFF5CFCE0141
:1008E0000E943004F1CFE889F989808185FFE5CF46
:1008F0009FB7F894EE89FF896083E889F989808140
:100900008370806480839FBF10C0EB8DEC0FFD2F40
:10091000F11DE35AFF4F00839FB7F8941B8FEA89BC
:10092000FB898081806280839FBF81E090E0DF91BE
:10093000CF911F910F910895CF93DF93EC01888D94
:10094000811104C00DC00FB607FE0DC0EA89FB89F6
:10095000808185FDF8CFA889B9898C9186FFF3CF76
:10096000DF91CF910895808185FFF0CFE889F989E3
:10097000808185FFEBCFCE010E943004E7CF80E07D
:1009800090E0892B21F00E94C403811101C00895D9
:100990000E940000FCCFCF93DF93EC01BC0185E007
:1009A0000E947F01BE0186E00E947F01BE0189E0B6
:1009B0000E947F01DF91CF910895CF93DF93D0E024
:1009C000C0E0C83CD1059CF48091CF039091D00346
:1009D00001969093D0038093CF030E94CB0461E0F3
:1009E00070E080E090E00E945E022196EACFD0E0C5
:1009F000C0E0C83CD1059CF48091CF039091D00316
:100A000001979093D0038093CF030E94CB0461E0C1
:100A100070E080E090E00E945E022196EACFD0E094
:100A2000C0E0C83CD1059CF48091CB039091CC03ED
:100A300001969093CC038093CB030E94CB0461E09A
:100A400070E080E090E00E945E022196EACFD0E064
:100A5000C0E0C83CD1059CF48091CB039091CC03BD
:100A600001979093CC038093CB030E94CB0461E069
:100A700070E080E090E00E945E022196EACFD0E034
:100A8000C0E0C83CD1059CF48091CD039091CE0389
:100A900001969093CE038093CD030E94CB0461E036
:100AA00070E080E090E00E945E022196EACFD0E004
:100AB000C0E0C83CD1059CF48091CD039091CE0359
:100AC00001979093CE038093CD030E94CB0461E005
:100AD00070E080E090E00E945E022196EACFDF9114
:100AE000CF9108950F931F93CF93DF938B01EA016A
:100AF000BC0185E00E947F01B80186E00E947F0171
:100B0000BE0189E00E947F01DF91CF911F910F917B
:100B100008950F931F93CF93DF93D0E0C0E0AAC056
:100B200010E000E0083C1105E4F48091CF039091BF
:100B3000D00301979093D0038093CF034091CD03CE
:100B40005091CE036091CB037091CC030E9472054B
:100B500061E070E080E090E00E945E020F5F1F4F56
:100B6000E1CF10E000E0083C1105ECF46091CB030C
:100B70007091CC036F5F7F4F7093CC036093CB0376
:100B80004091CD035091CE038091CF039091D0033B
:100B90000E94720561E070E080E090E00E945E02D9
:100BA0000F5F1F4FE0CF10E000E0083C1105ECF4B0
:100BB0006091CB037091CC03615071097093CC03A9
:100BC0006093CB034091CD035091CE038091CF032E
:100BD0009091D0030E94720561E070E080E090E0A7
:100BE0000E945E020F5F1F4FE0CF10E000E0083C64
:100BF0001105ECF44091CD035091CE034F5F5F4F50
:100C00005093CE034093CD036091CB037091CC03FE
:100C10008091CF039091D0030E94720561E070E053
:100C200080E090E00E945E020F5F1F4FE0CF10E077
:100C300000E0083C1105ECF44091CD035091CE0347
:100C4000415051095093CE034093CD036091CB03A3
:100C50007091CC038091CF039091D0030E947205D4
:100C600061E070E080E090E00E945E020F5F1F4F45
:100C7000E0CF2196C330D10514F510E000E0083C28
:100C800011050CF04DCF8091CF039091D0030196C8
:100C90009093D0038093CF034091CD035091CE0326
:100CA0006091CB037091CC030E94720561E070E00B
:100CB00080E090E00E945E020F5F1F4FE0CF0E9435
:100CC000DD04DF91CF911F910F910895CF93DF93B2
:100CD000EB01823479F08334A9F0813419F0DF918B
:100CE000CF91089583E00E947F01D093CA03C093FF
:100CF000C903F5CF8AE00E947F01D093C803C09357
:100D0000C703EDCF8BE00E947F01D093C603C09351
:100D1000C503E5CFCF92DF92EF92FF926B017C018A
:100D200020E030E0A9010E94CB32882371F0A701B6
:100D30009601C701B6010E94C834A70196010E941E
:100D4000CB32882341F080E001C080E0FF90EF903B
:100D5000DF90CF90089581E0F9CFCF93C1E09B0160
:100D6000AC010E94CB32811101C0C0E08C2FCF9129
:100D700008950895FC016591759185919491089568
:100D80000895DC01ED91FC911197309781F09481E9
:100D90009078906294833E2F2F2F118210821382BD
:100DA0001282632F722F12968D919C91089530E0DC
:100DB00020E0F7CFAF92BF92CF92DF92EF92FF92F7
:100DC0000F931F9381E10E94E801BC01990F880BEA
:100DD000990B1F921F921F922FEF2F93A12CB12CD2
:100DE000650118EEE12E13E0F12E00E010E028EC92
:100DF00030E040E050E00E94A3020F900F900F906F
:100E00000F9077233CF06F3F710531F02CF06FEFBE
:100E100070E002C070E060E070939F0360939E03F7
:100E200082E10E94E801BC01990F880B990B1F9287
:100E30001F921F922FEF2F93A12CB12C650118EE5A
:100E4000E12E13E0F12E00E010E028EC30E040E06D
:100E500050E00E94A3020F900F900F900F90772305
:100E60003CF06F3F710531F02CF06FEF70E002C085
:100E700070E060E070939D0360939C0383E10E94A7
:100E8000E801BC01990F880B990B1F921F921F92CA
:100E90002FEF2F93A12CB12C650118EEE12E13E05A
:100EA000F12E00E010E026E930E040E050E00E9442
:100EB000A3020F900F900F900F9077233CF06F3F9D
:100EC000710531F02CF06FEF70E002C070E060E06F
:100ED00070939B0360939A03809198039091990378
:100EE0009C012A50310960919E0370919F03621703
:100EF000730724F00A968617970774F481E40E941A
:100F0000660680919E0390919F039093990380932E
:100F1000980381E0809397038091950390919603C5
:100F20009C012A50310960919C0370919D036217C6
:100F300073072CF10A96861797070CF1809192039C
:100F4000909193039C012A50310960919A0370910A
:100F50009B036217730724F00A9686179707ECF431
:100F600083E40E94660680919A0390919B0390937C
:100F700093038093920381E0809391030EC082E4F7
:100F80000E94660680919C0390919D039093960326
:100F90008093950381E08093940390E080E01F911B
:100FA0000F91FF90EF90DF90CF90BF90AF9008959A
:100FB00090916D038091B503981721F080936D0394
:100FC00081E0089590916C038091B603981721F009
:100FD00080936C0381E0089590916B038091B80336
:100FE000981721F080936B0381E0089580E00895C5
:100FF0008091970381110AC080919403811109C0E7
:10100000809191038111109291030895109297039A
:10101000089510929403089581E0809360030895E9
:1010200081E080936503089581E080936A030895C9
:1010300082E00E94E000019759F08DE00E94E000FC
:10104000019749F084E00E94E000019739F008958B
:101050000E941408F2CF0E941008F4CF0E940C08DE
:10106000F6CF80916A03811116C0809165038111CA
:1010700014C080916003811112C08091B503811169
:1010800010C08091B60381110EC08091B8038823EF
:1010900061F080E0089580E0089580E0089580E0A8
:1010A000089580E0089580E0089581E00895CF9349
:1010B000DF93EC01BC0185E00E947F01BE0186E068
:1010C0000E947F01BE0189E00E947F01DF91CF91E4
:1010D00008950F931F93CF93DF938B01EA01BC0117
:1010E00085E00E947F01B80186E00E947F01BE0179
:1010F00089E00E947F01DF91CF911F910F910895A8
:1011000010925B0310925A031092570310925603E9
:10111000109259031092580350E040E070E060E0F4
:1011200090E080E00E9469080895FC01808191812F
:10113000009719F00E948F32089560E070E0CB01B3
:1011400008950F931F93CF93DF9341155105F1F04D
:1011500061157105D9F0FC01C481D5812C173D07BB
:10116000D0F441505109C21BD30BC417D50708F066
:10117000EA018B01FC0160817181620F731FAE0176
:10118000C8010E947637C00FD11F1882DF91CF911E
:101190001F910F910895FB011082F8CFDC01149686
:1011A0002D913C91DB011496ED91FC912E1B3F0B90
:1011B00024173507C0F0DC012D913C912115310534
:1011C000A1F0DB016D917C916115710581F0CA017F
:1011D000AF01820F931F0E94683721E0892B09F02D
:1011E00020E0822F089580E0089580E0089580E057
:1011F0000895FC0144815581FB012481358142170A
:10120000530728F050E040E00E94CE08089580E0A7
:101210000895DC01ED91FC910280F381E02D42E024
:1012200050E06CE171E0099508950F931F93CF93FF
:10123000DF93EC010E9412038C01CE010E94090988
:10124000800F911FDF91CF911F910F91089561152C
:10125000710581F0FB0101900020E9F73197AF01A2
:10126000461B570BDC01ED91FC910280F381E02DD0
:101270000995089590E080E008950F931F93CF9310
:10128000DF93EC010E9427098C01CE010E9409091D
:10129000800F911FDF91CF911F910F91089570E002
:1012A00060E08BE00E947F0160E089E00E940D0118
:1012B0001092B8036FE171E081ED93E00E943D0967
:1012C00008956FEF70E08BE00E947F0161E089E09C
:1012D0000E940D0181E08093B80364E371E081ED29
:1012E00093E00E943D0908958091B803811103C0E5
:1012F0000E94610908950E944F09089560E08CE002
:101300000E940D0160E086E00E940D011092B6037C
:1013100067E471E081ED93E00E943D09089561E08A
:101320008CE00E940D0161E086E00E940D0181E0E9
:101330008093B60361E571E081ED93E00E943D0981
:1013400008958091B603811103C00E948F0908950A
:101350000E947E09089561E088E00E940D016AE51F
:1013600071E081ED93E00E943D0981E08093B70335
:1013700008950E94AB0961E087E00E940D0161E0E1
:1013800085E00E940D0181E08093B5036EE671E077
:1013900081ED93E00E943D09089560E088E00E949D
:1013A0000D0168E771E081ED93E00E943D09109224
:1013B000B70308950E94CD0960E087E00E940D0107
:1013C00060E085E00E940D011092B5036EE871E0C7
:1013D00081ED93E00E943D0908958091B50381114C
:1013E00003C00E94B90908950E94DA0908950F9375
:1013F0001F9380916A0381110BC080916503811155
:101400002AC080916003811149C01F910F910895F6
:101410000E94960200916603109167032091680371
:1014200030916903601B710B820B930B693C710552
:101430008105910568F40E9496026093660370939B
:101440006703809368039093690310926A03D5CF72
:101450000E94ED09F0CF0E94960200916103109165
:1014600062032091630330916403601B710B820B54
:10147000930B693C71058105910568F40E94960201
:10148000609361037093620380936303909364039A
:1014900010926503B6CF0E94A109F0CF0E94960278
:1014A00000915C0310915D0320915E0330915F0316
:1014B000601B710B820B930B693C710581059105D3
:1014C00068F40E94960260935C0370935D038093BE
:1014D0005E0390935F031092600397CF0E9474099C
:1014E000F0CF26E040E855E260E070E081ED93E067
:1014F0000E94CE0360E082E00E94400161E085E04E
:101500000E94400160E085E00E940D0160E08DE0F6
:101510000E94400161E086E00E94400160E086E0B8
:101520000E940D0160E084E00E94400161E089E0DA
:101530000E94400160E089E00E940D0161E087E0C7
:101540000E94400160E087E00E940D0161E083E0BD
:101550000E94400161E08CE00E94400161E08BE06C
:101560000E94400161E088E00E9440010E949602D2
:1015700062E081E10E94400162E082E10E9440015C
:1015800062E083E10E9440010E94DA090E9489051D
:1015900062E773E081ED93E00E9415090895CF930F
:1015A000DF93EC0169E971E081ED93E00E943D0970
:1015B0006DEA71E081ED93E00E942709BE0181EDA3
:1015C00093E00E943D0969E971E081ED93E00E949A
:1015D0003D0988818334A9F044F08534C1F0A4F03A
:1015E000863461F40E944F0909C0813429F08234A5
:1015F00029F40E94DA0902C00E94B909DF91CF9153
:1016000008950E948F09FACF0E947E09F7CF0E94A9
:101610006109F4CF0F931F93CF93DF93EC018B01FC
:101620006F5F7F4F888199810E948D36009751F0BE
:10163000998388831B830A8381E0DF91CF911F9177
:101640000F91089580E0F9CFCF93DF93EC012881CB
:101650003981232B29F02A813B812617370770F423
:10166000CE010E940A0B882351F08C819D81892B29
:1016700049F4E881F981108281E001C081E0DF91C5
:10168000CF91089581E0FBCFEF92FF920F931F93CC
:10169000CF93DF93FC01C481D581C40FD51F6115A1
:1016A000710501F1452B41F481E0DF91CF911F914C
:1016B0000F91FF90EF9008957B018C01BE010E9475
:1016C000240B882391F3F801208131818481958155
:1016D000B701820F931F0E946137F801D583C4833D
:1016E00081E0E3CF80E0E1CFCF93DF9300D0CDB7AF
:1016F000DEB769831A8241E050E0BE016F5F7F4F21
:101700000E94440B0F900F90DF91CF910895CF93DB
:10171000DF93EC0188819981009711F00E940436D3
:10172000198218821D821C821B821A82DF91CF913E
:101730000895EF92FF920F931F93CF93DF93EC01E5
:101740007B018A01BA010E94240B882379F01D8352
:101750000C83B701888199810E946137CE01DF91A6
:10176000CF911F910F91FF90EF900895CE010E94AD
:10177000870BF4CFCF93DF93EC016115710571F006
:10178000FB0101900020E9F73197AF01461B570B91
:101790000E94990BCE01DF91CF9108950E94870B93
:1017A000F9CFCF93DF93EC01FB018617970749F040
:1017B000608171816115710541F0448155810E94FC
:1017C000990BCE01DF91CF9108950E94870BF9CF3D
:1017D000FC011182108213821282158214820E94EF
:1017E000D10B0895FC01118210821382128215829E
:1017F00014826115710551F0FB0101900020E9F799
:101800003197AF01461B570B0E94990B0895AF9279
:10181000BF92CF92DF92EF92FF920F931F93CF93DD
:10182000DF935C016B018A01E9012417350720F081
:101830008D2FEA01022F182F69E872E0C5010E947E
:10184000F20BD6011496ED90FC90CE15DF05D0F486
:10185000E016F10608F07801D601ED91FC911197A0
:10186000EE0DFF1D108110826D917C916C0F7D1F1C
:10187000C5010E94BA0BF60180819181E80EF91E24
:10188000D7011C93C501DF91CF911F910F91FF905C
:10189000EF90DF90CF90BF90AF900895FF920F939D
:1018A0001F93CF93DF93EC018B01F42E69E872E074
:1018B0000E94F20BC8010E94E40299237CF02F2DB4
:1018C0000F2C000C330B2817390741F0682FCE017D
:1018D0000E94740BC8010E94E402EFCFCE01DF9199
:1018E000CF911F910F91FF900895FC01808191810C
:1018F000009711F00E94043608950F931F93CF9321
:10190000DF93EC018B01019751F0CD2B19F40F3FC0
:101910001F4F79F0DF91CF911F910F9108956F3F85
:101920007F4F99F761EC71E089EB93E00E94F20B35
:10193000ECCF89EB93E00E94750CECCF0F931F93D3
:10194000CF93DF93EC018B01019751F0CD2B19F46C
:101950000F3F1F4F79F0DF91CF911F910F910895A5
:101960006F3F7F4F99F766ED71E082E793E00E9449
:10197000F20BECCF82E793E00E94750CECCFCF9294
:10198000DF92EF92FF920F931F93CF93DF93CDB728
:10199000DEB7A4970FB6F894DEBF0FBECDBF8C01A3
:1019A00065E572E0CE014F960E94F20BBE01615ECA
:1019B0007F4FC8010E94F908F82ECE014F960E9471
:1019C000750CFF2061F1F8012481358144E050E07D
:1019D000B801CE0149960E94070CCE0149960E949B
:1019E00095086B01CE0149960E94750CC6010197BE
:1019F0008F3F910578F0A4960FB6F894DEBF0FBE26
:101A0000CDBFDF91CF911F910F91FF90EF90DF90AD
:101A1000CF900895B60181E40E946606ECCF6AE596
:101A200072E0CE0143960E94F20BBE016D5E7F4FC5
:101A3000C8010E94F908F82ECE0143960E94750C49
:101A4000FF20E9F0F8012481358144E050E0B8013D
:101A5000CE010D960E94070CCE010D960E949508AE
:101A60006B01CE010D960E94750CC60101978F3F48
:101A7000910508F6B60182E40E946606BCCF6FE5C8
:101A800072E0CE0107960E94F20BBE01695F7F4FA4
:101A9000C8010E94F908F82ECE0107960E94750C25
:101AA000FF2009F4A8CFF8012481358144E050E0FB
:101AB000B801CE0101960E94070CCE0101960E944A
:101AC00095086B01CE0101960E94750CC601019725
:101AD0008F3F910508F08FCFB60183E40E94660620
:101AE0008ACFCF93DF93CDB7DEB72C970FB6F8949C
:101AF000DEBF0FBECDBF81ED93E00E94B703181685
:101B00001906ACF54AE061ED73E0CE0107960E943C
:101B10004E0C30E020E049E150E068E773E0CE0190
:101B200007960E94A10888E793E0FC01019000203D
:101B3000E9F7CF0189579340029714F164E672E008
:101B400081ED93E00E943D09BE01695F7F4FCE01A8
:101B500001960E94E80BCE0101960E94BF0CCE01B7
:101B600001960E94750CCE0107960E94750C2C966A
:101B70000FB6F894DEBF0FBECDBFDF91CF910895B1
:101B800062E772E081ED93E00E94270968E773E065
:101B900081ED93E00E943D0988E793E00E94CF0A1F
:101BA000E2CF0F931F93CF93DF93D0E0C0E026C026
:101BB0000E94800810E000E0083C1105F4F40E9447
:101BC00018080E94710D80915A0390915B03019750
:101BD00090935B0380935A030E9457080E94310838
:101BE000882349F065E070E080E090E00E945E02AA
:101BF0000F5F1F4FE1CF0E9480082196C330D105AF
:101C000014F510E000E0083C1105A4F60E94180845
:101C10000E94710D80915A0390915B0301969093FD
:101C20005B0380935A030E9457080E94310888235F
:101C300009F4BECF65E070E080E090E00E945E02B3
:101C40000F5F1F4FE0CFDF91CF911F910F9108954C
:101C5000CF93DF93DEC00E948008D0E0C0E0C83C94
:101C6000D1052CF50E9418080E94710D80915A032D
:101C700090915B03019790935B0380935A0340918B
:101C800058035091590360915603709157030E9475
:101C9000690865E070E080E090E00E945E020E94CA
:101CA0003108882311F02196DACF0E948008D0E015
:101CB000C0E0C83CD10534F50E9418080E94710D9F
:101CC00060915603709157036F5F7F4F7093570376
:101CD00060935603409158035091590380915A03E1
:101CE00090915B030E94690865E070E080E090E0FD
:101CF0000E945E020E943108882311F02196D9CFFC
:101D00000E948008D0E0C0E0C83CD10534F50E94B4
:101D100018080E94710D609156037091570361502D
:101D20007109709357036093560340915803509183
:101D3000590380915A0390915B030E9469080E94A5
:101D40003108882341F065E070E080E090E00E9477
:101D50005E022196D9CF0E948008D0E0C0E0C83C46
:101D6000D10534F50E9418080E94710D4091580366
:101D7000509159034F5F5F4F50935903409358035D
:101D8000609156037091570380915A0390915B03C1
:101D90000E94690865E070E080E090E00E945E02C9
:101DA0000E943108882311F02196D9CF0E94800823
:101DB000D0E0C0E0C83CD10534F50E9418080E946C
:101DC000710D40915803509159034150510950935E
:101DD00059034093580360915603709157038091C3
:101DE0005A0390915B030E94690865E070E080E00F
:101DF00090E00E945E020E943108882311F0219633
:101E0000D9CF0E9480080E943108882381F10E9466
:101E1000D10D0E943108882361F1D0E0C0E0C83CB8
:101E2000D1050CF01ACF0E9418080E94710D809104
:101E30005A0390915B03019690935B0380935A033E
:101E40004091580350915903609156037091570384
:101E50000E94690865E070E080E090E00E945E0208
:101E60000E943108882309F4F6CE2196D8CF0E942B
:101E70008008DF91CF910895CF92DF92EF92FF9289
:101E8000611571058105910559F4462F372F282FCB
:101E9000642F732F822FFF90EF90DF90CF900895E3
:101EA0006B017C010E943732A70196010E94EF333B
:101EB000462F372F282FECCFCF92DF92EF92FF9251
:101EC00062177307840795072CF0FF90EF90DF905F
:101ED000CF9008956B017C01CA01B9016C197D098D
:101EE0008E099F090E943C0F6C0D7D1D8E1D9F1D4C
:101EF000ECCF019709F008956F3F7F4FE1F720E2A3
:101F000030E040E050E065E070E080E090E00E946A
:101F10005C0F28EC30E040E050E065E070E080E0ED
:101F200090E00E945C0F7093C4036093C30328EC9D
:101F300030E040E050E065E070E080E090E00E943A
:101F40005C0F7093C2036093C10328EC30E040E063
:101F500050E065E070E080E090E00E945C0F7093DC
:101F6000C0036093BF03C7CF0F931F938B019C01E6
:101F7000672B91F0FA014115510581F0BC010190E8
:101F80000020E9F73197E41BF50BE817F90741F05A
:101F900080E01F910F9108950E944A370E944A37AE
:101FA00090E080E009C00E944A370E944A370E94B0
:101FB0004A370E944A37019686179707F8F40115A9
:101FC000110589F32817390780F3FC01E00FF11F91
:101FD000A081FA014115510551F301900020E9F764
:101FE0003197E41BF50BE817F90718F3FA01E80F2E
:101FF000F91FE081EA17F9F280E0CBCF81E0C9CF89
:102000009C01CB01BA01A9010E94B40F0895CF939E
:10201000DF93EA01FC01009729F101900020E9F724
:102020003197E81BF90BCE17DF07F8F030E020E01E
:102030002C173D0700F5DB01A20FB31FFC01009731
:10204000B1F001900020E9F73197E81BF90BE21796
:10205000F30778F0FC01E20FF31F50815C932F5FD0
:102060003F4FE6CFF0E0E0E0DECF0E944A370E942B
:102070004A370E944A37DF91CF9108952F923F92BD
:102080004F925F926F927F928F929F92AF92BF9288
:10209000CF92DF92EF92FF920F931F93CF93DF9334
:1020A000CDB7DEB7A9970FB6F894DEBF0FBECDBF90
:1020B0007C018B01DC011496EC911497EF77E250D0
:1020C000EF3308F09FC5F0E0E859FF4E0C94AD34B3
:1020D0003215321599149914CF1502169C15021653
:1020E0004A150216A710021602160216021602164A
:1020F0000216021602160216021602160216021620
:10210000021602160216021602160216A91302166B
:1021100002160216021602160216021602160216FF
:1021200002160216021602160216021602160216EF
:1021300002160216021602160216021602160216DF
:102140000216021602160216021602165A13FC0195
:10215000C080D180E280F380C701B6010E94AD0645
:1021600081113DC0C701B6010E948A0681114DC090
:1021700020E030E0A901C701B6010E94CB328823DC
:10218000B4F4D8018D919C91DC01ED91FC9101900A
:10219000F081E02D6DE20995F80122813381820FF3
:1021A000931F93838283F7FAF094F7F8F09486E014
:1021B00089A320E836E948E15BE4C701B6010E9443
:1021C000633588230CF467C06894AA24A5F8B12C61
:1021D0000F2EF5E07F2EF02D312C212C2FC0D801B1
:1021E0008D919C91DC01ED91FC910280F381E02DB9
:1021F00044E050E06AE872E00995F80122813381F9
:10220000820F931F9383828301C2D8018D919C9189
:10221000DC01ED91FC910280F381E02D44E050E07F
:102220006AE872E00995F80122813381820F931FD9
:1022300093838283EBC1B594A7947A947720ACF111
:10224000872C072C000C9908C401880F991F880F50
:10225000991F88569F4F0E94BA060E94C006A70188
:1022600096010E94CB32181634F3C401880F991FCF
:10227000880F991F88599F4F0E94BA060E94C00676
:102280009B01AC01C701B6010E9431336B017C0197
:102290002A0C3B1CD0CF6894AA24A5F8B12C0F2E91
:1022A000F5E07F2EF02D312C212C20E030E0A9012B
:1022B000C701B6010E94633518165CF42CEA35ECB0
:1022C00047E257E3C701B6010E94CB3218160CF063
:1022D00041C038A22F8EC701B6010E9434356EA3CB
:1022E0007FA388A799A76F8B788F898F9A8F2B01EF
:1022F0003C0180E492E4AFE0B0E08AA39BA3ACA3EE
:10230000BDA39AE0491651046104710408F450C059
:102310000F2EFAE08F2E912CA12CB12CF02D6AA15A
:102320007BA18CA19DA1A50194010E9458342AA3F0
:102330003BA34CA35DA389A1815089A3C301B20132
:10234000A50194010E94583429013A01DACFB594CD
:10235000A7947A9477200CF4BCCF872C072C000C20
:102360009908C401880F991F880F991F80589F4FA3
:102370000E94BA060E94C006A70196010E9463351A
:1023800018162CF7C401880F991F880F991F8856BB
:102390009F4F0E94BA060E94C0069B01AC01C70174
:1023A000B6010E9431336B017C012A183B08CFCF64
:1023B0006EA17FA188A599A50E94D0329B01AC0196
:1023C000C701B6010E94C7346B017C016AA17BA1E1
:1023D0008CA19DA10E94D0329B01AC01C701B60126
:1023E0000E9431334B015C010E9434356B017C014A
:1023F0000E94D0329B01AC01C501B4010E94C734D8
:102400009B01AC010E94C8340E943435C60ED71E11
:10241000E81EF91ECB8EDC8EED8EFE8E8AA19BA16E
:10242000ACA1BDA1C816D906EA06FB0618F11B8EA1
:102430001C8E1D8E1E8E8EA19FA1A8A5B9A50196EA
:10244000A11DB11D8F8B988FA98FBA8F21143104D4
:1024500089F00A97A105B10568F09FEF291A390A9A
:1024600038A22F8E81E090E0A0E0B0E08F8B988FB3
:10247000A98FBA8F8B8C9C8CAD8CBE8CC501B4019E
:102480002AE030E040E050E00E945834672B682B8F
:10249000692B91F4F9A01F147CF4C501B4012AE062
:1024A00030E040E050E00E9458342B8F3C8F4D8F3D
:1024B0005E8FFA94F9A2DECF6F89788D898D9A8D1F
:1024C0007E01A7E1EA0EF11C2AE030E040E050E096
:1024D0000E945834605DF70162937F01622F732F71
:1024E000842F952F611571058105910569F7AE015E
:1024F000495E5F4F4E1B5F0BD8018D919C91DC01B3
:10250000ED91FC910280F381E02DB7010995F8016E
:1025100022813381820F931F9383828329A121110A
:1025200091C08F8D98A1892B09F470C0D8018D912D
:102530009C91DC01ED91FC910190F081E02D65E62C
:102540000995F80122813381820F931F938382833F
:10255000EF8CF8A0FF20A4F480819181DC01ED9143
:10256000FC910190F081E02D6DE20995F801228146
:102570003381820F931F93838283F194E194F10856
:10258000FE0177969701ADECBCEC0E947A349695EB
:10259000879596958795969587959C01220F331F71
:1025A000220F331F820F931F880F991F9701281B3B
:1025B000390BC901805D829397010E947A347C01B6
:1025C000F694E794F694E794F694E794E114F10412
:1025D000C9F6AE01495E5F4F4E1B5F0BD8018D916E
:1025E0009C91DC012D913C91D90112962D913C9149
:1025F000BF01F9010995D80112962D913C911397CD
:10260000820F931F13969C938E931297F8018281E9
:102610009381A9960FB6F894DEBF0FBECDBFDF91B0
:10262000CF911F910F91FF90EF90DF90CF90BF90CF
:10263000AF909F908F907F906F905F904F903F9062
:102640002F9008956B8D7C8D8D8D9E8D7E01F1E197
:10265000EF0EF11CDD24DA94D20E222381F02AE061
:1026600030E040E050E00E945834605DD7016E9346
:102670007D01622F732F842F952F2D2DEBCF8EE2AE
:10268000F7018293BF01AE014F5E5F4F4E1B5F0BA0
:10269000D8018D919C91DC01ED91FC910280F38138
:1026A000E02D0995F80122813381820F931F9383D6
:1026B000828337CFDB018D919C91DC01ED91FC9100
:1026C0000190F081E02D6BE50995F80122813381BD
:1026D000820F931F93838283D701ED90FC90E114C6
:1026E000F10421F1B801C7010E943E10F701858174
:1026F0008823E1F0F8E08F02C0011124E80EF91EF2
:10270000E114F10499F0D8018D919C91DC01ED91D7
:10271000FC910190F081E02D6CE20995F801228195
:102720003381820F931F93838283D9CFD8018D91F8
:102730009C91DC01ED91FC910190F081E02D6DE523
:102740000995F80122813381820F931F938382833D
:1027500060CFDB018D919C91DC01ED91FC910190AA
:10276000F081E02D6BE70995F80122813381820F1A
:10277000931F93838283D701AD90BC90A9C00E9420
:102780004A37FF20A1F1F60180819181DC01ED91B2
:10279000FC910190F081E02D6CE50995F601228114
:1027A0003381820F931F9383828380819181DC0127
:1027B000ED91FC910190F081E02D6F2D0995F601CE
:1027C00022813381820F931F93838283D4016C9182
:1027D0006623B9F1BFEF8B1A9B0AEBE7F2E0F080BA
:1027E000FF2079F28181681761F23296F8CF662373
:1027F00091F0D6018D919C91DC01ED91FC910190BD
:10280000F081E02D0995F60122813381820F931F1B
:1028100093838283DBCFD6018D919C91DC01ED9176
:10282000FC910280F381E02D46E050E06FE872E019
:102830000995F60122813381820F931F938382834E
:10284000C5CFD8018D919C91DC01ED91FC91019057
:10285000F081E02D62E20995F80122813381820F37
:10286000931F9383828380819181DC01ED91FC91A0
:102870000190F081E02D6AE30995F801228133810E
:10288000820F931F93838283B801C5010E943E107B
:10289000D50115968C918823C9F1B8E08B02C0014F
:1028A0001124A80EB91EA114B10481F1F801808190
:1028B0009181DC01ED91FC910190F081E02D6CE2C1
:1028C0000995F80122813381820F931F93838283BC
:1028D000A114B104D9F06801F501868097808114B4
:1028E000910409F44CCFD8018D919C91DC01ED91BC
:1028F000FC910190F081E02D62E20995F8012281BE
:102900003381820F931F9383828360CFD8018D918F
:102910009C91DC01ED91FC910190F081E02D6DE73F
:102920000995F80122813381820F931F938382835B
:1029300070CE1296CD90DC901397AD90BC907B0139
:10294000A114B10499F0FB0180819181DC01ED912A
:10295000FC910190F081E02D62E20995F80122815D
:102960003381820F931F9383828329C00E944A3749
:10297000DD20D9F1F70180819181DC01ED91FC919D
:102980000190F081E02D6CE50995F70122813381FA
:10299000820F931F9383828380819181DC01ED916B
:1029A000FC910190F081E02D6D2D0995F7012281B8
:1029B0003381820F931F9383828364015301460105
:1029C000F1E08F1A9108CD28D1F135012FEF621A6D
:1029D000720AD5016C91EBE7F2E0D080DD2041F284
:1029E0008181681729F23296F8CF662391F0D701DA
:1029F0008D919C91DC01ED91FC910190F081E02D95
:102A00000995F70122813381820F931F938382837B
:102A1000D4CFD7018D919C91DC01ED91FC91028086
:102A2000F381E02D46E050E06FE872E00995F70190
:102A300022813381820F931F93838283BECFD8017B
:102A40008D919C91DC01ED91FC910190F081E02D44
:102A500062E20995F80122813381820F931F9383EB
:102A60008283D7CD12964D915C9113976D917C9195
:102A7000F80180819181DC01ED91FC910280F3816C
:102A8000E02D0995F80122813381820F931F9383F2
:102A90008283BFCDCD90DD90ED90FC90FF200CF0B7
:102AA00048C0FB0180819181DC01ED91FC91019096
:102AB000F081E02D6DE20995F80122813381820FCA
:102AC000931F9383828366277727CB016C197D0937
:102AD0008E099F097E01F7E1EF0EF11C2AE030E03C
:102AE00040E050E00E945834605DD7016E937D0154
:102AF000622F732F842F952F611571058105910524
:102B000069F7AE01495E5F4F4A1B5B0BF80180819C
:102B10009181DC01ED91FC910280F381E02DB70100
:102B20000995F80122813381820F931F9383828359
:102B300070CDC701B601CECF6D917D918D919C91E5
:102B40007E01B7E1EB0EF11C2AE030E040E050E0FE
:102B50000E945834605DF70162937F01622F732FEA
:102B6000842F952F611571058105910569F7AE01D7
:102B7000495E5F4F4E1B5F0BD8018D919C91DC012C
:102B8000ED91FC910280F381E02DB7010995F801E8
:102B900022813381820F931F938382833ACD8C915C
:102BA00081111AC0DB018D919C91DC01ED91FC91AA
:102BB0000280F381E02D45E050E06BE972E0099579
:102BC000F80122813381820F931F93838283D8017E
:102BD00012968D919C911DCDFB0180819181DC012C
:102BE000ED91FC910280F381E02D44E050E066E934
:102BF00072E00995F80122813381820F931F93833C
:102C00008283E5CFF80180819181DC01ED91FC9117
:102C10000280F381E02D44E050E06AE872E009951B
:102C2000F80122813381820F931F93838283F1CC39
:102C30002F923F924F925F926F927F928F929F92CC
:102C4000AF92BF92CF92DF92EF92FF920F931F93BA
:102C5000CF93DF93CDB7DEB762970FB6F894DEBFA0
:102C60000FBECDBF5B016A0119014B018B016115DC
:102C70007105B1F1FB016115710559F0019000205A
:102C8000E9F731977F01E61AF70AD6010D911C91F9
:102C90000DC0F12CE12CF9CFB701A801C4010E94AD
:102CA0000010882381F018C00F5F1F4FF801EE0D50
:102CB000FF1DD60112968D919C91E817F90750F4EB
:102CC0008081882349F3F8018081882369F30F5FAD
:102CD0001F4FF9CF10E000E00115110509F46BC09A
:102CE000F501309709F4B1C001900020E9F7319760
:102CF000EA19FB091A830983FC83EB831E821D8278
:102D000086E0FE013196DE011D9601900D928A95B6
:102D1000E1F78D859E85892B09F49AC089EB96E0B1
:102D2000A0E0892B09F498C086E0FE013D96DE0103
:102D3000179601900D928A95E1F78F819885892BDE
:102D400009F494C089EB96E0A0E0892B09F492C0C5
:102D50008B859C85019709F491C0D10114968C91C3
:102D600014978078856014968C938F819885F101F3
:102D70009183808389859A859383828381E0012B67
:102D800009F482C062960FB6F894DEBF0FBECDBFC5
:102D9000DF91CF911F910F91FF90EF90DF90CF9037
:102DA000BF90AF909F908F907F906F905F904F906B
:102DB0003F902F900895F5018928C1F101900020DE
:102DC000E9F731977F01EA18FB08D60112960D91B9
:102DD0001C911397C7010196800F911F14962D9196
:102DE0003C9115972817390720F1F60193838283C8
:102DF000208131818217930710F114962D913C9117
:102E000028173907F0F08681978182179307D8F049
:102E10000115110509F464CFA701B801C5010E948D
:102E20000710F801EE0DFF1D10825ACFF12CE12C96
:102E3000CCCF81E018968C9310E000E051CF0E9437
:102E40004A370E944A370E944A37F0E0E0E052CF0A
:102E500080E090E0DC0165CFA0FD66CFD101149643
:102E60008C911497807814968C9388CF80E090E0B2
:102E7000DC016BCFA0FD6CCF0E944A37F101848149
:102E800080788460848371CF80E07CCFAF92BF92E2
:102E9000CF92DF92EF92FF920F931F93CF93DF9326
:102EA000EC016B01892B09F4FAC0DB018D919C9137
:102EB000DC01ED91FC910190F081E02D6BE709952B
:102EC000F60122813381820F931F93838283A8802E
:102ED000B980A9C00E944A37CC23A1F1F8018081B2
:102EE0009181DC01ED91FC910190F081E02D6CE588
:102EF0000995F80122813381820F931F9383828386
:102F000080819181DC01ED91FC910190F081E02DB7
:102F10006C2F0995F80122813381820F931F9383CF
:102F20008283D7016C916623B9F1BFEFEB1AFB0ADC
:102F3000EBE7F2E0C081CC2379F28181681761F27E
:102F40003296F8CF662391F0D8018D919C91DC01E7
:102F5000ED91FC910190F081E02D0995F80122811D
:102F60003381820F931F93838283DBCFD8018D91AE
:102F70009C91DC01ED91FC910280F381E02D46E013
:102F800050E06FE872E00995F80122813381820FE9
:102F9000931F93838283C5CFD6018D919C91DC01D1
:102FA000ED91FC910190F081E02D62E20995F6012E
:102FB00022813381820F931F938382838081918149
:102FC000DC01ED91FC910190F081E02D6AE309951F
:102FD000F60122813381820F931F93838283B6018E
:102FE000C5010E943E10D50115968C918823D1F120
:102FF000B8E08B02C0011124A80EB91EA114B104BF
:1030000089F1F60180819181DC01ED91FC910190C3
:10301000F081E02D6CE20995F60122813381820F67
:10302000931F93838283A114B104E1F08601D5013B
:103030001696ED90FC90E114F10409F44BCFF601E3
:1030400080819181DC01ED91FC910190F081E02D76
:1030500062E20995F60122813381820F931F9383E7
:1030600082835FCFD6018D919C91DC01ED91FC9123
:103070000190F081E02D6DE70995F6012281338101
:10308000820F931F93838283DF91CF911F910F91C2
:10309000FF90EF90DF90CF90BF90AF900895DB014D
:1030A0008D919C91DC01ED91FC910280F381E02DEA
:1030B00044E050E06AE872E00995F601228133812C
:1030C000820F931F93838283DFCFCF93DF9300D050
:1030D00000D0CDB7DEB77A8369831C821B82BE0124
:1030E0006F5F7F4FFC01808191810E9446170F9096
:1030F0000F900F900F90DF91CF9108950E94651867
:1031000008950E947E180895CF92DF92EF92FF9269
:103110006B017C01B90128173907A8F090E080E025
:1031200086179707B0F4FA01E80FF91FC114D1040C
:1031300061F0E816F90658F0DC01AC0DBD1D3C91BC
:1031400030830196EDCF0E944A370E944A370E9491
:103150004A37FF90EF90DF90CF900895CF92DF92A3
:10316000EF92FF926B017C01672B69F0211531050D
:1031700061F0DC018417950751F080E0FF90EF903B
:10318000DF90CF9008950E944A370E944A3790E01E
:1031900080E009C00E944A370E944A370E944A379D
:1031A0000E944A3701968A179B07C0F4C114D104C4
:1031B00089F3E816F90680F3FC01EC0DFD1D608132
:1031C0002115310559F34817590750F3FC01E20F57
:1031D000F31F7081761731F380E0D0CF81E0CECF3E
:1031E0002F923F924F925F926F927F928F929F9217
:1031F000AF92BF92CF92DF92EF92FF920F931F9305
:10320000CF93DF93CDB7DEB766970FB6F894DEBFE6
:103210000FBECDBF2A013B015901242E352C862E2D
:10322000972C7A01452BA1F16B01D901ED90FC900F
:1032300014C0FC8AEB8ADE8ACD8A2B893C894D89B1
:103240005E89622D732D882D992D0E94AE188823DA
:1032500089F01AC08FEFE81AF80AF701EC0DFD1D8E
:10326000D50112968D919C91E817F90758F4808149
:103270008823F9F2F7018081882361F3FFEFEF1AC9
:10328000FF0AF8CFF12CE12CE114F10409F461C03C
:10329000FA82E9827C826B821E821D8286E0FE01B8
:1032A0003196DE011D9601900D928A95E1F78D858C
:1032B0009E85892B09F48BC089EB96E0A0E0892BD1
:1032C00009F489C086E0FE013D96DE011796019063
:1032D0000D928A95E1F78F819885892B09F485C035
:1032E00089EB96E0A0E0892B09F483C08B859C854F
:1032F000019709F482C0D80114968C9114978078B4
:10330000856014968C938F819885F80191838083D2
:1033100089859A859383828381E0EF2809F473C0BD
:1033200066960FB6F894DEBF0FBECDBFDF91CF918A
:103330001F910F91FF90EF90DF90CF90BF90AF90D3
:103340009F908F907F906F905F904F903F902F90C5
:103350000895D5011296ED90FC901397C301019644
:103360008E0D9F1D14962D913C91159728173907A6
:1033700010F1F501938382832081318182179307B5
:1033800000F114962D913C9128173907E0F08681C1
:10339000978182179307C8F0E114F10409F478CFFC
:1033A0009301A701C301B2010E948418F701E60D41
:1033B000F71D10826DCF81E018968C93F12CE12CD3
:1033C00067CF0E944A370E944A370E944A3780E0FE
:1033D00090E0DC0174CFA0FD75CFD80114968C91DC
:1033E0001497807814968C9397CF80E090E0DC015E
:1033F0007ACFA0FD7BCF0E944A37F8018481807884
:103400008460848380CF80E08BCF8F929F92AF9235
:10341000BF92CF92DF92EF92FF920F931F93CF93C1
:10342000DF93CDB7DEB762970FB6F894DEBF0FBE5D
:10343000CDBF6115710509F474C14A016B015C01CE
:103440007B01672B21F1DC010D911C910115110508
:1034500019F1F80166817781E114F104A1F0611599
:10346000710599F0C7010E945837892BA9F0D8013E
:1034700015968C91882371F0B8E08B02C00111245D
:10348000080F191FE3CF0E944A370E944A3710E005
:1034900000E002C010E000E001151105A9F0802F46
:1034A000912F62960FB6F894DEBF0FBECDBFDF91AD
:1034B000CF911F910F91FF90EF90DF90CF90BF9031
:1034C000AF909F908F900895F40182819381089628
:1034D000248135812817390708F499C0285031090B
:1034E000358324832115310579F1D5011296ED91AB
:1034F000FC91309709F495C02115310509F48BC072
:10350000C9018E1B9F0BAC01559547955595479565
:10351000559547958115BCEF9B070CF47EC0893FFC
:1035200093400CF07CC04583D50113963C932E93B9
:103530001297D90115961C92159714961C92149700
:1035400017961C921E9216972115310509F48AC010
:10355000C901A601C114D10409F469C0F6010190A2
:103560000020E9F73197EC19FD09DE86CD86F88B4E
:10357000EF8761E070E07A8B698B66E0FE013D9633
:10358000DE01179601900D926A95E1F76F817885BB
:10359000672B09F44FC00F2EF9EBCF2EF6E0DF2E8C
:1035A000F02DE12CCD2809F449C0009709F449C059
:1035B00066E0FE013796DE01119601900D926A9544
:1035C000E1F769817A81672BF1F10F2EF9EBCF2EAC
:1035D000F6E0DF2EF02DE12CCD28C9F16D817E8142
:1035E00061307105C1F1DC0114966C91149760682B
:1035F00014966C9369817A81FC017783668381E0FC
:10360000452B71F1882371F1822F932F4ACF81E0EE
:103610008087980199CF0E944A370E944A370E94BA
:103620004A37F501318320833383228382CFF0E050
:10363000E0E09BCFC12CD12C7601B4CFE0FCB5CF1C
:10364000DECF0E944A37C12CD12C7601C5CFE0FCD9
:10365000C5CF0E944A37FC0164816F776483CACF6B
:1036600080E0D0CF2115310509F458C0D501ED9186
:10367000FC9105C0C8012817390769F0FC01309793
:1036800051F085818823B1F3B8E08B02C001112489
:103690008E0F9F1FF0CFD90115968C91882331F0A2
:1036A000B8E08B0280011124020F131F309751F1F3
:1036B0000115110531F0C8018E1B9F0B81159C4F20
:1036C000DCF00115110531F0C8018E1B9F0B893FFD
:1036D0009340A4F40115110599F0C8018E1B9F0BAE
:1036E0009595879595958795959587958583012BD4
:1036F00069F080E090E0D5CE0E944A370E944A37B8
:1037000080E0F4CFD5010D931C93F1CFD501139632
:10371000FC93EE93129780E090E0C3CE80E090E0BF
:10372000C0CE80E090E0BDCE4F925F926F927F92CC
:103730008F929F92AF92BF92CF92DF92EF92FF92C1
:103740000F931F93CF93DF93CDB7DEB7C950D2400D
:103750000FB6F894DEBF0FBECDBFFE01E35AFF4F98
:10376000CF010E9691838083938382838E010559C6
:103770001E4F158304831783068310861586CF0199
:103780000996DF0189839A83AB83BC8385569109AF
:103790000E94C106D8016D937D938D939C931397DE
:1037A0001296AD90BC901397CD90DC90C114D104CB
:1037B00009F4D9C181EA92E0009709F4D1C17C01F2
:1037C000892B21F1F601008111810115110519F1F3
:1037D000D80116966D917C91E114F10499F0611570
:1037E000710591F0C7010E945837892BA1F0F801AB
:1037F0008581882371F0F8E08F02C0011124080F41
:10380000191FE3CF0E944A370E944A3710E000E0B8
:1038100002C010E000E00115110509F454C0302F7A
:10382000212F832F922FC359DE4FA881B981CD5606
:10383000D1408D839E83AF83B887CE0105960E94C9
:10384000C1062B013C016B964CAE5DAE6EAE7FAEF9
:103850006B976B96AEACBFAC6B976996EEACFFAC5A
:103860006997E114F10409F4E6C286EA92E0009750
:1038700009F4DEC28C01892B09F47CC1F701C080F8
:10388000D180C114D10409F47AC1D60116966D9184
:103890007C910115110509F469C16115710509F4DF
:1038A00067C1C8010E945837892B09F468C1F60125
:1038B0008581882309F461C1F8E08F02C0011124D9
:1038C000C80ED91EDECFD50112962D913C911397CB
:1038D000285F3F4F14968D919C91159782179307FF
:1038E00008F4B1C00897F50195838483009771F1BE
:1038F000D6011296ED91FC91309709F4AFC0009774
:1039000009F4A6C09C012E1B3F0BA90155954795B4
:1039100055954795559547952115BCEF3B070CF4F8
:1039200099C0293F33400CF097C04583D6011396C8
:103930009C938E931297DC0115961C921597149602
:103940001C92149717961C921E921697009709F4D2
:10395000A9C07C0121EA32E02115310509F484C0B7
:10396000F90101900020E9F7AF01425A5240C159D4
:10397000DE4F39832883CF56D140CF58DE4F59834D
:103980004883C157D14041E050E0CD58DE4F5983C4
:103990004883C357D14046E0FE01E159FE4FDE01A6
:1039A000A150BE4F01900D924A95E1F7C150DE4FF4
:1039B00048815981CF5FD140452B09F458C049EB6C
:1039C00056E060E0452B09F456C0E114F10409F417
:1039D00055C046E0FE01E150FE4FDE01A750BE4F4C
:1039E00001900D924A95E1F7C750DE4F4881598109
:1039F000C95FD140452B09F443C049EB56E060E074
:103A0000452B09F441C0C350DE4F48815981CD5F39
:103A1000D14041305105E1F1F701448140684483D0
:103A2000C750DE4F48815981C95FD140D7011796F1
:103A30005C934E93169741E0232B91F1442391F12F
:103A4000382F292FEECE81E018968C93C8017ECFB7
:103A50000E944A370E944A370E944A37F6019183F2
:103A600080839383828367CF50E040E080CF40E043
:103A700050E0BA01A7CF60FDA8CFDDCF0E944A3742
:103A800040E050E0BA01BCCF60FDBDCF0E944A3794
:103A9000D70114964C9114974F7714964C93C0CF3E
:103AA00040E0CCCF009709F458C0D601ED91FC91CD
:103AB00005C098018217930769F0F901309751F01A
:103AC00025812223B1F3B8E02B02900111242E0F9F
:103AD0003F1FF0CFDC0115962C91222331F0B8E086
:103AE0002B0280011124080F191F309751F1011585
:103AF000110531F0C8018E1B9F0B81159C4FDCF026
:103B00000115110531F0C8018E1B9F0B893F9340B1
:103B1000A4F40115110599F0C8018E1B9F0B959512
:103B2000879595958795959587958583012B69F060
:103B300030E020E076CE0E944A370E944A3780E08B
:103B4000F4CFD6010D931C93F1CFD6011396FC93BD
:103B5000EE93129730E020E064CE30E020E061CEBA
:103B600030E020E05ECE30E020E05BCE0E944A37BD
:103B70000E944A37D12CC12C02C0D12CC12CC114B7
:103B8000D10411F0F60159C1D50112962D913C9145
:103B90001397285F3F4F14968D919C91159782172C
:103BA000930708F4B8C00897F501958384830097BC
:103BB00071F1D7011296ED91FC91309709F4B6C0DE
:103BC000009709F4ADC09C012E1B3F0BA901559530
:103BD000479555954795559547952115BCEF3B075A
:103BE0000CF4A0C0293F33400CF09EC04583D701A0
:103BF00013969C938E931297DC0115961C92159741
:103C000014961C92149717961C921E921697009762
:103C100009F4B0C0AC0126EA32E02115310509F4FF
:103C20008BC0F90101900020E9F7BF01675A72408B
:103C3000C159DE4F39832883CF56D140CF58DE4F4C
:103C400079836883C157D14061E070E0CD58DE4F81
:103C500079836883C357D14066E0FE01E159FE4F86
:103C6000DE01AD50BE4F01900D926A95E1F7CD5047
:103C7000DE4F68817981C35FD140672B09F45FC053
:103C80000F2EF9EB8F2EF6E09F2EF02DA12C892818
:103C900009F459C04115510509F458C066E0FE0108
:103CA000ED50FE4FDE01A351BE4F01900D926A957B
:103CB000E1F7C351DE4F68817981CD5ED140672B3A
:103CC00009F446C00F2EF9EB8F2EF6E09F2EF02D53
:103CD000A12C892809F440C0CF50DE4F688179813A
:103CE000C15FD14061307105D9F1FA01648160682A
:103CF0006483C351DE4F68817981CD5ED140DA01A2
:103D000017967C936E93169741E0232B89F14423F9
:103D100089F1FC0192C081E018968C93C60177CF9F
:103D20000E944A370E944A370E944A37F70191831E
:103D300080839383828360CF70E060E079CF812CB1
:103D4000912C5401A4CFA0FCA5CFDECF0E944A370E
:103D5000812C912C5401BDCFA0FCBECF0E944A37CC
:103D6000DA0114966C9114976F7714966C93C1CF07
:103D700040E0CDCF009709F458C0D701ED91FC91F8
:103D800005C096018217930769F0F901309751F049
:103D900025812223B1F3B8E02B02900111242E0FCC
:103DA0003F1FF0CFDC0115962C91222331F0B8E0B3
:103DB0002B0260011124C80ED91E309751F1C11495
:103DC000D10431F0C6018E1B9F0B81159C4FDCF096
:103DD000C114D10431F0C6018E1B9F0B893F934063
:103DE000A4F4C114D10499F0C6018E1B9F0B9595C4
:103DF000879595958795959587958583CD2869F0C5
:103E0000F0E0E0E01AC00E944A370E944A3780E0A2
:103E1000F4CFD701CD92DC92F1CFD7011396FC936A
:103E2000EE931297F0E0E0E008C0F0E0E0E005C0BB
:103E3000F0E0E0E002C0F0E0E0E09091B8033097FD
:103E400029F08481807886608483908364964CAE68
:103E50005DAE6EAE7FAE64976496AEACBFAC649759
:103E60006296EEACFFAC6297E114F10409F48DC1E7
:103E700086EB92E0009709F485C18C01892B59F1FA
:103E8000F701C080D1800AC00E944A370E944A3799
:103E9000F8E08F02C0011124C80ED91EC114D1044C
:103EA000A9F0D60116966D917C910115110561F36B
:103EB0006115710559F3C8010E945837892B31F0FB
:103EC000F60185818111E4CFD12CC12CC114D1041C
:103ED00029F0F6015CC1D12CC12CF8CFD501129686
:103EE0002D913C911397285F3F4F14968D919C9193
:103EF00015978217930708F4B8C00897F5019583C2
:103F00008483009771F1D7011296ED91FC9130975F
:103F100009F4B6C0009709F4ADC09C012E1B3F0BFD
:103F2000A90155954795559547955595479521155F
:103F3000BCEF3B070CF4A0C0293F33400CF09EC0FF
:103F40004583D70113969C938E931297DC011596A7
:103F50001C92159714961C92149717961C921E92F9
:103F60001697009709F4B0C0AC0126EB32E021159A
:103F7000310509F48BC0F90101900020E9F7BF0178
:103F8000675B7240C159DE4F39832883CF56D140D9
:103F9000CF58DE4F79836883C157D14061E070E02C
:103FA000CD58DE4F79836883C357D14066E0FE0168
:103FB000E159FE4FDE01A951BE4F01900D926A9565
:103FC000E1F7C951DE4F68817981C75ED140672B27
:103FD00009F45FC00F2EF9EB8F2EF6E09F2EF02D27
:103FE000A12C892809F459C04115510509F458C07C
:103FF00066E0FE01E951FE4FDE01AF51BE4F019078
:104000000D926A95E1F7CF51DE4F68817981C15EEB
:10401000D140672B09F446C00F2EF9EB8F2EF6E046
:104020009F2EF02DA12C892809F440C0CB51DE4FE2
:1040300068817981C55ED14061307105D9F1FA019D
:10404000648160686483CF51DE4F68817981C15E8D
:10405000D140DA0117967C936E93169741E0232B9B
:1040600089F1442389F1FC0192C081E018968C9378
:10407000C60177CF0E944A370E944A370E944A37CA
:10408000F701918380839383828360CF70E060E047
:1040900079CF812C912C5401A4CFA0FCA5CFDECFE9
:1040A0000E944A37812C912C5401BDCFA0FCBECF79
:1040B0000E944A37DA0114966C9114976F77149620
:1040C0006C93C1CF40E0CDCF009709F458C0D70121
:1040D000ED91FC9105C096018217930769F0F901F3
:1040E000309751F025812223B1F3B8E02B029001E3
:1040F00011242E0F3F1FF0CFDC0115962C912223A7
:1041000031F0B8E02B0260011124C80ED91E30979F
:1041100051F1C114D10431F0C6018E1B9F0B8115E2
:104120009C4FDCF0C114D10431F0C6018E1B9F0BF3
:10413000893F9340A4F4C114D10499F0C6018E1BA9
:104140009F0B9595879595958795959587958583EB
:10415000CD2869F0F0E0E0E01AC00E944A370E94E2
:104160004A3780E0F4CFD701CD92DC92F1CFD7016E
:104170001396FC93EE931297F0E0E0E008C0F0E0B5
:10418000E0E005C0F0E0E0E002C0F0E0E0E09091A7
:10419000B703309729F08481807886608483908388
:1041A0002D964CAE5DAE6EAE7FAE2D972D96AEAC1D
:1041B000BFAC2D972B96EEACFFAC2B97E114F1041E
:1041C00009F48DC187EC92E0009709F485C18C0158
:1041D000892B21F1F701C080D180C114D10419F1DC
:1041E000D60116966D917C910115110599F0611516
:1041F000710591F0C8010E945837892BA1F0F60192
:104200008581882371F0F8E08F02C0011124C80E67
:10421000D91EE3CF0E944A370E944A37D12CC12CC5
:1042200002C0D12CC12CC114D10411F0F60159C126
:10423000D50112962D913C911397285F3F4F14960C
:104240008D919C9115978217930708F4B8C0089731
:10425000F50195838483009771F1D7011296ED9152
:10426000FC91309709F4B6C0009709F4ADC09C01E9
:104270002E1B3F0BA901559547955595479555958B
:1042800047952115BCEF3B070CF4A0C0293F3340F4
:104290000CF09EC04583D70113969C938E93129782
:1042A000DC0115961C92159714961C92149717967C
:1042B0001C921E921697009709F4B0C0AC0127EC2F
:1042C00032E02115310509F48BC0F901019000207D
:1042D000E9F7BF01685C7240C159DE4F398328831A
:1042E000CF56D140CF58DE4F79836883C157D14034
:1042F00061E070E0CD58DE4F79836883C357D140C9
:1043000066E0FE01E159FE4FDE01A552BE4F01906D
:104310000D926A95E1F7C552DE4F68817981CB5DD8
:10432000D140672B09F45FC00F2EF9EB8F2EF6E01A
:104330009F2EF02DA12C892809F459C04115510553
:1043400009F458C066E0FE01E552FE4FDE01AB52B3
:10435000BE4F01900D926A95E1F7CB52DE4F688116
:104360007981C55DD140672B09F446C00F2EF9EB6A
:104370008F2EF6E09F2EF02DA12C892809F440C045
:10438000C752DE4F68817981C95DD14061307105C6
:10439000D9F1FA01648160686483CB52DE4F688191
:1043A0007981C55DD140DA0117967C936E9316979B
:1043B00041E0232B89F1442389F1FC0192C081E083
:1043C00018968C93C60177CF0E944A370E944A37CD
:1043D0000E944A37F701918380839383828360CF61
:1043E00070E060E079CF812C912C5401A4CFA0FC27
:1043F000A5CFDECF0E944A37812C912C5401BDCF2E
:10440000A0FCBECF0E944A37DA0114966C91149733
:104410006F7714966C93C1CF40E0CDCF009709F42D
:1044200058C0D701ED91FC9105C096018217930702
:1044300069F0F901309751F025812223B1F3B8E0FA
:104440002B02900111242E0F3F1FF0CFDC01159697
:104450002C91222331F0B8E02B0260011124C80E08
:10446000D91E309751F1C114D10431F0C6018E1B11
:104470009F0B81159C4FDCF0C114D10431F0C601B3
:104480008E1B9F0B893F9340A4F4C114D10499F073
:10449000C6018E1B9F0B959587959595879595954C
:1044A00087958583CD2869F0F0E0E0E01AC00E948E
:1044B0004A370E944A3780E0F4CFD701CD92DC9290
:1044C000F1CFD7011396FC93EE931297F0E0E0E062
:1044D00008C0F0E0E0E005C0F0E0E0E002C0F0E09D
:1044E000E0E09091B603309729F08481807886606F
:1044F0008483908326964CAE5DAE6EAE7FAE2697DB
:104500002696AEACBFAC26972496EEACFFAC2497B3
:10451000E114F10409F48DC180ED92E0009709F4F3
:1045200085C18C01892B59F1F701C080D1800AC067
:104530000E944A370E944A37F8E08F02C0011124D6
:10454000C80ED91EC114D104A9F0D60116966D91DA
:104550007C910115110561F36115710559F3C801CD
:104560000E945837892B31F0F60185818111E4CF03
:10457000D12CC12CC114D10429F0F6015CC1D12C7D
:10458000C12CF8CFD50112962D913C911397285F3D
:104590003F4F14968D919C9115978217930708F4BD
:1045A000B8C00897F50195838483009771F1D7010E
:1045B0001296ED91FC91309709F4B6C0009709F47A
:1045C000ADC09C012E1B3F0BA901559547955595F4
:1045D0004795559547952115BCEF3B070CF4A0C0B6
:1045E000293F33400CF09EC04583D70113969C931E
:1045F0008E931297DC0115961C92159714961C92B7
:10460000149717961C921E921697009709F4B0C043
:10461000AC0120ED32E02115310509F48BC0F90120
:1046200001900020E9F7BF01615D7240C159DE4F82
:1046300039832883CF56D140CF58DE4F79836883A2
:10464000C157D14061E070E0CD58DE4F7983688377
:10465000C357D14066E0FE01E159FE4FDE01A15390
:10466000BE4F01900D926A95E1F7C153DE4F68810C
:104670007981CF5CD140672B09F45FC00F2EF9EB35
:104680008F2EF6E09F2EF02DA12C892809F459C019
:104690004115510509F458C066E0FE01E153FE4F93
:1046A000DE01A753BE4F01900D926A95E1F7C75303
:1046B000DE4F68817981C95CD140672B09F446C01F
:1046C0000F2EF9EB8F2EF6E09F2EF02DA12C8928CE
:1046D00009F440C0C353DE4F68817981CD5CD1407D
:1046E00061307105D9F1FA01648160686483C75350
:1046F000DE4F68817981C95CD140DA0117967C93DD
:104700006E93169741E0232B89F1442389F1FC0134
:1047100092C081E018968C93C60177CF0E944A37E9
:104720000E944A370E944A37F7019183808393831E
:10473000828360CF70E060E079CF812C912C5401AE
:10474000A4CFA0FCA5CFDECF0E944A37812C912CAC
:104750005401BDCFA0FCBECF0E944A37DA011496A7
:104760006C9114976F7714966C93C1CF40E0CDCFC6
:10477000009709F458C0D701ED91FC9105C096014E
:104780008217930769F0F901309751F025812223B0
:10479000B1F3B8E02B02900111242E0F3F1FF0CF90
:1047A000DC0115962C91222331F0B8E02B02600138
:1047B0001124C80ED91E309751F1C114D10431F023
:1047C000C6018E1B9F0B81159C4FDCF0C114D104D8
:1047D00031F0C6018E1B9F0B893F9340A4F4C11496
:1047E000D10499F0C6018E1B9F0B959587959595E1
:1047F0008795959587958583CD2869F0F0E0E0E071
:104800001AC00E944A370E944A3780E0F4CFD7018D
:10481000CD92DC92F1CFD7011396FC93EE931297D1
:10482000F0E0E0E008C0F0E0E0E005C0F0E0E0E04B
:1048300002C0F0E0E0E09091B503309729F0848168
:1048400080788660848390834BAE5CAE6DAE7EAE26
:10485000ADACBEACEBACFCACE114F10409F48DC121
:104860008AED92E0009709F485C18C01892B21F132
:10487000F701C080D180C114D10419F1D601169678
:104880006D917C910115110599F06115710591F0FB
:10489000C8010E945837892BA1F0F6018581882331
:1048A00071F0F8E08F02C0011124C80ED91EE3CFC9
:1048B0000E944A370E944A37D12CC12C02C0D12C09
:1048C000C12CC114D10411F0F60159C1D5011296C1
:1048D0002D913C911397285F3F4F14968D919C9199
:1048E00015978217930708F4B8C00897F5019583C8
:1048F0008483009771F1D7011296ED91FC91309766
:1049000009F4B6C0009709F4ADC09C012E1B3F0B03
:10491000A901559547955595479555954795211565
:10492000BCEF3B070CF4A0C0293F33400CF09EC005
:104930004583D70113969C938E931297DC011596AD
:104940001C92159714961C92149717961C921E92FF
:104950001697009709F4B0C0AC012AED32E021159A
:10496000310509F48BC0F90101900020E9F7BF017E
:104970006B5D7240C159DE4F39832883CF56D140D9
:10498000CF58DE4F79836883C157D14061E070E032
:10499000CD58DE4F79836883C357D14066E0FE016E
:1049A000E159FE4FDE01AD53BE4F01900D926A9565
:1049B000E1F7CD53DE4F68817981C35CD140672B2D
:1049C00009F45FC00F2EF9EB8F2EF6E09F2EF02D2D
:1049D000A12C892809F459C04115510509F458C082
:1049E00066E0FE01ED53FE4FDE01A354BE4F019081
:1049F0000D926A95E1F7C354DE4F68817981CD5BF2
:104A0000D140672B09F446C00F2EF9EB8F2EF6E04C
:104A10009F2EF02DA12C892809F440C0CF53DE4FE2
:104A200068817981C15CD14061307105D9F1FA01A9
:104A3000648160686483C354DE4F68817981CD5B93
:104A4000D140DA0117967C936E93169741E0232BA1
:104A500089F1442389F1FC0192C081E018968C937E
:104A6000C60177CF0E944A370E944A370E944A37D0
:104A7000F701918380839383828360CF70E060E04D
:104A800079CF812C912C5401A4CFA0FCA5CFDECFEF
:104A90000E944A37812C912C5401BDCFA0FCBECF7F
:104AA0000E944A37DA0114966C9114976F77149626
:104AB0006C93C1CF40E0CDCF009709F458C0D70127
:104AC000ED91FC9105C096018217930769F0F901F9
:104AD000309751F025812223B1F3B8E02B029001E9
:104AE00011242E0F3F1FF0CFDC0115962C912223AD
:104AF00031F0B8E02B0260011124C80ED91E3097A6
:104B000051F1C114D10431F0C6018E1B9F0B8115E8
:104B10009C4FDCF0C114D10431F0C6018E1B9F0BF9
:104B2000893F9340A4F4C114D10499F0C6018E1BAF
:104B30009F0B9595879595958795959587958583F1
:104B4000CD2869F0F0E0E0E01AC00E944A370E94E8
:104B50004A3780E0F4CFD701CD92DC92F1CFD70174
:104B60001396FC93EE931297F0E0E0E008C0F0E0BB
:104B7000E0E005C0F0E0E0E002C0F0E0E0E020911D
:104B8000C7033091C803309761F0848180788A60D0
:104B90008483C901330FAA0BBB0B80839183A2834B
:104BA000B3834CAA5DAA6EAA7FAAAEA8BFA8ECA840
:104BB000FDA8E114F10409F48DC183EE92E00097A1
:104BC00009F485C18C01892B21F1F701C080D180C6
:104BD000C114D10419F1D60116966D917C9101157D
:104BE000110599F06115710591F0C8010E945837BF
:104BF000892BA1F0F6018581882371F0F8E08F02FE
:104C0000C0011124C80ED91EE3CF0E944A370E946A
:104C10004A37D12CC12C02C0D12CC12CC114D104D3
:104C200011F0F60159C1D50112962D913C911397BF
:104C3000285F3F4F14968D919C911597821793078B
:104C400008F4B8C00897F50195838483009771F143
:104C5000D7011296ED91FC91309709F4B6C00097F8
:104C600009F4ADC09C012E1B3F0BA901559547953A
:104C700055954795559547952115BCEF3B070CF485
:104C8000A0C0293F33400CF09EC04583D701139646
:104C90009C938E931297DC0115961C92159714968F
:104CA0001C92149717961C921E921697009709F45F
:104CB000B0C0AC0123EE32E02115310509F48BC000
:104CC000F90101900020E9F7BF01645E7240C1590B
:104CD000DE4F39832883CF56D140CF58DE4F7983BA
:104CE0006883C157D14061E070E0CD58DE4F7983D1
:104CF0006883C357D14066E0FE01E159FE4FDE01F3
:104D0000A954BE4F01900D926A95E1F7C954DE4F48
:104D100068817981C75BD140672B09F45FC00F2E92
:104D2000F9EB8F2EF6E09F2EF02DA12C892809F4A7
:104D300059C04115510509F458C066E0FE01E95417
:104D4000FE4FDE01AF54BE4F01900D926A95E1F720
:104D5000CF54DE4F68817981C15BD140672B09F464
:104D600046C00F2EF9EB8F2EF6E09F2EF02DA12CD2
:104D7000892809F440C0CB54DE4F68817981C55B36
:104D8000D14061307105D9F1FA01648160686483B2
:104D9000CF54DE4F68817981C15BD140DA0117962B
:104DA0007C936E93169741E0232B89F1442389F17C
:104DB000FC0192C081E018968C93C60177CF0E94C7
:104DC0004A370E944A370E944A37F701918380830D
:104DD0009383828360CF70E060E079CF812C912C47
:104DE0005401A4CFA0FCA5CFDECF0E944A37812C6E
:104DF000912C5401BDCFA0FCBECF0E944A37DA01EE
:104E000014966C9114976F7714966C93C1CF40E011
:104E1000CDCF009709F458C0D701ED91FC9105C0A2
:104E200096018217930769F0F901309751F02581B7
:104E30002223B1F3B8E02B02900111242E0F3F1F63
:104E4000F0CFDC0115962C91222331F0B8E02B0233
:104E500060011124C80ED91E309751F1C114D1043C
:104E600031F0C6018E1B9F0B81159C4FDCF0C114E5
:104E7000D10431F0C6018E1B9F0B893F9340A4F4EF
:104E8000C114D10499F0C6018E1B9F0B959587958F
:104E900095958795959587958583CD2869F0F0E060
:104EA000E0E01AC00E944A370E944A3780E0F4CFFF
:104EB000D701CD92DC92F1CFD7011396FC93EE93FC
:104EC0001297F0E0E0E008C0F0E0E0E005C0F0E0BC
:104ED000E0E002C0F0E0E0E02091C9033091CA03B5
:104EE000309761F0848180788A608483C901330FB0
:104EF000AA0BBB0B80839183A283B3834DA65EA6CE
:104F00006FA678AAAFA4B8A8EDA4FEA4E114F1049A
:104F100009F48DC18DEE92E0009709F485C18C01F2
:104F2000892B59F1F701C080D1800AC00E944A370D
:104F30000E944A37F8E08F02C0011124C80ED91E22
:104F4000C114D104A9F0D60116966D917C9101157A
:104F5000110561F36115710559F3C8010E945837B5
:104F6000892B31F0F60185818111E4CFD12CC12C40
:104F7000C114D10429F0F6015CC1D12CC12CF8CFA9
:104F8000D50112962D913C911397285F3F4F1496AF
:104F90008D919C9115978217930708F4B8C00897D4
:104FA000F50195838483009771F1D7011296ED91F5
:104FB000FC91309709F4B6C0009709F4ADC09C018C
:104FC0002E1B3F0BA901559547955595479555952E
:104FD00047952115BCEF3B070CF4A0C0293F334097
:104FE0000CF09EC04583D70113969C938E93129725
:104FF000DC0115961C92159714961C92149717961F
:105000001C921E921697009709F4B0C0AC012DEEC9
:1050100032E02115310509F48BC0F901019000201F
:10502000E9F7BF016E5E7240C159DE4F39832883B4
:10503000CF56D140CF58DE4F79836883C157D140D6
:1050400061E070E0CD58DE4F79836883C357D1406B
:1050500066E0FE01E159FE4FDE01A555BE4F01900D
:105060000D926A95E1F7C555DE4F68817981CB5A7B
:10507000D140672B09F45FC00F2EF9EB8F2EF6E0BD
:105080009F2EF02DA12C892809F459C041155105F6
:1050900009F458C066E0FE01E555FE4FDE01AB5550
:1050A000BE4F01900D926A95E1F7CB55DE4F6881B6
:1050B0007981C55AD140672B09F446C00F2EF9EB10
:1050C0008F2EF6E09F2EF02DA12C892809F440C0E8
:1050D000C755DE4F68817981C95AD1406130710569
:1050E000D9F1FA01648160686483CB55DE4F688131
:1050F0007981C55AD140DA0117967C936E93169741
:1051000041E0232B89F1442389F1FC0192C081E025
:1051100018968C93C60177CF0E944A370E944A376F
:105120000E944A37F701918380839383828360CF03
:1051300070E060E079CF812C912C5401A4CFA0FCC9
:10514000A5CFDECF0E944A37812C912C5401BDCFD0
:10515000A0FCBECF0E944A37DA0114966C911497D6
:105160006F7714966C93C1CF40E0CDCF009709F4D0
:1051700058C0D701ED91FC9105C0960182179307A5
:1051800069F0F901309751F025812223B1F3B8E09D
:105190002B02900111242E0F3F1FF0CFDC0115963A
:1051A0002C91222331F0B8E02B0260011124C80EAB
:1051B000D91E309751F1C114D10431F0C6018E1BB4
:1051C0009F0B81159C4FDCF0C114D10431F0C60156
:1051D0008E1B9F0B893F9340A4F4C114D10499F016
:1051E000C6018E1B9F0B95958795959587959595EF
:1051F00087958583CD2869F0F0E0E0E01AC00E9431
:105200004A370E944A3780E0F4CFD701CD92DC9232
:10521000F1CFD7011396FC93EE931297F0E0E0E004
:1052200008C0F0E0E0E005C0F0E0E0E002C0F0E03F
:10523000E0E02091C5033091C603309761F084818E
:1052400080788A608483C901330FAA0BBB0B8083EB
:105250009183A283B3834EA25FA268A679A6A8A475
:10526000B9A4EEA0FFA0E114F10409F48DC18DEF03
:1052700092E0009709F485C18C01892B21F1F70197
:10528000C080D180C114D10419F1D60116966D9158
:105290007C910115110599F06115710591F0C80116
:1052A0000E945837892BA1F0F6018581882371F07F
:1052B000F8E08F02C0011124C80ED91EE3CF0E946E
:1052C0004A370E944A37D12CC12C02C0D12CC12CA4
:1052D000C114D10411F0F60159C1D50112962D91D6
:1052E0003C911397285F3F4F14968D919C91159791
:1052F0008217930708F4B8C00897F5019583848353
:10530000009771F1D7011296ED91FC91309709F455
:10531000B6C0009709F4ADC09C012E1B3F0BA9013C
:105320005595479555954795559547952115BCEF4A
:105330003B070CF4A0C0293F33400CF09EC04583CE
:10534000D70113969C938E931297DC0115961C92AD
:10535000159714961C92149717961C921E921697E6
:10536000009709F4B0C0AC012DEF32E021153105F2
:1053700009F48BC0F90101900020E9F7BF016E5FCD
:105380007240C159DE4F39832883CF56D140CF5860
:10539000DE4F79836883C157D14061E070E0CD581A
:1053A000DE4F79836883C357D14066E0FE01E1593F
:1053B000FE4FDE01A156BE4F01900D926A95E1F7B6
:1053C000C156DE4F68817981CF59D140672B09F4EE
:1053D0005FC00F2EF9EB8F2EF6E09F2EF02DA12C43
:1053E000892809F459C04115510509F458C066E0EF
:1053F000FE01E156FE4FDE01A756BE4F01900D9211
:105400006A95E1F7C756DE4F68817981C959D14065
:10541000672B09F446C00F2EF9EB8F2EF6E09F2E76
:10542000F02DA12C892809F440C0C356DE4F6881B5
:105430007981CD59D14061307105D9F1FA0164818A
:1054400060686483C756DE4F68817981C959D1404D
:10545000DA0117967C936E93169741E0232B89F11E
:10546000442389F1FC0192C081E018968C93C60117
:1054700077CF0E944A370E944A370E944A37F70185
:10548000918380839383828360CF70E060E079CFE3
:10549000812C912C5401A4CFA0FCA5CFDECF0E947B
:1054A0004A37812C912C5401BDCFA0FCBECF0E9465
:1054B0004A37DA0114966C9114976F7714966C93AF
:1054C000C1CF40E0CDCF009709F458C0D701ED918E
:1054D000FC9105C096018217930769F0F901309796
:1054E00051F025812223B1F3B8E02B029001112461
:1054F0002E0F3F1FF0CFDC0115962C91222331F0A7
:10550000B8E02B0260011124C80ED91E309751F16A
:10551000C114D10431F0C6018E1B9F0B81159C4F25
:10552000DCF0C114D10431F0C6018E1B9F0B893F02
:105530009340A4F4C114D10499F0C6018E1B9F0BB3
:105540009595879595958795959587958583CD288C
:1055500069F0F0E0E0E01AC00E944A370E944A3742
:1055600080E0F4CFD701CD92DC92F1CFD701139632
:10557000FC93EE931297F0E0E0E008C0F0E0E0E08A
:1055800005C0F0E0E0E002C0F0E0E0E02091C303FD
:105590003091C403309761F0848180788A6084837D
:1055A000C901330FAA0BBB0B80839183A283B38302
:1055B0004F8E58A269A27AA2A9A0BAA0EF8CF8A037
:1055C000E114F10409F48DC189E093E0009709F436
:1055D00085C18C01892B21F1F701C080D180C114D4
:1055E000D10419F1D60116966D917C910115110522
:1055F00099F06115710591F0C8010E945837892B07
:10560000A1F0F6018581882371F0F8E08F02C001D6
:105610001124C80ED91EE3CF0E944A370E944A3790
:10562000D12CC12C02C0D12CC12CC114D10411F039
:10563000F60159C1D50112962D913C911397285F1F
:105640003F4F14968D919C9115978217930708F4FC
:10565000B8C00897F50195838483009771F1D7014D
:105660001296ED91FC91309709F4B6C0009709F4B9
:10567000ADC09C012E1B3F0BA90155954795559533
:105680004795559547952115BCEF3B070CF4A0C0F5
:10569000293F33400CF09EC04583D70113969C935D
:1056A0008E931297DC0115961C92159714961C92F6
:1056B000149717961C921E921697009709F4B0C083
:1056C000AC0129E033E02115310509F48BC0F90163
:1056D00001900020E9F7BF016A507340C159DE4FC5
:1056E00039832883CF56D140CF58DE4F79836883E2
:1056F000C157D14061E070E0CD58DE4F79836883B7
:10570000C357D14066E0FE01E159FE4FDE01AD56C0
:10571000BE4F01900D926A95E1F7CD56DE4F68813C
:105720007981C359D140672B09F45FC00F2EF9EB83
:105730008F2EF6E09F2EF02DA12C892809F459C058
:105740004115510509F458C066E0FE01ED56FE4FC3
:10575000DE01A357BE4F01900D926A95E1F7C35742
:10576000DE4F68817981CD58D140672B09F446C05E
:105770000F2EF9EB8F2EF6E09F2EF02DA12C89280D
:1057800009F440C0CF56DE4F68817981C159D140BC
:1057900061307105D9F1FA01648160686483C3578F
:1057A000DE4F68817981CD58D140DA0117967C931C
:1057B0006E93169741E0232B89F1442389F1FC0174
:1057C00092C081E018968C93C60177CF0E944A3729
:1057D0000E944A370E944A37F7019183808393835E
:1057E000828360CF70E060E079CF812C912C5401EE
:1057F000A4CFA0FCA5CFDECF0E944A37812C912CEC
:105800005401BDCFA0FCBECF0E944A37DA011496E6
:105810006C9114976F7714966C93C1CF40E0CDCF05
:10582000009709F458C0D701ED91FC9105C096018D
:105830008217930769F0F901309751F025812223EF
:10584000B1F3B8E02B02900111242E0F3F1FF0CFCF
:10585000DC0115962C91222331F0B8E02B02600177
:105860001124C80ED91E309751F1C114D10431F062
:10587000C6018E1B9F0B81159C4FDCF0C114D10417
:1058800031F0C6018E1B9F0B893F9340A4F4C114D5
:10589000D10499F0C6018E1B9F0B95958795959520
:1058A0008795959587958583CD2869F0F0E0E0E0B0
:1058B0001AC00E944A370E944A3780E0F4CFD701CD
:1058C000CD92DC92F1CFD7011396FC93EE93129711
:1058D000F0E0E0E008C0F0E0E0E005C0F0E0E0E08B
:1058E00002C0F0E0E0E02091C1033091C2033097A4
:1058F00061F0848180788A608483C901330FAA0BA8
:10590000BB0B80839183A283B383488E598E6A8EAA
:105910007B8E4A8D5B8D888D998D009781F120E07B
:1059200065E173E00E94051AFC012091BF033091EC
:10593000C003309761F0948190789A609483C90194
:10594000330FAA0BBB0B80839183A283B383498A55
:105950005A8A6B8A7C8ACB88DC88A988BA88A11489
:10596000B10409F4C3C181E293E0009709F4BBC11B
:105970007C01892B79F1F501008111810DC0F0E0E6
:10598000E0E0D3CF0E944A370E944A37F8E08F0206
:10599000C0011124080F191F01151105A9F0D80124
:1059A00016966D917C91E114F10461F36115710516
:1059B00059F3C7010E945837892B31F0F8018581CE
:1059C0008111E4CF10E000E00115110531F0302F16
:1059D000212F8EC110E000E0F7CFD60112962D9155
:1059E0003C911397285F3F4F14968D919C9115978A
:1059F0008217930708F4D6C00897F601958384832D
:105A0000009771F1D5011296ED91FC91309709F450
:105A1000D4C0009709F4CBC09C012E1B3F0BA901F9
:105A20005595479555954795559547952115BCEF43
:105A30003B070CF4BEC0293F33400CF0BCC045838B
:105A4000D50113969C938E931297DC0115961C92A8
:105A5000159714961C92149717961C921E921697DF
:105A6000009709F4E2C07C0121E233E02115310501
:105A700009F4A9C0F90101900020E9F7BF016252C1
:105A80007340C159DE4F39832883CF56D140CF5858
:105A9000DE4F79836883C157D14061E070E0CD5813
:105AA000DE4F79836883C357D14066E0FE01E15938
:105AB000FE4FDE01A957BE4F01900D926A95E1F7A6
:105AC000C957DE4F68817981C758D140672B09F4E7
:105AD0007DC049EB56E0CA5FDD4F59834883C6500D
